:020000040800F2
:100000000004002029270108BF940008911101086D
:10001000A1270108A1270108A1270108000000006D
:10002000000000000000000000000000BD94000877
:10003000BB94000800000000B9940008B3810008D8
:10004000A1270108A1270108A1270108A12701086C
:10005000A1270108A1270108A1270108A12701085C
:10006000A1270108A1270108A1270108A12701084C
:10007000A1270108A1270108F1E40008A127010830
:10008000A1270108A1270108A1270108A12701082C
:10009000A1270108A1270108A1270108C1810008A3
:1000A000A56B0008A1270108A1270108A1270108C5
:1000B00035E2000827E20008A1270108BF3900083F
:1000C000C3390008B9390008BD390008A127010863
:1000D000A127010889E50008A1270108E9E4000833
:1000E000C7810008A1270108C1940008A1270108C1
:1000F000B56B0008A1270108C56B0008A1270108FE
:10010000A1270108A1270108D56B0008A127010834
:10011000A1270108A1270108A1270108A12701089B
:10012000A1270108A1270108A1270108A12701088B
:10013000A1270108A1270108A1270108A12701087B
:10014000A1270108A1270108A1270108E98F0008BC
:10015000A127010865E4000891E500085BE40008B8
:10016000A1270108A1270108A1270108A12701084B
:10017000A1270108A1270108A1270108A12701083B
:10018000A1270108A12701082DE9F04FA24C2378EF
:100190000A2B9CBFA14A34212DED108B98BF01FB87
:1001A00003238FB094BF9E6A00269D4D08A8EB687C
:1001B00098479DF8203023B123780A2B0DD90023CE
:1001C00010E007F0C5FF974B1B68F31A1844964BD5
:1001D0001B6864339842E8D3EEE7904A342101FB70
:1001E00003239B6A914ADFED92AA924C924E9BB2F6
:1001F00007EE903AB8EE670A138060EE2A0A8F4B3A
:1002000020460121C3ED000A0BF0F6FBFCEEC07A9C
:10021000894817EE903A23816B68984748B9884B14
:10022000884F1A6812F0020F984640F0CB8000F019
:1002300011BCD4F80CE0B51E0022834802F1100373
:1002400000EB020C034461460EF1FF37002031F849
:10025000028F21F8028C17F9019F994218FB0900BF
:10026000F5D135F8023FACF810309EF90810123283
:10027000362A13FB01034FF4807193FBF1F32B80BB
:10028000DBD16D48714F94F846206A4D014607F066
:100290009FF93B8805F1940A002B6BD0AB6C1B785F
:1002A00008EE103A05F14C084FF00009583539882E
:1002B000B1F57A7F02BF0023C8F800302B61D8F86F
:1002C000002036F919301A4407EE903A2B69C8F825
:1002D00000200133012B4FEA490BF8EEE77A2B613E
:1002E00006D10023C5ED017AC5ED007AAB601BE0B5
:1002F000D5ED006A07EE103A37EEE66AB8EEC77A37
:1003000086EE077A36EE877AD5ED026A85ED017AB8
:1003100077EEC77A85ED007AE6EE276AF0EE667A28
:10032000C5ED036AC5ED026A0023012926F80B30EA
:100330002AF80B302AD12B69012BC3BF03F1FF33FD
:1003400000EE103AD5ED037A9FED410AC4BFB8EE36
:10035000C00A87EE800A14F03BFC18EE103A5BB13D
:10036000F8EEC87AB4EEE70AF1EE10FA04DD4FF4C5
:100370007A733B8000231AE0D8F800304FF47A7289
:1003800003F5FA7393FBF2F32AF80B3009F1010934
:10039000B9F1030F08F1040805F1140587D1388875
:1003A000012801D107F030FF3B88013BE1E736F837
:1003B00013203AF81310521A26F813200133032B96
:1003C000F5D12CE7234B1B78002B00F0438307F07B
:1003D000BFFED4F89C30C4F89C00C31A0FEE903ACC
:1003E0000025D4F8A0A0DFF874909AF80010B9B3F3
:1003F00037F91530184800EE103AF8EE6F0AB8EEEB
:10040000C00A00EBC50060EEAA0A0BF0F5FAFDEE9B
:10041000C07A17EE903A25E089070020DC0400201E
:10042000681F0020D42A0020540F0020E40E002072
:10043000BD3786352C0A00201C0F0020901E00209E
:10044000E80E0020C83E00203C0A0020023F0020A9
:1004500000000000F83E0020D00A0020160F002007
:1004600037F8153029F815300135032DB9D1D8F8F2
:100470000030BD4A13F0080F08D0B2F9001029B1BE
:10048000B2F9021011B1B2F9041091BBB749097861
:1004900001F0100000F0FF0580B313F020052DD00F
:1004A00001F0020303F0FF0543B3B14B1B78042BAB
:1004B00023D9B04B1B88B3F5967F1ED3AE4BB3F94F
:1004C000043007EE903AAD4B1B88B8EEE77A07EEA2
:1004D000903AF8EEE77AB2EE048A87EE888A012530
:1004E0004FF0000B77EE487A9FEDA58A27EE888AB9
:1004F00007E000254FF0010B01E00025AB469FED22
:10050000A18AB6F90030B2F80080978808EE903AD8
:10051000B6F90230F8EE6F7A09EE903A67EEAAAAC1
:10052000F8EEE99AD4ED2F7AB6F90430568869EEE0
:10053000A79AF8EEE88A09EE103A68EEA78A29EE43
:10054000A90AB9F90030B8EEC99AA8EEA80A0CEECB
:10055000103AB9F9023029EE279A0CEE903AB9F91F
:100560000430A9EE090A0DEE103A14F031FBB8EE92
:10057000CCCAF8EEECCAB8EECDDAB0EE40EA15B36C
:10058000DFED817AB4EEE78AF1EE10FA04DDDFEDFB
:100590007F7A38EE678AF3E7DFED7D7AB4EEE78A9B
:1005A000F1EE10FA04D5DFED797A38EE278AF3E719
:1005B000B6EE000A28EE000A0BF0E1FB9FED71BADF
:1005C00030EE0BBA01E09FED6FBA9FED6EAADFED42
:1005D00071DA714DF7EE00BABBF1000F53D00FFA8C
:1005E00088F807EE908A33B2B8EEE7FA08EE103AD0
:1005F0002FEE0F0AB8EEC88A3FB207EE907AA8EE47
:10060000080AF8EEE7EAAEEEAE0AB4EEED0AF1EE55
:1006100010FA38DD14F0DCFA8BEE800AD5ED017AA1
:1006200095ED007A28EE008A2FEE00FA68EE277A20
:100630006EEE80EAE7EE0F7A95ED040A95ED027A08
:1006400028EE008AE7EE2E7A95ED037AA7EE0F8A60
:1006500095ED057AA7EE2E8A28EE080AA7EEA70ADE
:1006600014F0B6FAD5ED067A20EE480AB0EE4A8AC2
:10067000A7EE808AD5ED077AA7EE80AAD5ED087A95
:10068000A7EE80BA01E0B0EE4A8A2CEEAC0AACEEDE
:100690000C0AADEE0D0AB4EEED0AF1EE10FA21DD12
:1006A00014F096FA8BEE800AD5ED076A95ED087A7C
:1006B0002DEE00DA6CEE80CA66EECD7A2CEE00CA22
:1006C000ECEE877A27EE4C7A38EE278AD5ED067A5B
:1006D000ADEE277A67EEEC7A3AEE07AAECEE267AD0
:1006E0003BEE27BADAED017AF5EEC07AF1EE10FAB8
:1006F0004FF000031FDD9FED297AB4EEC7EAF1EE5B
:1007000010FA1ED567EE886A94ED307AA6EEAA7AC2
:1007100067EE8A6A84ED307A94ED317AA6EEAA7A91
:1007200067EE8B7A84ED317A94ED327AA7EEAA7A6D
:1007300084ED327A05E0C4F8C030C4F8C430C4F89F
:10074000C830174EDAED027A337859072CD4154B9E
:100750001A6844F61F639A42F7EE006AB2EE047A12
:1007600088BFB0EE667A21E0D80F0020600F00202D
:10077000610F00206E0F00203A0F0020700F002044
:1007800035FA8E3C00000000DB0F4940DB0FC9400A
:10079000DB0F49C00AD7233CA4200020C2B8B23ED8
:1007A000043F00204C2F0020B7EE007A27EE877A16
:1007B000D4ED307ADFF84C83C44AD8ED005ADFF824
:1007C00048B392ED005AC24F0592E7EE087A97EDD2
:1007D000006A9FEDC08A78EEA78AD4ED317AE7EE01
:1007E0000A7A79EEA79AD4ED327AE7EE0B7AB1EE77
:1007F000467A39EE279AF6EE007A6AEEA77A69EE23
:10080000A79A29EE279A69EEE56A25EE890A68EE2D
:10081000A78ADBED007AA5EE280AE7EEE86AA7EEE4
:10082000290AE7EE096A29EE677A37EE800AA5EE13
:10083000297A67EEA97A75EE266AA6EE287AE5EEA1
:10084000097A8BED000A20EE000A35EE877AA6EED3
:10085000A60AE5EEE87AA7EE070A76EE277AC2ED59
:10086000006AA7EEA70A88ED007AC7ED007A14F0B7
:10087000AFF98BEE800A059AD2ED007AD7ED00BA77
:1008800067EE807AC2ED007ADBED007A67EE807A5F
:10089000CBED007AD8ED007A67EE807A2BEE800AF5
:1008A000C8ED007A87ED000A0AF092FFD5ED080A3C
:1008B00095ED070A884F13F0E7FF20EE080A13F0C2
:1008C0003FFF95ED060A3880B1EE400A13F07EFF37
:1008D000DFED827A37EEC00A20EE080A13F030FF0F
:1008E000D5ED000A95ED030A788013F0CDFFD4ED25
:1008F000337AE0EE487AB0EE670A13F021FF83B254
:100900001A0458BFBB80D5ED085A754BD4ED347A24
:100910001A7895ED010A95ED065AF4EEE75A44BFB0
:1009200000F56160B880F1EE10FACCBF42F0080229
:1009300022F008021A70B9F90030D5ED007A06EEFF
:10094000103AB9F9023007EE103AB8EEC77AB8EEAD
:10095000C66AB9F9043027EE000A06EE903AA7EE0F
:10096000860A9AF80130F8EEE66AD5ED027AA7EE2B
:10097000A60A012BD5ED077A67EE277AE5EE067A0F
:10098000E5EEA67AD5ED045A27EE257AD5ED035A81
:10099000A5EE867A95ED056AA6EE267AF1EE478AEF
:1009A00018D133785D070FD4D4F8D430402293FBAC
:1009B000F2F29B1A07EE103AB8EEC77A37EE277AB2
:1009C000BDEEC77A84ED357AD4F8D430402293FB5B
:1009D000F2F301E0434B1B8894ED368A07EE103AA0
:1009E000B8EEC77A77EEC77A94ED377A3AEE877A1F
:1009F00077EEC87ACAEE87AAAAEEA78A84ED368A6D
:100A000013F09EFED4F8E050374C29780BF0A8F98B
:100A10002368B0EE680A1844206013F091FE29782C
:100A20000BF09EF96368B0EE480A1844606013F05A
:100A300087FE69780BF094F9A3682C4A18441FEEDE
:100A4000901A1368A06019441160294A1368013391
:100A5000136003E000233B807B80BB80254BB3F910
:100A60000610254BD3F800E0BEF80A2091420FDBB8
:100A7000B1F5FA6F9EF80750BDBF8B1A6B43A2F514
:100A8000FA65C5F16405BCBF93FBF5F5643500E07C
:100A900064251A4B1A4AB3F824C193F9EE30126850
:100AA00005929BB2164606930022124B33F9128030
:100AB000CCEB080303F2F31440F2E63084424FEA31
:100AC000420923D8002BB8BF5B4221E0B8040020C4
:100AD000A02000204C3D0F443A0F0020DB0FC93FFF
:100AE000600F002004040020F02A0020203F002096
:100AF000EC2A0020A03B0020580F002000360020E8
:100B00005C0F00209C200020982000204FF4FA73F6
:100B1000022A059C4FF064002AD094F811411CB1C0
:100B2000A342CCBF1B1B0023BC4C93FBF0F76FF020
:100B3000630B34F817A00BFB073B013734F9174060
:100B40000FFA8AF7E41BB64F04FB0BF494FBF0F4A6
:100B5000544427F809400EEB020424796343B14C56
:100B600093FBF4F364339BB26B4393FBF0F02CE004
:100B700094F812411CB1A342CCBF1B1B0023AA4C0A
:100B800093FBF0F06FF0630A0AFB003B04EB4007B5
:100B900004EB4000B7F9E470B0F9E600C01B00FBBD
:100BA0000BFBBDF818009BFBFAFBC7EB0B0717FB11
:100BB00000F79B4887809EF80600002BB8BF5B4279
:100BC0004343984893FBF0F064307478974B642764
:100BD000444394FBF7F49C5403F1030AF47A44432E
:100BE00094FBF7F40AF802400633747D022A00FBF6
:100BF00004F08B4C90FBF7F098548D4B0ED1E045F0
:100C00009F700EDB8B4BB3F8262191429B4614DB81
:100C1000B1F5FA6FA8BF4FF4FA610FE0E0459D54BB
:100C200004DA34F809305B4224F809300132032A2F
:100C300006F101067FF439AFE4E711467E4F784EA6
:100C4000891A4FF47A736FF063055943C2F5FA625B
:100C50006423B1FBF2F191FBF3F237F8120005FBCC
:100C60000211013205B237F91220521B514391FB98
:100C7000F3F30344E380714B6B4D1B8813F0400F7B
:100C800039D06F4BDFED6F7AB3F904300A2293FB52
:100C9000F2F3B5F8FC209B1A1BB208EE103AB8EE3E
:100CA000C88A28EE278AB0EE480A0BF0C9F8F0EEA1
:100CB000408AB0EE480A0BF062F8B6F9023006EE50
:100CC000903AB6F90030F8EEE66A07EE903A20EE78
:100CD000667AF8EEE77AA7EEA87A67EE807ABDEE3C
:100CE000C77AE6EEA87A17EE103AFDEEE77A33807F
:100CF00017EE903A73809BF82A31002B51D02A8945
:100D0000B5F8FE00B0FBF2F04F4A474B1278461C94
:100D1000B6B2A5F8006112B3B3F802910023424FB6
:100D200034F813C007F5867E07F582783EF8132065
:100D300038F813102EF813C0C2EB0C0A11FB09F19E
:100D400032B291FBF2F2524428F813200133042B03
:100D5000E5D13D4BA7F8020100221A7004E0B3F878
:100D60000221013AA3F802212F4AB2F8020103B28C
:100D7000002B4FF0000312DDB2F90061334931F866
:100D80001320083112FB00F231F8131092FBF6F237
:100D90008A1A24F813200133042BEFD101E0A2F8C2
:100DA00002312B4BDFF8C8901A78DFF8C88012F0B8
:100DB000040F03D0274B40225A836CE0D8F8001070
:100DC000C8075CBF42F001021A70234A127811076B
:100DD00058BF1A7821495CBF22F001021A70D9F875
:100DE000002012F0040F02D01D48008870B91D4881
:100DF000008808B1920709D41B4A1288003218BF34
:100E000001221AB919480088642835D902220A70CB
:100E10001A7822F001021A7034E000BF6E1400202C
:100E20007C1E00200CFEFFFF2C0A00201E0B002061
:100E3000841E00200036002056140020EC0E0020F6
:100E40003A0F002035FA8E3C200E0020300B002097
:100E5000043F002000040240600F0020C03E00203C
:100E60001C3F0020500D0020023F0020A829002038
:100E7000E80E0020F00E00201B78DF0756BF02238B
:100E80000A700B7007F064F9A34B1B68C01A0028A6
:100E900001DB10F0A5FAA14B9B680BB1A048984765
:100EA000A04BA14F01211970D9F8003013F0140F95
:100EB0006FD09E4B1B8803F40273002B69D09C4BB0
:100EC0001B7803F0100303F0FF064BB1994B9BF91D
:100ED0007621B3F90010638801FB0233638058E088
:100EE000D7F81821944BD078DFF88CE2927810B3C1
:100EF000BEF90000B3F906E0C0EB0E03002BB8BF4B
:100F00005B4293420ADD8D4B87F81C1186451E60BB
:100F1000C8BF5242E38892B21A4439E097F81C31B4
:100F20002BB1874B87F81C611A68864B1A60814B7E
:100F30001B68034422E0BEF90060B3F906309B1B36
:100F400083EAE37EAEEBE37E964509DD022293FB66
:100F5000F2F37D4A87F81C1113607C4B19700AE08C
:100F600097F81C313BB1764B87F81C011A68754B1A
:100F70001A60764B18706F4B1B683344D7F82011FA
:100F80000A884988934203DB8B42A8BF0B461A4666
:100F9000E2806F4B1B7843B1674BB3F90620BBF877
:100FA00026319A42DCBF0023A3806A4E059633683F
:100FB00093F818A1BAF1000F32D05C4B1B889E0742
:100FC0002ED0654BDFED657A93ED080AB4EEE70AA3
:100FD000F1EE10FA20D913F0F9FBD5ED497A20EEA5
:100FE000270A13F0ADFBB0F5617FA8BF4FF4617025
:100FF00007EE900AB8EEE70ADFED597A80EE270A8D
:101000000AF0BDFE07EE90AAF8EEE77A27EE800A16
:1010100013F096FB80B200E00020E3881844E080E3
:10102000D9F80030980640F1CF80404B1B8803F080
:101030003003002B00F0C8803D4B1B78D90740F1EE
:10104000C380484BDFED487AB3F90430DFF82C91C8
:101050000A2293FBF2F308EE103AB8EEC88A28EEA3
:10106000278AB0EE480A0AF08AFEF0EE408AB0EE17
:10107000480A0AF0E5FE3D4B3D4A1B6893F803A081
:10108000B0EE409AB2EE048ABAF1000F78D0394E31
:10109000B2F90200758806922BB2C01A05F0D0FA98
:1010A000CAF100039842069A03DB5045A8BF504698
:1010B00000E0184628443588079381B2B2F9000051
:1010C00071802AB2801A069105F0BAFA079B069938
:1010D000984203DB50450346A8BF53461D44ADB2BA
:1010E00035802DB207EE105A0BB207EE903AB8EEEB
:1010F000C70AF8EEE77A28EEC07A20EE090AA7EED2
:10110000897AA7EEA80A87EE087ABDEEC77A17EEAD
:10111000103AA9F800304FE0C43E0020681F0020BC
:10112000400B0020210E00202C0A0020EC0E002095
:10113000600F0020142B0020A03B0020102B00206B
:10114000400F0020880F0020243F0020182B002093
:10115000020400205C0F0020A42000208FC2753CF8
:10116000EFB6B0443A0F002035FA8E3C980D0020BF
:101170001C0E0020180E0020220E0020143F00201C
:10118000B2F9023007EE103AB2F9003000EE103A30
:10119000B8EEC00AB8EEC77A68EEC07A20EE090A47
:1011A000E7EE097AA7EE280AC7EE887AFDEEE77A1D
:1011B00017EE903AA9F8003080EE080AFDEEC07AEA
:1011C00017EE903AA9F80230059BBBF8FA20186890
:1011D000C34B0093C34BC44E1D68C44B196800F148
:1011E0005803A8473078C24B032818D9D7F82821CC
:1011F000B2F802E0BEF5FA7F11D2B4F90450B3F9A7
:1012000004C0002DB8BF6D42CEF100014A1B9445C9
:1012100004DB0EEB05026245A8BF62469A80D8F84F
:101220000020120105D4B34A116841F21D020A40A0
:101230006AB1D7F8282105920021B3F802C0B3F8AB
:101240000080B3F904A0AC4D0A460F4679E0AB49E3
:10125000E4880A705D88B3F800E0D7F82871B3F924
:1012600004C0A749824201F1100180F0D98097F9AA
:10127000003051ED045ADFF890825B420CFB03F31F
:1012800007EE903A0FFA8EF306EE903A23B206EE8E
:10129000103A2BB2B8EEE77A07EE903AF8EEE77A1A
:1012A000B8EEC66A67EEA57A51ED065AE6EE257AE3
:1012B000F8EEE66A11ED056AE6EE867A51ED036A0C
:1012C000E7EE267AFDEEE77A17EE903A28F812302C
:1012D0000132C7E7059B95ED016A93F900305B4247
:1012E0000AFB03F307EE903A0FFA8CF306EE903AFE
:1012F0000FFA88F3B8EEE77A07EE903AF8EEE77A5D
:10130000F8EEE66A67EE867A95ED026AE6EE867A90
:101310000DF1200E0FFA82F9D5ED036AE7EE267A79
:10132000FDEEE77ACDED067ABDF818302EF81730CD
:101330000FFA83FECE4507DD1A460B4601371035FE
:1013400019468742C6D305E00FFA81F9CE45F5DB91
:101350001346F1E76B4B1B685F881D88C5EB070ED2
:10136000521A1FFA8EFE0FFA8EF312B29A42634996
:101370004FF0000314DD4FF0010C81F800C08342F0
:101380000BD20DF1200C3CF8131011FB0EF191FB68
:10139000F2F12CF813100133F1E7ADB2BAB207E065
:1013A0000B70022192FBF1F10D447A1AADB292B2A8
:1013B000E4880021814233D208AB33F9113007EEC3
:1013C000903A23B206EE903A4B4B03EB0113B8EE82
:1013D000E77AF8EEE66AD3ED007A2BB266EEA76AFA
:1013E00007EE903AF8EEE77AF4EEE76AF1EE10FADB
:1013F0000BD413B207EE903AF8EEE77AF4EEE76A10
:10140000F1EE10FAD8BFF0EE667A77EE277A3E4F0B
:10141000FDEEE77A17EE903A27F811300131C9E76F
:101420003A4B31491A7802F0040202F0FF030AB97C
:101430000A7877E0364B2F4DDB780593354B1868EB
:1014400010F000601DD12A6841F21D031340B3B9AA
:101450002D4A0F7813880124BC4219B207D232F901
:1014600014309942B8BF19468BB20134F4E7254ACB
:1014700012685288914204DD9A1A92B202E0024642
:1014800000E0002224492B68B1F90640234996F870
:1014900000E0D1F8EC71224941F21D0C03EA0C0C7A
:1014A00003F480580D68174903F010030693164B98
:1014B000096803EB4E0E73450AD0002840F00882FD
:1014C000BCF1000F40F019821E88B61A1E8014E28B
:1014D000124C94F8F0317BB30AF0E2F82CE000BF34
:1014E0001637002080070020C41F0020580F00205E
:1014F000AC1E00209C3B0020580B0020183F002011
:10150000600B002094200020220F0020043F0020C8
:101510009C3E0020F00E0020A03B00202C0A002062
:10152000902000209342D3D2AB4931F81300AB494D
:1015300021F813000133F5E7A94B1878002840F093
:101540000D82A84D2B681E0340F1088294F8F131FA
:10155000023B052B1FD89BF8503533B1012B0AD124
:1015600005F09AF9C0F17F0005E09F4BD3F8F40134
:1015700003689B689847D4F8F83194F8FC21134429
:10158000B3F5807FA8BF4FF480738342D4BFC4F803
:10159000F831C4F8F80194F8F131023B082B00F25D
:1015A0008F81DFE813F009003F00610077009000B1
:1015B000A200530171017E018C4B1A68D4F80432E9
:1015C00064339A4240F27C8140200DF047FB0028B2
:1015D00040F076814027864BD4F80022824E985CFA
:1015E0001D4670B103F05AFFD6F8F831013BC6F83A
:1015F000F831D6F80032013F03F10103C6F800329A
:10160000E9D1D4F80022784BAA5C002A40F0588136
:10161000C3F800224FF0FF32C3F80422032283F8FC
:10162000F1214DE125230093724B019303F10C024C
:1016300002924920A3F10A025021023304F0ECFA8D
:10164000002840F03D812B6813F080034FF0FF32FB
:1016500005D0C4F80002C4F804220423B8E0C4F89A
:101660000032C4F804222CE0634A022300210093D4
:1016700001910291482002F1080304F0CDFA0028FC
:1016800040F01E814FF0FF33C4F80432C4F800026A
:1016900005239DE007230093584B019303F10C02AF
:1016A00002924720A3F108020021043304F0B4FAA7
:1016B000002840F005814FF0FF33C4F80002C4F861
:1016C0000432062384E04E4A052300210093019151
:1016D0000291532002F1080304F09EFA002840F022
:1016E000EF80C4F80002072372E040200DF0B6FA44
:1016F000002840F0E580D4F800320C2B5FD8DFE8FA
:1017000003F0070B0E121823272B2F33404A4E00ED
:101710003C480DF025FC4CE03B483C4911E03C487E
:101720003C493D4A43E03D489BF84E159BF84F2508
:101730003DE09BF828353A480C2202FB03B393F8AE
:101740002A150DF00DFC34E03648BBF8D010F8E750
:101750003548BBF8D210F4E7344B35481969F0E747
:10176000344B35481988ECE7D4F80832D80403D54F
:1017700032489BF80811E4E71B4B0B22C3F8002208
:1017800017E02F489BF80C119BF80D219BF80B31AB
:101790000DF0E6FB0DE02B48B4F80C12D1E72B68F6
:1017A000190506D52848BBF81011BBF90E210DF01C
:1017B000D7FBD4F800320133C4F8003280E00DF0DA
:1017C000ADFA00287CD04FF48053A4F80E320923E0
:1017D00084F8F13174E000BF82290020220F00203C
:1017E0001A3F00209C3B00202C0A00204C2F002098
:1017F000E05B01084A5C0108FC5D0108145E010819
:10180000605E0108307401084A7401085F740108C1
:10181000677401087B7401088774010890740108DB
:10182000A1740108AB740108BA740108681F002094
:10183000C974010804040020D9740108E374010884
:10184000F07401080975010814750108464B1B68FE
:101850009A0116D5B4F81032444D93B9D5F8143224
:101860000893434B0E201B68099308A903F000FF5F
:101870004FF48053A5F80E32092385F8F13103F0B7
:101880004FFF03F0D7FE1BE094F81832002BF6D080
:10189000354B1B689B01F2D4344B082283F8F121AD
:1018A000EFE7344B1A68D4F80432C8339A4203D9AC
:1018B0000DF01AFA01238BE70DF030FA0028F7D16A
:1018C0000DF0FCF9002849D0012384F8F13145E0FE
:1018D000B8F1000F14D0FE89B3F90090B442CBBF29
:1018E0006E888E88B1F802A0B5F800A0B14523DB60
:1018F000D1454E46A8BF56461EE0B8F1000F1ED196
:10190000059EB1F80290B3F900A03EB18E88B245B1
:1019100012DBCA455646A8BF4E460DE00E88B245BA
:1019200003DBCA455646A8BF4E461E803E8AB442D7
:1019300003DA069E0EB18E881E800233BBE5B7F82F
:101940000E90EE88C6EB090A5445C4DD4E44B442FD
:10195000C1DA4C45CCBF6E882E88EDE70FB0BDECE8
:10196000108BBDE8F08F00BFF00E00202C0A002085
:10197000D42A00204C2F00202DE9F04FA249A34C7F
:101980000A6802F59C432DED028B20332360A04BA7
:1019900087B01E780091C6B19E4909688A4240F21C
:1019A0000581013E1E7001E1D9F800309A48072DEB
:1019B00098BF595D994B88BF29461B689847032DEE
:1019C0000CD904EB45050136A880934BDFF87092E3
:1019D0001A78F5B2AA421946E6D820E0D9F80020D4
:1019E00005F10E0302EB8303D9881A890028E8D099
:1019F0004FF47A73401A5843531A90FBF3F040F6B1
:101A0000C90300F57A70984205DC40F2EE23984253
:101A1000B8BF184601E040F6CA0080B2D1E7804B5B
:101A20001B6842F2010803EA08087E4BB8FA88F8FE
:101A30004FEA58181B68B8F1000F06D194F8292016
:101A400084F82820784A5078107094F828701FB1D4
:101A5000754A177887F0010794F82BB091F800A029
:101A60000F220326BBFBF6F606EB460684F82A2077
:101A7000C6EB0B06D9F80020DFF8CC91F6B20025B2
:101A8000554559DA4FEA450C1FB1684931F8150040
:101A900000E03846D18ADFF8B4E1814202D8118BE8
:101AA00081421ED25EF825005849834203D2604924
:101AB00031F80C0019E0E8B20292019303910FF0A3
:101AC00039FC032D019B029A0FDC03994FF0010CA6
:101AD00091F82AE00CFA05FC2EEA0C0E81F82AE0B7
:101AE00003E003F596714EF82510B8F1000F1CD1F4
:101AF00094F8BC1029F8160031B9BBF1020F14D9C3
:101B00004249012081F8BC00B9F80210B9F8000080
:101B10000844B9F804100844464980B221F8150079
:101B200000B2032190FBF1F080B2414909F10609AE
:101B300021F815000135A3E794F82A2039493E4BD6
:101B4000A2F10F0EDEF1000242EB0E0284F8D62065
:101B50006AB13A4A1268570109D40A68D9689A608A
:101B6000521AC82A1DD9012283F8212019E02E4AD1
:101B70000120507010700A689968DA605B68521A28
:101B80009A4282BF2C4B002283F821200025554524
:101B900007DAE8B20FF0CEFB254B23F8150001352C
:101BA000F5E794F82B30013384F82B301C4B1A687E
:101BB00012F4805F984605D0204B1B68DE0701D4E5
:101BC0000FF0B0FA009B19681D4B1F68BB7A002B01
:101BD0003ED0013B16483A7B30F813301AB1C3F5BA
:101BE0003B6308339BB21BB2A3F57A73B3F57A7FDC
:101BF000A8BF4FF47A7323EAE37307EE903A9FEDA0
:101C0000117AF8EEE77A5CE0D42A0020480C002034
:101C1000983E0020943E0020603B00201C070020DE
:101C20009C3B00204C2F0020000400204C0C002086
:101C3000A03B0020060D00209C3E0020F00E00205E
:101C4000903E002000007A44740C0020BC0C002060
:101C5000D8F80020150440D5D4F8D800934E081ABF
:101C600000283ADB924A01F59C402030C6F8D800A3
:101C70005079904A32F81050A8B2FD7A90FBF5F5F1
:101C800096F8DC00013000F00F0286F8DC203244C8
:101C900082F8DD501A468848185C01330244102B44
:101CA00092B2F8D112B292FBF3F31BB2642BA8BF2D
:101CB000642323EAE37307EE903A9FED807AF8EE0F
:101CC000E77AC7EE877A7E4A9FED7E7A67EE877A5B
:101CD000FCEEE77A17EE903A1380D8F800307A4D90
:101CE00013F4807F00F00981784BDFF8E49199428A
:101CF00005D999F8022012B9012289F8022099F831
:101D00000220002A00F0F980714A2F7892F82160B1
:101D1000704A701E464211684641002EC1F380632E
:101D2000C7F380070093924614BF4FF0000B4FF0AB
:101D3000030B99F82020052A00F2D980DFE802F091
:101D4000034D527584A1002F3AD0D4F8F000B4F8B6
:101D5000F41006F0B8F9012809D15F495F4A096813
:101D60001268C988642000FB0122C9F81020009B7A
:101D70006BB1594A126812794AB10FF0DDFC0322A7
:101D800089F820204FF47A72C9F81C20D1E7002E80
:101D900040F0AD80514AD9F8101010684C4A884282
:101DA0000AD901920FF0C8FC019A032182F8201091
:101DB00040F6B831D161BCE7012182F82010B8E7C4
:101DC000009B4FF4806013B10AF052F801E00AF072
:101DD0003FF80022C9F8102089E0002E46D10FF00C
:101DE000ABFCA6E726B1052289F82020012000E0FF
:101DF000304667B1D4F8F020D189394A118051803A
:101E00009180354909684988D1804FF0020B334AE7
:101E10001168D9F81420914201D8002F64D147F2FB
:101E20003052C9F81C20032221E02A7842F0020235
:101E30002A700FF077F9294AD9F81C1012680A4461
:101E4000C9F81820042212E0244A9EB11168D9F87A
:101E5000182091424BD9234A92781AB9DAF8002017
:101E6000D10744D42A7822F002022A70052289F888
:101E700020205EE71268D9F81C100A44C9F818201F
:101E800035E01549154A09681268C988642000FBC5
:101E90000122C9F810204FF48060002289F8202028
:101EA00089F8032009F0D4FF43E700BF480C002065
:101EB0005C1300206C130020250D00200000C84298
:101EC0004C0F002000C07F44043F0020404B4C00DA
:101ED0009C3E0020F00E0020FC3E00204C2F0020F5
:101EE000A03B00200004002000287FF422AFBBF1BB
:101EF000000F02D0584606F087F9A14E06F58B7008
:101F0000B6F8DE1006F0DFF8814600282ED19D4B92
:101F10009D4F1B6813F0006A08D0FB7833B90EF0B0
:101F20005FFB9A4B012818BF002018702B785A07C6
:101F300009D5D8F80030DB0605D4BAF1000F02D07D
:101F4000FB78002B2FD0924A0023136053609360DC
:101F5000904A00211160516091608F4A126802F529
:101F60007A72C4F8F8200122FA701AE0D8F800302A
:101F7000DF0618D42B78580715D5824B1B6819013A
:101F800011D5814FFB7863B1834B1A68D4F8F830D0
:101F90009A4208D90EF024FB28B97C4BF8701870CF
:101FA00001E07A4A13702B785A0736D5D8F80030FA
:101FB000DB0632D5794B1B78DF062ED4724B9B782B
:101FC00093B196F87031B9F1000F15D17BB1724B16
:101FD0001A68D4F8FC309B1A002B08DA0FF0A2F82C
:101FE0006F4B83F8009118E0B9F1000F0DD110206C
:101FF00006F00AF901230EE03BB1674A12684FF47C
:102000007A7101FB0323C4F8FC3094F8003123B14A
:1020100006F0E2F8002384F80031002296F86EB151
:1020200096F86F11B6F826E1B6F828C113465D4858
:10203000009030F912709B087745C4BF63F07F03AE
:10204000DBB201326745B8BF43F04003042AEED14A
:1020500094F8012152489A4205D190F80221F92AB8
:1020600004D8013200E0002280F80221464884F8BA
:10207000013183784A4A434F82462BBB3868C007F8
:102080000AD582F80331B9F1000F1DD12B78DB0797
:102090001AD50EF08DFE17E02B78580714D592F85C
:1020A00028308BB1404BDB7873B992F803310133A0
:1020B000DBB2032B82F8033106D911B10FF032F8ED
:1020C00002E0B9F1000FF9D094F80231344ADFF898
:1020D000E890142B40F0A9809AF802301BF1000B15
:1020E00018BF4FF0010B6BB392F801315F2B11D188
:1020F0002B7803F0040303F0FF0113B10FF012F883
:1021000008E00B200291019206F07EF8019A0299F4
:1021100082F80211BBF1000F14D094F801317D2B2D
:1021200010D12B7803F0040303F0FF0213B10EF07B
:10213000F9FF07E00B20019206F066F8184B019AB0
:1021400083F802212B7803F0040303F0FF01002B36
:102150006BD194F80131124A572B2FD1134B4FF406
:102160007A721A80D8F800301A0601D504F026FBDE
:102170000F4B1B685B0758D50E4B0A221A8054E0A0
:1021800000360020F00E002000040020193F00203F
:10219000701E0020441F00204C2F0020600F0020E4
:1021A000480C0020A03B00209C3E0020023F002065
:1021B000E80E00201C3F00205C0F0020D8F8000033
:1021C000400717D55A2B15D192F804312BB10123B2
:1021D00082F8041182F8053127E092F8063183F085
:1021E000010382F806310BB10C2000E00D2006F04F
:1021F0000BF81AE05D2B00F0DE845B2B00F002850B
:102200005E2B02D1032000F0FEBC562B01D10AF058
:10221000F9F89AF80230002B00F00A8594F80131A1
:102220006F2B40F0FF840EF0C3FDD8F80030580744
:1022300036D594F80631B84A93B12B7859070FD5A3
:10224000009BB3F90610B6F82631994208DD3B68C9
:1022500013F0010302BF3221A2F80A1182F80631FD
:102260003B68DA030DD594F80C21AB4B2AB993F8EF
:10227000042112B93222A3F80A21012384F80C3177
:102280000EE094F80431A44A53B12B7803F0040310
:1022900003F0FF0123B9012382F8041182F805310C
:1022A000D9F800A000233B600AF17B090AF1CB0BAF
:1022B00099F8002099F8013019F8010C9A420BD2D4
:1022C000494605F0C9FE38B119F8022C012303FA7A
:1022D00002F23B6813433B6009F10409D945E7D199
:1022E0008E4B1B785BB18E4BDFF84CB21A68DFF86F
:1022F0004CA212F0020F994640F038832FE30AF106
:10230000CA070AF589793A787B7817F8010C9A425E
:1023100025D2394605F0A0FE08B3BB7897F804C073
:10232000804A97F803A07C480C21013B01FB0C413B
:1023300003EB43031344D1F814219A420FD0C1F8A0
:102340001431002390F84021C1F81831012303FA19
:102350000CF322EA030381F810A180F8403106371C
:102360004F45D0D1704B1F68704B1B68029394F897
:10237000283003936E4B019300230093019B1A684E
:10238000002A00F0E18292F800A0BAF1000F00F0FC
:10239000DB825B680299CB1A002B0CDB01F5FA7328
:1023A00001994B60009901238B4094F8401121EA78
:1023B000030384F84031039B002B00F0C582019B8E
:1023C000517813F8043C0433DBB2002940F07B82DF
:1023D000584931F91310B6F8243103F1C80081428D
:1023E00002DD92F802B015E0C83B994203DA917819
:1023F000C1F1000B0EE0009A0123934094F84021B4
:1024000022EA030384F84031029B019A03F5FA7330
:10241000536099E294F84031009A1341DB0700F1D0
:102420009382BBF1000FCCBF0220012005F026FFF4
:102430000AF1FF33DFF8E090132B00F27D82DFE832
:1024400013F01400250037004B0064008500E800FD
:102450004B01B201E00110027B024B005A008500E3
:10246000E8004B01BA001D01820197F80090D944A1
:10247000B9F1FA0FA8BF4FF0FA0929EAE97938460D
:1024800087F8009005F0D2FD01200FE097F8019049
:10249000D944B9F1640FA8BF4FF0640929EAE9797A
:1024A000384687F8019005F0C1FD02204946D5E184
:1024B00097F803A0DA44BAF1640FA8BF4FF0640A9A
:1024C0002AEAEA7A87F803A03846D9F8441105F0D9
:1024D00063FD03205146C1E1797959446429A8BFBD
:1024E000642121EAE17179710D2005F01DFEBAF138
:1024F0000D0F00F02182397959446429A8BF642165
:1025000021EAE17139710E20A8E1B979594481F3CA
:102510000801B9710520A1E1480C00201A3F0020F4
:10252000F00E0020885E0108580F00204C2F00207C
:102530005C0D0020A03B0020E80E0020EC0E0020E7
:1025400000007A440000C84200000000D9F8483179
:102550001A78022A20D107EE90BAB8EEE70A5FEDAA
:10256000077A93ED097A80EE270A30EE070AB5EE76
:10257000C00AF1EE10FA07D4B4EE670AF1EE10FAD1
:10258000C8BFB0EE670A01E01FED110A83ED090A2A
:102590000F2005F0B3FD0AE099785944C829A8BF77
:1025A000C82121EAE17199700F2005F0BDFDBAF153
:1025B0000F0F00F0C181D9F848311A78022A1ED1D4
:1025C00007EE90BAB8EEE78A5FED227A93ED080A3B
:1025D00088EE278A38EE000AB5EEC00AF1EE10FA4E
:1025E00007D4B4EE670AF1EE10FAC8BFB0EE670A7E
:1025F00001E01FED2B0A83ED080A122056E15978FD
:102600005944C829A8BFC82121EAE1715970122094
:1026100024E1D9F848311A78022A20D107EE90BA7D
:10262000B8EEE70A5FED397A93ED0C7A80EE270A6F
:1026300030EE070AB5EEC00AF1EE10FA07D4B4EE98
:10264000670AF1EE10FAC8BFB0EE670A01E01FEDAD
:10265000420A83ED0C0A102005F050FD0AE0197BB8
:102660005944C829A8BFC82121EAE1711973102073
:1026700005F05AFDBAF1100F00F05E81D9F848312B
:102680001A78022A1ED107EE90BAB8EEE78A5FEDFB
:10269000537A93ED0B0A88EE278A38EE000AB5EEDE
:1026A000C00AF1EE10FA07D4B4EE670AF1EE10FAA0
:1026B000C8BFB0EE670A01E01FED5D0A83ED0B0AAB
:1026C0001320F3E0D97A5944C829A8BFC82121EAC8
:1026D000E171D9721320C1E0D9F848311A78022A81
:1026E00022D107EE90BA1FED6A0AF8EEE77A87EE7C
:1026F000800AD3ED0F7A30EE270AB5EEC00AF1EE6C
:1027000010FA09D45FED717AB4EE670AF1EE10FAAF
:10271000C8BFB0EE670A01E01FED750A83ED0F0A2E
:10272000112005F0EBFC0AE0997D5944C829A8BFA7
:10273000C82121EAE1719975112005F0F5FCBAF183
:10274000110F00F0F980D9F848311A78022A20D107
:1027500007EE90BA1FED860AB8EEE78A88EE008A87
:1027600093ED0E0A38EE000AB5EEC00AF1EE10FA4B
:1027700009D45FED8C7AB4EE670AF1EE10FAC8BFA7
:10278000B0EE670A01E01FED900A83ED0E0A1420F7
:102790008CE0597D5944C829A8BFC82121EAE171BC
:1027A000597514205AE0D9F848311A78022A1ED1F6
:1027B00007EE90BAB8EEE78A5FED9E7A93ED0A0ACB
:1027C00088EE278A38EE000AB5EEC00AF1EE10FA5C
:1027D00007D4B4EE670AF1EE10FAC8BFB0EE670A8C
:1027E00001E01FEDA70A83ED0A0A09205EE0D9780F
:1027F0005944C829A8BFC82121EAE171D97009202C
:102800002CE0D9F848311A78022A1ED107EE90BA86
:10281000B8EEE78A5FEDB57A93ED0D0A88EE278A68
:1028200038EE000AB5EEC00AF1EE10FA07D4B4EEA5
:10283000670AF1EE10FAC8BFB0EE670A01E01FEDBB
:10284000BE0A83ED0D0A0A2030E0597B5944C8299D
:10285000A8BFC82121EAE17159730A2005F064FC80
:102860006AE0D9F848311A78022A22D107EE90BAE4
:102870001FEDCD0AB8EEE78A88EE008A93ED100AC4
:1028800038EE000AB5EEC00AF1EE10FA09D45FED99
:10289000D37AB4EE670AF1EE10FAC8BFB0EE670A59
:1028A00001E01FEDD70A83ED100A0B2005F026FC8E
:1028B00042E0D97D5944C829A8BFC82121EAE17165
:1028C000D9750B20CAE7012936D19078BB4A32F975
:1028D0001390B9F5617F05DB40F633039945A8BF36
:1028E000994601E04FF46179BAF10C0F24D1B44A52
:1028F0004FF4966393FBF0F01378A9F5617999FB97
:10290000F0F95FFA89F94B4516D0B9F1040F34BFDD
:102910004B4602231370AB4A0AFB036303F22A53AC
:10292000136009F08BFB5046494605F0FDFB09F1A9
:102930000100C0B205F0A2FC009A0123934094F874
:102940004021134384F84031009B01330093019BE5
:102950000C330193009B042B7FF410ADC3E4D8F833
:102960000030DF050FD5984BDB7863B1DBF8003022
:10297000980708D5BAF8003013F0010708D10120F4
:1029800009F076FA04E0012009F062FA012300E080
:102990000023D9F8002051070BD553B1012009F0CD
:1029A00057FABAF800309A0706D4022009F060FA04
:1029B00002E0022009F04CFABAF80070834B17F0DD
:1029C000030F4FF0100214BF5A831A83DBF8003054
:1029D0009B0609D4D9F80030180540F190804FF4D7
:1029E000807009F045FA8EE0794B1B78990751D534
:1029F000784B1B78042B4DD9D9F8003013F40073B1
:102A000007F010070DD0002F38D1102009F030FA50
:102A1000202009F01DFA7048011D03F023FE022357
:102A200028E0BFB23FB11020009309F011FA009BDB
:102A300084F84C310127D9F800305A0512D5D4F862
:102A4000503166495A89B1F90030002BB8BF5B425A
:102A5000934207DAB1F90230002BB8BF5B429342D0
:102A6000C0F22E81BAF800309B0608D5202009F06C
:102A7000EFF9002384F84C31012700E0002794F897
:102A80005431A3B90E2005F0BFFB554B012283F84A
:102A900054210CE017F0300F9CD0102009F0D8F929
:102AA000202009F0D5F9002384F84C3101E0002FF3
:102AB00090D04C4A002002F1280E02F150074A4BF8
:102AC000002123F81010494B516023F810100433F3
:102AD000CEF8041023F81010002313609360CEF892
:102AE0000030CEF808303B607960BB6014320EF1E4
:102AF000140E143700287FF46DAF0120DFE74FF488
:102B0000807009F0A5F97379082B01D00E2B02D142
:102B1000402009F09DF9D8F80030580519D596F8ED
:102B2000A0311BB92B7813F0040F03E0D9F8003063
:102B300013F4002F09D02E4B00221A703C200DF008
:102B40001BFD30B10CF070FBF8E70AF0D7FD0DF07B
:102B500030FC012384F8D83194F8D931002B00F0EF
:102B6000C580DBF80030590740F1C080D9F800304B
:102B70001A0707D4082007B0BDEC028BBDE8F04F60
:102B800009F066B9BAF8004004F00804A4B2002CB9
:102B900040F0AC80082009F06BF9164B1A68164B10
:102BA0001A60064BDA880E4BA3F8DA21134B1C602F
:102BB000134B1C609AE0012025E000BFA03B0020E1
:102BC00080290020580F00209C3E00200004024075
:102BD000600F0020610F0020780F00207C1E002075
:102BE000480C0020A00D0020143F0020180E0020EB
:102BF000653B0020400F0020880F0020102B002094
:102C0000142B002002205FFA80FA0AF1FF3386F8C5
:102C1000283509F07DF909F035FA504605F02EFB0C
:102C2000FFF703BBBBF1000F02D07E2B3FF4FBAAE2
:102C300094F80131972B06D12F4B4FF4C872A3F8AB
:102C40000821FFF7F2BAA72B06D12C4A137843F0DC
:102C500004031370FFF7E9BA0022BB2B059201D1E0
:102C6000022303E0B72B04D14FF6FE73ADF8163004
:102C70000AE0BE2B01D1022304E0BD2B7FF4D5AACC
:102C80004FF6FE73ADF81430D9F80030BDF81410CB
:102C9000B3F858200A44A3F85820BDF81610B3F82A
:102CA0005A200A44A3F85A2009F032F909F0EAF947
:102CB000012005F0E3FA002384F80231FFF7B5BAEA
:102CC000BAF800309B063FF5DAAE202009F0D0F8C4
:102CD0000B480C4B011D1A685B684360026003F0EF
:102CE000C1FC054B012783F84C71C8E607B0BDEC69
:102CF000028BBDE8F08F00BF480C0020600F002061
:102D0000800F0020640F00208848894A0368F0B5CE
:102D10009C8AA4B2E1B211F0010F32D01988854C1F
:102D200021F400610904090C1980198889B241F461
:102D300080611980002111707F490978A9B151780B
:102D400019B97E490978FF290FD1012151707C49B9
:102D50000978022901BF198889B241F400611980FC
:102D6000217841F00101198201E1217801F0FE0191
:102D70001982724B1B78FF2B00F0F980FF23137030
:102D8000F5E08E073CD5BFF35F8F6D490C78E4B258
:102D9000012C14D1684D2D788DB155787DB11988ED
:102DA00021F480610904090C1980BFF35F8F198B2E
:102DB0001988947089B241F4007119801BE01C8B52
:102DC000BFF35F8F0C78022C0BD15B4C247844B19D
:102DD000547834B1198821F480610904090C1980F0
:102DE000BFE00978032906D15349097819B1517810
:102DF000002940F0B680998889B241F48061B5E03D
:102E00004D075BD5012191704B49097800293AD0D3
:102E10005178002937D04A494A4D09781C8802293F
:102E200011781ED924F480642404240C1C801E8A8A
:102E30002F68CCB249B2F6B27E5419882D6889B297
:102E400041F4007119800168A31C137001340B8ACE
:102E500064B2DBB22B558B889BB243F480638B80CA
:102E600027E0A4B244F400741C802E681D8ACCB202
:102E700049B2EDB27554611C1B8A49B2DBB203340E
:102E80007354147015E0517811B92F49097841B184
:102E9000198889B241F400711980137801331370D5
:102EA00007E0198889B241F480711980204B012113
:102EB000597001680B88DC05FCD458E001F0400132
:102EC00001F0FF061E4DF1B114781E491F8AD1F89A
:102ED00000E0E6B264B2FFB20EF80470711CC9B231
:102EE0002F78117049B2CC1CA74201BF9C8824F4F2
:102EF00080642404240C08BF9C802B788B4236D13C
:102F00000236167033E0210631D511784CB2671CB9
:102F10001ED00E4E3668345D1C820131C9B22C7849
:102F2000117049B28C4222D11BE000BF642F0020F7
:102F3000240E0020512F0020542F0020522F00205B
:102F4000602F00205C2F0020532F0020582F0020DE
:102F500012491670097819821149097809B9297836
:102F600029B9998821F480610904090C99800D4BD5
:102F700092F900201B780C4901339A420DD10023AD
:102F80004B708B7833B10268938823F440731B0431
:102F90001B0C9380054B00221A70F0BD522F0020AD
:102FA000542F0020602F0020240E0020612F0020CD
:102FB0006C4B6D4A2DE9F04F5E8954684FEA062A42
:102FC000B4EB0A0A9C884FEA04481C894FF00005BC
:102FD0004FF0000B65EB0B0BA4FB0A6704FB0B77B0
:102FE000F40944EA476418EB04065C884FF00009D2
:102FF0004FEAE7154FEAC438DC8849EB050787B08C
:10300000CDE90467A4FB0A6704FB0B77340A44EAA2
:10301000076418EB04064FEA27259C894FF0000946
:1030200049EB0507CDE90067AAFB046704FB0B77B2
:10303000F40D44EA472414F5FA664FEAE75545F1E2
:103040000007B6F5FA6F77F10003CDE902679646FF
:1030500067DAA4FB046704FB05F34FF0050C07EBEC
:103060004307DDE90489A6FB0C230CFB07335F1043
:103070004FEA3206B8EB06084FEA920669EB0709F9
:1030800046EA83769F10DDE90023921B63EB07037A
:10309000DDE90267CDE90023344A4FF0FF33964261
:1030A00077EB0303CDE9048928DA40F6AC52A41883
:1030B0004FF000035D4104FB05F3A4FB044505EB61
:1030C00043056FF00602664202FB0566A4FB02237D
:1030D000334418EB020649EB0307CDE904670B26DE
:1030E000A4FB062306FB0533DDE900455B104FEA30
:1030F0003202A41A65EB0305CDE900450AFB0BF388
:10310000DDE90245AAFB0AAB0BEB430B4FEADA728F
:1031100042EA4B02A41A4FEAEB7365EB0305CDE9D3
:103120000245DEF80840009B019DA4FB032304FB3D
:1031300005334FEA52584FEA635948EAC328DDE99C
:103140000423B8EB020269EB03039946D30B43EA6D
:10315000494300B1036009B1029B0B6007B0BDE8B1
:10316000F08F00BFC4090020240E002024FAFFFFC6
:10317000054B1A7B02F0FF0122B1012202700022EE
:103180001A73704701707047240E0020194B73B5F5
:103190005D7B0446EDB9184B06215E6818786A46D7
:1031A000B04718B39DF800209DF8013043EA022390
:1031B00023809DF802209DF8033043EA02236380B8
:1031C0009DF804209DF8053043EA0223A3800125E1
:1031D0000CE00222196991FBF2F1018059699B69A7
:1031E00091FBF2F193FBF2F341808380284602B019
:1031F00070BD00BF240E0020AC09002013B50446AA
:1032000072B6104B06215B686A463B20984762B64F
:10321000A8B19DF800209DF8013043EA02232380E5
:103220009DF802209DF8033043EA022363809DF855
:1032300004209DF8053043EA0223A380012002B058
:1032400010BD00BFAC090020054B08B9054A03E0DA
:1032500001280CBF044A054A1A6005F06BBB00BF89
:10326000642F00200054004000580040005C0040E3
:1032700013B524490B689A8A92B20192019A12F40A
:10328000706F18BF204A0C461CBF01211170019AB3
:1032900012F4E06F2AD01A8B9A8822F4806212040A
:1032A000120C9A80019A910520D41A8892051DD497
:1032B0001A88D0050FD51A88D105FCD41A8892B285
:1032C00042F400721A801A889205FCD40F4B1878C9
:1032D000FFF7BAFF0AE01A8892B242F400721A802D
:1032E0009A8822F440721204120C9A802268938AFF
:1032F00023F470631B041B0C9382054B00221A708D
:1033000002B010BD642F0020622F0020581500204D
:10331000612F002007B502AA012302F8013D4821D0
:1033200077200CF01DFF03B05DF804FB07B502AA7F
:10333000012302F8013D582177200CF011FF03B062
:103340005DF804FB07B502AA034602F8011D6820D8
:1033500019460CF005FF03B05DF804FB2DE9F843B6
:103360000D4C0E4E102581466583012090460F4678
:1033700004F00AFF49F08001304605F0BFFA4146EB
:1033800000223B46304605F08BFA2583012004F0ED
:10339000FBFE0120BDE8F883000802400030014038
:1033A0002DE9F0410A4C0B4E102590460F466583DF
:1033B00040F08001304605F0A1FA30464146002237
:1033C0003B4605F06DFA25830120BDE8F08100BF82
:1033D00000080240003001402DE9F0410B4C0C4E3A
:1033E00010258046658301200F4604F0CDFE41463E
:1033F000304605F083FA3946304605F07FFA2583DA
:10340000012004F0C1FE0120BDE8F0810008024067
:103410000030014073B50D460646FFF7DDFF64201E
:1034200004F0B2FE1524304601210DF10702FFF72A
:1034300095FF9DF80730AB420CD029463046FFF788
:10344000CBFF013C642004F09FFE14F0FF04EAD19E
:10345000204600E0012002B070BD2DE9F0433C4D54
:103460002B7F85B0002B6FD13A4B1B68002B6BD0A4
:103470001A681AB13849086B02430A639A88986837
:10348000ADF800200026022269468DF803208DF851
:10349000026005F09DF8304B30485A6C304C42F0D9
:1034A00004025A645A6C42F480425A64032720236F
:1034B0004FF0010802A902938DF80C608DF80E60A0
:1034C0008DF80F808DF80D7004F006F8254BDA6842
:1034D00022F0F002DA60DA6842F02002DA60236853
:1034E000214A23F020032360636823F020036360F4
:1034F000236843F020032360A36823F02003A36024
:10350000E36823F02003E360136843F020031360B3
:103510004FF0170901A88DF804908DF805708DF80B
:1035200006708DF8078003F0B2FF104B5A681AB18D
:10353000304604F0BBFE03E00D4A5A6083F8009069
:103540002023636101232B7705B0BDE8F08300BF22
:10355000240E0020C009002000380240000802406C
:10356000003C014000380140083C014004140020A8
:103570008136000808B5FFF770FF024B4FF4805208
:103580001A8008BD04040020384AD38813B5384C8B
:103590000133D380FFF761FF637F002B39D1354AB8
:1035A000138823F040031B041B0C1380138823F0A3
:1035B00038031B041B0C43F03003138013889BB2A9
:1035C00043F04003138080216B20FFF705FF32207A
:1035D00004F0E5FD01216B20FFF71CFF18211B20E3
:1035E000FFF718FF07211A20FFF714FF224B1920BD
:1035F0001978FFF70FFF10211C20FFF70BFF122196
:103600003720FFF707FF38200121FFF703FF0123D1
:1036100063771A4C174A00232380138823F0400352
:103620001B041B0C1380138823F038031B041B0C92
:1036300043F00803138013889BB243F040031380C8
:103640006846FFF7A3FD9DF90230013303D19DF9D0
:103650000030013302D023889BB223B1002306201F
:10366000238004F023FE02B010BD00BFCE0F002067
:10367000240E002000300140D409002090140020C6
:103680007E4B5A6992062DE9F34740F1F3802022E0
:103690005A617B4C7B4E04F05BFDD4F8BC30C4F81F
:1036A000BC00C31A962B0546338008D9236A1F2B0A
:1036B0000EDC04EB8302012151620B4407E0236A14
:1036C0001F2B05DC04EB83020021516201332362CE
:1036D000226A6B4B202A6BD1D96A9A6A890041EA27
:1036E00042015A6A0A43196B42EAC102596B42EA23
:1036F0000112996B42EA4112D96B42EA8112196CAC
:1037000042EAC112596C42EA0122996C42EA412212
:10371000D96C42EA8122196D42EAC122596D42EA0E
:103720000132996D42EA4132D96D42EA8132196E15
:1037300042EAC132D96EB2809A6E890041EA4201F2
:103740005A6E0A43196F42EAC102596F42EA0112E6
:10375000996F42EA4112D96F42EA8112D3F8801080
:1037600042EAC112D3F8841042EA0122D3F8881049
:1037700042EA4122D3F88C1042EA8122D3F8901019
:1037800042EAC122D3F8941042EA0132D3F89810E9
:1037900042EA4132D3F89C1042EA8132D3F8A010B9
:1037A00042EAC132F28072880132728000221A62CB
:1037B000D4F8A430324F0133C4F8A430324B062180
:1037C000D3F804C018786A46E047002840D0D7F8FC
:1037D000A8C07B6938699DF8052007EB4C0EBEF93F
:1037E000B010BEF9ACA0BEF9B480C1EB0309BB694F
:1037F0009DF80210CAEB000AC8EB03089DF8000010
:103800009DF8013043EA00209DF80330AEF8AC008B
:1038100043EA01219DF80430AEF8B01042EA0323D8
:10382000AEF8B43008FA83F3BB610CF10103012B4D
:10383000C8BF00230AFA80F009FA81F1C4BFC7F8B3
:10384000A830012338617961D4BFC7F8A8307B73F1
:10385000D4F8A4300A4F012B0CDD04F079FCD7F822
:10386000B830C7F8B850C01A0023C7F8A4300123F5
:1038700070803B7302B0BDE8F08700BF003C0140A0
:10388000240E0020CE0F0020AC090020054A08B508
:10389000138801339BB21380034B1878FFF7D4FCD5
:1038A000002008BDE60E00205815002010B540008D
:1038B000204CC0B2207020480170204900200870C0
:1038C0001F4901240C701F490B601F490B601F4BDF
:1038D0001F491A701F4B204A1B680C701070988883
:1038E00010F4007F0846114615D11A88D2050DD470
:1038F00047F230521C88A40502D5013AFAD112E0F1
:103900008AB11A8892B242F480721A809A8892B26E
:1039100042F440729A8047F23053027812B1013B70
:10392000FBD100E013B9BDE81040AFE7087880F0A4
:10393000010010BD512F0020522F0020532F0020D6
:10394000542F00205C2F0020582F0020602F0020D3
:10395000612F0020642F0020622F002007B5002176
:1039600001AB03227720FFF7A1FF9DF805309DF8FA
:1039700004001B0243EA00439DF80600184303B00D
:103980005DF804FB08B5FFF7E9FF014B986008BD3F
:10399000240E002008B5FFF7E1FF014B586008BD79
:1039A000240E002030B505460C4613462946224613
:1039B0006820BDE8304079E7FFF7A6B958E4FFF783
:1039C000A3B955E42DE9F04F2DED028B4B28A1B0A2
:1039D000044600F0DB8500F2D180322800F0048636
:1039E00067D8222800F05F8423D8032800F09D8147
:1039F00014D8012800F08D81022840F0638604204D
:103A00000BF07CFC52200BF04CFC43200BF049FCEB
:103A100046200BF046FC4C2000F0ECBD042800F0E2
:103A20008F81052840F04E861A200BF067FC002499
:103A300096E1282800F0918515D8242800F0748597
:103A4000262840F03F86D34C06200BF057FCB4F8F4
:103A5000E8000BF056FCB4F8EA000BF052FCB4F8A6
:103A6000EC0000F0D8BD2A2800F08A852C2840F010
:103A70002986C84C0C200BF041FC94F81E010BF079
:103A800010FCB4F828010BF03CFCB4F824010BF056
:103A900038FCB4F826010BF034FC94F81F010BF04D
:103AA00000FCB4F82C010BF02CFCB4F82E0100F053
:103AB000B2BD3D2800F0C88224D8382800F03A85ED
:103AC00012D8342800F01184362840F0FB85B24B20
:103AD000B04C93F8F200C0EBC000C0B20BF00EFC8B
:103AE00004F1200500F0A4BD3A2800F07D823B28B7
:103AF00040F0E88501200BF001FCA74B9B6F187884
:103B000000F078BD452800F0CA8527D8402800F08D
:103B10007485422840F0D6859E4C10200BF0EEFBB9
:103B200060790BF0BEFBA0680BF0F4FB94F81E016B
:103B30000BF0B7FBB4F8E8000BF0E3FBB4F8EA00D5
:103B40000BF0DFFBB4F8EC000BF0DBFBB4F80E017C
:103B50000BF0D7FBB4F8100100F05DBD472800F072
:103B60007C85C0F06985492840F0AC8502200BF0C7
:103B7000C5FB894BB3F8700000F04DBD6F2800F015
:103B80006E824CD8692800F0008224D8652800F0A5
:103B90000D8115D84D2800F00885642840F09285E5
:103BA00007200BF0ABFBE7200BF07BFB794B587940
:103BB0000BF077FB00200BF074FB042000F07EBDBF
:103BC000662800F0B181682840F07C8510200BF059
:103BD00095FB0024D1E16C2800F0EA8117D86A280F
:103BE00000F016846B2840F06D856B4C05200BF0BF
:103BF00085FBB4F88E000BF084FBB4F890000BF05A
:103C000080FB94F8920000F0010000F0F3BC6D28F6
:103C100000F0E0816E2800F0EB8100F053BD7628C3
:103C200000F017844ED8732800F0DD833FD8702849
:103C300000F05282722840F04585564C16200BF059
:103C40005DFBB4F824010BF05CFBB4F8D0000BF082
:103C500058FBB4F8D2000BF054FBB4F8D4000BF0CE
:103C600050FBB4F868010BF04CFB94F877010BF0B3
:103C700018FB00200BF015FB94F878010BF011FBFA
:103C800094F813010BF00DFB94F820010BF009FBE5
:103C900000200BF006FB404B9B6F0A20B3F9563017
:103CA00093FBF0F080B20BF02CFB00F047BC7428C3
:103CB00000F04083752840F005852F200BF01EFB97
:103CC000364CE8E2A02800F021840AD8772800F0DA
:103CD0006A837B2840F0F6843C200BF00FFB002425
:103CE00083E2F02800F00584FE2800F0F583A42884
:103CF00040F0E884284D95F8A80080000130C0B25B
:103D00000BF0FCFA95F8A8000BF0CBFA00242E4635
:103D1000C9E303200BF0F2FA00200BF0C2FA2046B0
:103D20000BF0BFFA0D2000F065BC0BF0E7FA0220A3
:103D30000BF0B7FA01200BF0B4FA052000F05ABCE2
:103D400006200BF0DBFA42200BF0ABFA4A200BF016
:103D5000A8FA46200BF0A5FA34200BF0A2FA0AE1EB
:103D60000F4B185D01340BF09CFA0B2CF8D100249A
:103D70000C4B185D01340BF094FA082CF8D1002498
:103D8000094B185D01340BF08CFA072CF8D100F0C8
:103D900097BC00BF00360020E40E0020C35E01087F
:103DA0007B740108877401085F740108C14C0B2003
:103DB0000BF0A4FA20880BF0A4FA608880B20BF014
:103DC000A0FA6368C3F3C000C3F38002800040EA36
:103DD0004200C3F340021043C3F3401240EAC20062
:103DE00003F0100318430BF08CFAE3682289247C5B
:103DF00002F0080103F4475A4AEA010A03F4804139
:103E00004AEA010A03F400414AEA010A03F4803154
:103E10004AEA010A03F400314AEA010A03F4802164
:103E20004AEA010A03F4002103F4801B4AEA010A6A
:103E30004AEA0B0A03F0007B4AEA0B0A03F0006B24
:103E40004AEA0B0B9C4903F0805A4BEA0A0A03F03A
:103E5000005B4AEA0B0B097803F0804A4BEA0A0A36
:103E600003F0004312F0010F4AEA0303C1F380019B
:103E700014BF4FF002094FF00009194312F0020F6E
:103E800014BF4FF004084FF0000841EA090112F096
:103E9000040F14BF4FF0100C4FF0000C41EA080162
:103EA00012F0400F14BF4FF0200E4FF0000E41EA09
:103EB0000C0112F0100F14BF4FF40077002741EAF5
:103EC0000E0112F0200F14BF4FF480660026394314
:103ED00012F4807F14BF4FF400650025314312F4C3
:103EE000007F14BF4FF400100020294312F4806FAC
:103EF00041EA000114BF4FF080620022002011430C
:103F00000346A3420AD26D4A9D5C012202FA05F5DE
:103F10000D421CBF9A4010430133F2E70BF0FAF94F
:103F2000674B93F8280565E312200BF0E7F9654B22
:103F30001B88B3F5806F8CBF0826012600255D4CD9
:103F400004F1320333F9150090FBF6F0013580B22D
:103F50000BF0D7F9032DF2D1208F0BF0D2F9608F3F
:103F60000BF0CFF9A08F0BF0CCF900200BF0C9F9C2
:103F700000200BF0C6F900204DE3534B185D0134CF
:103F80000BF08FF9102CF8D19AE3504D28784000AF
:103F900000F0FE000BF0B2F900242B789C4280F078
:103FA0008F834B4B33F814000BF0ABF90134F4E77B
:103FB000404C06200BF0A2F9B4F856000BF0A1F922
:103FC000B4F858000BF09DF9B4F95A300A2093FB6D
:103FD000F0F037E0374C06200BF090F9E06D0BF075
:103FE00099F9B4F8600016E304200BF087F964E354
:103FF00007200BF083F9374B2E4C1888FF28A8BFF9
:10400000FF20C0B20BF04DF9606E4FF6FF75A8426D
:10401000A8BF284620EAE07080B20BF072F9B4F82D
:1040200068000BF06EF9264BE06E93F813313BB14C
:104030000A235843A842A8BF284620EAE07001E0BE
:1040400000F30F0080B2E6E21D4C02200BF056F99F
:1040500094F870010BF025F994F86F01CAE2154C41
:104060000B200BF04BF9636F18780BF01AF9636FA4
:1040700058780BF016F9002625466B6F0D4C33442B
:10408000013618790BF00DF9032EF6D1636FD8794C
:104090000BF007F9636F98780BF003F9636FD8782A
:1040A0000BF0FFF8636F58890BF02BF9636F187AE8
:1040B000A0E200BFE40E0020043F0020F50E002027
:1040C0000036002004040020220F0020603B002066
:1040D000A03B002000140020C84C1E200BF00EF95D
:1040E000A36F1B78022B4FF000056BD1A36F03EB7E
:1040F000850393ED080AB2EE048A20EE080A10F058
:104100001FFB80F30800C0B20BF0CBF8A36FDFED0C
:10411000BC7A03EB850393ED0B0A20EE270A10F01F
:104120000FFB80F30800C0B20BF0BBF8A36FDFED0C
:10413000B57A03EB850393ED0E0A20EE270A10F003
:10414000FFFA80F30800C0B201350BF0AAF8032D86
:10415000CCD1072DA36F23D193ED110A20EE080ACD
:1041600010F0EEFA80F30800C0B20BF09AF8A36FDB
:1041700093ED120A20EE080A10F0E2FA80F308002C
:10418000C0B20BF08EF8A36F93F84C3000EE103AEB
:10419000B8EE400A10F0D4FA80F30800C0B20BE089
:1041A0002B4458780BF07DF8A36F2B44D87A0BF092
:1041B00078F8A36F2B44587D01350BF072F80A2D67
:1041C000C7D17DE2A36F2B4458780BF06AF8A36F38
:1041D0002B44D87A0BF065F8A36F2B440135587D3A
:1041E0000BF05FF80A2DEDD16AE2844D9FED858AD0
:1041F000AB6F03EB840393ED080A20EE080A10F07E
:104200009FFA80B20BF07DF8AB6F03EB840393ED64
:104210000B0A20EE080A10F093FA80B20BF071F846
:10422000AB6F03EB840393ED0E0A20EE080A10F047
:1042300087FA013480B20BF064F8032CD5D1072C37
:10424000AB6F16D193ED110A20EE080A10F078FA40
:1042500080B20BF056F8AB6F93ED120A20EE080A0D
:1042600010F06EFA80B20BF04CF8AB6F93F84C0084
:104270000BE0234458780BF044F8AB6F2344D87A12
:104280000BF03FF8AB6F2344587D01340BF039F845
:104290000A2CD4D114E214F8010F002800F0108287
:1042A0000AF0FFFFF7E750200BF028F80025534BEA
:1042B0009C6F554B04EB85040C2194F8792001FB8D
:1042C0000233013593F838000AF0EBFF94F87A00D6
:1042D0000AF0E7FF94F87B000AF0E3FF94F87C0013
:1042E0000AF0DFFF142DE2D1EAE148200BF006F8D6
:1042F0000025424B9C6F062303FB0544013594F8CF
:10430000CE000AF0CEFF94F8C9000AF0CAFF94F874
:10431000CA000AF0C6FF94F8CB000AF0C2FF94F876
:10432000CC000AF0BEFF94F8CD000AF0BAFF0C2DC5
:10433000DFD1C5E14FF00008012600272F4B1A7C82
:10434000974227DA11330024FA5C2F4D0C2305F134
:1043500030016343595C914207D12B44586B10F0F4
:10436000D2F882462EB9B14605E00134222CECD1B8
:104370000EE080440CE0D1450ADA0C2303FB045321
:104380005B6B13F809000AF08CFF09F10109F2E7F1
:104390000137D3E7002E00F093815FFA88F00AF02E
:1043A000ADFF0026C9E7154D287C0AF0A7FF0024C1
:1043B0002B7C9C4280F08481144BE65C00211248E7
:1043C0000C2200F1300702FB01F3DA5DB24205D1A5
:1043D000034493F838000AF064FF02E00131222917
:1043E000EDD10134E4E708200AF088FF0124E0B2AF
:1043F00001340AF056FF092CF9D161E1E40E0020E6
:104400000000C84200007A44C45E0108F50E002096
:10441000BB4C10200AF072FF94F87C0000F0020000
:104420000AF03FFF94F87D000AF03BFFD4F88000CB
:104430000AF070FFD4F884000AF06CFFB4F888002A
:104440000AF05FFFB4F88A000AF05BFFB4F88C0052
:10445000E1E00AF009FF074612200AF04FFFA84CDE
:1044600027B9D4F89460D4F8985007E0102F13BF00
:104470000025D4F89C60D4F8A0502E4638460AF0A7
:1044800010FF30460AF046FF28460AF043FFD4F8F2
:10449000A4000AF03FFF00200AF033FF00200AF0DA
:1044A00030FF0020A6E096F8A8309C4280F00881FA
:1044B000944D285D0AF0F5FE05F11003185D0AF031
:1044C000F0FE05F120033035185D0AF0EAFE285DA4
:1044D0000AF0E7FE0134E6E708200AF00FFF0024A7
:1044E000894B33F8140001340AF00BFF042CF7D188
:1044F000E6E0834C04200AF001FFA36FB3F85A00F2
:104500000AF0FFFEA36FB3F8580084E00C200AF015
:10451000F5FE7E4B18680AF0FDFE7D4B18680AF028
:10452000F9FE7C4B1868C9E004200AF0E7FE7A4BDC
:104530009868C3E004200AF0E1FE774C94F8080183
:104540000AF0AFFE94F80C010AF0ABFE94F80B01F0
:104550000AF0A7FE94F80D014CE06F4C07200AF01A
:10456000CDFEB4F80E010AF0CCFEB4F810010AF04A
:10457000C8FE94F812010AF094FEB4F814014AE05F
:1045800001200AF0BBFE644B587933E0624C0420F2
:104590000AF0B4FE94F866010AF083FE94F867010D
:1045A0000AF07FFEB4F8680135E05C4C5C4D207881
:1045B00000EB4000C0B20AF0A1FE002623789E4224
:1045C00005F102057CD215F8020C0AF06AFE15F816
:1045D000010C00EB800000EB800000F2EE2080B2C6
:1045E0000AF08FFE0136E9E701200AF087FE4A4B08
:1045F00093F820010AF055FE62E008200AF07EFEE2
:104600000024454B2344013493F816010AF049FE77
:10461000082CF6D154E00AF074FE51E0414AD25C15
:10462000904251D00C33302BF8D10834AC4247D0F3
:1046300094F87E010023F1E73B4C0D200AF05EFE6A
:1046400002F03AF90AF02DFEA0880AF063FE206914
:104650000AF060FE02F010F930E00AF019FE05469B
:1046600084200AF04BFE28460AF054FE2E4B1C69AB
:1046700005F18003A3428CBF641B802402F0FEF985
:1046800028462246694602F063FA00240546AC42F9
:1046900016DA1DF804000AF004FE0134F7E71320CF
:1046A0000AF02CFE0024214B185D01340AF0F9FDBC
:1046B0000B2CF8D100200AF02DFE00200AF02AFE73
:1046C000012018E0002016E00AF0EBFDB4F88001AC
:1046D0000AF017FE94F882010AF0E3FD94F88301D2
:1046E0000AF0DFFD94F885010AF0DBFD94F88401FF
:1046F0000AF0D7FD99E721B0BDEC028BBDE8F08F41
:10470000E40E00208D0F0020CE0F0020107AFF1F36
:10471000147AFF1F187AFF1F00360020603B00202C
:10472000303700206C3B0020040400207B7401081B
:104730002DE9FF4708F0E2FF774B1F78002F40F08C
:10474000D685764D2B685B0540F1D185744B754C51
:10475000B3F8DE802378744E002B00F019823268A3
:104760006368D31A7C2B40F21382237A6260013390
:10477000237207F12400C0B208F0B0FF6B4B33F98D
:10478000173007EE903A6A4B1B88B8EEE77A07EECF
:10479000903AF8EEE77A0137C7EE277A9FED657A0F
:1047A00067EE877AFDEEE77ACDED017ABDF9040078
:1047B00008F082FF032FDCD1302008F08FFF5E4B22
:1047C000DFF86091B3F9000008F076FF08F07EFF93
:1047D000237A9F0732D1D9F8042041F288339A42D4
:1047E00019D9102008F07AFF6427D9F80C0090FB43
:1047F000F7F000B208F060FF212008F06FFFD9F851
:104800000C0090FBF7F307FB13000028B8BF4042F1
:1048100000B208F051FF142008F060FF474BB3F9D5
:1048200004000A2390FBF3F008F046FF1C2008F078
:1048300055FF002008F040FF08F048FF237A580792
:1048400040F08281022008F049FF364B186964234A
:10485000323090FBF3F000B208F02EFF384B03200B
:10486000B3F9067008F03AFF364B1B7859074FF042
:10487000050997FBF9F7BFB20BD53348414603F062
:1048800022FC20B92B6813F0100F18BF002738B294
:1048900005E02E4B1B689889B0FBF9F000B208F0D8
:1048A0000BFF2B689A0740F1AC80DFF8A8A0B4F8A2
:1048B0001480274F9AF800303A884FEA08184FF0D2
:1048C00064091FFA88F809FB02325B00B2FBF3F3BC
:1048D00048EA03281FFA88F8C3F3032348EA0308C9
:1048E000062008F0FBFE0FFA88F008F0E5FEA38A28
:1048F0009AF8001001339BB293FBF1F201FB1233E3
:10490000A382A3699B7B012B26D1392008F0E6FE08
:10491000B7F900003CE000BF1A3F00209C3B00209C
:1049200000360020E00F00204C2F0020160F002042
:104930000404002000007A44440F00203A0F0020B5
:104940007C1E0020043F0020163700205813002052
:1049500000140020880700203F886E233A205F4320
:104960004FF0150808F0BAFE97FBF8F71FFA87F822
:10497000B8FBF9F738B208F09FFE09FB17873B2018
:1049800008F0ACFEB8B2471D0A2097FBF0F000B269
:1049900008F092FE282008F0A1FEAB4B0A201B680D
:1049A00093FBF0F000B208F087FE042008F096FEBA
:1049B000A64BA7491B6808689A894FF6FF7398426F
:1049C000A8BF1846C2B10028ACBF131A134607EEA1
:1049D000903A9FEDA07AF8EEE77A67EE877A07EED5
:1049E000102AB8EEC77AC7EE877AFDEEE77A17EE9F
:1049F000900A6428A8BF642020EAE07000B208F0A2
:104A00005BFE954B1B689B0640F19380934B1A7895
:104A100012F0020F98461FD0DFF87892112008F0AC
:104A20005DFEB9F800008E4B4FF4F367784390FBBE
:104A3000F3F000B208F040FE192008F04FFEB9F87C
:104A400000004743642097FBF0F797FBF0F300FB6F
:104A5000137000B208F030FE824B1F8898F80030C7
:104A600013F0020F08BF0027012008F037FE38B20C
:104A700008F022FE092008F031FE002008F01CFE9C
:104A8000794B1F78794B1A88B2F5967F09D9237A2A
:104A900003F00F03072B04D842F20F77974228BF89
:104AA0001746052008F01AFEA3695B7B0BB938B2E4
:104AB0001CE0A7F1200307EE903A9FED6D7AF8EE27
:104AC000E77AF6EE006AC7EE877ABEEE007AF5EE78
:104AD000C07AF1EE10FA58BFB0EE667A77EE877AB8
:104AE000FDEEE77ACDED017ABDF9040008F0E4FDB2
:104AF00098F800309F0702D4237F012B03D10123B4
:104B000023775C481CE05C4BDFED5C6A9B6993EDAE
:104B1000017AD3ED027A27EE267A67EEA67ABDEE09
:104B2000C77AFDEEE77A8DED027ACDED037A02A821
:104B300006E0534A92E8030002AB83E803001846FC
:104B400001F070F908F0C2FD237A282B20D14A4BDE
:104B5000306800221A724FF03C094FF47A73B0FBB0
:104B6000F3F8172008F0BAFDB8FBF9F7B7FBF9F036
:104B700009FB1070000200B208F09EFD182008F03A
:104B8000ADFD09FB178000B208F096FD08F09EFD10
:104B9000637FDFF8E480002B00F0728103F0D8FA25
:104BA000D8F82030374AC31A9342074640F2EE80C5
:104BB000002388F8263088F82830334B1B88DAB277
:104BC0001B0A88F8422088F8433088F8382088F893
:104BD0003930D8F8502033689A1AD8F85430D97B35
:104BE0004FF47A734B439A420ED3284B1B68C8F894
:104BF0005030274B1B78013B012B9FBF102388F8B7
:104C00002630022388F828300F4B1B491A68104BB6
:104C10000A2092FBF0F284F84020121284F841201E
:104C20000E4A1B6893FBF0F384F844301B1284F89F
:104C3000453012780C4B96071B7884F872302BD4D1
:104C40002D2381F87330A0E0500F0020581300206E
:104C5000480F00200000C842E80E0020600F00202E
:104C6000A08601006C0F0020610F002020070020AB
:104C70006666E63F640F0020E00F00208096184B28
:104C8000986001083F0D0300001400204C2F002005
:104C9000AA2900206E0F0020042B8CBF332332235F
:104CA00081F87330C54BDFF84C93D3F800A05E68F1
:104CB000C34AC44B9AFBF3F04FF0060809FB00A16E
:104CC00096FBF3F309FB036903EB830308FB01F194
:104CD00003EB830391FBF2FC4FF0640E02FB1C110B
:104CE0009B0091FBFEF184F86410091208FB09F89F
:104CF00084F8651098FBF2F143FA81F39BB284F8D3
:104D000067301B0A84F86830AF4B02FB118292FBBC
:104D1000FEF284F86920121284F86A201A8824238B
:104D2000534393FBFEFEA94B84F85FE01B8884F895
:104D30006B301B0A84F86C30A54B00EB80001B889D
:104D40000A22B3FBF2F303F5FA739BB200EB800087
:104D5000800084F86D301B0A40FA8CF084F86E30C5
:104D60009C4B80B24FEADA7A84F86200F60F000AB0
:104D7000CEF3072E1B8884F861A084F8630084F8C2
:104D8000666084F860E084F87430276294F8849058
:104D9000914EB9F1000F0FD1D6F88C0003F0D2FA82
:104DA000012809D90228DFF8508200F0628201F060
:104DB0002BF8012388F80030D4F89060864B002E41
:104DC0005ED093F884203AB1D3F8982040F6B731FA
:104DD000BA1A8A4216D853E0012283F88420D3F805
:104DE0009C20D3F88C001278022A04D804300221C7
:104DF00000F0F4FF02E0022103F098FA002384F8A7
:104E0000A0303BE093F89420AAB9C3F8902083F82F
:104E10008420D3F89C20D3F88C001278022A04D87E
:104E20000430012100F0DAFF02E0012103F07EFAF4
:104E300000F0EAFF22E0013AD2B283F8942093F81E
:104E4000A01093F8A10042B901304A1C83F8A100D8
:104E500083F8A020D3F88C000EE03246013012F81F
:104E600001EB83F8A1000EEB0106D3F88C0083F868
:104E7000A060C3F89020714603F067FAC4F89870F8
:104E800094F8A230544EEBB1D6F8A430D3B1D6F892
:104E9000A830BBB1514F1A683B60514B1A60514A60
:104EA000D6F8AC301344187AFEF78CFD3B6898793D
:104EB0000AF0F7F9D6F8AC300133092B88BF00238C
:104EC000C6F8AC30484E94F8B0203768424B002A00
:104ED00000F00D82D3F8B420002A00F0088293F885
:104EE000B830013B012B00F20282D4F8B400DFF8A5
:104EF000E88003F027FAE0B1D8F8B40003F01FFA15
:104F000098F8B930D6F800A07E2B81460ED1022346
:104F10001B2888F8B83009D1D8F8B40003F012FA89
:104F200020B90123C8F8BCA088F8C03084F8B99033
:104F3000DBE7D8F8BC2033689B1A41F6583293421D
:104F40001FD9032388F8B830D1E1284A32F813007A
:104F500010B903464FF403600133B0F5C06FDBB204
:104F600000F0A2801ED9B0F5006F00F0A58051D9E5
:104F7000B0F5036F5FD184F8C1301D4B1B689906F3
:104F800060D494F8C01094F8C130002900F06E810C
:104F90003268D21B012AD8D984F8C130002384F8A2
:104FA000C030A4E1B0F5007F62D027D8B0F5807F93
:104FB00069D0B0F5887F00F0B380E6E7640F002089
:104FC00040420F00809698006E0F0020720F002064
:104FD0006C0F0020740F0020E00F00209C2900209F
:104FE000A0290020986001084C2F00204677010876
:104FF000E80E0020806967FF18040020B0F5806F7C
:1050000000F0B080B0F5826F00F0EF80B0F5047F63
:10501000BBD124E0B0F5E26F00F09580B0F5E46F0D
:1050200000F09780B0F5E06FAFD184F8C130B14B9C
:10503000B3F9001092E0B0F5046F7BD0B0F5026FC9
:10504000A3D1FCE0AC4B1B789A079AD5AB4B1988DF
:1050500024234B431233642193FBF1F1FFE084F8E6
:10506000C1302B689B078CD5A54B0A211B88F5E026
:1050700084F8C1302B68190583D5A24B19680A231F
:1050800091FBF3F1EBE084F8C1309F4BDFF88C82A9
:105090001B685A077FF575AFD8F80C1000F06AFE50
:1050A000002388F8C0306CE784F8C1302B681B05FA
:1050B0007FF567AF954B3BE0934A84F8C1301268A7
:1050C00091067FF55EAF8C4A127892077FF559AF53
:1050D00013F0010F8E4B11D05B6883EAE371002B54
:1050E000A1EBE37101EB51014FF01902B1FBF2F1B9
:1050F000ACBF41F0004141F040410EE01B6883EA43
:10510000E371A1EBE371002B01EB51014FF01902A8
:10511000B1FBF2F1B8BF41F080414FF400607DE097
:1051200084F8C130784B1B685B077FF52AAF794B59
:10513000196894E084F8C130774BB3F9041001EB9F
:10514000810149006AE084F8C1306A4BB3F902106A
:1051500004E084F8C130674BB3F904102C2391FBB1
:10516000F3F15BE084F8C13094F8C2306B4A01334C
:10517000DBB2032B88BF012382F8C23094F8C2103F
:1051800042F210735943664B1B78D80748BF013170
:105190009A0748BF02315807624B1B8848BF043149
:1051A000DA0748BF0A31980748BF14311A0648BFCA
:1051B0002831D80548BF28315A0748BF643118073D
:1051C00048BFC8319A0548BF01F5C871980648BF65
:1051D00001F57A71DA0648BF01F5FA61580648BF51
:1051E00001F57A614FF4806039E084F8C130464BB4
:1051F0001B6813F0200817D03F4B1A7812F0020FEB
:1052000014BF4FF47A71002112F0010F464A14BF07
:105210004FF4FA6300230B441178194400F0AAFDFF
:10522000002384F8C030ACE62B6819067FF5A9AEE0
:10523000414600F09FFD394B83F8C080A1E684F819
:10524000C130314B1B689A067FF59BAE2A4B1B7809
:105250009B077FF596AE354B1B886421594300F0C0
:1052600089FD2E4B002283F8C0208AE684F8C130E5
:105270003DE098F8003023B1C6F8887088F80090B7
:105280009AE5D6F88830FB1AB3F57A6FFFF494AD3F
:105290000123D6F88C0088F8003003F050F88046DF
:1052A000D6F88C0003F04BF818F07F0F7FF484AD34
:1052B0008A2802D08E280DD07EE5134B1B689806F5
:1052C0007FF57AAD96F88430002B7FF475AD06F14A
:1052D000580306E096F88430002B7FF46DAD06F19C
:1052E0002403C6F890302D2386F8943064E504B08A
:1052F000BDE8F087160F0020600F00206E0F002021
:1053000000140020500F0020E80E0020480F00205D
:10531000640F0020440F00203A0F0020E00F00200F
:10532000043F0020EC0E0020610F00206C0F0020D5
:105330002B4B2C4A1B68126810B51A602A4A116858
:10534000596051689268DA60284A99601168196159
:10535000516892689A61264A59611168D961516809
:1053600092685A62234A19621188198551885985B1
:105370009188D288DA85204A9985118819865188C2
:10538000598692889A861D4A1188D98651889288B2
:105390005A871B4A1987118899875188D9871946D6
:1053A000928821F8402F174A10780022824206DAAC
:1053B000154C34F8124021F8024F0132F6E7134A37
:1053C0001288A3F86A20124A1288A3F86C20114AA6
:1053D00012681A67104A1288A3F8742010BD00BF23
:1053E0003C3C0020D42A0020B41E0020C01E002017
:1053F000CC1E00207C1E00201C0F0020160F002059
:105400003A0F0020C41F0020220F00207413002038
:10541000103C0020EC0F00204C0F0020A0F17D0379
:10542000012B70B504460D460A4E05D830687D2123
:1054300002F08BFF84F020043068214602F085FFE3
:1054400035B12B881C4404EB142404F0FF042C8099
:1054500070BD00BF941000202DE9F8430E4B93E877
:10546000800305460E460024B44213DA7B1933F953
:10547000140008EB050333F9142009EB050333F995
:1054800014301344022293FBF2F3C01A09F0F9FC22
:105490000134E9E7BDE8F8833C3C002010B5104B2F
:1054A00093F85035012B014612D10E4A0E4C10785C
:1054B000431CDBB213701B0644BF0023137021543E
:1054C00001F0EAF93F2809D9BDE8104001F0F2BA2D
:1054D000064BBDE81040186802F037BF10BD00BF92
:1054E00000360020FC280020FE280020200C002090
:1054F00070B54720FFF7D2FF174B1B681B0307D57A
:10550000164B174A5B6810681B68C01A09F0A9FCA3
:10551000144E154C154D307809F0A3FC236828680B
:10552000C01A09F0AEFC63686868C01A09F0A9FCEB
:105530000F4B188809F095FC0E4B188809F091FC68
:105540000D4B188809F08DFC337823742B68A36009
:105550006B68E36070BD00BF340C00203C3C002051
:10556000D42A0020610F0020283C0020640F002076
:105570006C0F00206E0F0020700F00207FB5264CAE
:10558000264E274D2749284A284B20B12848008815
:10559000B0F5805F31D23088ADF8040028781E4D18
:1055A00091F8201012788DF806008DF807108DF80C
:1055B00008201B788DF8093001A8294606220EF034
:1055C00043FF30B30198BDF808302860AB8053200A
:1055D000FFF764FF208809F044FCA07809F041FC43
:1055E000E37801932379029301A86379039309F087
:1055F000A7FB0F4B00221A800BE03088208091F827
:105600002010287812781B78A070E17022716371E5
:10561000DDE704B070BD00BFA3100020EC0E002039
:10562000600F00209C3E0020700C00201E0D00200A
:105630003A0C00200A4A138801331380094A136880
:1056400001331360084A138801339BB2202B01BF3A
:1056500000231380054A138808BF01331380704765
:105660003A0C0020400C00203C0C0020B03D0020F3
:1056700038B5294B1B78083B012B05460C464AD808
:105680004520FFF70BFF2846FFF708FF0E2D33D00C
:1056900003D83DB10D2D07D038BD142D20D0FF2DDE
:1056A00032D038BD20682BE0637820789BB180F041
:1056B0008000FFF7F3FEA568E8B2FFF7EFFEC5F341
:1056C0000720FFF7EBFEC5F30740FFF7E7FE280EC4
:1056D000FFF7E4FE04E0FFF7E1FE606809F0D1FBAC
:1056E0002078FFF7DBFE606809F0CBFB2489E0B28D
:1056F000FFF7D4FE200A0BE0206809F0B2FB6068D7
:10570000BDE8384009F0ADBB044809F0BEFB0020FD
:10571000BDE83840C2E638BD1D0C002066770108A0
:105720002DE9F04FBA4BBB4F1A888BB00193002A7A
:1057300040F0A080B7F84E05B74E42F20103C41AFC
:1057400060426041FFF71AFFFFF7F2FD346849201D
:10575000FFF7A4FEB14B2546186809F082FB55F807
:10576000040B09F07EFB28460AF016FE04F1100037
:105770000AF012FE04F11C094FF01008A84D012395
:105780002A6803FA08F3134203D0D9F8000009F09D
:1057900078FB08F10108B8F1130F09F10409EDD104
:1057A00004F128000AF0E8FDB7F8D030B4F92E0073
:1057B000C01A09F056FB2B68D80408D5994BB4F8E9
:1057C0006A001B88181AC0F30D0009F04AFB2B6809
:1057D000990403D5B4F86C0009F043FB2B681A0553
:1057E00002D5206F09F04DFB2B681B0403D5B4F8DC
:1057F000740009F036FB04F130000AF0BDFDA0464C
:1058000004F136000AF0B8FD04F13C000AF0B4FDE2
:10581000B7F8D03038F9420FC01A09F022FB01273F
:10582000814B1B789F4208DA38F9020FB4F94230F5
:10583000C01A09F026FB0137F2E72B68980505D559
:10584000B4F96400A0F2DC5009F01BFB3268774821
:105850007260B260121AD110754A4A43531C032277
:1058600093FBF2F202EB42029A1A782303FB020343
:105870003360BAE16F4B704A1B6811688B4206D0E7
:105880000AA9002041F8203D1360FFF7F1FE019BBB
:1058900097F84E151B8897F84F050B44013BB3FB57
:1058A000F0F200FB12338B4280F06A815A4F0120E4
:1058B000FFF764FEFFF73CFD50203E687D68FFF770
:1058C000EDFDBA683B6810681B687A68034410688D
:1058D000A3EB400009F0D5FA6A6873689B1A02933B
:1058E000AA68B3689B1A0393EA68F36802A89B1A34
:1058F00004930AF051FD2A6933699B1A02936A697D
:1059000073699B1A0393B369AA6902A89B1A04934B
:1059100009F016FA06F11C0B05F11C081024404989
:1059200001220B68A2401A428A4606D0DBF800002A
:10593000D8F80030C01A09F0A4FA0134132C0BF186
:10594000040B08F10408EAD106F1260005F126014E
:10595000002331F9024F30F9022F121B02AC44F838
:1059600023200133042BF4D103214FF000094FEA27
:1059700089035FFA83F902AB53F821206AB102F17F
:1059800008000F2802D849F0010906E08032FF2AFA
:1059900094BF49F0020949F0030911F1FF31E6D241
:1059A0004846FFF77BFD00240DF1080BA04609F0E7
:1059B0000302022A16D0032A1DD0012A4FD1B8F1C2
:1059C000000F05D1DBF800402401E4B2904646E028
:1059D000DBF8000000F00F002043FFF75FFD4FF001
:1059E00000083CE0B8F1000F0CD0DBF80000C0F379
:1059F000031020432DE0B8F1000F1FD19BF80100E8
:105A0000FFF74CFD9BF80000FFF748FD27E000BFC3
:105A10003C0C0020003600203C3C0020400C0020C4
:105A2000340C0020380C0020C41F0020483C00200B
:105A3000EFEEEEEE203C0020B43D0020DBF800004D
:105A4000C0F303302043FFF729FDDBF80000C0F36B
:105A50000710FFF723FDDBF800402401E4B20BF14F
:105A6000040B06AB9B454FEA9909A0D1B8F1010F91
:105A700002D12046FFF712FDDAF8003013F480540B
:105A80001FBFB6F86A20B5F86A10521A029218BF02
:105A9000012499040AD50AAA02EB8401B5F86C0026
:105AA000B6F86C20121A41F8202C01341A0508D5DA
:105AB0000AAA02EB8400296F326F521A40F8202C98
:105AC000013418040BD50AAB03EB8402B5F874104B
:105AD000B6F874305B1A42F8203C013400E0FCB1A7
