:020000040800F2
:10000000000400206D7001081D3301085133010800
:10001000F1700108F1700108F170010800000000A2
:10002000000000000000000000000000193301087B
:1000300015330108000000001133010821330108C5
:10004000F1700108F1700108F1700108F170010808
:10005000F1700108F17001084D33010849330108BE
:1000600045330108413301083D330108F1700108AF
:10007000F1700108514B01088D4C0108F170010825
:10008000F1700108394D0108F1700108F1700108A3
:10009000F1700108F1700108F170010839330108AD
:1000A000994B0108C94B0108F1700108D94B0108AF
:1000B000B94B0108F1700108A94B0108A54E0108D0
:1000C000AD4E0108954E01089D4E0108F1700108E2
:1000D000F1700108D94D01082D4D0108814C01082E
:1000E00035330108F17001087D330108F170010812
:1000F000F1700108F1700108F1700108F170010858
:10010000F1700108F1700108F1700108F170010847
:10011000F1700108F1700108F1700108F170010837
:10012000F1700108F1700108F1700108F170010827
:10013000F1700108F1700108F1700108F170010817
:10014000F1700108F1700108F1700108252E010815
:10015000F1700108F54B0108E54D0108E94B010874
:10016000854E01088D4E0108F1700108F1700108FB
:10017000F1700108F1700108F1700108F1700108D7
:10018000F1700108F17001082DE9F04F2DED0C8B95
:10019000A3B008F055FE42F20F73984204D823B082
:1001A000BDEC0C8BBDE8F08F614B1B78092B00F286
:1001B000BD80604A342101FB03239E6ADFF8B8B199
:1001C0005D4D5E4C0DF16C0A08E008F039FE2A68BE
:1001D0002368B21A10446433984207D2DBF80C301B
:1001E000504698479DF86C30002BEED008F028FE62
:1001F000534BDFF86891D3ED007A9FED527AD9F82E
:100200000410514A514CC9F80400F8EE677A401ABC
:1002100067EE877AA9F80000DBF80430C2ED007AB7
:100220002046984700284CD1494D2B68980715D493
:100230000023484CA9F84431A9F84631A9F84831BF
:10024000454A2379127843499A4200F09980013354
:100250000B7123B0BDEC0C8BBDE8F08F99F8CE305C
:100260003E4E002BE4D008F0EBFDD6F8D030DFF89E
:100270000C81C6F8D000C31A0DEE103A06F1D40C6A
:1002800006F5A671002706F5A276D8F80030344AA4
:100290001878002800F0818299F84031002B41F055
:1002A0000680304FA7F16C0631469FED2F0A2436A9
:1002B0000AF056F8BE4200F07184D8F80030187881
:1002C000F2E72A4B20461A78214608F02BFB99F8D2
:1002D0000850E5B199F80930002B01F0FD8209F1D1
:1002E0000C07A61E0125B6F9020000EE100A3846DA
:1002F000B8EEC00A0AF09CF819F0C6F9C9F87850AF
:100300000135042D07F1240726F8020FEBD1184F11
:100310003888002841F0108016480023E15AC25A5C
:100320008A1AE2520233062BF8D17DE7002645E710
:10033000241100200804002048290020DC2200208D
:10034000E0220020BD378635084E0020E84D002011
:10035000D422002014060020D92200206829002081
:10036000AC2A0020A82A002000007A44D0220020D5
:100370004E500020302A00209C220020E82200203D
:1003800001230B7108F05CFDD9F8C071DFF880C360
:10039000D9F8BC21BCF906807B89C9F8BC01984515
:1003A000C2EB00000A97A9F8B601C0F2F381B8F5D4
:1003B000FA6F81F20F82FA79C3EB080101FB02F2B6
:1003C000A3F5FA6392FBF3F364331093BB4ABC4B7F
:1003D00092F95E11B94F1A68BA48B7F89661006889
:1003E0009FEDB95ADFEDB95A0C904F4202F080727E
:1003F000002389B20E92139714911A46B7EE006A41
:10040000DFF80CC33CF90310881B00F2F31740F22D
:10041000E63E774500F2C68380EAE077A7EBE07717
:100420001697022A40F0C3830C9890F81A715FB1B6
:10043000DDF858C0BC45CBBFC7EB0C0C4FF0000E2D
:10044000CDF858C0CDF858E00E98002801F050873C
:100450000A9FDDED167A3F7A06EE907AB8EEE77ADB
:10046000F8EE666AC7EE057A994FC6EEA56A67EEA2
:10047000A74A36EE664A67EEA44A67EE847AE6EE4D
:10048000A47A67EE277A9DED137AF8EEC76A67EED5
:10049000A67AFDEEE77A17EE900AB8808D4F4FF0FE
:1004A0006400B870B14203DA8948C15A4942C15266
:1004B0000233062B02F10102A2D18049B1F8982142
:1004C0009045C1F27780B8F5FA6FD4BFC2EB08014E
:1004D000C2F5FA614FF47A7303FB01F3C2F5FA62D5
:1004E0007D48B3FBF2F380FB0321DA17C2EB611204
:1004F00009EB42010E46B1F8E411B6F9E6616FF07E
:10050000630707FB02320BB2F31A744F03FB02F3CB
:1005100080FB03603A886E4E714FDB17C3EB6013AC
:1005200019445306F18001F10F81644890F89C3121
:10053000002B41F08980DFF884C19CF89D3133B1F4
:10054000DFF898E1BEF80020500641F1BD82654E0B
:1005500015963378590701F16F80634E169632680D
:10056000D20703D4159F43F001033B705F4A127812
:10057000170705D4DDF8548003F0FE0388F8003037
:100580005B4A128812B12A68960704D4594A128825
:10059000002A01F05C81DDF854C023F0010302223F
:1005A0008CF8003089F83C2208F04AFCD9F8403237
:1005B000C01A002801DB08F0F7FDDBF808300BB1AA
:1005C0004D4898476379B3B1DFF844E13B48BEF941
:1005D0000620B0F898319A420DDC4379012B01F0E6
:1005E0004884192B01F045840E2B04D0082B02D02F
:1005F000374A00239380334B1E6896F8207137B139
:10060000DFF8D880B8F80020920741F013822B68F9
:100610009B0609D531490B8803F0300323B1334BD6
:100620001B78DF0701F14A84A379002B40F0F6879D
:10063000224B3248B3F86C210468D9F8C01103F595
:10064000C4730093304606F16003A0472C4C2D4B39
:100650002478DB780A93032C0C94214B06D9D3F829
:1006600060325B88B3F5FA7FC1F0FA81169E336879
:100670001D0140F1CF83124F39680C98002801F01A
:10068000C884D9F86022204B92F90000B3F9042005
:10069000B3F90240B3F90030404200FB02F005EE2E
:1006A000904A06EE103A06EE900A184B0C9800227B
:1006B00001F4805CB8EEE65A2CE000BFC8150020BB
:1006C000D01D00208C2200200000FA430000C84208
:1006D000E04D0020F04D00201F85EB51B84D00206B
:1006E000682900204D500020F44D002044220020B5
:1006F0003A2900204E500020AC2B0020841100200D
:100700000C210020BC2300203C4E0020182100209A
:10071000E8230020F8EEE55AB8EEC66A03EB0018AD
:1007200016461546644613E001462AF802002FB229
:1007300008B287420FFA86FC2ADB8445C8BF0E4602
:1007400041F38C851033434502F1020200F06482CC
:1007500053ED017AD3ED006A93ED017A66EE277AC4
:10076000E6EEA57AE7EE057AFDEEE77A17EE900A57
:1007700080B201B201EBD171C1F34F01002CD3D093
:100780002FB208B287422AF802100FFA86FCD4DA98
:100790000D46D7E76420109018E6BB5A7B5202370B
:1007A000062F0CF1240C7FF470ADE94E29683278E5
:1007B00002F0100303F0FF07002B41F0A780E5498A
:1007C0009FEDE58A0A91B4F902C0B4F900E0E34B69
:1007D000B4F9044093ED007AB9F94C01B9F94E111E
:1007E000B9F95021DFEDDE6A0AEE90CA0BEE10EA8D
:1007F000F8EEEAAAB8EECBBA67EE2AAA0BEE904A58
:100800002BEE07BA2AEEAA0AF8EEEBBAABEE0B0A09
:1008100067EE2BBA09EE100AABEEAB0A09EE901A9E
:10082000B1EEC0CA08EE902AB8EE4DAAB4EE4CCA9A
:10083000F1EE10FA2AEE26AAB8EEC99AF8EEE99A75
:10084000F8EEE88A41F03A85002F00F0BF879FED6F
:10085000C57AB4EEC78AF1EE10FA08DDDFEDC27A90
:1008600038EE678AB4EEC78AF1EE10FAF8DC9FED35
:10087000BF7AB4EEC78AF1EE10FA08D5DFEDBA7A86
:1008800038EE278AB4EEC78AF1EE10FAF8D4B6EE45
:10089000000A28EE000A0AF065F99FEDAF8A30EEF3
:1008A000088A69EEA97A9FEDB27AE9EE097AE8EE54
:1008B000A87AF4EEC77AF1EE10FA01F37F80DFED4B
:1008C000A66AF0EE665AD8F800309FEDA37AD3ED11
:1008D000017AF4EEC77AF1EE10FA41F39D809FEDB4
:1008E000A57AB4EEC7CAF1EE10FA00F1DB87D9EDB4
:1008F0005F4A99ED603A99ED616A9F4CD3ED027AB7
:1009000023781594590740F1BF87B7EE007A27EE98
:10091000877AF6EE007AA8EE076A984CE5EE874AE9
:10092000A6EE873A6AEE277A7BEE863A99ED635A0D
:1009300094ED004A99ED627AD9ED645A63EEA73AD4
:100940003AEE833A7BEE244A23EE273A64EEA74A36
:1009500063EE857A25EE436AE4EE847AA7EE646A54
:10096000E3EE657A67EE636AA3EEE56AE3EE046A96
:1009700037EE278A23EE077A68EE087A74EE06AA25
:10098000E4EEA56AA3EE847AEAEEAA7A75EE26BAB8
:10099000A4EEC57AEBEEAB7A35EE87CAECEE0C7AB4
:1009A000B1EEE70AB4EE400AF1EE10FA41F07A84B3
:1009B000F7EE005AC5EE805A664F9FED71BA6AEEA7
:1009C000A5AA28EE258A6BEEA5BA6CEE255AC4EDD1
:1009D00000AAC9ED645A89ED628AC9ED63BA09F0CB
:1009E00057FC99ED5E8AD9ED5DCAF0EE480AB0EE8B
:1009F0006C0A18F02FFF20EE0B0A18F045FED9ED17
:100A00005CBADDF828C0B1EE6B0AACF8000018F053
:100A1000C3FEDFED5C7A37EEC00A20EE0B0A18F059
:100A200033FE99ED59CAD9ED56AA0A99F0EE6A0A31
:100A3000B0EE4C0A488018F00DFF534BD3ED007A0E
:100A4000E0EE4B7AB0EE670A18F01EFE83B21A048D
:100A500058BFBB8099ED5A7A4C4BD9ED575AD3ED1C
:100A6000007A337899ED5B6AD9ED586A484A29EEE5
:100A7000877A48BF00F56160B4EEE78AA9EE0C7A88
:100A800048BFB880F1EE10FACCBF43F0080323F062
:100A9000080369EEAC7A29EEA50A3370D8F8003065
:100AA000E9EE2B7A5B78A9EE2A0A012BA8EE867A6A
:100AB000E8EE887AB1EE479AA8EEA60A00F05887C9
:100AC000344B1B8807EE103AB8EEC77A77EEC77A38
:100AD00099ED677A99ED668AD9F8A0713AEE077AAE
:100AE00077EEC87A8AEE07AAAAEE278A89ED668A87
:100AF00018F0CAFDD9F8AC61317809F041FEB0EECA
:100B0000490A3844C9F8A001D9F8A47118F0BCFD0D
:100B1000317809F035FEB0EE480A3844C9F8A4012E
:100B2000D9F8A87118F0B0FD717809F029FE1A49BA
:100B3000D9F8B0310A681DEE106A384432440133E6
:100B4000C9F8A8010A60C9F8B031FFF779BB00BF46
:100B500044220020004E002000000000F02200206F
:100B6000BD378635DB0F4940DB0FC940DB0F49C07D
:100B70000AD7233CC2B8B23E4D50002014060020D4
:100B80004C3D0F44DB0FC93FE4220020EC22002043
:100B9000682900200204002054500020012389F815
:100BA000403102E64FF4FA7CCDF858C039E4DDF864
:100BB00030E09EF819713FB116988742B5BFC7EB78
:100BC00000000027169016970E98002800F08383E7
:100BD0000A9FDDED167A7F7806EE907AB8EEE77A16
:100BE000F8EE666AC7EE057A824FC6EEA56A67EE32
:100BF000A74A36EE664A67EEA44A67EE847AE6EEC6
:100C0000A47A67EE277AFDEEE77A17EE900AF8529B
:100C1000794F1098B85445E4A91BA44689B2774A85
:100C2000D688BCF1000F00F0BF84D9F87C22744C48
:100C30009588D08833B22F1ABB4200F31886D4F8B7
:100C4000803212881D88012384F88432A9F8862214
:100C5000A9F88852A9F88A6292B2ADB2501B80B24C
:100C600009B207B28F4280F29384664B01221A7058
:100C70000C9B63B10C9A53460AEB42041A8812FB90
:100C800000F292FBF1F223F8022BA342F6D107EB1C
:100C9000D77705EB67039BB21A460C9C002C01F03A
:100CA0008981159FDFF868813878D8F80050D9F825
:100CB0008C12DFF848C199F88472109136B21BB2D9
:100CC00012B200F0040006EE906A07EE103A07EE4A
:100CD000902AC0B20C9AD9F87C120C9005F0100042
:100CE00005F4805513971491D9F88042BCF9068019
:100CF0004549464F0E95B8EEE65AB8EEC76AF8EE8B
:100D0000E75A5600002313E0A588B4F802C012B2D7
:100D1000AA4203DB6245B4BF1546654621F8025C72
:100D200010B10C9A002A58D10233B34200F0C480AB
:100D300007EBC302D2ED006A3AF9035065EE267A5A
:100D400007EE105AF4EEC67AF1EE10FAB8EEC77A52
:100D50002FD4F4EE657AF1EE10FAC8BFF0EE657AA2
:100D600077EE277AFDEEE77A17EE902A92B221F815
:100D7000022B40B1DDF840C0BCF81050A845BCBF04
:100D8000A28821F8022C0A9D002DBDD10E9DEDB147
:100D9000139D8DB12588DDF850C012B2BCF800C09B
:100DA000CDF85CC0AA42B9DB6546AA42B8BF154679
:100DB000B4E7F0EE467AD3E7DDF850C0BCF8025055
:100DC000B4F802C012B2AA42A4DAA7E72588B4F8A0
:100DD00002C012B2AA429DDAA0E70E9D002DA3D157
:100DE000DDF840C0BCF810209045BCBFA28821F8B7
:100DF000022C99E7E04D0020F04D0020E823002070
:100E0000682900206D500020CC2B002010210020EC
:100E1000D01D0020A94A116811F01D037FF42DACEC
:100E2000A74A13700C9B002B3ED0D9F86022A54B2B
:100E300092F90010A44FB3F90420B3F90260B7F996
:100E40000670B3F90030494202FB01F105EE103A99
:100E500006EE901A04EE906A05EE907A9B4B0C9980
:100E60009B4AB8EEE64AF8EEE44AB8EEC55AF8EE08
:100E7000E55A03EB0110D3ED007A13ED026A53ED4E
:100E8000016A93ED017A64EEA77A1033E6EE257AD3
:100E90008342E6EE857AE4EE077AFDEEE77A17EE16
:100EA000901A22F8021FE6D1159C94F8008008F0F1
:100EB00004085FFA88F50C950C98002840F0FD8234
:100EC00084490B786BB1844ADDF830805B0002F115
:100ED0002C0131F8080022F8080008F102089845B2
:100EE000F7D17E4A1378013BDBB2182B07D80121DA
:100EF0007B4A01FA03F31A40002A40F05686D9F8DB
:100F0000A812784C0A91DFF8B4C1DCF800309906D9
:100F100000F18A8223880A99724E002200E0935BD6
:100F2000B1F90000B1F902501BB2834201F10E0188
:100F300003DB28B29842A8BF1846A0520232102AFA
:100F4000EDD1D9F8605295F90830F3B1664FDDF86C
:100F5000288000263846B5F90620A15F09F010FE6A
:100F600080B2A053B8F90030B8F9022000B298421C
:100F700007F1880708F10E0803DB13B29842B8BFE7
:100F80000346A3530236102EE4D1DFF850C19CF87B
:100F90000030013B182B7CD8DFE803F0697B7B0D28
:100FA0007B7B7B547B7B7B7B7B497B7B7B7B7B0D58
:100FB0005E7B7B4969000020218911F027FF012019
:100FC000618911F023FF02253C4E33689F0600F132
:100FD000CF82424F3A78052A00F0CA82DE0200F141
:100FE000EC82424B1B78002B40F0ED83404B1B788A
:100FF000002B7FF4D4A8DFF8C4C0DCF80020140371
:101000007FF5CDA83B4C2278911E052941F237800F
:10101000931E082B3FF6C3A8DFE813F0210101015E
:10102000EA00D000BC00A200860076003D00324EEF
:101030000025E8B236F8021F013511F0E7FE062D53
:10104000F7D1C1E70020E18811F0E0FE01202189FD
:1010500011F0DCFE0225B7E7284E0025E8B236F88D
:10106000021F013511F0D2FE042DF7D1ACE72B7928
:10107000002B40F00687159D2B7803F0040303F046
:10108000FF00002B40F0FD86014611F0BFFE012558
:101090009AE7002598E71A4A1A4B52681B68C8322B
:1010A0009A4204D308F012F900283FF478A813F00C
:1010B0005DFF01232370FFF772B800BFD01D002031
:1010C0006D5000203C4E0020E04D002018210020F3
:1010D000CA2B00200C210020CC2B0020101F002048
:1010E00099209801201F0020382C00204522002044
:1010F0005150002039290020221F0020241F0020E9
:101100005C290020BC4C002099F8243733B1DDF86D
:1011100058C0DCF800309B0141F19C800DF07CFB55
:1011200011F026FCFFF73BB8DDF85880D8F8003006
:101130009A01F5D5B9F81E37AA4A002BF0D1AA4B6F
:10114000D2F820271B681B9251460E201C930DF0ED
:1011500011F8A64A4FF48051092311802370DDE76E
:10116000402011F0E7FB00287FF419A8A04D2B6860
:101170000C2B01F27E80DFE813F074082D0927099B
:101180001E0911093A09320942090B090409F80834
:10119000F208E508974A052000218DE8030002F1D6
:1011A0000803029153200AF05DFA00287EF4F7AF9D
:1011B0008F4A072310602370FEF7F1BF8E4B019317
:1011C00003F10C02072102920091A3F108024720CB
:1011D000043300210AF046FA00287EF4E0AF844B85
:1011E0004FF0FF31062283E803002270FEF7D7BFDD
:1011F000824A022000218DE8030002F108030291D7
:1012000048200AF02FFA00287EF4C9AF784B4FF03F
:10121000FF31052283E803002270FEF7C0BF784B40
:10122000019303F10C02242102920091A3F10A021E
:101230004920023350210AF015FA00287EF4AFAF9E
:10124000704A136813F080054FF0FF31684B01F0CE
:101250002F80042283E803002270FEF7A0BF644DB4
:10126000694A6B68126864339342BEF498AF4020B9
:1012700011F060FB00287EF492AF2B68DFF8A0919C
:10128000624F40260AE008F09DFD3A682B68013A5B
:101290000133013E3A602B6001F0168019F80330EB
:1012A000DFF87C811846002BEDD101F012B8BA5F4F
:1012B000099100EE102A6046B8EEC00ACDF81CC0B5
:1012C00009F0B6F818F0E0F9514B0999D853DDF858
:1012D0001CC0FFF764BADDF858C04E4880FB0CCE46
:1012E000DDF858C04FEAEC77C7EB6E1709EB470EF5
:1012F000F446BEF8C4E1BCF9C6C1CDF854C00FFA3B
:101300008EF0179016986FF0630C0CFB070716977A
:101310001798159FC0EB070C169F0CFB07F0DFF822
:10132000F4C08CFB00C7C017C0EB67107044DFF837
:10133000F4E02EF803006BE4D9F87C30364D1B78CE
:101340009FED368A0C93002605F13C0CB046B0F5B3
:101350007A7F00F04781B2000E924A442B6934F93B
:1013600016100A925CF8262006EE901A01331144FA
:101370000A9A2B61012BC2F8BC10F8EEE66A00F065
:101380003F81D5ED005AD5ED027A05EE103A36EEE2
:10139000E56AB8EEC57A86EE077A35EE877A76EE9C
:1013A000C76A85ED017AE6EE267A85ED007AC5ED0D
:1013B000037AC5ED027A730009EB0302012824F8D1
:1013C0001680A2F8C88000F00E820136032E05F1C7
:1013D0001405BCD1012800F06C8501383880FEF777
:1013E0009BBF00BF68290020482900205829002001
:1013F0005C29002040D60108F4D50108DCD501089D
:1014000036D40108D01D0020BC4C002064290020E7
:10141000B42A00201F85EB51E829002000000000BD
:10142000CCD30108E04D00200A98437AFF2B00F04E
:10143000F280B64A12789A4240F2ED80B44931F80F
:1014400013300A9D2380EA7DFF2A00F0E080AF4937
:101450000978914240F2DB80AD4E36F812C0DDF8DB
:101460005880A4F802C0D8F80020AA4912067FF5D7
:1014700052ADD9F8CC221278012AA74A00F0A485EF
:101480000A98568890F9067010880A9A92F91450B2
:10149000A24A17FB06F615FB00F082FB0675F6174D
:1014A00082FB0082C6EB2515C0172B44C0EB22122D
:1014B0009BB262440B804A802DE5169C23681C0178
:1014C0003FF50FAD964DD5F8008018F01D027FF462
:1014D00008AD18F48056109600F04A86914F0C9291
:1014E0003C78002C3FF4FDAC8F4A8949D9F88C52E6
:1014F0000E9503F0205308F010001393B1F906C0C5
:10150000D9F87C62D9F88052149067009046002385
:101510000DE0A9886C8800B2884203DBA042B4BF0A
:1015200001462146D1520233BB423FF4DAAC109956
:10153000002940F04486D05A0C9C001B80B2D05247
:101540000A990029E5D129886C8800B2884203DB1A
:10155000A042B4BF014621460E9C208AD152844548
:10156000E1DA14980028DED0A98823F80810DAE719
:1015700028462188DFF8A88111F048FC681C6188A2
:10158000C0B2023511F042FCEDB2D8F8003025E5CA
:1015900001EBD171481065492B18121A00249BB237
:1015A00092B20C70FFF779BBD9F880321D885A8847
:1015B000FFF752BB0023FEF791BF554A2846118919
:1015C00002F1080411F022FC0135EEB204F11A0513
:1015D00034F8021F304611F019FC0136AC42F6B265
:1015E000F6D1FEE434F91610B3001A4607EE901A4D
:1015F0004A440E93F8EEE76A0123C2F8BC102B614F
:10160000C5ED016AC5ED006A85ED028AD3E60A9F41
:10161000B7F812C023E70A9A938812E7444B0021D7
:1016200000221A605A609A60C9F85412C9F8581218
:10163000C9F85C12FEF7FCBF002001213D4F08F005
:10164000C1FD1697FEF7B9BF3B4A99F8FE311788DE
:101650003A4E002B00F01C84B9F80010374E00EE13
:10166000101A06F50070B8EE400A08F0E1FEBCEE74
:10167000C00A99F8263210EE10EA1FFA8EFEB7FB68
:10168000FEFE0EF1010C1FFA8CFCA9F824C2002BFF
:1016900000F0FB81B6F828820FFA8CFC002306F5D7
:1016A0000B7206F50D71264FD65AF85ACF5AC8520A
:1016B00016FB08F696FBFCF6C01B3044D0520233F2
:1016C000082B1E48EFD11FFA8EFE0023A0F828E257
:1016D00080F826320FFA8EF3002B40F3E583194A87
:1016E000B9F9247202F108010023D05ACE5ADFF86A
:1016F000508010FB0EF090FBF7F0301A28F8030032
:101700000233082BF1D1FEF716BF00BFA024002042
:10171000E8230020201F0020004E00201F85EB51F1
:10172000D01D00200C210020CC2B00206D5000206B
:10173000184E0020F44D0020542400206829002079
:10174000E04D0020942B0020D44BD549B3F9043050
:10175000B7F8FC21DFEDDB7A81FB0381DB17C3EBFC
:10176000A1039B1A1BB208EE903AF8EEE88A68EEE5
:10177000A78AB0EE680A09F02FF9B0EE408AB0EE01
:10178000680A09F0EFF9B6F902C0B6F900E006EE12
:1017900090CA06EE10EAF8EEE66AB8EEC66A26EEE1
:1017A000C07A60EE067AA8EE067AE8EE267ABDEEFA
:1017B000C77AFDEEE77A17EE102A17EE903A3280DC
:1017C0007380FEF7B2BE0CF07FFA0FE49FEDB58A8E
:1017D000FFF767B8DDF828E09EF80730C3F164032F
:1017E0001093FEF7F3BD2A69012A40F34484013ABD
:1017F00006EE902A95ED030AF8EEE67A80EE270AC7
:10180000F1EEC07AF4EE677AF1EE10FA40F03E8520
:101810000C9848B105EE100AB8EEC57AB4EEE77A36
:10182000F1EE10FA00F111850E9A38884A444B44C3
:10183000D2F8BC200A939C4B02F5FA7283FB02316A
:10184000D217C2EBA1120A99A1F8C820BDE5B9F8D8
:1018500026079649B0F57A7F3EF69DAED80756BF6B
:10186000022381F83C2281F83C32FEF79DBE2844D9
:101870008342D4F8803255885A88A6BF002384F862
:1018800084322E46FFF7E2B9894B1A6844F61F638B
:101890009A42B2EE045AB7EE007A98BFB0EE457A9B
:1018A000FFF735B827EEA55AD9ED5F4A99ED603AB2
:1018B00099ED616A27EEA67A67EE887AEAEE054A24
:1018C000AAEE073AAAEE276AC9ED5F4A89ED603AA7
:1018D00089ED616AFFF711B8764B1B68002B3EF467
:1018E00016AD09F10C070126394628469FED6D0A11
:1018F00008F036FDC9F878600136042E07F1240798
:101900006A4BF1D101225A72FEF701BD11F020019C
:1019100000F0848302F0020202F0FF07002A00F0C8
:10192000DB8399F85221614B042A40F2FF83B3F81C
:101930005421B2F5967FC0F07D84B3F85631DFEDC7
:10194000617A06EE903AF8EEE66AB2EE047A86EE36
:10195000877A524B0A93B3F9047008EE107AB8EE06
:10196000C88A012738EE478A28EE278AFEF72BBF60
:10197000159E337813F0040FD2F8943112D1002B56
:101980001A46B8BF03F13F02A3EBA21207EE102ADA
:10199000B8EEC77A37EE277ABDEEC77A17EE103A5F
:1019A00089ED657A002BB8BF3F339B1105EE103AE5
:1019B000B8EEC57A77EEC77AFFF78AB8B1EEE70AD4
:1019C000B4EE400AF1EE10FA40F08C84F7EE007AA3
:1019D00087EE800A99ED5E6AD9ED5C3AD9ED5D4AF1
:1019E000DFED306A29EE004A29EE805A28EE800A9F
:1019F00066EE447A23EEC57A64EEC05AE0EE237AAE
:101A0000A4EE247AE5EE065A38EE078A75EEA65A59
:101A100077EEA66AFEF757BFB0EE476AB0EE473AD8
:101A2000F0EE474A89ED5F7A89ED607A89ED617A57
:101A3000FEF763BF99ED5E0ADFED1F7ADFF87CC029
:101A40001A4ABCF80680B4EEE70AF1EE10FA00F28A
:101A5000EC82002080441948A0F80680FEF7D7BD2C
:101A6000164D1749B5F90440B1F90400002CB8BF70
:101A700064425A42121B904204DB23448342B4BFA7
:101A80001A4602468A80FEF7F1BDB6F828E20EF14A
:101A9000FF3E1FFA8EFEA6F828E21BE6004E00204D
:101AA0006766666600000000D34D6210682900205A
:101AB000BC4C0020DC2200208FC2753CE04D002091
:101AC0003C4E002035FA8E3C05EE103A5FED037A6D
:101AD000DFF83483B8EEC57A67EE277A17EE900AFE
:101AE00014F00CFC41EC100B41EC180B17F0E4FC6B
:101AF000BA49B1F900008DED0A0B14F0EDFBB0EE20
:101B0000480AF0EE680ACDE90C0117F029FDB34A46
:101B1000B2F904008DED0E0B14F0DEFBDDE90C23B1
:101B2000CDE91001DDE90A0114F03CFCDDE91023E8
:101B300006460F46DDE90E0114F034FC02460B4662
:101B40003046394614F07CFA14F03EFEA34FB0F54F
:101B5000FA7FB4BF06464FF4FA764645B8BF46460C
:101B60003E80DDE91023DDE90A0114F01BFCDDE90C
:101B70000E2306460F46DDE90C0114F013FC024665
:101B80000B463046394614F05BFA14F01DFEB0F5F2
:101B9000FA7FA8BF4FF4FA704045B8BF4046DFF85F
:101BA0003C82A8F80400FEF7D2BC8D4A1388D80501
:101BB00040F17C82894B8B4C188859889A88D9F8D7
:101BC0008C32ADF86C00ADF86E10ADF87020DB898A
:101BD000B4F806C0844A854EB2F90210B2F900008A
:101BE000B9F864524FF47A7201F5E16102FB01F138
:101BF00086FB018700F5E1600F44C91702FB00F284
:101C0000C1EBE7277749DFF8DC810C8886FB020609
:101C10001644D217C2EBE6264888B8F8082089880F
:101C2000E41AA6F5FA76A5F2DC55C01AADF886607E
:101C3000ADF87250B8F80A60B8F80C50ADF87440BE
:101C4000B8F80E40ADF876006948D21AC3EB0C0C18
:101C5000C91AF61AED1AA7F5FA77E31AADF87C203F
:101C6000ADF88230ADF87AC0ADF88470ADF8781078
:101C7000ADF87E60ADF8805000F11002002320F82E
:101C8000023F9042FBD15B4B1B781893002B00F076
:101C9000CC821699D9F8A8020968574C0A904FF0DF
:101CA00000081991C446CDF83080109415E0153223
:101CB0000124199D04FA02F22A4013D14F4B23F854
:101CC00008200C9C189D0134E3B29D420C940CF149
:101CD000070C08F1020840F2A680494B63449A7948
:101CE000002AE4D1464EDF7816F80C200A9E587977
:101CF0000597C2EBC20106EB41011490B1F90270E5
:101D0000B1F9000093F904405D78381A80B23D4F74
:101D100000FB04F487FB0467E417C4EB671447086F
:101D2000E41BA4B21394059C0E97002C39D122AE6B
:101D300006EB4504314F34F81C4C27F8084093F962
:101D40000260D1F80A10109F16FB04F4012606FA6F
:101D500005F52C4E37F812300D42139D86FB0467B3
:101D60004FEAE47429B2C4EB67144FF6FF7508BF5D
:101D700001258C420FDB149E224F71B201FB00F053
:101D800087FB0071C017C0EB61110E98091A09B2E8
:101D90008C42B8BF214601FB0533109921F812305F
:101DA0008FE7164E22AF07EB450736F8084037F9A4
:101DB0001C6C179627B2B742069727DBBFDD069C3F
:101DC000059FE61B179CA64203DB069CA642B8BFF4
:101DD00034460A4EA4B226F80840B0E7E04D002091
:101DE000B84D0020E8230020004E0020C5B3A2918A
:101DF0001E1F0020D0210020201F0020142C0020B6
:101E0000D42100201F85EB510CFEFFFF059E3E44B0
:101E1000B74203DC179FB742A8BF3746C54EBCB2D6
:101E200026F808408BE7109CC34BC44D1E780A9AD5
:101E300000230BE0DFF8348338F811100844E05237
:101E40000233102B02F10E023FF45DA892F9060056
:101E5000E15A10FB01F185FB0170C917C1EB60105D
:101E6000E052517AFF2980B201D0B142E2D3918889
:101E7000E4E7B34991F8EA21002A7EF4BCABFEF70F
:101E8000B3BB0020618910F0C1FF0125FFF79CB8AA
:101E9000012006F500719FEDAB0A08F061FA0123FD
:101EA00086F8FE31FFF7D8BB0023A9F82832FEF7E9
:101EB00042BB0EF041FE3888FFF78FBAA24BA34A0F
:101EC000B3F90430DFEDA27A82FB0352DB17C3EBD8
:101ED000A2031BB208EE903AF8EEE88A68EEA78AF1
:101EE000B0EE680A08F03EFEB0EE408AB0EE680A36
:101EF00008F072FD974B1B68DF78002F00F0F2802E
:101F0000B9F84E22B9F9520213B2C01A44F2506322
:101F1000984292B240F37981A0F50C40A0387D42FE
:101F2000854200F38081B842A8BF3846B9F84C32E8
:101F3000B9F9501210441AB28A1A44F2506180B2B0
:101F40008A42A9F84E021FFA83FE40F36581A2F58A
:101F50000C42A03A954203DCBA42B4BF15463D4656
:101F60000EEB050292B217B207EE907A00B2F8EECD
:101F7000E77A05EE100A27EEC87AB8EEC56A60EE79
:101F8000277AA0EE067A744BA9F84C22E8EE067A7E
:101F9000F2EE046A87EE267AC7EEA67ABDEEC77A1D
:101FA000FDEEE77A17EE101A17EE902A19805A8084
:101FB000FEF73ABB159D95F8008008F004085FFA1B
:101FC00088F60C96FEF778BF0A9DDDF8288095F913
:101FD0000600B2F9027098F914601588574A404219
:101FE00007FB00F016FB05F582FB057682FB0082FD
:101FF000ED17C5EB2616C0171511B2B2461B1644D5
:10200000281A334402449BB262440B804A80FEF794
:1020100082BF01F4805C0146FEF701BE4A4A9FED93
:10202000498A0A920F46FEF7CEBB0893099217F031
:10203000B3FB099AD2ED927A20EE270A17F024FB1F
:10204000B0F5617FA8BF4FF4617005EE100ADFEDB7
:10205000437AB8EEC50A80EE270A08F083FD06EE43
:10206000907AF8EEE67A27EE800A17F00DFB089BCF
:1020700080B21E68EEE49FED330AFFF7C1BB304823
:1020800090F8FE17002900F093801846344D99F817
:1020900014172B681944B1F5807FA8BF4FF48071E5
:1020A0008142D4BF29602860FEF7B2BF2D4D2E4A71
:1020B0002B68108851889288ADF86C0013F4805F0B
:1020C000ADF86E10ADF87020D9F88C3222D1274EC1
:1020D000DB89B6F806C07DE51B4B9FED1A8A0A9393
:1020E000FEF771BBB9F95002B9F952121A4B07EE5B
:1020F000900A06EE901AF8EEE77AF8EEE66A27EE16
:10210000C87A60EE277AA0EE267AE8EE267AF2EE1A
:10211000046A3FE7154FDB89B7F806C00FFA8CF168
:102120009942BCBF5242ADF8702053E50027FEF73C
:1021300046BB00BF142C0020A02400201F85EB51BB
:10214000C815002000000000004E0020676666668B
:1021500035FA8E3CF424002068500020EFB6B044DD
:1021600064290020D01D00203C4E0020E8230020E0
:10217000DFF808C3B9F864129CF80040012C0CD9B0
:10218000A54A951E05EB440532F9020F09B28142BA
:10219000B8BF0146AA4289B2F6D1D9F88022528846
:1021A00008B290424DDD8A1A92B20C92FFF799B9AB
:1021B000D9F8100703689B689847227866E7139858
:1021C00010B1D05AFFF7BCB90E98C189F0880C1A2B
:1021D000A44509DD0844844506DA8C45CCBF7188E6
:1021E0003188D152FFF79FB98C45D05E06DD7188EA
:1021F0006C888842BFF692A9FFF794B9A988348801
:102200008842BFF68BA9FFF78DB9844B9842BCBFBB
:1022100000F50C40A03082E6804B9A42BCBF02F52C
:102220000C42A03296E6284680E6D9F8A8120A9118
:102230007B4CF9E57B4A9FED7C8A0A920027FEF7EA
:10224000C2BA00200C90FFF74CB94FF47A733B8070
:10225000FEF762B808232370FEF762BF2946FEF737
:1022600097BA724809F0CEFA2B6801332B60FDF75C
:1022700096BF07F02BF800283DF491AF6C4A4FF45D
:102280008051092311802370FDF789BF0893CDF891
:102290001CC017F0E1FADDF81CC0089BF0EE407A94
:1022A000FFF7B6BAB0EE670A17F0D6FAFEF780BBB2
:1022B00006221D6059602270FDF771BF17F0CCFA3D
:1022C000B0EE40CAFEF7C0BA18F80330002B7DF418
:1022D00066AF00214FF0FF32032385E8060023702C
:1022E000FDF75DBFB0EE670A17F0B6FAFFF76EBBF9
:1022F000DDF858C04FF0640E9CFBFEF709EB470E6B
:10230000F4466FF06300BCF9D6C1CDF854C0DDF8D7
:1023100058C0BEF9D4E100FB07C71598CEEB000CFE
:102320000CFB07F06FF0630790FBF7F0DDF850C08F
:10233000CEEB0000DFF848E100FB0CF0AEF8040043
:10234000FEF7ACB83B4E336819058DD53A4F3B4884
:10235000B7F88211B7F9802109F054FA84E7B9F887
:102360001C17374809F04EFA7EE7334A324C92F890
:102370007E11344892F87F2194F87D3109F042FAB9
:1023800072E7D9F81837D8043FD40B232B606BE7DA
:102390002D4B2E48198809F035FA65E7DFF898804B
:1023A0002B4898F8D0370E2202FB038393F8D217FC
:1023B00009F028FA58E7204F264897F8FC1797F8B5
:1023C000FD2709F01FFA4FE723482449244A09F062
:1023D00019FA49E72348244909F014FA44E7DFF8D9
:1023E00058E02248BEF8421109F00CFA3CE7DFF849
:1023F00048C01F48BCF8401109F004FA34E7DBF884
:1024000010101C4809F0FEF92EE70B4890F87A11DD
:10241000194809F0F7F927E7CC2B0020B0B9FFFFE6
:10242000201F0020004E002000000000B0EE010838
:1024300058290020D01D0020C8150020ACEF01084D
:10244000A0EF010884EF01080204002068EF0108F2
:102450002CEF010818EF0108ECEE010800EF01086D
:102460000CEF0108CCEE0108E4EE010848EF01088A
:1024700038EF010858EF010874EF01080C21002023
:10248000E04D00202DE9F04FBA48BB4D0268297994
:102490002DED048B02F59C4320338DB02B60002979
:1024A00000F09982AB689A4200F25C81B34ADFF88F
:1024B0000C83B34C0692069AB04E1368D90403D528
:1024C0002268D20740F1F3861E46D8F80010A94BC7
:1024D0008A7A1F68002A40F05782330448D5D5F81D
:1024E0009C30A548FB1A002B42DBA64BDFF8D0E25C
:1024F00093F805C090F8A0303EF81C8091F80BC00E
:10250000591C01F00F0100EB010E1FFA88F807F5C6
:102510009C43203398FBFCFCC0F89C3080F8A01052
:1025200000F1A3038EF8A4C0B33013F8011F0A44CE
:10253000834292B2F9D113B2002BB8BF0F331B11F3
:10254000642BA8BF642323EAE37307EE903A9FED60
:102550008E7A894AF8EEE76ADFED8C7A86EE877A22
:1025600067EE277AFCEEE77A17EE903AA2F89A30F7
:10257000F60500F16181864A864E0592DFF844B285
:102580000BF5C470BBF84E110BF01AFC8046002806
:1025900040F0B883276817F0006904D07E498B7833
:1025A000002B00F0AF86DDF814C09CF8003003F07B
:1025B000040303F0FF0233B1DDF818C0DCF800308B
:1025C000DB0640F16F857449744BDFF8FCE11B6852
:1025D000734803F57A7C00270123C5F8B8C08EF84C
:1025E00000308B700770002A40F09F8330786D4A6E
:1025F0009BF8E2919BF8E3C1BBF898A1BBF89AE184
:1026000002F10807002332F9021F9B085145C4BF9D
:1026100063F07F03DBB27145B8BF43F04003BA42B9
:10262000F1D195F8C110544A994200F0EC84002190
:1026300082F8C21085F8C1304F4A48B92368DF07D5
:1026400040F1EB8482F8C300B8F1000F00F09F85E1
:1026500095F8C230484F142B00F07A84069A524EF7
:10266000136803F00403002B40F04484376800260D
:1026700007F18309CA4626604FF0010803E0502E97
:1026800009F104091AD00AEB06031AF806205B7850
:1026900019F8010C9A4206F10406F0D249460CF0F2
:1026A0001BFE0028EBD019F8022C236808FA02F26E
:1026B0001343502E236009F10409E4D13B4B1E78EB
:1026C000002E00F05C8323689E0700F19780069A35
:1026D0001368DE0500F18D80354E012011F08AFF70
:1026E0002368344F5A0740F19580012011F082FF92
:1026F00039888B0740F1718511F003014FF001001B
:1027000018BF014607F05EFD33689E0600F1968211
:102710002368180540F183804FF4807011F03CFF6E
:102720009BF80530082B00F083800E2B00F0808092
:10273000069A136858050DD59BF82032002B45D119
:10274000DDF814C09CF80030590742D40EF0F8FEB2
:1027500012F0B0FB184B01221A700DB0BDEC048BC7
:10276000BDE8F08F0139054B2971DFF850800693E1
:10277000034CA0E64829002098300020D01D0020FE
:10278000F44D0020502200200000C84200C07F44C9
:102790004D500020190600201C060020BC4C0020D3
:1027A0006E500020E62300208C2200205150002093
:1027B000D4220020B84D00208E2B0020E0230020E2
:1027C00060220020C81500201A06002023681A0382
:1027D000BCD500233C2085F8843109F0DDF90028C0
:1027E000B8D006F0BDF93C2009F0D6F90028F8D1A0
:1027F000B0E7A24BDB78002B3FF46EAFA04E3368FE
:1028000098077FF56AAF9F4F3B88D90702D4012014
:1028100011F0C2FE022011F0EDFE39886CE74FF492
:10282000807011F0E7FE9BF80530082B7FF47DAF38
:10283000402011F0DFFE7BE7934BDFF840B29F4270
:102840009BF8022004D83AB9904B0593904E95E638
:1028500012B901228BF802209BF821708B4A216863
:1028600092F800A00592781E47424741CAF38003C0
:10287000002FC1F380619BF82020854EDFF8248271
:1028800007930CBF4FF003094FF0000908914FF078
:10289000050A052A70D8DFE802F0605945301903AF
:1028A000D5F8B430D8F80010DB88642202FB03129C
:1028B0004FF480600023CBF810208BF820308BF889
:1028C000033011F097FE9BF82020E2E7002F00F084
:1028D0002387D8F80020DBF8183093424CD23378A5
:1028E00013B92368DA0747D4059A8BF820A0137828
:1028F00023F0020313700522CBE7DDF814C09CF827
:10290000003043F002038CF8003012F047FBD8F897
:102910000020DBF81C3013440422CBF818308BF86D
:102920002020B6E7002F00F0BB838BF820A0012108
:10293000079B002B40F09683D8F80030032247F223
:102940003053CBF81C308BF82020A2E7002F00F08A
:10295000D3848BF820A005229BE7079A002A40F039
:10296000AB84089A4FF48060002A40F0AB8311F0EA
:1029700041FE0022CBF81020B9F1000F3FF4FEAD6C
:1029800048460EF0D9F8F9E5013A424B097B33F895
:10299000123019B1C3F53B6308339BB21BB2A3F5E8
:1029A0007A73B3F57A7FA8BF4FF47A7323EAE3739F
:1029B00007EE903AF8EEE76ADFED377A9FED377A67
:1029C000C6EEA77A67EE877AFCEEE77A17EE903AC2
:1029D000A5F89A30CCE5DFF8D080DFF8D0B08A4691
:1029E000C1462F4615E0195D2D48DBF800309847A9
:1029F000032C2CD8D9F8003004F1100203EB82012B
:102A000033F822304A8820BB05EB44040AF1010A5E
:102A1000A08195F830605FFA8AF46EB9D8F800307A
:102A2000DFF87CC09B7E9CF80060DA1CB242BCBF21
:102A30001E1DF6B287F83060B44239D2072CD8F8A0
:102A40000030D0D9DBF8003015482146984780B2D5
:102A5000DAE7C01A4FF47A71D31A01FB00F292FB45
:102A6000F3F30B4440F6C902934200F32E8340F285
:102A7000EE229342B8BF134698B2C5E7BC230020AC
:102A8000D4220020B84D0020404B4C004D50002077
:102A900019060020E823002000007A4400C07F448B
:102AA000A0240020BC4C0020E023002004040020CF
:102AB000B64AB74B06921B681268059342F20103AF
:102AC0001340D3F1010338BF00230993002B40F0DA
:102AD0002E83B04995F832304A780A7085F8313043
:102AE000002B00F02983AB4991F800B08BF0010B6B
:102AF000DFF8E8C2A84B9CF800C0CDF81CC00799CD
:102B0000DFF8ACE2D8F800A09EF800C0DDF81CE0C9
:102B1000DFF8CC92A14AA3FB01135B0803EB43034C
:102B2000C3EB0E01C9B20F230027089185F833309B
:102B30000999CDF824803C46E04616B333469C42C2
:102B40002BDABBF1000F00F08A83954BF85ABAF8E4
:102B50001630834200F24783BAF818308342C0F03F
:102B60004283059B03F5967E42F824E08D4B0029B5
:102B700000F04383D8530134023709F10609002ECF
:102B8000DCD19AF81A30D81C4045C0F26A8343461B
:102B90009C4285F830804646D3DB95F83330DDF82B
:102BA0002480B3F10F046342634185F898307E4C72
:102BB0001BB12368580140F1B8857C48744982688C
:102BC0000F6843687349C760BA1A9A42784AD8F8BE
:102BD00000A0DFF8D0914FF0010788BF00234F70AD
:102BE0000F7088BF80F8213017784FF0000B66B166
:102BF00033469B455FFA8BF017DA12F0B1FD29F8E6
:102C00001B000BF1010B002EF2D19AF81A30DA1CDE
:102C1000BA4203F10403C0F243833B469B4585F867
:102C200030703E465FFA8BF0E7DBDDF81CC0DFF862
:102C3000ACE10CF101038EF800303CE45D4B1B78F5
:102C4000990720D55C4B1B78042B1CD92368564E62
:102C500013F4007840F0AE833A88584F02F0100128
:102C600089B2002940F04F860E465B0500F156867A
:102C7000970600F1A48695F80931514F002B00F01A
:102C8000B6837EB944E53B8803F03003002B3FF464
:102C90003FAD102011F0AEFC202011F0ABFC494BF1
:102CA00000221A70DFF83CE1DFF83C91DFF83CA12C
:102CB000DFED457A00220EF128080EF1500C114686
:102CC0001346424829F801300EEB020708EB0206D2
:102CD00043522AF801300CEB020002310429C7EDFF
:102CE000007A7B60C7ED027AC6ED007A7360C6EDAC
:102CF000027AC0ED007A4360C0ED027A02F114025C
:102D0000DFD105E5069A1368D80640F1F981059BE5
:102D10001A7802F00402D2B22D4B002119702D4B0B
:102D200000211970002A3FF461ACDDF818C0DCF80E
:102D30000030DA067FF55AAC1E4B1B78DB063FF5F8
:102D400055AC3078244F002800F04B859BF8E431D7
:102D5000B8F1000F40F011864BB10D4AD5F8BC30E8
:102D60001268DFF85C909B1A002BC0F2DE86102000
:102D70000DF0E2FE012385F8C030307837E4DFF84B
:102D800070A0D237B846AAF1CC0937E0D01D002098
:102D9000BC4C00201C060020ABAAAAAA0C240020D0
:102DA000A4300020E8230020F44D0020BC230020A4
:102DB000A024002044220020BA2A0020B84D002080
:102DC00098300020B032002000000000B82B002016
:102DD0006E5000201A06002019060020E42300206F
:102DE000CC300020A431002068500020B42B0020FB
:102DF00064310020482E07F1060732D008EB0603A5
:102E000018F806205B7817F8010C9A4206F10606BE
:102E1000F0D239460CF060FA0028EBD03B79B87854
:102E2000C64997F803C003EB430E0AEB8E02013844
:102E300000EB4000084451688842DBD00AF82EC0FD
:102E400099F8FC1050604FF0010C0CFA03F321EAE2
:102E500003030020482E906089F8FC3007F1060734
:102E6000CCD1B74BB74AD3F80090126895F83180AF
:102E7000B54E9FEDB69A9FEDB68A07920027CA46D7
:102E8000736883B393F80090B9F1000F2BD0B26848
:102E9000C2EB0A02002A0ADB95F8FC200121B940A6
:102EA00022EA01010AF5FA7285F8FC10B260B8F165
:102EB000000F18D031785A780431C9B2002A40F096
:102EC0006F81A44ABBF8960132F9112000F1C801C4
:102ED0008A4240F3218295F8FC20997842FA07F360
:102EE000D80740F19D820137042F06F10C06C7D1A7
:102EF000FFF7E9BB95F8C630974AB3B1DDF814C0C7
:102F00009CF800305B0710D59249BBF89831B1F9B5
:102F10000610994209DD236813F0010006D1322121
:102F200082F8C600A2F8C81000E02368DF0340F171
:102F3000CF8095F8CA20884B2AB993F8C42012B9DB
:102F40003222A3F8C820012385F8CA30FFF78EBBD0
:102F5000337819F1000918BF4FF001096BB197F8E8
:102F6000C1305F2B00F01A82B9F1000F05D095F83F
:102F7000C130794F7D2B00F04582059A137803F01C
:102F8000040303F0FF02002B40F0F88095F8C170B5
:102F90007149572F00F0D983DDF818C0DFF8D481CC
:102FA000DCF8003013F0040302D05A2F00F05282F4
:102FB0005D2F00F0E7835B2F00F02E845E2F00F082
:102FC0003782562F00F0E083337843B16F2F00F043
:102FD0000885B9F1000F02D07E2F00F0CD80972F29
:102FE00000F0DA84A72F40F0D1835C4ADDF818C0E6
:102FF0001178DCF800305A4E41F00401117003F0F2
:103000000403FFF730BB92F8C210F9293FF612AB68
:10301000013182F8C210FFF70DBBDDF814E09EF815
:10302000003059077FF514AB92F83130002B3FF494
:103030000FAB4C4BDB78002B7FF40AAB92F8C3301C
:103040000133DBB2032B82F8C3307FF601ABBCF156
:10305000000F03D1B8F1000F7FF4FAAA11F09EFF20
:10306000FFF7F6BA404A3B4B1268D5F8B4E0D28974
:103070001A805A809A80D8F80000DBF81420BEF835
:1030800002E0A3F806E08242364BC0F09B800029A4
:1030900000F0528593F820204FF00209FFF7F9BBAA
:1030A000394645E4B9F1000F04D030498B78002B44
:1030B0007FF48AAA07F02057B7F1205F7FF483AA34
:1030C000FFF794BA11F068FA53E440F6CA009BE4A3
:1030D00095F8C430204A002B3FF4C8AADDF814C08C
:1030E0009CF8003003F0040303F0FF01002B7FF491
:1030F000BDAA012382F8C41082F8C530FFF7B6BA22
:10310000DDF814C09CF8003003F0040303F0FF0264
:10311000002B3FF401AE236819017FF5FDAD134F7D
:10312000BB78002B40F0C48311490B70F7E595F88C
:103130003130002B7FF4D7AC9B46D9E474D601081C
:10314000BC4C0020282B00206431002000007A4471
:103150000000C842E82300209830002044220020CC
:103160008C220020BC230020B42300201C06002059
:103170006E500020D01D002011F088FFDDF818C02F
:10318000C04EDCF8003003F00403FFF76CBA059A78
:103190001378D8077FF55CAA11F078FFFFF758BACB
:1031A000012A00F0478395F8FC300122BA4001372C
:1031B0001343042F85F8FC3006F10C067FF460AE53
:1031C000FFF781BA47F2305303224FF00209CBF8E0
:1031D0001C308BF82020FFF75CBB022011F0DCF9DB
:1031E0003988FFF789BA52F82430059883423ED9CE
:1031F000A54BD85B00297FF4BDACDDF820E004EBE3
:10320000440CF44405EB4C0C95F87CE080B2019042
:10321000ACF83400BEF1000F08D10798022844D959
:10322000DFF880E24FF0010C8EF87CC0B9F800C0E6
:10323000B9F802E0B9F80400E644704480B20FFA2D
:1032400080FE0090914880FB0EC0A0EBEE7E90487F
:10325000DDF800C027F800C01FFA8EF08AE4584657
:1032600075E40433DBB21E4685F8303067E4E3B220
:10327000184602910392049312F072FA049B029989
:10328000039A032B3FF672AC95F833C07E4B4FF098
:10329000010E0EFA04FE2CEA0E0C85F833C066E42B
:1032A000DBB21E4685F83030A3E4019862E411F0E9
:1032B00075FE3668FFF709B9764A774B10681988AA
:1032C0000AF07EFD012800F0AA82089B23B1D5F800
:1032D000B4301B79002B7FD1002F7FF44DABD8F891
:1032E0000020DBF810306D499342C0F03F8201228C
:1032F00081F82020FFF7CDBA11F05EF99BF820206D
:10330000FFF7C7BA08F07CFC654B01280CBF1870AA
:1033100083F80080FFF747B9C838824250DA95F841
:10332000FC209B783A41D2073FF5DDAD5B4208EEC9
:10333000903A012011F016F909F1FF33132B3FF6F3
:1033400032AF0FF2080C5CF823F000BFA93500087B
:103350007935000847350008FF3400082D3600088D
:10336000D73500084B360008A9340008F1360008AC
:10337000A1360008C9360008A7310008FF3400084C
:1033800029350008D73500084B360008A934000855
:103390000536000879360008D7340008059A1378F6
:1033A00003F0040303F0FF08002B00F02E8211F05D
:1033B000F5FDD9E53B88DA0640F1958200265AE40E
:1033C00095F8FC300122BA4023EA02020AF5FA73AA
:1033D00085F8FC20B36086E511F0EEF803224FF487
:1033E0007A738BF82020CBF81C30FFF752BA0E20EE
:1033F0000DF0A2FB012387F80931002E7FF452ACB7
:10340000FFF786B9DDF814C09CF8003003F0040320
:1034100003F0FF08002B00F0A98211F0BFFDACE51E
:1034200008EE901A002984D0022011F09BF883E75F
:10343000022203268BF8D02710F0F4FF12F09CFB39
:10344000304611F08FF8069A0E4E136803F004030D
:10345000FFF709B991F8C400002840F0E28291F822
:10346000C63083F0010381F8C630002B40F0CF82D4
:103470000D200DF061FBD8F80030024E03F004037C
:10348000FFF7F1B88C220020E8230020565555554F
:1034900018310020B4230020B8230020BC230020D2
:1034A0006E50002098300020D5F804311A78022A96
:1034B00000F08183997D18EE900A0144C829A8BFC5
:1034C000C82121EAE171997511200AF0C1FEB9F114
:1034D000110F3FF468AED5F804311A78022A00F0D3
:1034E000E682597D18EE902A1144C829A8BFC82148
:1034F00021EAE171597514200AF0AAFE53E6DDF8BD
:103500001CC018EE90EA9CF8051071446429A8BF0D
:10351000642121EAE1718CF805100D200AF098FE73
:10352000B9F10D0F3FF43FAE079A18EE903A1179BA
:1035300019446429A8BF642121EAE17111710E20A8
:103540000AF086FE2FE6079A18EE903A92F803905A
:103550009944B9F1640FA8BF4FF0640929EAE979E9
:1035600082F80390D5F80011104605F03DFB49465E
:1035700003200AF06DFE16E6DDF81CC018EE90EA96
:103580009CF80190F144B9F1640FA8BF4FF06409B1
:1035900029EAE97960468CF8019005F07FFB4946FD
:1035A00002200AF055FEFEE5079A18EE903A92F8CE
:1035B00000909944B9F1FA0FA8BF4FF0FA0929EA2F
:1035C000E979104682F8009005F068FB4946012031
:1035D0000AF03EFEE7E5D5F804311A78022A00F039
:1035E000AF82997818EE900A0144C829A8BFC82173
:1035F00021EAE17199700F200AF02AFEB9F10F0F4C
:103600003FF4D1ADD5F804311A78022A00F0B28225
:10361000597818EE902A1144C829A8BFC82121EA78
:10362000E171597012200AF013FEBCE5DDF81CC0F0
:1036300018EE90EA9CF80610714481F308018CF8AA
:10364000061005200AF004FEADE5D5F804311A781D
:10365000022A00F04782197B18EE90CA6144C829FB
:10366000A8BFC82121EAE171197310200AF0F0FD0A
:10367000B9F1100F3FF497ADD5F804311A78022A4A
:1036800000F0D482D97A18EE90EA7144C829A8BF14
:10369000C82121EAE171D97213200AF0D9FD82E52F
:1036A000D5F804311A78022A00F09F82597B18EE6F
:1036B00090EA7144C829A8BFC82121EAE171597371
:1036C0000A200AF0C5FD6EE5D5F804311A78022A01
:1036D00000F0C782D97D18EE900A0144C829A8BF1E
:1036E000C82121EAE171D9750B200AF0B1FD5AE534
:1036F000D5F804311A78022A00F0BE81D97818EE84
:1037000090CA6144C829A8BFC82121EAE171D970D3
:1037100009200AF09DFD46E5C649DBF81C20096832
:103720000A44CBF81820FFF727B9C34BDFF804E3AE
:10373000D968DEF800209A60521AC82A7FF675AA66
:10374000012283F82120FFF770BADDF818C0BB4AC8
:10375000DCF80030BA4E4FF47A7111801A0600F18D
:10376000BA8003F00403B74EFEF77DBF029110F05C
:1037700023FF0299032240F6B83381F82020CB6161
:10378000FFF787B8012655E608F08AFD0023BB2F16
:103790000B9300F00E81B72F00F01A81BE2F00F0BE
:1037A0002981BD2F7EF45AAF4FF6FE71ADF82C1073
:1037B000A44E3268B2F86070B2F862003944034433
:1037C000A2F86230A2F8601008F06AFDDDF818C0B7
:1037D000DCF80030002203F0040385F8C220FEF775
:1037E00042BFB8F1000F3FF4C2AA95F8C030DFF82D
:1037F0007C92002B3EF4FBAE04900DF081F904980E
:1038000089F8C0003878FEF7F2BE0B200DF094F96D
:1038100087F8C280FFF7A8BB012202260AE6D5F886
:10382000B430D8F80020DB88642101FB0323CBF8F7
:1038300010304AE584489A7830F91130B3F5617F49
:10384000C0F2CD8040F633018B42A8BF0B46A3F5F2
:103850006173B9F10C0F7FF4A6AC4FF4966191FB44
:10386000F2F293FBF2F395F808215FFA83F94A45E7
:103870003FF499ACB9F1030F8ABF02234B461A46B5
:10388000C3EBC30371490BEB430398BF4A4603F2F2
:10389000D2730B6085F8082105F01EFA0C2049460A
:1038A0000AF0D6FC09F10100C0B210F05BFE7AE428
:1038B0006049D5F8B83009688B42BFF430AA03924A
:1038C00008F09EF9039A00287FF429AA604BB8708B
:1038D0001870FFF724BA07F013F93368594E03F054
:1038E0000403FEF7C0BE102010F056FE202010F09A
:1038F00081FE5848011D07F0B1F8574B02221A709B
:103900000126FFF7B8B9102010F074FE5249336851
:103910003A8881F800800126FFF7A7B94F4B50493C
:103920001B68B1F900005B890028B8BF404298428B
:10393000BFF69EA9B1F902100029B8BF49428B42D7
:103940007FF796A993063FF596A9202010F024FE54
:10395000444B454E0CCB3046311D7360326007F04E
:103960007DF83D4B01261E70FFF785B90B200DF049
:10397000E3F887F8C280FFF700BB002B3ED195F833
:10398000C0303A4F002B3EF432AE0DF0B9F80023B0
:1039900087F8C030FEF72ABEDDF818C0344ADCF8DC
:1039A0000030284E4FF4C871118003F00403FEF775
:1039B0005ABE02221946ADF82E201346F8E6202002
:1039C00010F018FE244B00221A700126FFF753B99D
:1039D0004FF6FE721946ADF82E201346E8E6002396
:1039E00037E711F053FB069A164E136803F00403F1
:1039F000FEF739BE0221ADF82C10D9E60D4A126847
:103A00004FF47A7101FB0323C5F8BC30B7E70C20F3
:103A10000DF092F8D8F800300A4E03F00403FEF7D8
:103A200022BE012081F8C42081F8C500054EFEF7B2
:103A30001ABE00BFBC4C0020BC2300204E5000200A
:103A4000D01D00208C220020E8230020282B0020FD
:103A50006E5000209C320020B0320020F424002060
:103A6000E04D002090320020A83200209830002045
:103A70003A29002000000000B8EEE80AD3ED0A7AE7
:103A800080EE080A30EE270AB5EEC00AF1EE10FA11
:103A900042D4B4EE480AF1EE10FAC8BFB0EE480ABC
:103AA00083ED0A0A09200AF0E9FBFFF77CBBB8EEB8
:103AB000E80AD3ED0E7A80EE090A30EE270AB5EE59
:103AC000C00AF1EE10FA2AD4B4EE480AF1EE10FA68
:103AD000C8BFB0EE480A83ED0E0A14200AF0CEFBF0
:103AE000FFF761BBB8EEE80AD3ED0C7A80EE080A66
:103AF00030EE270AB5EEC00AF1EE10FA12D4B4EE99
:103B0000480AF1EE10FAC8BFB0EE480A83ED0C0A7D
:103B100010200AF0B3FBABE51FED2A0AC0E71FED4A
:103B20002B0AD8E71FED2D0AF0E711F037FA89F8D4
:103B3000C0803878FEF75BBD4FF00209FEF720BF6A
:103B4000B8EEE80AD3ED097A80EE080A30EE270ACB
:103B5000B5EEC00AF1EE10FA27D4B4EE480AF1EE41
:103B600010FAC8BFB0EE480A83ED090A0F200AF028
:103B700085FB43E5B8EEE80AD3ED087A80EE080A43
:103B800030EE270AB5EEC00AF1EE10FA10D4B4EE0A
:103B9000480AF1EE10FAC8BFB0EE480A83ED080AF1
:103BA00012200AF06BFBFFF7FEBA1FED4E0ADBE7AF
:103BB0001FED500AF2E7B8EEE80AD3ED0F7A80EE77
:103BC000090A30EE270AB5EEC00AF1EE10FA27D442
:103BD000B4EE480AF1EE10FAC8BFB0EE480A83ED21
:103BE0000F0A11200AF04AFB71E4B8EEE80AD3ED9F
:103BF0000D7A80EE080A30EE270AB5EEC00AF1EE23
:103C000010FA10D4B4EE480AF1EE10FAC8BFB0EEC4
:103C1000480A83ED0D0A0A200AF030FBFFF7C3BA09
:103C20001FED6C0ADBE71FED6D0AF2E7B8EEE80A5C
:103C3000D3ED0B7A80EE080A30EE270AB5EEC00A03
:103C4000F1EE10FA28D4B4EE480AF1EE10FAC8BF2B
:103C5000B0EE480A83ED0B0A13200AF00FFBFFF7C2
:103C6000A2BAB8EEE80AD3ED107A80EE090A30EE77
:103C7000270AB5EEC00AF1EE10FA10D4B4EE480AE5
:103C8000F1EE10FAC8BFB0EE480A83ED100A0B201F
:103C90000AF0F4FAFFF787BA1FED8A0ADAE71FED98
:103CA0008B0AF2E72DE9F04F964803788DB06BB997
:103CB000954D964E95F84A30012B00F019819448A5
:103CC0004C358542F6D10DB0BDE8F08F914D286896
:103CD0000028F8D005F10809A84606F04BF800289E
:103CE000F1D0286806F040F80928034621D03F2883
:103CF0001FD0D8F80420002A6DD00C2800F0CA800C
:103D00000A2B00F082800D2B7FD07F2B00F0728178
:103D10002F2A0CD8A3F12001C9B25E2907D8AC180C
:103D200019460132286823726A6006F039F828685B
:103D3000D3E7794E6C684FF0000A06F5E07B5746F2
:103D40002CB176483168224615F0ECF910B9B2462C
:103D5000002F3ED010365E45F2D3002F53D03A6884
:103D6000DAF80030125D1B5D93424CD16B4823465C
:103D70000AB92D2B3ED9C2543A68DAF80010013343
:103D80006B60D25CC95C9142F2D00BB1574513D045
:103D9000634805F07FFABA4509D357F8100B05F0D0
:103DA00079FA2868092105F0FBFF5745F5D95D48E8
:103DB00005F070FA6B6800249C42B8D2574E315D12
:103DC000286805F0EDFF6B6801349C42F7D3286842
:103DD00083E73746BEE7042800F05B810C2859D002
:103DE0007F2BA4D0A3F12001C9B25E299FD8202B3C
:103DF00095D19CE7591C68182B4420261E726960D7
:103E00000B460272C2E72346BFE7474805F042FA75
:103E10004248232115F069F9002800F020813F492C
:103E2000421AC8F8042082B1531EE918097A2029E1
:103E300040F0F38043B15A1E364819F80210202989
:103E400030D11346002BF6D16B60384BDFF8B4C08D
:103E50000022C9F8002043F80C2C43F8082C43F842
:103E6000042C43F8042B43F8042B43F8042B43F8A9
:103E7000042B43F8042B43F8042B9CF8001043F860
:103E8000042B1A6000293FF41EAF264805F002FA01
:103E9000286822E7264805F0FDF9224805F0FAF9DE
:103EA00028681AE74360234A1B4CD2F800A02B4431
:103EB00000221A7204F5E07B2668304615F02AF9D4
:103EC000314607460246154815F02CF938B908EB7B
:103ED00007031B7A53445B785B0700F0AA80103419
:103EE0005C45E9D3144805F0D5F900236B60ACE7D5
:103EF000DFF820802868C8F83850C8F83C00C14670
:103F0000002725E0515000201C230020000402401F
:103F1000B423002020320020B0D60108283200202F
:103F2000ECF00108F4F001087CED010838320020C3
:103F3000FCF001088811002008F1010824284ED067
:103F4000DFF8A0A19AF800305B073AD5D8F83C001A
:103F500005F010FF20B3D8F83C0005F005FFD8F8B5
:103F6000382092F848300446002BE7D0012B3AD095
:103F7000022B4BD0032B52D0042B73D0052B61D0D6
:103F8000062BE3D192F8490001F00CFB002800F069
:103F9000AB8005F043F9D8F83830002283F8482088
:103FA00098F89130002B3FF48AAE286804F00CFF9B
:103FB0000FF004FF322004F0FDFE04F011FF10F0BA
:103FC000D5F9232CD9F83C3067D03E4B1B681B78C1
:103FD000A34251D0D8F8382092F84830D0E70123D6
:103FE00082F84830CCE74D280CBF0223002382F82A
:103FF0004830C5E7013A08EB020300213248C8F80F
:104000000420197205F046F9286866E63C280CBFC2
:104010000323002382F84830B2E7134643E74028E1
:1040200019D8042350711771D771907182F84830F4
:10403000A6E75C45BFF456AF244AE368781C1044F9
:10404000984752E711795079884200F22F8193798D
:10405000A34200F0638182F84870002390E7D8F80B
:104060000420E0E6937982F8490080EA03040523FE
:10407000947182F8483083E780216B200FF042FA78
:10408000962004F097FE124B124A1A6072B60EF098
:10409000ADFE0E4808F05CFF15E60F490F48C9F861
:1040A00000300122C9F840300A7005F0F3F80C48DE
:1040B00005F0F0F89AF8003043F002038AF8003077
:1040C00083E700BFCC1E002024F101082832002025
:1040D000FCFF0120EFBEADDE5150002028F10108A9
:1040E000F4F001084D500020D8F8384094F84930D9
:1040F000233BD72B01F22F82DFE813F00D0A2D0AA4
:10410000030A2D0AD9092D0AAA092D0AA1092D0A87
:104110004C092D0A29092D0AE2082D0AC8082D0A82
:1041200050082D0A14032D0A27082D0A2D0A1608F7
:104130002D0A05082D0A2D0AF7072D0A9D07980755
:104140002D0A2D0A2D0A2D0A2D0A0B012D0A7A0798
:104150002D0A3A072D0A2D0A2D0A2D0A2D0A2D0A9D
:104160002D0A2D0A2D0A2D0A2D0A2D0A2D0A2D0A97
:104170002D0A2D0A2D0A2D0A2D0A2D0A2D0A2D0A87
:104180002D0A2D0A2D0A2D0A2D0A2D0A2D0A2D0A77
:104190002D0A2D0A2D0A2D0A2D0A2D0A2D0A2D0A67
:1041A0002D0A2D0A2D0A2D0A2D0A2D0A2D0A2D0A57
:1041B0002D0A2D0A2D0A2D0A2D0A2D0A2D0A2D0A47
:1041C0002D0A2D0A2D0A2D0A2D0A2D0A2D0A2D0A37
:1041D0002D0A2D0A2D0A2D0A2D0A2D0A2D0A2D0A27
:1041E0002D0A2D0A2D0A2D0A2D0A2D0A2D0A2D0A17
:1041F0002D0A2D0A2D0A2D0A2D0A2D0A2D0A2D0A07
:104200002D0A2D0A2D0A2D0A2D0A2D0A2D0A2D0AF6
:104210002D0A2D0A2D0A2D0A2D0A2D0A2D0A2D0AE6
:104220002D0A2D0A2D0A2D0A2D0A2D0A2D0A2D0AD6
:104230002D0A2D0A2D0A2D0A2D0A2D0A2D0A2D0AC6
:104240002D0A2D0A2D0A56061506F5052D0A7205AA
:104250005A054E0582047A04E30050043104D70362
:104260002D0AA4022D0A1B022D0A2D0A2D0A2D0A41
:104270002D0A2D0A2D0A2D0A2D0A2D0A2D0A2D0A86
:104280002D0A2D0A2D0A2D0A2D0A2D0A2D0A2D0A76
:104290002D0A2D0AF7022D0A2D0ADB011E012D0A17
:1042A0002D0A2D0A2D0A2D0A2D0A140192F806E076
:1042B000501884EA0E0E013182F806E01171047282
:1042C0005EE6E3795A1C2344E27193F808B004F0E7
:1042D000F5FB824604F0F2FB814604F0EFFBE37944
:1042E00005330746E371BBF1000F00F06E83BBF1AD
:1042F000100F0ED1C8F888A0C8F88C90CA4B08B12E
:10430000C3F88400C9480223011D88F8903006F0E4
:10431000A5FB0020014604F097FF3AE6062382F849
:1043200048302DE6C24B1B785A0701F1148110F07A
:1043300079F811F021FCECE7E379E218013392F807
:104340000890E371B9F1FF0F00F0208298F89230E5
:10435000DFF8D4A2994580F014820020014604F0D1
:1043600073FF04F05BFFDAF83830186804F02CFDB6
:10437000DAF83C0004F0F4FB0CF0C2FB72B68023C8
:104380004FF0400B03AC4FEAC909738301270422A5
:10439000A6F81AB02146A748ADF80C30CA448DF8EB
:1043A0000E208DF80F7004F033FA2146A1488DF8E5
:1043B0000E708DF80F70ADF80CB004F029FABAF851
:1043C0009810DAF8943001FA07F2186807FA01F148
:1043D0009740384389B218601983A6F818B031693C
:1043E0000806FCD408EB09011868B1F898C0D1F8A8
:1043F00094E0012707FA02F207FA0CFC42EA0001F6
:104400001FFA8CFC4022002019600146AEF81AC049
:10441000728305F0D7FE3846394605F0D3FE42F2E6
:104420000F7702E0002F40F022823369814A19069B
:10443000F8D508EB090B4FF0010ABBF89830DBF810
:104440009400BBF89A100AFA03F39BB20383042387
:10445000ADF80C10214601928DF80E308DF80FA0AA
:1044600004F0D6F95046002105F0ACFE019A002F69
:1044700000F0058233691A0613D5DBF89430BBF8D7
:1044800098201B690AFA02F212EA030000F0F18197
:10449000402300203383014605F094FE33691A0659
:1044A000EBD408EB0903B3F89820D3F8943052000A
:1044B00098E7E279A318511C1B7AC9B20F2BE1715E
:1044C00000F25F815C4F2144C3EBC3033B44097A94
:1044D0000232E27183F8D010E279A1180132097A30
:1044E000E27183F8D110E279A1180132097AE27100
:1044F00083F8D210E279A1180132097AE27183F8C7
:10450000D310E279A1180132097AE27183F8D4104C
:10451000E279A1180132097AE27183F8D510E279C3
:10452000A1180132E2710A7A83F8D62005F08AFEDA
:10453000EFE6424BDFED427A1B68032103F13802BC
:10454000E07900F1010E271854FA8EFE3F7A9EF8AA
:1045500008E007EB0E27BFB207EE107AB8EE477AF5
:10456000023087EE277AE071013902ED067AE079B0
:1045700000F1010E04EB000754FA8EFE3F7A9EF81C
:1045800008E007EB0E27BFB207EE107AB8EE477AC5
:1045900000F1020087EE277AE07102ED037AE079FC
:1045A00000F1010E04EB000754FA8EFE3F7A9EF8EC
:1045B00008E007EB0E27BFB207EE107AB8EE477A95
:1045C00000F1020087EE277AE071A2EC017AB7D100
:1045D000DFED1B7A1A460421C3F10307B818072838
:1045E000E07947D004EB000E02309EF808E0E0715D
:1045F00082F804E0E07904EB000E02309EF808E057
:10460000E07182F80EE0E07904EB000E0A299EF8D2
:1046100008E000F10200E07182F818E03FF479AEA2
:1046200001310132DAE700BF20320020A832002039
:104630004D50002000040240C81500208C220020AC
:1046400000007A44E179CD4B0A4603F1100002F1F3
:10465000010EA71854FA8EFE3F7A9EF808E007EB89
:104660000E2723F8027F02328342D2B2EFD11031FB
:10467000E1714EE600F1010C04EB000E54FA8CFCE3
:104680009EF808E09CF808C00EEB0C2E1FFA8EFE78
:1046900007EE10EAB8EE477A023087EE277AE0712B
:1046A00083ED117AE07900F1010C04EB000E54FA6D
:1046B0008CFC9EF808E09CF808C00EEB0C2E1FFA4C
:1046C0008EFE07EE10EAB8EE477A023087EE277AC0
:1046D000E07183ED127AE07904EB000E02309EF86F
:1046E00008E0E07183F84CE09AE7E379A44A581CAB
:1046F000E11854FA80F0097A007A126801EB00217F
:104700000233E371A2F86210E379581CE11854FAFD
:1047100080F0097A007A023301EB0021E371A2F8FC
:104720006010F6E561799748A1FB0023CA1A03EBF4
:1047300052039B08C3EBC303CB1A13F0FF0F20D126
:10474000A0FB0123C91A03EB5103C3F38700002820
:104750003FF4DFAD8C4B19688F1CE379E21801330D
:1047600092F808E0E3714FFA8EFC002201EB020997
:10477000BB1899F90290E14500F04A850832282AD1
:10478000F4D10120002104F05FFDC2E50027602282
:1047900039467E487E4C88F8927014F073FC8DF890
:1047A0000B709DF80B30A2789A4256D9DFF8E4A13D
:1047B00027469DF80B3004EBC3035B79DB0741D53B
:1047C0009DF80B3007EBC3031B793AF91330002B2C
:1047D00038DD9DF80B309DF80B2098F8929007EB90
:1047E000C20207EBC30392689B681189D3F804E007
:1047F0004FEAC90208EB02030846C3F894E0A3F8A5
:104800009A104FF0010E00230EFA03F101404AD135
:104810000133102BF8D10B4642440421A2F8983002
:10482000B2F89A30ADF80C308DF80E100123D2F8A2
:1048300094008DF80F3003A909F1010903F0E8FF96
:1048400088F892909DF80B30A2780133DBB28DF896
:104850000B309DF80B309A42ABD80020012104F0B8
:10486000F3FC98F8920004F005F9FFF792BB013FC2
:10487000DBE540217183012105F0A4FCFAE540232A
:1048800038463946138305F09DFC62B60A2004F0D1
:1048900091FA10F00FFBDFF800C1DCF83830F3229A
:1048A00083F8492035E59BB2B6E763790F2B7FF497
:1048B00068AFE279A318511C1B7AC9B2072BE171CA
:1048C0003FF65FAF901C2E4F214454FA80F03F68B2
:1048D000007A097AC3EBC30307EB430701EB00211E
:1048E0000332E271A7F82111E279501CA11854FAA1
:1048F00080F0097A007A023201EB0021E271A7F818
:104900002311E279501CA11854FA80F0097A007A38
:10491000023201EB0021E271A7F82511E279A1181A
:104920000132097AE27187F82711E279A118013280
:10493000097AE27187F82811E379E2180133127AD3
:10494000E37187F82921E379E2180133127AE371E0
:1049500087F82A2104F0B2F8C7F82B01D9E4E379EB
:10496000591CE21854FA81F1127A097A023302EBE7
:104970000122A8F84420E371CBE400BFF62B00200D
:104980008C22002025499224CC1E0020B432002025
:10499000301F0020CC2B0020203200208A4B1B78B7
:1049A00003F0040303F0FF01002B7FF4B2ACE279C3
:1049B000864BA718501C3A7AE071022A83F8D02758
:1049C0007FF6B5AC83F8D017B1E41020C8F87CA00E
:1049D000C8F880900FF00EFE7D4B7E4A197841F0AA
:1049E00001011970002F3FF494ACC2F8847090E478
:1049F000754B1B785C073FF58CAC0AF095FC96E490
:104A0000E379591CE21854FA81F1127A097A02EB1F
:104A1000012189B26FF4AF67C8199A1C6B4FC62881
:104A2000D2B203F10300E27154FA80F0224498BF3D
:104A3000A7F89611117A90F808E06748634A006871
:104A400001EB0E2EA7F840E1191D03F1050E54FAF3
:104A500081F154FA8EFE097A9EF808E001EB0E2EE1
:104A6000A7F842E1991D03F1070E54FA81F154FAB7
:104A70008EFE097A9EF808E001EB0E2EA7F844E1BD
:104A800003F1080103F1090E54FA81F154FA8EFE84
:104A9000097A9EF808E001EB0E2E03F10A0154FAA0
:104AA00081F1A7F8DCE103F10C0E097A87F8F11126
:104AB00054FA8EFE03F10D019EF808E087F8F2E14A
:104AC00054FA81F10E33097AE37187F88511E3799D
:104AD000E1180133097AE37187F89211E379591CDF
:104AE00003F1020E54FA81F154FA8EFE097A9EF80F
:104AF00008E001EB0E2101EB810149000333E37172
:104B0000A0F85E10E379E1180133097AE37187F8C0
:104B10007A11E379E1180133E3710B7A87F87E317A
:104B2000E379E1180133097AE37187F87D11E379BC
:104B3000E1180133097AE37187F87F116379172B44
:104B40007FF6E7ABE379E1180133097AE37182F884
:104B50006111E379581CE11854FA80F0077A087A59
:104B6000991C00EB072054FA81F1A2F85001097A50
:104B70000333E37182F85F11E379E1180133097AB5
:104B8000E37182F86A11E379E1180133097AE3717C
:104B900082F86911FFF7BDBB0B4B1B7859073FF536
:104BA000B8AB0B4B1A7842F004021A70FFF7B1BB96
:104BB000054B1B7858073FF5ACAB084B4FF4C87258
:104BC0001A80FFF7A6BB00BF4D500020C81500207B
:104BD00044220020203200208C2200203A2900208C
:104BE0006379092B7FF6CDADE279C64BA1181B681E
:104BF000097A0132E2711970E279A1180132097A59
:104C0000E2715970E279A018511C027AE171642AAC
:104C1000A8BF64221A71E279A018511C027AE171CE
:104C2000642AA8BF64225A71E279A018511C027A42
:104C3000E171FF2AA8BFFF229A71E279A018511CE6
:104C4000027AE171642A28BF6422DA71E279A1183C
:104C50000132097AE2719970E279A1180132097A78
:104C6000E271D970E279501CA11854FA80F0023236
:104C7000097AE271027A01EB02225A8162790A2AE8
:104C80007FF647ABE279A1180132097AE271197215
:104C900062790B2A7FF63DABE2799B499B4FA018C6
:104CA0000132007AE2711873E2790B68A1180132BF
:104CB000097AE27187F80914E279A1180132097AB8
:104CC000E27187F80A14E279A1180132097AE271D7
:104CD00083F84E10E279A1180132097AE27183F863
:104CE0004F10FFF716BB884B1B681A78022A00F09A
:104CF0009480013B0022E17960180133007A013190
:104D0000E1715870E17960180131007AE171D8726F
:104D1000E17960180132007A01310A2AE17158758F
:104D2000E9D1FFF7F6BAE379E1185A1C097AD2B251
:104D3000E271002900F0D3807549087840F0020044
:104D40000870224402337349127AE3710A7003F047
:104D5000B5FEC8F8700003F0B1FEC8F87400E3793E
:104D600098F87A206C4903F1010C981C03F1030EAA
:104D7000E71854FA8CFC54FA80F054FA8EFE9CF832
:104D800008C03F7A007A9EF808E007EB0C2700EB9A
:104D90000E20043342F00202A8F87870E371088014
:104DA00088F87A20FFF7B5BA63795B08122B3FF6D3
:104DB000E8AC002B00F09980E17901EB4307FFB2EA
:104DC0000A460DF10A0002F1010C04EB020E54FA3E
:104DD0008CFC9EF808E09CF808C00232D2B20EEBC0
:104DE0000C2EBA4220F802EFEDD101EB4301E17144
:104DF000581E4A49002B7BD05F00002203AC34F8D8
:104E000002E021F802E00232BA42F8D1122B6FD14F
:104E1000012388F86C30FFF77CBADFED416A9FED23
:104E2000417A03F138020321F2EE047AE07927187F
:104E300001303F7AE07106EE107AB8EE466A013929
:104E400086EE276A02ED066AE07904EB000700F1BE
:104E500001003F7AE07106EE107AB8EE466A86EEFF
:104E6000266A02ED036AE07904EB000700F1010015
:104E70003F7AE07106EE107AB8EE466A86EE076A6F
:104E8000A2EC016AD2D11A460421C3F10307F2EE63
:104E9000047AB8180728E07904EB000E00F101004D
:104EA0009EF808E042D0E07182F804E0E07904EB7B
:104EB000000E01309EF808E0E07182F80EE0E07923
:104EC00004EB000E0A299EF808E000F10100E071F1
:104ED00082F818E03FF41DAA01310132D9E70C49EC
:104EE000087820F0020008702BE70C494FF0FF30E3
:104EF0000D4A01EB4001002321F8023F9142FBD112
:104F000086E700BF282B00208C220020C815002037
:104F100044220020BA2A0020BC2A00206832002047
:104F20000000C84200007A448A32002007EE10EAEE
:104F3000B8EE477AE07187EE277A83ED117AE0794F
:104F400004EB000E01309EF808E0E07107EE10EA75
:104F5000B8EE477A87EE277A83ED127AE07904EB90
:104F6000000E01309EF808E0E07183F84CE0B3E7F2
:104F70006279CB4BA3FB02C25208122A3FF601AC66
:104F8000002A3FF4C6A9C74B40F2ED2E03EB4202C4
:104F900040F6CA0713E0B842B4BF01463946DFF80D
:104FA0001CC3A1F2EE218CFB01C0C917C1EBE001CB
:104FB000C9B283F8A411023393423FF4AAA9E1795C
:104FC00060180131007AE17183F8A301E17901F100
:104FD000010C601854FA8CFC007A9CF808C000EBB5
:104FE0000C2080B202317045E171D4DC0021E0E791
:104FF000E379AC4FE2180133127AE37187F8DA21D2
:10500000E379E2180133127AE37187F8DB21E3795F
:10501000591CE21854FA81F1127A097A023302EB30
:105020000122E371A7F8DC21FFF773B9012388F8A7
:105030009130FFF76EB9E3799A4FE2180133127A93
:10504000E37100237A71BB6003F038FDBB6818433D
:10505000B860E379E2180133127AE37187F890219E
:10506000E3795A1CE11854FA82F2087A92F808E0BF
:10507000991CDA1C00EB0E2054FA81F154FA82F2EA
:10508000A7F8580192F808E0087A5A1D191D00EB9C
:105090000E2054FA81F154FA82F2A7F85A0192F8DC
:1050A00008E0087ADA1D991D00EB0E2054FA81F110
:1050B00054FA82F2A7F85C01087A92F808E003F14A
:1050C000090103F1080200EB0E2054FA82F254FAAF
:1050D00081F1A7F88001127A097A0A3302EB0122E2
:1050E000E371A7F88221FFF714B96F4B03F10801B0
:1050F000E279A0180132007AE27103F8010F8B42C5
:10510000F6D1FFF706B9E379664FE2180133127A58
:10511000E37187F8E421E379E2180133127AE3714D
:1051200087F8E321FFF7F5B8E3796049E218013326
:10513000127AE3710B683AB3022A2CDC1A7025D17B
:105140005B4B5C4A1A60FFF7E4B8E379554FE2180D
:105150000133127AE37187F87A21E379E218013397
:10516000127AE37187F87E21E379E2180133127A2B
:10517000E37187F87D21E379E2180133127AE37154
:1051800087F87F21FFF7C5B801221A70484B4A4AB9
:105190001A60FFF7BEB802221A70D1E7E379E2186D
:1051A000591C127AC9B20B2AE1713FF6EAAA3F48AC
:1051B000214402EB4202097A00685200D0320233E5
:1051C00002440329E37102F101033FF6DAAA917167
:1051D000E17960180131007AE1715070E279A1182B
:1051E0000132097AE2715970E279A1180132097A23
:1051F000E2719970E279A1180132097AE271D970ED
:10520000E279A1180132097AE2711971FFF781B8C8
:1052100083F800E0E27902F1010C04EB020E54FA8B
:105220008CFC9EF808E09CF808C002320EEB0C2EB5
:10523000E271A3F802E0E27904EB020E01329EF87B
:1052400008E0E27183F804E0E27904EB020E013237
:105250009EF808E0E27183F805E0E27904EB020EC3
:1052600001329EF808E0E27183F807E0E27904EB8E
:10527000020E01389EF808E0013210F0FF00E271E2
:1052800083F806E07FF469AAFFF743B8E379054F96
:10529000E2180133127AE37187F89221FFF739B8E7
:1052A000ABAAAAAAC81500204F1700208C22002004
:1052B0008411002081370108194601081F85EB5130
:1052C000E17962184B1C127ADBB21F2AE3713FF6B8
:1052D00058AA607908287FF454AA2344AE4F187A5C
:1052E0008C3207EB820300F03F000331E1715880FC
:1052F000E17960180231007AE1715988800100F487
:10530000FE5001435980E17904EB010E481C9EF8E0
:105310000810E071090107F82210E17960180131E5
:10532000E171007A17F8221000F00F00014307F82E
:105330002210E279A1180132E2710A7A5A700DF056
:1053400013FC0DF06DFC0DF049FCFEF7E2BF924B33
:1053500003F14001E279571CA01854FA87F7007A4C
:105360003F7A023200EB0720E271A3F8B002E27943
:10537000A0180132007AE27183F8B202E279A01833
:105380000132007AE271043383F8AF028B42E1D13B
:10539000FEF7BFBFE379804AE1180133097AE37170
:1053A00082F89011E379591CE01854FA81F1077AD8
:1053B00091F808E0981CD91C07EB0E2754FA80F0EE
:1053C00054FA81F1A2F89A71077A91F808E0181D51
:1053D000591D07EB0E2754FA81F154FA80F0A2F818
:1053E00096710F7A007A991D00EB072054FA81F12B
:1053F000A2F89801097A0733E37182F89111637971
:10540000082B7EF686AFE379581CE11854FA80F039
:105410000F7A90F808E0991CD81C07EB0E2754FA75
:1054200081F154FA80F0A2F89E71097A007A04336F
:1054300001EB0021E371A2F8A011FEF76ABFE37946
:10544000554FE2180133127A7A71E371FEF761BFAA
:10545000E379514F591CE21854FA81F1107A91F80E
:1054600008E09A1CD91C00EB0E2054FA82F254FA80
:1054700081F1A7F88001097A127A181D02EB012246
:1054800054FA80F0A7F88221991D5A1D007A87F8F6
:10549000840154FA82F254FA81F1127A097A0733BC
:1054A00002EB0122E371A7F88621FEF732BFE37910
:1054B000394F591CE21854FA81F1107A91F808E03A
:1054C000DA1C991C00EB0E2054FA81F154FA82F296
:1054D000A7F85801087A92F808E0591D1A1D00EB48
:1054E0000E2054FA82F254FA81F1A7F85A01127A86
:1054F000097A063302EB0122E371A7F85C21FEF77B
:1055000008BF254F0023BB6003F0D8FABB681843DF
:10551000B860FEF7FEBEE279A318571C187AFFB2F6
:105520001328E7713FF62DA91C491D4B0968274434
:105530002030023201EB800097F808E0E27103F5B9
:10554000CC77421C93F808C0F4450AD00C33BB4218
:10555000F8D1FFF716B90120002103F075FEFEF720
:1055600018BD1B784370E379E0180133007AE371CA
:105570005070E379E0180133007AE3719070E379B9
:10558000E0180133077AE37101F18100D77006F06A
:10559000CDF9FEF7BEBE00BFC81500208C2200204A
:1055A00070D801082DE9F04F2DED048B013883B040
:1055B000FD2801F29880DFE810F0760664065406B4
:1055C00043062306960896089608960896089608B5
:1055D00096089608960896089608960896089608DB
:1055E00096089608960896089608960896089608CB
:1055F0009608960896089608960896080006960853
:10560000F5059608DC059608BF0596089A059608E4
:10561000690596084D059608200596081405960814
:10562000F1049608D50496080E0796080407F806B4
:105630009608E80696089608D9069608A6069608DB
:1056400096089806860696089608740796086307D3
:1056500096083A07960896089608960896089608B7
:10566000960896089608960896089608960896084A
:10567000960896089608960896089608960896083A
:105680002607C3078F079008D00466033E03220352
:105690000503F702BA027102400296080904CB031F
:1056A0008E038103A8048704F701960896089501E4
:1056B00096089608960896089608960896089608FA
:1056C00096089608960896089608960896089608EA
:1056D00096089608960896089608960896089608DA
:1056E00096089608960896089608960896089608CA
:1056F00096089608960896088301960896089608D4
:1057000059019608960896089608960896089608ED
:105710009608960896089608960896089608960899
:105720009608960896089608960896089608960889
:105730009608960896089608960896089608960879
:105740009608960896089608960896089608960869
:105750009608960896089608960896089608960859
:105760009608960896089608960896089608960849
:105770009608960896089608960896089608960839
:105780009608960896089608960896089608960829
:1057900096089608960896083C0115019608960802
:1057A0009608960896089608960896089608960809
:1057B00096089608FE0000200821B04C03F044FD36
:1057C00004F1080634F8025FE8B203F053F9280A3E
:1057D00003F050F9B442F5D1012003B0BDEC048BC5
:1057E000BDE8F08F00207021A54C03F02DFD04F1E1
:1057F000700594F8D00003F03DF994F8D10003F05F
:1058000039F994F8D20003F035F994F8D30003F095
:1058100031F994F8D40003F02DF994F8D50003F091
:1058200029F9073494F8CF0003F024F9AC42E0D111
:10583000D2E7944C0421002003F006FD2368B3F85E
:105840006250E8B203F016F9280A03F013F923684E
:10585000B3F86040E0B203F00DF9200A03F00AF952
:10586000012003B0BDEC048BBDE8F08F864D297894
:1058700089000131C9B2002003F0E6FC287803F06A
:10588000F9F82B78002BA7D0002405F1040905F1C5
:10589000140805F1240705F1340619F8040003F093
:1058A000E9F818F8040003F0E5F8385D03F0E2F8D1
:1058B000305D03F0DFF82B780134A342EDD88BE79D
:1058C0000C21002003F0C0FC704B186803F0E4F8D2
:1058D0006F4B186803F0E0F86E4B186803F0DCF8C3
:1058E00001207AE700203C2103F0AEFC654C9FEDDF
:1058F0006A8A0025236803EB850393ED080A20EEEE
:10590000080A13F0C1FE0646C0B203F0B3F8C6F3AE
:10591000072003F0AFF8236803EB850393ED0B0A30
:1059200020EE080A13F0B0FE0646C0B203F0A2F85B
:10593000C6F3072003F09EF8236803EB850393ED7D
:105940000E0A20EE080A13F09FFE0646C0B203F0CE
:1059500091F80135C6F3072003F08CF8032DC9D167
:1059600004269FED4D8A01E001350136072D23689D
:1059700000F08D872B44587803F07CF8002003F06A
:1059800079F823682B44D87A03F074F8002003F0E8
:1059900071F823682B44587D03F06CF8002003F065
:1059A00069F80A2EE0D117E70020702103F04CFCC3
:1059B000344C0026C6EBC60523686D002B44013627
:1059C000B3F82171F8B203F055F8380A03F052F831
:1059D00023682B44B3F82371F8B203F04BF8380A6C
:1059E00003F048F823682B44B3F82571F8B203F0AC
:1059F00041F8380A03F03EF823682B4493F8270156
:105A000003F038F823682B4493F8280103F032F8A8
:105A100023682B4493F8290103F02CF823682B44C6
:105A200093F82A0103F026F823682B44D3F82B01BE
:105A300003F032F8082EBDD1CEE6124C00201E2114
:105A400003F002FC23681A78022A00F0758600250C
:105A5000264600E033682B44587803F00BF823689F
:105A60002B44D87A03F006F823682B440135587D7F
:105A700003F000F80A2DEDD1AEE600BF1A2B00208E
:105A8000C81500208C22002014330020107AFF1F3C
:105A9000147AFF1F187AFF1F00007A44B24E1021BB
:105AA000002003F0D1FB3368187802F0E3FF33687D
:105AB000587802F0DFFF00253368AB4C2B440135EA
:105AC000187902F0D7FF032DF6D12368A74DD879B6
:105AD000A74E02F0CFFF2368987802F0CBFF23682F
