:020000040800F2
:10000000B4050020890100085BD90008D146010829
:10001000DD010008DD010008DD010008000000002E
:1000200000000000000000000000000059D9000896
:1000300057D900080000000055D90008B7CF0008C4
:10004000DD010008DD010008DD010008DD01000818
:10005000DD010008DD010008DD010008DD01000808
:10006000DD010008DD010008DD010008DD010008F8
:10007000DD01000839F70008AD400108DD01000886
:10008000DD010008DD010008DD010008DD010008D8
:10009000DD010008DD010008DD010008DD010008C8
:1000A000659F0008959F0008DD010008A59F0008D6
:1000B000859F0008DD010008759F000807E1000822
:1000C0000BE1000801E1000805E10008DD0100087E
:1000D000DD01000861420108DD0100085942010804
:1000E000C5CF0008DD0100085DD90008DD0100086A
:1000F000DD010008DD010008DD010008DD01000868
:10010000DD010008DD010008DD010008DD01000857
:10011000DD010008DD010008DD010008DD01000847
:10012000DD010008DD010008DD010008DD01000837
:10013000DD010008DD010008DD010008DD01000827
:10014000DD010008DD010008DD01000883D400089E
:10015000DD0100082940010831410108BDA1000866
:10016000DD010008DD010008DD010008DD010008F7
:10017000DD010008DD010008DD010008DD010008E7
:10018000DD010008DD010008002103E00D4B5B5894
:10019000435004310C480D4B42189A42F6D30C4A96
:1001A00002E0002342F8043B0A4B9A42F9D30A4882
:1001B000016841F47001016012F0CCF900F010F810
:1001C000704700005CA2010800000020B40100207C
:1001D000B8050020D846002088ED00E0FEE70000CA
:1001E0002DE980488DB002F0A1F9AE4BDFF81893ED
:1001F0001B78D9F8001053B1AB4B1B68CB1A002BFE
:10020000A1BFA84A00231370A84AA8BF1370A84E24
:10021000306842F201030340B2460BB9A24A13719F
:10022000070740F18781A34B1B681B7A062B00F25E
:100230006F81DFE813F0070007003200CC000501F2
:10024000300130019C4B1A78002A00F061810022B5
:100250001A709A4B1F789A4B1B6893F800E0994BE1
:1002600093F800C00222984DAB5C3B4103F00F03B2
:10027000734502F101080CD20B2B9FBFAC5C15F843
:10028000085004EA0C0405EB04249CBF8F4D45F88C
:1002900023400232102AE6D102E18D4B1A78002A5F
:1002A00000F0368100221A708A4B8B4A93F802E0E4
:1002B000DF785C780EF0070544EA052407F03F0577
:1002C0006D0145EADE0514601C7955605D7993F88F
:1002D00006E0A40044EA971405F0010744EA8724E5
:1002E0009460DF790EF00F04E40144EA550407F04E
:1002F0007F05D4602D011C7A45EA1E1593F809E0AC
:10030000156164000EF0030544EAD71444EA45245D
:100310009F7A5461DC7A07F01F05AD01E40045EADD
:100320009E0544EA571493F80DE09F7BD4611C7B33
:1003300095610EF0070544EA052407F03F056D01BD
:1003400045EADE051462DC7B55621D7C93F811E002
:10035000A40044EA971405F0010744EA8724946254
:100360009F7C0EF00F04E40144EA550407F07F057A
:100370002D0145EA1E15D462DC7C156393F814E068
:10038000640044EAD7140EF003055F7D44EA452477
:10039000546307F01F059C7DDB7DAD0145EA9E059A
:1003A000E40044EA57149563DD07D4634CBF40F280
:1003B0001474AD2414649C074CBF40F21474AD2433
:1003C00013F0080F546414BF03230123A1E0434A30
:1003D0001378002B00F09C80414C424F257800237D
:1003E000137007EB450E404A9EF80380B2F800C038
:1003F0009EF8042042EA0822944540F089807A78E9
:10040000012A04D0812A40F08480032300E01346AF
:10041000102D84BF102222702778344C0022D5B2D0
:10042000BD4204F1020474D214F802EC14F8015C29
:1004300045EA0E25DFF8D4E02EF812500132EEE73F
:100440002B4B1A78002A63D000221A70294B1A7895
:10045000A82A1D465CD1DA7C002A59D105EB42045A
:100460009FED257AE778237903EB072307EE903A8F
:10047000F8EEE77A214BC7EE877A9FED217A77EE87
:10048000C77AFCEEE77A17EE904A43F82240013231
:10049000082AE3D104E01B4B1A78CAB300221A7071
:1004A000012336E05C120020B80500205D12002018
:1004B000784300208C460020A51E00203E430020EB
:1004C000384300203F430020951E00208C1D002053
:1004D000161F0020FD1E0020FC1D0020CD1E002048
:1004E000D01E0020D11E0020CE1E0020D41E0020D1
:1004F000C61E0020B11E0020CDCCCC40BC1D00206B
:100500000080BB438A1D002030120020DC1D00202B
:100510000023DA070ED59C4A012414719B4CC3F3C7
:10052000400323709A4C83F00103237001F5C33319
:10053000A0331360470412D5964A13780BB10024F8
:100540001470914A137153B1914C012323708F4B56
:1005500000241C7001F5433303F5A0731360C50735
:100560000FD5894B5C799A79A2420AD08A4A9C714C
:1005700001251570894A0025157001F5C332A03296
:100580001A60840409D50023854A32F81320002A12
:1005900041F06B8701330C2BF6D17B4C237923B9C7
:1005A000804B1B68CB1A002B0EDBA368C91A11F114
:1005B000500F02D4744B1B7B33B105F097FA7A4A83
:1005C00001231370237327E123696F4A0133002B42
:1005D000C8BF00230106136140F11E81734D2B68D3
:1005E0002F46A3B9237D013B042B00F21581DFE8E0
:1005F00013F01400140014000301E5006B4B18689D
:100600000CF0B5FD08F019FF08B10FF073FE386863
:100610000CF0B0FD0028F1D1E4E7626B5A4F92F87C
:100620000080B8F1000F03D0B8F1010F10D0F3E053
:10063000012B00F2F1807A7D5D4B28680C2101FBD3
:1006400002335A7C5B4B53F822100CF08DFD5BE0BB
:100650002868DFF858B10CF084FD002800F0DC8039
:100660003B7D022B3ED0032B4BD0012B40F0D4809E
:10067000514B1A68FB6AD31AC72B40F2CD80BB6A74
:10068000042B2DD84A48DBF80050FA620C2101FBFC
:100690000303A96893F811E000278446454B53F8FB
:1006A00027008842FAB203D00137082FF6D1002282
:1006B000724505D0284653F82E100CF055FDABE0DE
:1006C000627D0C2303FB02C35F6917F8011B19B19C
:1006D00028460CF052FDF8E7A36A0133A3629BE0C1
:1006E000022097E07A7D324BDBF800000C2101FB01
:1006F00002335A7C2F4B53F822100CF035FD0320A7
:1007000088E07B6B9B780BB9042083E097F830304E
:100710000BB987F8308094F830301B4F012B12D181
:10072000BB6AB22B0AD8224A2868134493F84C10AB
:100730000CF023FDBB6A0133BB6204E00023BB6203
:10074000022387F8303094F830300F4F022B15D148
:10075000BA6A0F2A0FD87B6B15495B78286803EBC0
:1007600003130B44134493F800110CF006FDBB6A0D
:100770000133BB6202E0032387F8303094F8303055
:10078000022B49D9C0E700BFB80500200C000020AB
:100790005C1200205E1100205D1200200D00002080
:1007A000681E00203412002026110020101B00209B
:1007B0006C6201086083010888340020E369BA494B
:1007C0000133E361636BDB784BB14B7D0133DBB20B
:1007D0000522B3FBF2F202EB82029B1A4B75B34B7C
:1007E0001B682362B24B00221A70B24A137823F0BE
:1007F0000203137001200DE0AC4B226A1B689B1AA8
:1008000040F6C412934207D9AB4A136823F0200381
:100810001360052009F002F90CF09CFBDFF8CC8294
:10082000C9F80000D8F80C300AA898479DF828307D
:1008300033B9A24BA2681B689B1A642B00F17C851C
:100840009F4BA0481A68D9F80030974D1344A36015
:100850000027D8F8043027739847DFF8688250B92A
:10086000994F3B88002B00F0AB80984B18686430A0
:1008700010F004FFA4E04046414695F838200AF005
:1008800057FA934B1B88002B72D0EB6B1B7808EE4A
:10089000103A05F1400B4C358D4B38F9170019888B
:1008A000B1F57A7F02BF0023CBF800302B61DBF873
:1008B00000300344CBF800302B6907EE900A013377
:1008C000012B4FEA4702F8EEE77A2B6106D10023AD
:1008D000C5ED017AC5ED007AAB601BE0D5ED006A8D
:1008E00007EE103A37EEE66AB8EEC77A86EE077A78
:1008F00036EE877AD5ED026A85ED017A77EEC77A12
:1009000085ED007AE6EE276AF0EE667AC5ED036AB9
:10091000C5ED026A6F480023012928F802301352FE
:100920006B4930D12B690691012BC3BF03F1FF3313
:1009300000EE103AD5ED037A9FED670A0590C8BF27
:10094000B8EEC00A0492C8BF87EE800A15F0A8F876
:10095000049A0598069918EE103A5BB1F8EEC87A39
:10096000B4EEE70AF1EE10FA04DD4FF47A730B806F
:10097000002319E0DBF800304FF47A7E03F5FA73B8
:1009800093FBFEF383520137032F0BF1040B05F1A8
:10099000140581D10888012803D104910CF048FB8B
:1009A00004990B88013BE2E74A4938F8132031F8F3
:1009B0001310521A28F813200133032BF4D14FE7F8
:1009C0000CF0C8FAD4F89030444DC9F80000C31AAE
:1009D0002B80C4F8900003F0F7FB414BDFF8C88090
:1009E0001B68DA0240F1B5803F8807F40067BFB2A8
:1009F000002F40F09A803B4B1B785B0740F19580BD
:100A00004FF400600AF042FE304B1B68C8F8943087
:100A10001A78022A04BF012288F89820B3F85A20D5
:100A200018BF88F898704FF47A7353432A8893FB61
:100A3000F2F32D4A94F8988092F800C0D4F89420EC
:100A40005B429BB2A4F89A3002F12000002192F898
:100A5000567092F853500FB1BD4204D8BCF1030F49
:100A600004D8022902D1002782F85670B8F1000F8D
:100A70003ED007EE905A90ED007AF2EE046AF8EE5E
:100A8000E77A27EE267AB4EEE77AF1EE10FA44BF61
:100A9000C7EEA67AC0ED007AD0ED007AFDEEE77AD7
:100AA00017EE905A29E000BFB805002088340020D6
:100AB00091140020901400200C140020301200200B
:100AC0008814002040140020101400205814002026
:100AD000041400204006002000000000081400203C
:100AE000141400200E15002058250020602300203B
:100AF0005778AF4238BF557055788A4FAD0127F807
:100B00001150894D05F1A2074FF0000E27F811E0B2
:100B100005F1A807013227F811300131032900F14E
:100B2000040094D1012385F8AE30804B1B88180552
:100B30001AD47F4B1B7803F0040303F0FF059BB925
:100B400094F8AE3083B10BF06BF8774B83F8AE506E
:100B50000AE03B88190507D5754B1B785A0703D562
:100B60004FF400600AF082FD724B734F1B78ABB1FB
:100B7000724BB3F90620B7F896319A420EDC7B79B6
:100B8000012B01D0192B02D197F8E62132B90E2B97
:100B900004D0082B1EBF6A4B00229A80694B1B6849
:100BA00093F824519DB3614B1B889B072FD0664B54
:100BB000DFED667A93ED080AB4EEE70AF1EE10FA7B
:100BC00020D914F00DFFD4ED2C7A20EE270A14F072
:100BD000C1FEB0F5617FA8BF4FF4617007EE900AC7
:100BE000B8EEE70ADFED5A7A80EE270A0AF0D5FC64
:100BF00007EE905AF8EEE77A27EE800A14F0AAFE84
:100C000080B200E000204E4AD3881844D080514B77
:100C10001B68980640F1D280444B1B8803F03003D8
:100C2000002B00F0CB804C4B1B78D90740F1C680DD
:100C30004A4BDFED4B7AB3F904300A2293FBF2F30F
:100C400008EE103AB8EEC88A28EE278AB0EE480AB5
:100C50000AF0A3FCF0EE408AB0EE480A0AF0FEFC6F
:100C6000404BDFF80CC11B68D9783F4BB0EE409A7F
:100C7000B2EE048A00297DD03C4AB3F902E05588DF
:100C8000CDF81CC028B2C0EB0E000691059204936B
:100C900008F080FF0699049B059ADDF81CC0C1F19D
:100CA000000B584503DB8842A8BF084600E05846C1
:100CB00000EB05081588B3F90000CDF818C02BB279
:100CC0001FFA88F8C01AA2F802800492059108F071
:100CD00061FF5845049ADDF818C004DB0599884285
:100CE000A8BF084683465D44ADB215802DB207EE1D
:100CF000105A0FFA88F8B8EEC70A07EE908A28EE65
:100D0000C07AF8EEE77A20EE090AA7EE897AA7EE14
:100D1000A80A87EE087ABDEEC77A17EE103AACF84B
:100D2000003043E054060020B805002010140020D5
:100D30000E1500200E000020343B00207C430020D4
:100D40006625002058140020C82700208FC2753C5B
:100D5000EFB6B0440C14002090140020741400204E
:100D600035FA8E3C7C13002000140020FC13002078
:100D700094230020B3F90220B3F9003000EE103ABA
:100D800007EE102AB8EEC00AB8EEC77A68EEC07A4D
:100D900020EE090AE7EE097AA7EE280AC7EE887A5C
:100DA000FDEEE77A17EE903AACF8003080EE080AD4
:100DB000FDEEC07A17EE903AACF80230A54BB7F8CA
:100DC0006A211868A44B0093A44BDFF8D0B21D68C9
:100DD000A34B196800F16403A8470FF01FFFDBF86D
:100DE000003093F908205B46A2B99E4D2B78013B59
:100DF000182B00F28C80DFE803F0368A8A578A8A43
:100E00008A4C8A8A8A8A8A668A8A8A8A8A57788AE9
:100E10008A663600DFF8888200251A689249B2F99E
:100E200006200493882000FB051038F9021F0FF0FC
:100E3000DDFD8E4A049B11680E2280B202FB051173
:100E4000A8F80000B1F90020B1F9021000B29042F8
:100E500003DB0AB28242A8BF02460135082DA8F87A
:100E60000020DAD1C1E7DBF800301B791BB1804BE1
:100E70000020598908E07F4B1B7803F0040303F03E
:100E8000FF00002BF3D1014607F02EFB4FF00108C5
:100E90003FE0DFF8DC810020B8F8061007F024FB03
:100EA0000120B8F8081009E0DFF8C4810020B8F884
:100EB000081007F019FBB8F80A10012007F014FB1E
:100EC0004FF0020825E04FF00208694BA8F102003C
:100ED00033F81810C0B208F1010807F005FBB8F1AB
:100EE000080FF2D14FF0060813E04FF00308604BF3
:100EF000A8F1030033F81810C0B208F1010807F098
:100F0000F3FAB8F1070FF2D14FF0040801E04FF007
:100F1000000833689A0602D42B78052B0ED1544D65
:100F20004046298807F0E0FA08F10100C0B269885C
:100F300007F0DAFA08F102085FFA88F83368DB0292
:100F400005D494F8F83483B110F062FA0DE0DFF8BC
:100F500054B1002508EB0500C0B23BF8021F07F0B2
:100F6000C3FA0D2DEDD00135F4E7434B1B8823B9AF
:100F7000384B1868643010F081FB404B187800281B
:100F800040F0DA8133681D0340F1D6813C4D2B7867
:100F9000023B052B15D897F8F83723B9394B186859
:100FA00003689B689847384A384B197813680B4494
:100FB000B3F5807FA8BF4FF480738342D4BF136022
:100FC00010602B78023B082B00F2B681DFE813F0AB
:100FD00009006C008B00A000B800CA003F015B0153
:100FE00066012B4BDFF8B0801A68D8F80430643300
:100FF0009A42C14640F2A081402011F0D3FA002865
:1010000040F09A814FF0400B224FD9F80030224A2D
:101010003B4493F8540170B104920AF0EBFE1A4974
:10102000049A0B68013B0B601368BBF1010B03F1E1
:1010300001031360E8D1D8F80030174A1F4497F82D
:101040005431002B40F0788113604FF0FF33536030
:101050000323FAE058140020BA3C002008000020C6
:101060008C1400204C26002070060020501B00200D
:10107000461400200E15002010140020541B0020E0
:10108000E6440020E84400207C460020EC44002098
:10109000883400206C620108804600205C25002016
:1010A000441400208243002024230093814B0193A9
:1010B00003F10C0202924920A3F10A0250210233EB
:1010C0000BF024FA002840F03781336813F08002D7
:1010D0004FF0FF31784B03D083E803000423B4E0E2
:1010E0001A6059602AE0754A022300210093019199
:1010F0000291482002F108030BF008FA002840F0A2
:101100001B816D4B4FF0FF3218605A6005239CE045
:10111000072300936A4B019303F10C0202924720CC
:10112000A3F10802002104330BF0F0F9002840F08D
:101130000381614B4FF0FF3218605A60062384E050
:10114000604A05230021009301910291532002F18E
:1011500008030BF0DBF9002840F0EE80564B1860D6
:10116000072372E0402011F01DFA002840F0E480CF
:10117000DFF84481D8F800300C2B5DD8DFE803F0AD
:10118000070B0E121823272B2F323E484C004E48D7
:1011900011F004FB4AE04D484D4911E04D484E49DD
:1011A0004E4A41E04E4897F8F61797F8F7273BE08C
:1011B00097F8D0374B480C2202FB037797F8D217E9
:1011C00011F0ECFA32E04848B7F84011F8E7474828
:1011D000B7F84211F4E7464B46481969F0E746482C
:1011E000464B17E0464B1B68D90403D5454897F892
:1011F0007811E5E70B23C8F8003017E0424897F86C
:101200007C1197F87D2197F87B3111F0C7FA0DE03A
:101210003E483F4B1988D3E733681A0506D53D4849
:10122000B7F88011B7F97E2111F0B8FAD8F800307C
:101230000133C8F800307FE011F0ECF900287BD0D2
:10124000354B4FF480521A8009232B7074E0334BD6
:101250001B689B0114D5324B1B888BB9314B1B6823
:101260000A930E20D9F800300B930AA90AF08AFEDF
:10127000294B4FF480521A8009232B700AF0DAFEB2
:101280000AF062FE58E0284B1B78002BF6D0234B67
:101290001B689F01F2D408232B70F1E7234B1A68D7
:1012A000054B5B68C8339A4242D911F099F9012382
:1012B000CBE700BF2A64010880460020D065010802
:1012C000E865010834660108AE660108C8660108D1
:1012D000DD660108E5660108F96601080567010891
:1012E0000E6701081F6701082967010838670108B0
:1012F000602300204767010857670108100000209D
:1013000064460020616701086E670108876701086D
:1013100060460020926701088846002014140020CF
:10132000704600206C46002068460020883400206B
:1013300011F070F90028B8D1C94B1F78002F40F088
:10134000A0853368580540F19C85C64B94F8F92474
:10135000B3F84E81C44DC54B002A00F0298229689C
:10136000D3F8FC248A1A7C2A40F2228293F80025C2
:10137000C3F8FC14013283F8002507F12400C0B241
:101380000EF0DEFDBA4B33F9173007EE903AB94B49
:101390001B88B8EEE77A07EE903AF8EEE77A013765
:1013A000C7EE277A9FEDB47A67EE877AFDEEE77A8B
:1013B000CDED047ABDF910000BF0AEF9032FDCD1AE
:1013C00030200EF0BDFD00200BF0A6F90EF0B0FDB0
:1013D00094F8007517F0030725D1A44BD3F8FC242B
:1013E00041F288339A420BD910200EF0A9FD3846FD
:1013F0000BF092F921200EF0A3FD38460BF08CF98A
:1014000014200EF09DFD9D4BB3F904000A2390FBC0
:10141000F3F00BF081F91C200EF092FD00200BF090
:101420007BF90EF085FD94F80035590740F09A815C
:1014300002200EF085FD924BB3F900000A2390FBC9
:10144000F3F00BF069F98F4B0320B3F906700EF03F
:1014500077FD8D4B1B785A074FF0050997FBF9F77D
:10146000BFB20BD5894841460BF02FFD20B9336838
:1014700013F0100F18BF002738B205E0844B1B682B
:101480009889B0FBF9F000B20BF046F933689B077E
:1014900040F18C80DFF81CB2B4F80275DFF81892C6
:1014A0009BF80030B9F800203F014FF06408BFB24C
:1014B00008FB02325B00B2FBF3F347EA0327BFB23B
:1014C000C3F303231F4306200EF03AFD38B20BF09E
:1014D00023F9B4F802359BF8001001339BB293FB5B
:1014E000F1F201FB1233A4F80235D4F804359B7BEA
:1014F000012B05D139200EF023FDB9F900001CE0C5
:10150000B9F800706E233A205F434FF015090EF0D2
:1015100017FD97FBF9F71FFA87F9B9FBF8F738B20F
:101520000BF0FAF808FB17973B200EF009FDB8B254
:10153000471D0A2097FBF0F000B20BF0EDF82820D1
:101540000EF0FEFC534B0A201B6893FBF0F000B238
:101550000BF0E2F804200EF0F3FC4D4B4E491B68F3
:1015600008689A894FF6FF739842A8BF1846C2B11F
:101570000028ACBF131A134607EE903A9FED477A46
:10158000F8EEE77A67EE877A07EE102AB8EEC77AA8
:10159000C7EE877AFDEEE77A17EE900A6428A8BFB7
:1015A000642020EAE07000B20BF0B6F83C4B1B68F8
:1015B0009F0640F1CC80DFF8048198F8003098074E
:1015C0001FD5DFF8FC9011200EF0BAFCB9F800002E
:1015D000344B4FF4F367784390FBF3F000B20BF019
:1015E0009BF819200EF0ACFCB9F8003064207B4366
:1015F00093FBF0F393FBF0F200FB123000B20BF020
:101600008BF8294B1F8898F8003013F0020F08BFA1
:10161000002701200EF094FC38B20BF07DF8092071
:101620000EF08EFC00200BF077F8204B1F78204B3B
:101630001A88B2F5967F0AD994F8003503F00F03A3
:10164000072B04D842F20F77974228BF1746052090
:101650000EF076FCD4F804355B7BABBB38B250E0BF
:10166000541B0020343B002088340020B8050020A3
:101670003A1400201000002000007A447414002066
:101680002C120020662500200E150020BA3C0020F8
:10169000441F0020841400207C1400200000C84255
:1016A0000C140020A08601009C140020911400203E
:1016B0000400002044010020F01F002090140020AE
:1016C0009E1400206666E63FA7F1200307EE903ADD
:1016D0001FED047AF8EEE77AF6EE006AC7EE877A35
:1016E000BEEE007AF5EEC07AF1EE10FA58BFB0EE19
:1016F000667A77EE877AFDEEE77ACDED047ABDF96A
:1017000010000BF009F898F80030990703D494F80A
:101710000835012B04D1012384F80835C5481DE0A4
:10172000C54BDFEDC66AD3F8043593ED017AD3EDEE
:10173000027A27EE267A67EEA67ABDEEC77AFDEE2C
:10174000E77A8DED0A7ACDED0B7A0AA806E0BC4A5D
:1017500092E803000AAB83E8030018460AF0E7FFAB
:101760000EF0E6FB94F80035282B21D1B24B286807
:10177000002283F800254FF03C094FF47A73B0FB48
:10178000F3F817200EF0DCFBB8FBF9F7B7FBF9F024
:1017900009FB1070000200B20AF0BEFF18200EF024
:1017A000CFFB09FB178000B20AF0B6FF0EF0C0FBBA
:1017B00094F80935DFF88082002B00F076810BF079
:1017C000C9FBD8F80C359F4AC31A9342074640F22A
:1017D000CA80002388F8123588F814359A4B1B8884
:1017E000DAB21B0A88F82E2588F82F3588F82425C8
:1017F00088F82535D8F83C252B689A1AD8F8403552
:10180000D97B4FF47A734B439A420ED38F4B1B68AC
:10181000C8F83C358E4B1B78013B012B9FBF102332
:1018200088F81235022388F814358A4B82481A68E2
:10183000894B0A2192FBF1F284F82C25121284F8CC
:101840002D25864A1B6893FBF1F384F830351B1273
:1018500084F831351278824B92071B7884F85E3514
:1018600003D42D2380F85F357AE0042B8CBF33231B
:10187000322380F85F356F4B7A4AD3F800805C687A
:10188000794998FBF1F302FB038E03EB830377485E
:1018900094FBF1F14FF0060C03EB83030CFB0EFEFF
:1018A0009B0002FB01429EFBF0F901EB810100FB72
:1018B00019EE43FA89F9604B01EB810164250CFBB9
:1018C00002F29EFBF5FE890083F850E54FEA2E2ECA
:1018D00083F851E592FBF0FE00FB1E2241FA8EF1E7
:1018E00092FBF5F283F85525121289B283F856253A
:1018F0005F4A83F85315090A83F854151188242286
:101900004A4392FBF5F55B4A83F84B55128883F8FE
:101910005725120A83F85825574A0A211288B2FB24
:10192000F1F202F5FA7292B283F85925120A83F89D
:101930005A25524A1FFA89F94FEAD87883F84E950A
:10194000E40F4FEA1929C5F30725128883F84D855E
:1019500083F84F9583F8524583F84C5583F86025FA
:10196000354BC3F80C75344C94F87095A046B9F11A
:10197000000F0DD1D4F878050BF0FCFB012807D936
:1019800002283F4D00F07E850AF0B8FE01232B703F
:10199000D4F87C55284B002D00F0878093F87025F3
:1019A0003AB1D3F8842540F6B731BA1A8A4216D82C
:1019B0007BE0012283F87025D3F88825D3F87805D9
:1019C0001278022A04D8043002210AF081FE02E0D3
:1019D00002210BF0C3FB002384F88C3563E093F8FD
:1019E0008025AAB9C3F87C2583F87025D3F888250B
:1019F000D3F878051278022A04D8043001210AF0BD
:101A000067FE02E001210BF0A9FB0AF077FE4AE035
:101A1000013AD2B283F8802593F88C1593F88D059E
:101A200082BB01304A1C83F88D0583F88C25D3F8DE
:101A3000780536E094140020B80500208096184BF5
:101A40005C6601083F0D0300F01F00208834002071
:101A500004440020841400207C14002090140020F2
:101A600091140020806967FF8096980040420F0023
:101A70009E140020A21400209C140020A414002016
:101A8000000000202A46013012F801EB83F88D0592
:101A90000EEB0105D3F8780583F88C55C3F87C2547
:101AA00071460BF06AFBC4F88475A34D95F88E352A
:101AB0002C46E3B1D5F89035CBB1D5F89435B3B118
:101AC0009E4A13601A689E4B1A609E4AD5F8983554
:101AD000134493F8F80305F083F911F071FFD5F87A
:101AE00098350133092B88BF0023C5F89835DFF8F6
:101AF000809295F89C25D9F8003004934F468E4B80
:101B0000002A00F0BE81D3F8A025002A00F0B98198
:101B100093F8A435013B012B00F2B381D4F8A00562
:101B2000DFF814B20BF026FBE8B1DBF8A0050BF0F0
:101B30001EFB9BF8A5153A687E29804610D102212C
:101B40001B288BF8A4150BD1DBF8A00505920BF030
:101B500011FB28B9059ACBF8A82501228BF8AC25F2
:101B600084F8A585DAE7DBF8A825D9F800309B1AB8
:101B700041F6583293421DD903238BF8A43580E1F6
:101B8000714A32F8130010B903464FF40360013371
:101B9000B0F5C06FDBB273D01ED9B0F5006F78D04E
:101BA00033D9B0F5036F41D184F8AD35674B1B686D
:101BB0009A0642D494F8AC1594F8AD35002900F09B
:101BC0005E813A680498121A012AD9D985F8AD3590
:101BD000002385F8AC3554E1B0F5007F44D008D837
:101BE000B0F5807F00F08780B0F5887F00F08380BB
:101BF000E4E7B0F5806F00F0BD80B0F5826F00F0D3
:101C0000FC80B0F5047FD9D124E0B0F5E26F00F09C
:101C10008480B0F5E46F00F08680B0F5E06FCDD140
:101C200084F8AD354A4BB3F9001081E0B0F5046F8C
:101C30006AD0B0F5026FC1D10AE1464B1B789B0711
:101C4000B8D5454B198824234B431233642193FBA9
:101C5000F1F10DE184F8AD35DAF800309907A9D536
:101C60003E4B0A211B8802E184F8AD35DAF80030DA
:101C70001A059FD53A4B19680A2391FBF3F1F7E057
:101C800084F8AD35DAF800301B0593D5354B19686B
:101C9000EEE02E4A84F8AD35126891068AD52D4AB9
:101CA0001278920786D513F0010F2F4B11D05A6886
:101CB00082EAE273A3EBE273002A4FF0190103EB0F
:101CC0005303B3FBF1F343F0004111DA43F0404119
:101CD0000EE01B6883EAE371A1EBE371002B01EBDB
:101CE00051014FF01902B1FBF2F1B8BF41F0804150
:101CF0004FF400609AE084F8AD35144B1B685B0725
:101D00007FF558AF0021B3E084F8AD35174BB3F938
:101D1000041001EB8101490088E084F8AD350C4BDB
:101D2000B3F9021004E084F8AD35094BB3F904109F
:101D30002C2391FBF3F179E0B8050020F843002053
:101D4000FC4300206C6201088E6601080C14002020
:101D50003A140020901400209E140020F01F002050
:101D6000841400207C14002094140020741400209B
:101D70008834002084F8AD3594F8AE35AB4A013391
:101D8000DBB2032B88BF012382F8AE3594F8AE1581
:101D900042F210735943A64B1B78D80748BF013154
:101DA0009A0748BF02315807A24B1B8848BF04312D
:101DB000DA0748BF0A31980748BF14311A0648BFEE
:101DC0002831D80548BF28315A0748BF6431180761
:101DD00048BFC8319A0548BF01F5C871980648BF89
:101DE00001F57A71DA0648BF01F5FA61580648BF75
:101DF00001F57A614FF4806018E084F8AD358E4BC0
:101E00001B6813F0200917D08C4B1A7812F0020FC0
:101E100014BF4FF47A71002112F0010F884A14BFE9
:101E20004FF4FA6300230B44117819440AF01CFCA8
:101E3000002384F8AC35BDE6DAF8003019067FF5EA
:101E4000B9AE49460AF010FC784B83F8AC95B1E680
:101E500084F8AD35784B1B689A067FF5ABAE774BAF
:101E60001B789B077FF5A6AE764B1B8864215943F0
:101E70000AF0FAFB6D4B002283F8AC259AE685F850
:101E8000AD353368DC037EF5B0A9684C94F8AF3506
:101E90002546002B3EF4A9A96B4B1A7802F0FF03EC
:101EA000002A7EF4A2A9694A694F126812F4804F91
:101EB0000DD07A786AB1674A1168674A42F82310F0
:101EC0000133202BF7D10DF05BFC002300E0012350
:101ED0007B707B78002B3EF488A90BF03BF8D4F89C
:101EE0003036D4F83476C31A6FEA0308D4F838369B
:101EF000C71BC31AFF436FEA03094FEAD87882462B
:101F0000FF0F4FEAD979B8F1000F07D1B9F1000FEF
:101F100007D1002F3EF469A9CB4631E04FF0000B0A
:101F20002EE0C3462CE04D4909689A0001EB020CF3
:101F3000BCF80210080510D411F4805F3B4918BFAB
:101F40009CF801000A4415BF4549424909680968DF
:101F500018BF51F82010C2F8B015BCF80220D10506
:101F600015D492050AD5324A1278500754BF3D4A1B
:101F70003D4A05EB83031268C3F8B0250BF1010B52
:101F800095F83C265FFA8BF39342CCD321E01846B8
:101F90006146364A0593CDF810C00EF0E1F8254AA7
:101FA000DDF810C01288059B12F0400F03D01846D0
:101FB00061462F4A0AE0910703D5184661462D4A2B
:101FC00004E0D207DAD52C4A184661460EF0C8F86C
:101FD000D4E70021CBB2934252D2204B1B68880039
:101FE00003445B885B051ED5244BDFF86CE0B3F936
:101FF00006305EF8000008904FF0780C3EF82100A3
:10200000A3F57A730CFB03F34FF47A7C93FBFCF398
:1020100003F22B13034440F2671C93FBFCF00CFB10
:1020200010332EF821300131D4E700BFB80500206D
:102030000E150020101400200C1400209014002015
:10204000911400209C140020000C00201414002087
:10205000000000208A660108680B00204C1B00204D
:10206000481B00206C620108786201086E66010856
:10207000746601087A660108806601087C430020C6
:102080004FB30AF5C333A033C4F8343694F83D3661
:10209000B24903BB81F83E3633689E0705D5B04888
:1020A000007810B1012081F83E06D80508D5AD4B67
:1020B000DB782BB194F83E3643F0020384F83E36C9
:1020C000A94B1B7813F0050F02BF94F83E3643F07E
:1020D000040384F83E3694F83E0620B99F4B93F8EB
:1020E0003D36002B4AD094F83D1611F0010FA1F1B6
:1020F0000C061BD1032907D8DFF874E29B4B10F0C4
:10210000040F08BF734600E0994B0439072904D82F
:10211000984910F0010F18BF0B46F6B2032E10D8E5
:10212000954910F0020F18BF0B460AE0F3B2032BDB
:1021300006D88F49914B10F0020F08BF0B4600E004
:102140008B4B0026F1B291420DD28D49096801EB0B
:1021500086014988090642BF8A49D3F800E041F860
:1021600026E00136EEE78FB148B194F83D367B4961
:102170000133DBB2142B07D1002305E037B194F80B
:102180003D36002BF1D101E081F83D36B8F1000F6A
:1021900028D07D49B1F90230B1F9006083EAE370DB
:1021A00086EAE671A0EBE370A1EBE671322390FBC7
:1021B000F3F091FBF3F1C0B2CBB2834238BF0346D8
:1021C000724913B191FBF3F300E00B465344C4F89A
:1021D000303694F83F3661490BB9012300E0002303
:1021E00081F83F366A485D4B007894F83F1638B95D
:1021F000B9F1000F00F03581002211461746D4E0F6
:1022000021B96449C3F84016002009E05849F9E7AC
:102210005B4909688300CE187688760604D40130BD
:10222000C3B29342F4D3E3E7574FB7F90060192ED6
:1022300024DD11F803C095F84486484ED5F840E6F1
:102240000CF00F0BC3450ADC96F84586B8EB1C1F53
:10225000DEBF06F5B666DEF800C043F806C011F82A
:1022600003C095F846863D4E0CF00F0BC34531DB9D
:1022700096F84586B8EB1C1F2CDC25E0193629DAC8
:1022800011F803C095F84486344ED5F840E60CF0BA
:102290000F0BC3450ADC96F84786B8EB1C1FA2BF9C
:1022A00006F5B666DEF800C043F806C011F803C0B4
:1022B00095F84686294E0CF00F0BC3450ADB96F8BD
:1022C0004786B8EB1C1F05DB06F5B666DEF800E0B6
:1022D00043F806E0B7F90260192E19DDCF5C95F8D6
:1022E00044C61E4ED5F840E607F00F08E04509DC6D
:1022F00096F84586B8EB171FDEBF06F5B666DEF822
:1023000000709F51C95C01F00F0666451CDD86E731
:10231000193684DACF5C95F846C6104ED5F840E6FB
:1023200007F00F08E04509DB96F84586B8EB171F64
:10233000DEBF06F5B666DEF800709F51C95C01F09D
:102340000F066645FFF66BAF95F84766B6EB111FB3
:10235000A2BF0C49DEF800605E5060E7B8050020BF
:1023600004440020984600200E1500206C620108ED
:102370008A660108706201087462010878620108C7
:102380004C1B0020680B002066250020400D030038
:102390005C12002086660108594B1B6803EB860E11
:1023A000BEF80230180506D4013295F83C36D6B294
:1023B000B342F1D833E0534B1B7803F0040303F02E
:1023C000FF005BB1504B9B784FF0060C0B4493FB26
:1023D000FCF00CFB1033012B12DC01E07FB901276C
:1023E0004A4B9EF801C0D3F800E00EEB8C033EF898
:1023F0002C80186893F802E00990DB7803E0074628
:1024000000239E469846DFF820C10CEB8600013180
:102410002CF82680C9B280F802E0C370C4E73A4ABB
:102420009378013B13F0FF0308BF06239370354BED
:102430001B785B0741BF364BB3F90630A3F57A73BF
:1024400003EBC30341BF4FF47A7293FBF2F3013302
:10245000DBB258BF01232F4A92FBF3F35344C4F875
:1024600038360DF08DF9FDF7C0BE2B4B01221A70E6
:102470002A4B00221A7001F5C333294AA033136096
:10248000FEF78BB82B782BB1C4F8747585F80090E3
:10249000FFF77EBAD4F87435FB1AB3F57A6FFFF400
:1024A00077AA0123D4F878052B700AF060FE054660
:1024B000D4F878050AF05BFE6D067FF469AA8A28D5
:1024C00003D08E280ED0FFF763BA164B1B6899060F
:1024D0007FF55EAA94F87035002B7FF459AA08F2B4
:1024E000445306E094F87035002B7FF451AA08F5A8
:1024F000A263C4F87C352D2384F88035FFF748BAF1
:102500004C1B00200E15002000000020481B00205E
:102510007C430020400D03005D1200200D000020D0
:10252000B80500200C140020680B00202DE9F04FA6
:102530002DED068B9F4CA04B2360A3B0002363605E
:102540000FF0C3FC18B90FF0E3FC09F0EFF8DFF867
:10255000D8B2DFF8D882994EDFF8D4A209F0A0F9FA
:102560009BF8003043F001038BF800300FF098FF28
:10257000934BC8F80C30736FA360924BC8F80830C7
:10258000736B914823F080037363736F43F0807320
:102590007367326B8D4B13433363736B7363B36B2E
:1025A000B363326C8A4B13433364726C894B1343AD
:1025B00022AD736401238DF8533048F2FF7345F860
:1025C0003C3D002729464FF6FF798DF850708DF875
:1025D00051708DF8527008F02FFB7F48CDF84C9069
:1025E000294608F029FB7D48CDF84C90294608F093
:1025F00023FBDFF840C2CDF808C06046294608F04A
:102600001BFB7748DFF83092294608F015FB754828
:10261000294608F011FB7448294608F00DFB734861
:10262000294608F009FB2946714808F005FB2846B1
:1026300008F03AFB6F4B7048A8221A603946102206
:1026400012F079FF6D4B6E4A5A60F02288F8232011
:1026500007229F60DFF8E4811A60D9F80830CAF8D1
:10266000003098E80F0085E80F00336BDDF808C0F4
:10267000139843F008033363336B43F00803336369
:102680004FF48043ACF818304FF40043ACF81830E6
:1026900014A90DF053F916A915980DF04FF96420FF
:1026A0000AF07FFC3946A022564812F044FF336CF2
:1026B000554A43F013033364736C43F0011373649E
:1026C00002F1C001CDF810B0CDF808904746937BD9
:1026D000D07B03F00706B60000FA06FE5068DB0860
:1026E00000EB83034FF00F0C186A0CFA06F620EA91
:1026F00006001862186A10324EEA00008A42186218
:10270000E5D10023DFF8AC8008F10C0200219954D8
:1027100001330C2BF6D1FF2388F8183088F81930D4
:1027200088F81A3088F81B30384B394EDFF8109192
:102730001E60384B04221A704846302212F0FBFE0D
:10274000142389F80030022389F81830052389F80A
:102750002430029B93F805902F4B83F80090A6F548
:10276000F173C8F81C302D4BA6F591761E602C4BEA
:10277000DAF8006003EBC9035B78C8F82030B306D1
:1027800044BF0123C8F820300023264A40F2DC5120
:1027900022F813100133082BF7D10BA800212022B7
:1027A00012F0C9FEB9F10E0F4CD009F0EF03082B5F
:1027B0004BD147E0040C0020BFAF000800380240B6
:1027C0000005FA050000000800000240FF916700C4
:1027D000FFC9FE36335F07000004024000080240D4
:1027E000001002400014024000180240001C024089
:1027F00000200240982000209C20002010E000E0F3
:102800003F90020014270020406A01084443002042
:10281000263D0020061500204C260020B42700206D
:10282000E87C010846140020C446002000ED00E0CA
:1028300078430020000C0240343B002094690108DA
:102840004843002001238DF8403005200AF064FA47
:1028500018B14088003018BF0120C6F340038DF83E
:102860003330C6F380138DF83730C6F340338DF81C
:102870002C30C6F3C03300F001008DF82F3016F471
:1028800000638DF8320008D0029B93F8823103F187
:10289000FF3EDEF1000343EB0E038DF83030C6F34C
:1028A00000438DF83830236A0299003318BF0123A2
:1028B0008DF83930C6F300538DF83A30029BB1F8E9
:1028C0004411B3F84631ADF83E30029BADF84410E8
:1028D000B3F85231ADF83C30C6F380438DF8343054
:1028E000C6F340538DF83530029B93F854311A1CCF
:1028F00018BF012206F00109C6F3C0088DF8362082
:10290000F604029A48BFB749B2F8502144BFB1F863
:102910004C11ADF84410B2F5FA7F8DF82D908DF87A
:102920002E80ADF8422002D90BB9ADF84430029B9D
:10293000AD4893F8D43184F824300021642212F099
:10294000FAFD9DF84030002B0CBF00230223B9F1A3
:10295000000F02D1B8F1000F00D0013307EB83075D
:102960004FF000093B699A1E163303920593039AB0
:1029700032F8023F03924FF6FF72934200F0BC819F
:10298000DAB2190A9DF8383033B113019748C058AC
:10299000974B984200F0AB819DF8333053B1934B85
:1029A000944E03EB02135868B04203D11B89012BEC
:1029B00000F09D819DF82F3053B18C4B8E4E03EB70
:1029C00002135868B04203D11B89022B00F08F819B
:1029D0009DF8303053B1854B884E03EB0213586895
:1029E000B04203D11B89202B00F08181022902D142
:1029F0009DF82C3003E0012904D19DF82D30002BE7
:102A000000F0758179489DF83A301701C61933B145
:102A10009DF840301BB9043A032A40F2468101294F
:102A2000CBB254D19DF835303BB99DF8343023B941
:102A3000BDF84230B3F5FA7F06D9C259704B9A42BD
:102A400002BF704B0C221A70DFF8A0B1E667FF23BB
:102A500084F86C3084F86D300BEB07034FF00008FE
:102A60005A7B586884F8708003F1080A1B89ADF816
:102A70004C3013A902238DF84F308DF84E2084F886
:102A80002880C4F82C80C4F83080C4F83480C4F89E
:102A9000688084F86E8084F86F800CF04FFF9AF89D
:102AA00002105BF80700424605F066FC304610F065
:102AB000E5FB554B5549C4F88030554BC4F884307C
:102AC000C4F8888030460A1D07F004FB0FE1022B92
:102AD00045D15FFA89F24FF01C0C0CFB02FC04EBB1
:102AE0000C08424A88F87190012188F87010D119B9
:102AF0004FF0000A91F80DE0486888F872A001F1E3
:102B0000080B0989ADF84C1088F87AA013A9C8F809
:102B10007C60CDF81CC08DF84EE08DF84F300692E9
:102B20000CF00CFF069A9BF80210D059524605F0A3
:102B300023FC304610F0A2FBDDF81CC03349354AB7
:102B4000C8F880206144344AC8F88420C8F888A0B6
:102B500030460A1D07F0BEFA09F10109C7E0032B50
:102B600040F0A1809DF834301F4F2BB39DF83630D4
:102B700097F8018083B1BDF84220284BB3FBF2F2F5
:102B80003046BDF844300C2192B20CF002FF244BC9
:102B900043F82800234B09E030460C214FF6FF7222
:102BA0000CF0F7FE1E4B43F828001F4BC360BB78A8
:102BB00007EBC307192369E09DF83520C2B33046FF
:102BC0000C214FF6FF7297F801800CF0E2FE144BD7
:102BD00043F82800154BC360BB7807EBC3072923D4
:102BE00054E000BF343B0020C4110020406A0108BB
:102BF000000C0040000802400004024000000240B7
:102C00000000014006000020857C0008840C0020A4
:102C10007D7D0008918400085D7C0008001BB700E2
:102C2000E4260020F97D0008C97D00088D7D00089C
:102C3000BDF8422097F80180B2F5FA7F13D97D4B99
:102C4000B3FBF2F23046BDF844300C2192B20CF0E6
:102C5000A0FE794B43F82800784BC360BB7807EBA4
:102C6000C3070D2312E0764BB3FBF2F23046BDF8FA
:102C70004430012192B20CF08CFE6F4B43F82800D7
:102C8000704BC360BB7807EBC30709237B716E4BA6
:102C90009A78597803EBC2000132017101318660E4
:102CA00059709A7023E0042B21D1674FBDF83C2066
:102CB000BB7897F8008007EBC303012183F80480F9
:102CC00030465F4B93FBF2F2BDF83E3092B20CF00F
:102CD00060FEBB7807EBC3020A2151713A7804EB1E
:102CE000880801320133C8F850013A70BB70039B69
:102CF000059A93427FF43BAE534A544B127884F8C2
:102D00007021534A1778A7F117020026022A1E7075
:102D10009E461AD8E3693344D3ED007AF5EE407A43
:102D2000F1EE10FA02D1236A63BB26E0494A06EBB2
:102D3000020C0FCB8CE80F009EF8003010360133E8
:102D4000C02E8EF80030E5D1EDE7434B13F8378005
:102D50008EF8008003EBC703D3F80490B9F1000F9D
:102D6000E1D04645DFDA3B4A330103EB020C4B442A
:102D70000FCB01368CE80F00F3E7384E3368D804E8
:102D800026D41FE0364B374A13F83700107003EB98
:102D9000C7035E68002EF0D000238342EDDAC3EB58
:102DA000C3017218DFF8C880D2F8009041F808908B
:102DB00001EB080C9188ACF8041092798CF806208D
:102DC0000133EAE707F0EF03082B274B20D121E07E
:102DD0009EF80020012AF5D9244B03EB0212103291
:102DE00010339342EED053ED047AB6EE007A67EEDC
:102DF000877A43ED047A53ED057A67EE877A43EDDF
:102E0000057A53ED037A67EE877A43ED037AE7E7B5
:102E10000E2F08D11A7842F010021A70182F29D1FB
:102E20000EF08AFB26E01A7822F010021A70192F91
:102E3000F5E700BF001BB700E4260020F9F6000804
:102E400040420F00F97D0008C411002058250020E1
:102E50004C26002080250020E87C010878430020D3
:102E6000387101084D26002090140020882500208C
:102E70006E2600200EF044FB3368DFF880A3D44FA9
:102E8000DFF874B313F4101F02BFD24B01221A7083
:102E9000049B049A1B7843F00403137011228DF8ED
:102EA0004E20DAF830204FF00109022642EA0902EA
:102EB0008DF84F6038462946ADF84C90CAF830205E
:102EC0000CF03CFDC44AC549116000200AF092F89C
:102ED000C34A92E80300DAF8302085E8030042F0A4
:102EE0000402CAF83020139814A90CF027FDDAF870
:102EF000442042F48052CAF84420DAF8242042F4F4
:102F000080524FF00308CAF824203846A0222946F0
:102F10008DF84E60ADF84C208DF84F800CF00EFD12
:102F2000402238462946ADF84C208DF84E600CF012
:102F300005FD102238462946ADF84C2005928DF843
:102F40004F808DF84E900CF0F9FC396A21F4700135
:102F50003962396A41F4A0013962396A21F070613D
:102F60003962396A41F0A0613962396A21F07041F1
:102F70003962396A41F0A0413962DAF8241041F42B
:102F80008051CAF82410DAF8241021F48051CAF8CC
:102F900024109449088800F4415040F4457040EAF8
:102FA00008000880888B20F4006000044FF00703BD
:102FB000000C88830B82088880B240F040000880B3
:102FC000DAF8401041F48041CAF84010DAF82010D5
:102FD00041F48041CAF820104FF400515846ADF832
:102FE0004C1029468DF84E608DF84F800CF0A6FCF1
:102FF0004FF400415846ADF84C1029468DF84E600C
:103000008DF84F800CF09AFC4FF480415846ADF893
:103010004C10294607F580578DF84E608DF84F808B
:103020000CF08CFC4FF48061ADF84C10384629460A
:103030008DF84F808DF84E900CF080FCDBF824105A
:1030400069486A4E059A21F47001CBF82410DBF828
:10305000241041F4A001CBF82410DBF8241021F057
:103060007061CBF82410DBF8241041F0A061CBF89C
:103070002410DBF8241021F07041CBF82410DBF889
:10308000241041F0A041CBF82410796A21F470613A
:103090007962796A41F4A0617962DAF8201041F42A
:1030A0008041CAF82010DAF8201021F48041CAF8D3
:1030B0002010018801F4415141F4457141EA0801B1
:1030C0000180818B21F400610904090C4FF0070392
:1030D000818303820188464B89B21D6841F040011B
:1030E00001804FF48051ABF8181030460493002152
:1030F00005F40063039312F01EFA049B8DF82880F8
:103100004FF0000A05F4004B4FF6FF7215F0020570
:1031100009928DF829A08DF82AA08DF82BA0984649
:103120000FD022A9334841F8649D07F085FD4FF088
:10313000070386F8009086F801A086F80290F370E5
:103140004D46BBF1000F0FD022A9022341F8643D88
:10315000294807F071FD0C2301223371B2716B1CF9
:1031600007227571F271DDB2039B7BB122A9202386
:1031700041F8643D164807F05FFD022301223373D6
:10318000B2736B1C07227573F273DDB21B4B1C48C4
:103190001A6BDFF86CA042F480021A631A6B42F0DB
:1031A00004021A635A6C42F480725A6407F088FC75
:1031B00013A807F049FC134B14934FF00009124B6E
:1031C0001593012D8CBF4FF480634B461EE000BF6A
:1031D00000000240B00A0020BC200020BDC700084B
:1031E000B46901080030014000380040481F002049
:1031F00078430020000802400004024000380240EA
:10320000706402404C200140581F002019934FF475
:1032100000631A934FF400531B934FF480731C9375
:1032200013A94FF4003350461D93CDF84C90CDF8C0
:1032300058901795CDF8609007F017FCDAF8003039
:10324000B24A43F00103CAF800305168B04B0B405A
:1032500043F44033AF4953604B68012D23F0407372
:1032600094BF0022012223F4807343EA02234B60BF
:103270008A68A94B134043F002038B60CB6A23F4A6
:1032800070026B1EDBB242EA0353CB62012306EBF2
:1032900009029078002859D016F80950D278581CA5
:1032A000092DC0B211D9A5F10A0ED1F80CA00EEB70
:1032B0004E0E4FF0070C0CFA0EFC2AEA0C0C02FA28
:1032C0000EF24CEA0202CA600EE0D1F810C005EB23
:1032D000450A4FF0070E0EFA0AFE2CEA0E0E02FA0D
:1032E0000AF24EEA02020A61062B0ED8013B4A6B33
:1032F00003EB83034FF01F0E0EFA03FE22EA0E02C9
:1033000005FA03F313434B631FE00C2B0ED8073B66
:103310000A6B03EB83034FF01F0E0EFA03FE22EA43
:103320000E0205FA03F313430B630EE0A3F10D0243
:10333000D1F82CC002EB82021F2393402CEA030E2B
:1033400005FA02F34EEA0303CB62034609F10409CE
:10335000B9F1100F9BD18B68704D43F400738B60F3
:103360008B6843F480738B608B6843F001038B6040
:103370008B6843F080438B60B5F85831002B40F0E8
:10338000A286B5F95A21002A40F09D86B5F95C2144
:10339000002A40F09886624B62481A680293B2F89D
:1033A0006290DFF898B195F85F6195F861A100210E
:1033B0000C2212F0C0F8002114225B4812F0BBF876
:1033C000002184F871110C228BF872110BF5BA7080
:1033D00012F0B1F8554AC4F88021232009F0E1FD2C
:1033E00094F88421029B1C466ABB514A5148536C95
:1033F000032143F01003536401224FF480638DF8DE
:103400004F1013A98DF84E200392ADF84C30029363
:103410000CF094FA4849029B3B830B88039A23F0F3
:1034200040031B041B0C0B800B8823F038031B0488
:103430001B0C43F030030B800B889BB243F040031E
:103440000B808BF884217520012113AA0AF0B4FCAB
:103450009DF84C30394F712B01D0702B0BD10523C7
:1034600087F87131432387F87431354BC7F87831C9
:10347000344BC7F87C31344B97F8711100221A7025
:103480000A1F012A9B461BD8274B304A1A60304A34
:103490005A60304ADA60304A1A610422DFF8CCE020
:1034A0008BF800202D4A029307201070DEF80000F0
:1034B00040F00100CEF8000094463046764603E026
:1034C000012009F007FEC1E00A28024628BF0022B9
:1034D0000120904040F202230340002B4AD140F2E9
:1034E000FD130340002B45D0042941D10D4A1C494E
:1034F00011601C4951601C4A0421117008228CF88B
:103500000120326842F00202326039E000230140BB
:10351000E030FCFF00200140FDF7FFC0343B0020FD
:10352000581400200844002060230020BC690108D2
:10353000003802400010024000380040040C002017
:10354000B9DD00083DDE0008F005002041E000087C
:103550005DDE0008A9D9000890C1793D4001002036
:10356000EDE00008C5D90008782800200C140020E0
:103570000529BBD0012A4FF00000A5D8234A1070BE
:103580003268910702D5224A12689047214A029B6D
:103590003E211160002287F8852102211B680392D9
:1035A000504687F8861198471B4B039A1A7095F876
:1035B00055210AB18BF8002095F856210AB113491C
:1035C0000A7095F8572102B11A703368134913F045
:1035D000080F27D00FFA89F9642299FBF2F302FB56
:1035E000139212B207EE902AB8EEE77A07EE903AFD
:1035F000DFED0B6AF8EEE77AE7EE267AB2EE047AB0
:1036000067EE877AC1ED007A0EE000BF78280020CF
:103610000844002088140020F910002050280020C1
:103620008988883C00230B60CA4A138823F0400332
:103630001B041B0C1380138823F038031B041B0C82
:10364000138013889BB243F040031380C24E33783B
:1036500043F002033370C14B4FF400425A834FF4DE
:1036600080421A834FF00A0ADFF8F092D9F814303A
:1036700083F40043C9F81430D9F8143083F480433C
:10368000C9F81430192009F08CFC012009F0B2FCB3
:10369000192009F086FC0AF1FF3A002009F0AAFC83
:1036A0001AF0FF0AE0D14FF48043A9F818304FF424
:1036B0000043A9F81830AA4B9FEDAA8A1B681B7B10
:1036C00000EE103AB8EEC00A4FF01C0920EE080ACE
:1036D00007F0C4FFA44B9FEDA57A83ED000AA44B2D
:1036E000D3ED047AA34B67EE887AC3ED007AA24B40
:1036F0001B8807EE903AF8EEE77AC7EE277A9FED3F
:103700009F7AC7EE877AC7ED627A0DF057FF9C4B20
:10371000FF211846212211F00EFF80F800A0034679
:1037200098489949D0F800C0DFF854E218460122C1
:103730001CF0020F18BF42700A701FBF03220A70EC
:10374000022282701CF0040F18BF0A780B461FBFBC
:10375000511C1970032181541A781B218154511C6A
:10376000C9B24FF01F0A00F80190911CC9B24FF086
:103770001D0900F80190D11CC9B24FF01E0900F8D4
:10378000019002F10409511D5FFA89F9C9B21CF0D8
:103790000A0F197000F809A013D04FF0040C0EF8AE
:1037A00001C0911DC9B24FF0050C0EF801C002F125
:1037B000080C75490732D2B281F800C006210EF814
:1037C0000210D8F800108A0641BF1A7802F1010EE3
:1037D00083F800E04FF0070E48BF00F802E00A0649
:1037E0000ED51A784FF0090E00F802E002F1020E31
:1037F0000132D2B283F800E04FF00A0E00F802E086
:1038000095F805E0BEF1080F02D0BEF10E0F08D109
:103810001A7802F1010C83F800C04FF00B0C00F88D
:1038200002C01A7811F4803F4FF00C0900F80290A2
:1038300002F1010C1CBFDFF8509102325FFA8CFCE0
:1038400083F800C01FBF89F800204D4A4FF00E09D1
:1038500002F80C904A0741BF1A7802F1010C83F874
:1038600000C04FF0100C48BF00F802C01A7802F1F7
:10387000010C5FFA8CFC4FF0120911F4806F83F891
:1038800000C000F802900ED095F81492B9F1000F24
:1038900009D0DFF8F490023289F80020384A4FF05E
:1038A000130902F80C908A0541BF1A7802F1010C45
:1038B00083F800C04FF0150C48BF00F802C0BEF1FD
:1038C000180F14D11A784FF0160C00F802C002F14C
:1038D000010C5FFA8CFC4FF0170900F80C9002F114
:1038E000030C0232D2B283F800C000F802E00A03EF
:1038F00041BF1A7802F1010E83F800E04FF0190E73
:1039000048BF00F802E0CA0541BF1A78511C19707F
:103910001A2148BF81541A78511C197014238354FA
:1039200000219822194811F006FE0FF0A0FD184B57
:10393000184919481960194BB5F84E21016018490A
:103940001A800023174AD4F800E00B70B5F89411E0
:103950002AE000BF00380040C4460020000C0240AE
:103960002428002035FA8E3C542800200AE81C4107
:1039700060230020402800201000002000401C464A
:10398000191400200C140020181400209C3A002068
:1039900024130020BA3C00208C460020281300206D
:1039A0005F12002098460020138093701FFA81FA5E
:1039B0000EF18502DFF81893DFF818C3D9F800007C
:1039C000DFF814B32CF813A000F596704BF8230021
:1039D0000133122B6046EDD1D8F800C01CF4805F93
:1039E00008BFB5F89CA1A0F806A00EF1D50E13787B
:1039F000F3B992F80280D378984519D2B8F1000F44
:103A000008D008F1FF3808EB880808EB880808F5AB
:103A1000617306E0013303EB830303EB830303F5D8
:103A2000617392F8018008F104089BB220F8183005
:103A300004327245DBD11CF0080F00F0C18095F80C
:103A40008E31062B00F2B680DFE803F004070E3556
:103A5000506F6F0045F2F05201E042F6F822854BBC
:103A60001A800FF0A2FDA4E0824B42F6F8221A80E1
:103A700009010A2391FBF3F10023A1F5B0617E4A0D
:103A800042F823100133122BF9D17C4A7C49116092
:103A90007C4A4020137009F079F9002800F08A80F0
:103AA00001234FF0070A90F90000774A8DE80804D7
:103AB0004021764B78E06F4B42F6F8221A806F4B2C
:103AC000734A1A606F4B102240201A7009F05EF999
:103AD00000286FD001234FF0000890F900006D4AD4
:103AE0008DE8080140214FF4E1335DE0614B42F67F
:103AF000F8221A80614B684A1A60624B0822402003
:103B00001A7009F043F9002854D001234FF0000C3B
:103B100090F90000614A8DE8081040214FF4E1332C
:103B200008F056FEC7F88C0140E0524ADFF8AC813D
:103B3000DFF8ACC1DFF8ACE1594D5A4842F6F82144
:103B4000118050490C22062B0A700FD0002388F8F0
:103B500000308CF800308EF800301B232B70524B55
:103B6000027005221A704FF4E1350CE0002188F84C
:103B700000108CF800108EF80010027021214A4AC3
:103B800029704A4D13703D4B494A1A60402009F094
:103B9000FDF878B101234FF0000E464A90F900007D
:103BA00040218DE808402B4608F012FE003018BF77
:103BB000012028B9082007F079FD304B3E4A1A60F1
:103BC0003E4D304A2B6813F4804F1FBF12211170F5
:103BD0002A493B4818BF086042F20101194003F02E
:103BE000010003F4005EA1B1224944F6206CA1F863
:103BF00000C0BEF1000F06D0082111701F49DFF888
:103C0000E8E0C1F800E020B10C2111701B492D48FB
:103C10000860117804395170190640F1A4804FF002
:103C2000000ADFF8C880DFF8C8B02748C7F890B1AD
:103C30005146152288F801A0C8F804A0C8F808A0C9
:103C400011F079FC214A0292ABF105035046136052
:103C500005F0E4FED9F80030C8F80C30022009F075
:103C600095F8029A9646002844D1802007F01EFD60
:103C700072E000BF18110020FC1D00203801002058
:103C800005A500083C43002079A70008A086010094
:103C9000F1A40008CDA60008D9A4000881A6000858
:103CA0008A1E0020891D00208B1E002090D003005A
:103CB00001A4000859A50008E9450108784300203F
:103CC00039A5000849A50008980D0020EC05002042
:103CD000883400207C430020A81200208A1D002088
:103CE000891E0020881E0020DD450108CC0500202B
:103CF000263D002090F805C098F80130C8490C22F4
:103D000002FB03125278624504D00133DBB2042B6C
:103D1000F4D9002388F80130DEF8003098F801204B
:103D20001B7890F90000002B4FF00C0303FB0213EB
:103D300014BF4FF0030E4FF0010E00225B78CDF858
:103D400000E00192022108F043FDB64B1860002804
:103D50008BD0012005F062FE2068B34B00F5CB72DA
:103D60001A6005F073FFB14AB14B1360B14ADFF836
:103D70001893803313602B680024DA0389F800401D
:103D800040F1C8804FF00108DFF800A3DFF800B36E
:103D90000CF056FA89F8008040F22A3921464A464A
:103DA000504611F0C8FBA44B1A6B42EA08021A6392
:103DB0001A6C42F008021A641A6B42F400121A6379
:103DC000022358468DF8283009A903238DF829309D
:103DD000CDF824808DF82B808DF82A4006F02CFF3A
:103DE000DBF8203023F00F03CBF82030DBF8203055
:103DF00043F00203CBF82030904B1A8822F00102E6
:103E00001204120C1A801A8822F45C721204120C2A
:103E10001A806822DA621C85A3F814801A8C22F0BA
:103E200001021204120C1A841A8C9888198B22F041
:103E3000020221F0730109041204090C120C41F072
:103E4000600180B242EA0802988019835C631A8498
:103E50001A8B22F008021204120C42F008021A8394
:103E60001A880BF5C04B92B20BF1400B42EA0802E4
:103E70001A80DBF8003023F00103CBF800305846FD
:103E800006F01EFE13A806F0DFFD4FF0406313930B
:103E90006B4B1493402316934FF4806319934FF4A4
:103EA00080531A934FF480431B934FF4403313A96C
:103EB0001D93584604231E93CDF854A0CDF85C9072
:103EC00018941C941F942094219406F0CEFDDBF8E6
:103ED000003043F01003CBF800305A4B4FF400127F
:103EE0009A6008A80D238DF820308DF821808DF878
:103EF00022408DF8238006F07AFE2146524B1A6844
:103F0000524B43F8212001312029F7D10BF038FC26
:103F10000BF036FC2B685B0555D54D4BD7F8D48498
:103F2000C3F80080042008F031FF0421C7F8D8044A
:103F300008F006FF474B87F8DC040820C3F8008030
:103F400008F024FF444B454C1860082108F0F8FEA7
:103F5000002187F8DD042C22204611F0ECFA8E2394
:103F600063704FF07C0AE0234FF07D09E37084F822
:103F700000A084F82B903A4C2C220021204611F00E
:103F8000DAFA8A2363701020A023E37084F800A07B
:103F900084F82B90C7F8E08408F0F8FE1021C7F8E9
:103FA000E40408F0CDFE87F8E8042020C7F8EC848C
:103FB00008F0ECFE2021C7F8F00408F0C1FE87F8F5
:103FC000F4040BF0CDFF2B68264A13F4002318BF2E
:103FD0000123137008F0BEFF234B1860234B5A795E
:103FE000052A194602BF224B4FF4C8721A80214B92
:103FF0004FF47A721A80204A137843F00803137042
:104000001E4A137823F0020313702A6840F6020355
:104010001340002B49D01A4B1A4A1A603AE000BFED
:104020007C620108101B00207C1300204C1B002028
:10403000583D0020481B002000380240000C004082
:10404000340C004000600240D4690108680B002075
:10405000BC0A0020F80A0020400B0020C80A0020FB
:10406000FC0A0020E644002048060020343B0020E3
:10407000F227002004140020901400200E150020C8
:10408000441F0020AC3C0020670B0020AD0D002039
:1040900000000240444B03221A70444B01221A7064
:1040A000434A00231380434A13808B682B60424BA2
:1040B00001221A70337863F07F03337023B0BDECB4
:1040C000068BBDE8F08F1BB208EE103A029BDFEDC5
:1040D0003B7AB3F95A313A4A09EE103A029BB3F9E6
:1040E0005C31B8EEC88A08EE903A28EE278AB8EE1E
:1040F000C99AF8EEE88A0021B0EE480A29EE279A1C
:1041000068EEA78A117007F0A9FAF0EE40AAB0EEA7
:10411000480A07F042FAF0EE409AB0EE490A07F07A
:104120009DFAB0EE40AAB0EE490A07F036FAB0EEBA
:10413000408AB0EE680A07F091FAB0EE409AB0EE0D
:10414000680A07F02AFA60EE2A6A69EE897AF0EEC8
:10415000665AE7EE885A1B4B29EE2A6A29EE807AC6
:10416000C3ED035AF0EE465A2AEE400AE7EE485AEB
:10417000E6EE887AA6EE487A29EE0A9A83ED010ADD
:1041800069EECA9A2AEE2A0A83ED009A83ED028A22
:10419000C3ED045AC3ED059A83ED067AC3ED077AA1
:1041A00083ED080AFFF7F7B804440020440100201B
:1041B0004011002042110020B00A002035FA8E3C48
:1041C00022000020201F00202DE9F04FCA4BB3F938
:1041D0000610CA4B2DED028B1F687A8991B091426F
:1041E00001930EDBB1F5FA6FFC79BDBF8B1A634307
:1041F000A2F5FA64C4F16404BCBF93FBF4F4643424
:1042000000E06424BE4BBF4AB3F894B193F95E3129
:10421000126802929BB2164603930022B64B33F902
:1042200012E0CBEB0E0303F2F31540F2E6308542C9
:104230004FEA420C03D8002BB8BF5B4201E04FF4B9
:10424000FA73022A2ED0029D95F81D511DB1AB4282
:10425000CCBF5B1B0023AC4D6FF0630A642093FB63
:10426000F0F835F818900AFB083A08F1010835F91A
:1042700018500FFA89F8C8EB050505FB0AF595FB00
:10428000F0F5A2484D4420F80C50BD1864202D795B
:104290006B439F4D93FBF5F364339BB2634393FBF6
:1042A000F0F02DE0029890F81E511DB1AB42CCBF4A
:1042B0005B1B0023DFF878926FF06308642093FBA8
:1042C000F0F008FB003A39F910500130002B39F9B1
:1042D0001000A0EB050000FB0AFABDF80C009AFBE9
:1042E000F8FAC5EB0A0A1AFB00FA8848A0F804A0FD
:1042F000B879B8BF5B424343854893FBF0F0643024
:104300007578844B4FF06408454395FBF8F59D5450
:1043100003F10309F57A454395FBF8F509F80250D6
:104320000633757D022A00FB05F0784D90FBF8F00E
:104330009854794B0ED1DE4583F802800DDB704C2A
:10434000B4F89621914214DBB1F5FA6FA8BF4FF48F
:10435000FA610FE0DE459C5404DA35F80C305B421C
:1043600025F80C300132032A06F101067FF456AF1E
:10437000E5E71146DFF8C4E1644E891A4FF47A7319
:104380006FF063075943C2F5FA626423B1FBF2F19F
:1043900091FBF3F23EF8120007FB0211013207B263
:1043A0003EF91220D21B514391FBF3F30344EB80FF
:1043B0005A4B1B885F0639D5594BDFED5A7AB3F952
:1043C00004300A2293FBF2F3574A12889B1A1BB25D
:1043D00008EE103AB8EEC88A28EE278AB0EE480AEE
:1043E00007F03CF9F0EE408AB0EE480A07F0D5F845
:1043F000B6F9023006EE903AB6F90030F8EEE66A09
:1044000007EE903A20EE667AF8EEE77AA7EEA87A01
:1044100067EE807ABDEEC77AE6EEA87A17EE103A1C
:10442000FDEEE77A338017EE903A738094F89A3174
:10443000002B00F086803D4B3D4E1B88DFED3D0A92
:10444000378B00EE103A06F11C00B8EE400A01214D
:1044500006F0BCFDBCEEC00A8DED020ABDF80830C6
:10446000B7FBF3F796F8263007F1010E1FFA8EFE20
:10447000A6F824E013B3B6F8289000232C4835F8AA
:1044800013C000F1320600F12A0836F8132038F87C
:10449000131026F813C0C2EB0C0A11FB09F10FFA36
:1044A0008EF291FBF2F2524428F813200133042BD0
:1044B000E4D1002380F82630078502E0338D013BEC
:1044C00033851B4A108D03B2002B4FF0000337DDFC
:1044D000B2F92460184931F81320083112FB00F2B8
:1044E00031F8131092FBF6F28A1A25F813200133E3
:1044F000042BEFD125E000BF7C4300208C1400206A
:10450000343B0020581400208A200020662500201B
:104510000CFEFFFF0E1100207C2200201014002052
:104520007414002035FA8E3CE44400200814002066
:10453000001100206F12833A2A11002072200020FF
:104540001385AD4E3368980776D5AC4BAC4F1A68DF
:10455000FB6B45F20721D31A8B426DDDFA6306F03F
:1045600099FCA84BDFF8F4921A78032A9846B9F818
:10457000003024D10A2B2ED90023282088F80030BF
:1045800008F00FFD06F086FC9F4B188806F06CFCC7
:104590009E4B1A68D37890FBF3F0013008289C4BAF
:1045A000A8BF08201870537980B213FB00F3A7F856
:1045B0004030137913FB00F0A7F842000BE00A2B00
:1045C00009D80323924A88F8003000231370A7F813
:1045D0004030A7F8423098F800308A4A012B0DD0BD
:1045E00002D3022B1ED027E0B7F84020B9F80030E4
:1045F0009A4221DD012388F8003011E0B9F800105B
:10460000B7F842308B4202DD0223137011E07C4B7D
:10461000B3F840300133994202DD002313700BE000
:10462000082007E0B7F84230B9F8002001339A4279
:10463000E0DC072008F0FCFC3668310576D56F4BCE
:104640006F4F1B687A6CC2EB030845F20722904556
:104650006CDD7B646D4BB5F906B0D3F800906D4806
:1046600099F80A30B0F84E116B4D012BABF57A7BFF
:1046700003D044D3022B21D043E0684BB96C5A7B62
:10468000674B33F81220082092B291FBF0F3C91A5D
:104690008B18A7F84C20BB6440F6E44293FBF0F380
:1046A0009BB25343B9F80820C2EB13334FF47A722C
:1046B0005343B9F9062093FBF2F321E0594BB9F8C3
:1046C00008A01B78C5F800A05A071AD500F5C370DA
:1046D00008F0FBFB20B916F0100F18BF4FF0000BCD
:1046E00032220BFB0BF393FBF2F3B9F906205B4488
:1046F0005A434FF47A7392FBF3F3534400E00023E0
:104700002B60D7E914012B68474A03FB08F84FF4E4
:104710007A7398FBF3F810EB080041EBE871002383
:10472000C7E914010FF0F8FF404B1860404F3B6899
:10473000DB0427D5350622D53E4B1B7898071ED5BE
:104740003D4B187804281AD900223C4BD618052175
:10475000951C4FF00A0E122AD154E9B286F801E0F6
:1047600004D0B0EB510F2A46EFD800E014215A18BC
:10477000322002F8010CFF225A540F2000E00A20D8
:1047800008F056FC2E4D2A68002A00F090802D4B30
:104790002D4E186831688142984600F288802B4B74
:1047A000DFF8B49018785168002859D101201870AA
:1047B000B9F80030CB5C002B62D01378013B00FAD3
:1047C00003F2144BD3F8FC371A4201D108F012FC63
:1047D0001F4B01221A700FF055FFB9F80030002B63
:1047E0004ED12B681B78053B012B49D808F0B2FB52
:1047F000184B186044E000BF7843002030120020BE
:104800000011002004440020601F0020441F0020ED
:1048100044010020343B002084140020481F002065
:10482000581F00200E150020407E05007C1400203B
:10483000141400209014002091140020144400202F
:10484000B820002088340020B0200020AC200020B8
:10485000BC46002078460020B4200020F01F002035
:104860004FF0000A83F800A0B9F80030CB5C3BB1F0
:10487000504608F0BFFB984B83F800A00FF002FFF2
:104880002A68B9F8003052689448D25CFE2A01D1F7
:1048900000230BE0FF2A02D108F0B2FB07E0D8F8B2
:1048A00000500A2111FB02523260013303808C4D0B
:1048B0002B78590704D58B4B4FF480425A832DE057
:1048C0003A68D2075CBF43F001032B70864B1B781C
:1048D0001F075EBF2B7823F001032B70834B1A88D0
:1048E0007D4B1AB1824A1268960702D4814A128817
:1048F00032B102221A702B7823F001032B7004E0EE
:104900002978C80758BF02221A7008F023FB7A4B97
:104910001B68C01A002801DB0FF0B4FE0BF020FB6F
:10492000764B03931E78002E72D0754F3B68002B98
:1049300001F00B80386808F01DFC002801F00580AC
:104940006F4B704C186808F012FC092801D03F2802
:1049500052D14FF000092668DFF8C4814D4636B1C8
:104960006948D8F80010324610F032FE10B9C1463E
:1049700005B94546654B08F110089845EFD3EDB1F0
:10498000D5F800C0D9F8008023681CF803E018F8B7
:104990000300704512D15A1C5B4958B92D2B09D818
:1049A000DFF860E1CEF800204FF0200E01F803E0C0
:1049B000885403E001F803E02260E5E723680BB1C7
:1049C0004D4510D052480FF0B9F84D4507D855F86D
:1049D000100B0FF0B3F809200FF0A8F8F5E74D48D9
:1049E0000FF0ACF8002623689E42A3D2464B985D98
:1049F0000FF09CF80136F6E72368002B40F0EA87B9
:104A0000042840F0C887404803F008FF00F09DBF2D
:104A10000296414BF21892F84A10012940F08E8715
:104A20003E4FDFF80081F3583A60C8F80030BA46CC
:104A3000C346DBF80000DFF8EC9008F09BFB002891
:104A400000F06B87D9F8000008F091FBDAF800302D
:104A500093F84810024619B9242865D1012237E09D
:104A6000012904D14D2814BF0022022230E002297E
:104A700004D13C2814BF0022032229E003290CD1D1
:104A800040284FF0000102D983F8481073E05871B4
:104A90001971D971987104221AE0042906D1997903
:104AA00083F849004A409A71052211E0052962D134
:104AB000587919798842987906D950409871481CDC
:104AC00018710B441A7256E090420CBF0622002265
:104AD00083F848204FE000BFBC460020B4200020EF
:104AE0000E150020000C024090140020F227002038
:104AF0000C14002004140020C0460020541B002089
:104B000000440020441B0020141B00207470010886
:104B1000006B0108056B01089C3A0020F843002057
:104B2000C46E0108FC4300202B78D3495B0722D4D4
:104B30002328D9F8003014D1039A04900120107072
:104B4000CE4805910360CE488365CE480EF0F6FF4F
:104B5000CD480EF0F3FF0599049A0B7843F0020359
:104B60000B70CA4B1B681B78934204D109F0CEFA34
:104B700072B605F00DFBDAF80030DFF8349393F8E5
:104B80004820062A7FF455AF93F8490002F028F92F
:104B90008246002840F0BA86D9F8002092F84930C1
:104BA0004C2B00F087844DD8332B00F0BD8422D8E5
:104BB000292B00F0498409D8252B00F01E84272BCF
:104BC00000F02284232B40F0E38614E22D2B00F02A
:104BD0004D8408D82B2B40F0DB860EF0C5FEAC4B85
:104BE000587100F090BE2F2B00F00585312B00F09E
:104BF0002D8500F0CDBE3E2B00F0BD8010D8372BA8
:104C000000F0C48404D8352B00F0318200F0C0BE1F
:104C1000392B00F007843C2B00F0B88000F0B8BEC0
:104C2000432B00F0918405D8412B40F0B18600273A
:104C300000F080BC442B00F036854A2B00F06386E0
:104C400000F0A6BED12B00F09C8320D8CC2B00F026
:104C500036820FD8C82B60D004D84E2B00F0388491
:104C600000F096BEC92B00F06883CA2B00F0A58027
:104C700000F08EBECE2B00F05383C0F04883CF2BC4
:104C800000F06482D02B00F0378300F081BED82B77
:104C900000F046810AD8D32B38D024D3D42B00F08F
:104CA000A782D62B40F07486002798E2F22B00F002
:104CB000FB8210D8EF2B40F06B86764FD7F8008040
:104CC0000EF05CFEA8F866003F680EF057FEA7F8ED
:104CD000640000F018BEF32B00F0EA84FA2B00F019
:104CE000288300F055BE2B7803F0040303F0FF0780
:104CF000002B40F008860EF037FE654B022883F843
:104D0000D00740F2FF8283F8D077FBE20EF036FE48
:104D10005B4BA3F85C0000F0F6BD57797F08122FBB
:104D200003D90EF083FC00F0EEBD4FF00008B8454B
:104D300007D20EF023FE07AB23F8180008F1010894
:104D4000F5E73A460023BB4207DA07A931F813001A
:104D5000514921F813000133F5E7122A05D04E4BD3
:104D6000002123F812100132F7E7454B012283F8A6
:104D70005E2000F0C8BD0EF0F7FD454F87F8E0015A
:104D80000EF0F2FD87F8DF0100F0BDBD414FD7F80E
:104D900000800EF0E9FD18B10228A8BF022000E053
:104DA000012088F800003B681B78022B3B4B14BFA6
:104DB0003B4A3C4A1A6000F0A6BD364F3B681B7860
:104DC000022B4FF0000840F08F80D7F800900EF0D3
:104DD000CBFD07EE900AF8EE677AB2EE048AC7EED2
:104DE000887A09EB8809C9ED087AD7F800900EF0A7
:104DF000BBFD07EE900A9FED2C7AF8EE677A09EB7F
:104E00008809C7EE877AC9ED0B7AD7F800900EF0C3
:104E1000ABFD07EE900A9FED257AF8EE677A09EB75
:104E20008809C7EE877A08F10108B8F1030FC9EDC8
:104E30000E7ACAD1B8F1070FD7F800903AD10EF028
:104E400093FD07EE900AF8EE677AC7EE887AC9ED0F
:104E5000117AD7F800900EF087FD07EE900AF8EE71
:104E6000677AC7EE887AC9ED127AD7F800900EF00B
:104E70007BFD89F84C0030E00E1500200044002036
:104E800000110020356B0108056B01084443002028
:104E9000343B002058140020441E0020080000204D
:104EA00001E8000895EC00080000C84200007A44C0
:104EB000F84300200EF058FDC14489F80100D7F8EE
:104EC00000900EF051FDC14489F80B00D7F8009016
:104ED0000EF04AFDC14489F8150008F10108B8F147
:104EE0000A0FA7D100F00FBDD7F800900EF03CFDDF
:104EF000C14489F80100D7F800900EF035FDC14497
:104F000089F80B00D7F800900EF02EFDC14408F18F
:104F10000108B8F10A0F89F81500E5D100F0F3BCDB
:104F20000746DFF874839FEDD68AD8F800900EF01C
:104F300025FD07EE900AF8EE677A09EB8709C7EEC0
:104F4000887AC9ED087AD8F800900EF017FD07EEC0
:104F5000900AF8EE677A09EB8709C7EE887AC9EDFF
:104F60000B7AD8F800900EF009FD07EE900AF8EEE3
:104F7000677A09EB8709C7EE887A0137032FC9EDF5
:104F80000E7ACED1072FD8F800901CD10EF0F6FC87
:104F900007EE900AF8EE677AC7EE887AC9ED117AC3
:104FA000D8F800900EF0EAFC07EE900AF8EE677A67
:104FB000C7EE887AC9ED127AD8F800900EF0DEFCC0
:104FC00089F84C0012E00EF0D9FCB94489F80100D0
:104FD000D8F800900EF0D2FCB94489F80B00D8F84C
:104FE00000900EF0CBFCB94489F8150001370A2F68
:104FF000C8D100F088BC0EF0B7FC132881463FF6FC
:1050000090AEDFF89482D8F800700EF0ADFC00236B
:105010009C4A0C2101FB0322117A814223D10FFA11
:1050200089F907EB8907137887F885300EF09CFC27
:1050300087F886000EF098FC87F887000EF094FC45
:10504000914B924A1A6087F88800914BD8F800007B
:1050500018600021853007F027FF8E4B80F001009B
:10506000187000F050BC0133222BD1D159E60EF05C
:105070007BFC0B2880463FF654AE874B1F680EF032
:1050800073FC03283FF64DAE062303FB087787F831
:10509000DA000EF069FC87F8D5000EF065FC87F8A1
:1050A000D6000EF061FC87F8D7000EF05DFC87F8A3
:1050B000D8000EF059FC87F8D90000F024BC5379D1
:1050C000092B7FF62EAE019B1F680EF04DFC019B55
:1050D00038701F680EF048FC78700EF045FC019B9C
:1050E00064281B68A8BF642018710EF03DFC019B6A
:1050F00064281B68A8BF642058710EF035FC019B22
:10510000FF281B68A8BFFF2098710EF02DFC019BA3
:1051100064281F6828BF6420F8710EF025FC019BED
:10512000B8701F680EF020FC019BF8701F680EF02D
:1051300025FCD9F8003078815B790A2B40F2E383B3
:10514000564B1F680EF010FC3872DCE30EF016FCB4
:105150006FF4AF67C3199BB2C62B9CBF504BA3F82B
:1051600094010EF00BFCA4F840010EF007FCA4F82B
:1051700042010EF003FCA4F844010EF0FFFBA4F87A
:10518000D8010EF0F1FB84F8ED010EF0EDFB0EF00E
:10519000EBFB84F8EE010EF0E7FB84F883010EF0E0
:1051A000E3FB84F890010EF0DFFB3B4B1F680EF031
:1051B000E5FB00EB80004000A7F862000EF0D4FB96
:1051C00084F878010EF0D0FB84F87C010EF0CCFB63
:1051D00084F87B010EF0C8FB84F87D0193E30EF0A8
:1051E000CDFB304B23F817000137082FF7D18AE3A6
:1051F00053790F2B7FF495AD0EF0B6FB07280746C9
:105200003FF68FADDFF89080D8F800900EF0B6FB37
:105210000E235F43B944A9F82501D8F800900EF099
:10522000ADFBB944A9F82701D8F800900EF0A6FB11
:10523000B944A9F82901D8F800900EF095FBB944BB
:1052400089F82B01D8F800900EF08EFBB94489F84C
:105250002C01D8F800900EF087FBB94489F82D0195
:10526000D8F800900EF080FBB944D8F8008089F897
:105270002E010EF08DFB4744C7F82F0143E300BF1A
:1052800000007A44DC6B010870130020743C00209D
:10529000741300200E000020581400208C140020ED
:1052A000343B0020DE4300200EF05EFB0F28074653
:1052B0003FF637AD0EF058FBC7EBC707274487F81A
:1052C000D0000EF051FB87F8D1000EF04DFB87F8AF
:1052D000D2000EF049FB87F8D3000EF045FB87F8AB
:1052E000D4000EF041FB87F8D5000EF03DFB87F8A7
:1052F000D6000CF021F906E32B78580700F1038360
:105300000CF006FE06F012FA06F0CAFAFBE22B7861
:10531000590700F1F882C14B4FF4C8721A80F2E2CB
:105320002B785A0700F1EF82BD4A137843F004034B
:1053300025E02B785B07E5D52AE30EF015FBB84B8B
:105340001A7810B142F0020201E022F002021A7053
:105350000EF00AFBB34BB44F18700EF019FB386017
:105360000EF016FB78600EF009FBB04B18800EF0C3
:1053700005FBAF4BAF4A1880137843F0020313705C
:10538000C1E20EF0F1FA82460EF002FB81460EF009
:10539000FFFA80460EF0FCFA07460EF0EFFA0EF028
:1053A000EDFA0EF0E1FABAF1000F12D1A24B102083
:1053B000C3F80090C3F8048006F058F9984A1378AF
:1053C00043F001031370002F00F09D829B4B1F6080
:1053D00099E2BAF1100F40F09682994BC3F8009011
:1053E000C3F804800FB1954B1F609548954B02227E
:1053F000011D1A7004F0E0FB85E2934B98600EF0FB
:10540000C7FA06F05BF97EE20EF0B8FA8E4FA7F805
:1054100058010EF0B3FAA7F85A010EF0AFFAA7F848
:105420005C0170E20EF0A0FA874F87F878010EF069
:105430009BFA87F87C010EF097FA87F87B010EF053
:1054400093FA87F87D015EE20EF098FA7E4FA7F896
:105450007E010EF093FAA7F880010EF085FA87F826
:1054600082010EF08BFAA7F884014CE20EF07CFA70
:1054700084F88E010EF082FAA4F898010EF07EFAFC
:10548000A4F894010EF07AFAA4F896010EF06CFAE2
:10549000D9F8003084F88F015B79082B40F2338211
:1054A0000EF06CFA684FA7F89C010EF067FAA7F8A7
:1054B0009E0128E20EF058FA634F87F8D6010EF0ED
:1054C00053FA87F8D7010EF059FAA7F8D8011AE273
:1054D00057790323B7FBF3F7122F3FF622ACDFF81F
:1054E00068814FF00009B94580F00D820EF03CFA5A
:1054F00088F8A0010EF042FA40F2ED23984205DD53
:1055000040F6CA039842A8BF184601E040F2EE20D8
:10551000A0F2EE20192309F1010990FBF3F008F144
:10552000020888F89F01DEE70EF01EFA464B83F86A
:105530009001E8E10EF018FA434B3B440137082F85
:1055400083F88601F6D1DEE10EF00EFAC4F808A069
:1055500060710EF01DFA06F0B1F80EF005FA84F84D
:105560008E010EF00BFAA4F858010EF007FAA4F819
:105570005A010EF003FAA4F85C010EF0FFF9A4F84A
:105580007E010EF0FBF9A4F88001BCE153790727F6
:10559000B3FBF7F2C2EBC2029A1A12F0FF0F7FF4CC
:1055A000C0ABB3FBF7F7013FFFB2FF2F00F0AB81B9
:1055B0000EF0DAF95FFA80F94FFA89F007F0ACFBE8
:1055C000804600283FF4ADAB80F800900EF0D6F98D
:1055D000A8F802000EF0C8F988F804000EF0C4F92B
:1055E00088F805000EF0C0F988F807000EF0BCF945
:1055F00088F80600D7E7144F07F140080EF0BEF90F
:10560000A7F8A4020EF0B0F987F8A6020EF0ACF9E4
:10561000043787F8A3024745F0D174E1F227002050
:105620009014002091140020941400209C14002059
:105630009E140020A6140020A8140020B8140020F6
:10564000B014002078130020343B00200EF08CF9B9
:105650001F2880463FF665AB3B685B79082B7FF4DB
:1056600060AB0EF08BF908F1880704EB870700F0B8
:105670003F00F8800EF082F9FB88800100F4FE50B4
:105680001843F8800EF070F9000138710EF06CF9D3
:105690003B7900F00F00184338710EF065F978710E
:1056A0000AF0CEFD2FE1BF4B012283F85F202AE1F3
:1056B0000EF05AF9FF288146DFF8E8A267D10027EB
:1056C0000AF16400394660228AF860700FF033FFF7
:1056D0008DF81B709DF81B309AF8C620DFF8C48245
:1056E0009A424CD99DF81B3008EBC30393F8C9309C
:1056F000DF073DD59DF81B3008EBC30393F8C820A6
:10570000A94B33F91230002B32DD9DF81B3098F88D
:10571000607008EBC3034FEAC70ED3F8CC3058686B
:105720009DF81B3008EB0E0108EBC3084866D8F85B
:10573000CC301A89A1F86A2092B2002101238B4053
:10574000134003D101311029F8D100E00B46D644B3
:1057500007A9AEF8683004238DF81E300137012305
:10576000ADF81C208DF81F300AF0E8F88AF8607058
:105770009DF81B300133DBB28DF81B30AAE7012006
:105780000EF042F998F860000EF00BF9BEE09AF8BE
:1057900060309842BFF4C5AA00200EF035F90EF033
:1057A0000FF93B6818680DF04BFCD8F800000EF0BC
:1057B000BBF807F025FC72B67C4F80234FF0400BFE
:1057C0007B834FF00108A7F81AB03846ADF81C30BB
:1057D00007A904230AEBC90A8DF81E308DF81F8033
:1057E0000AF0ACF8384607A98DF81E808DF81F80A6
:1057F000ADF81CB00AF0A2F8BAF86810DAF8643014
:1058000001FA08F01A6808FA00F008FA01F80243F1
:105810001FFA88F81A60A3F81880A7F818B03B6937
:105820001806FCD45F4B03EBC9010122486EB1F8A6
:1058300068C0D0F800E04FEA4C0802FA08F848EADD
:105840000E0EC0F800E0D1F864E0B1F868108A40AC
:1058500092B2AEF81A2040227A83554A4FF4804122
:1058600011834FF40041518342F20F783A691106D7
:1058700005D4B8F1000FF9D008F1FF38F6E74FEA88
:10588000C90A0122534402FA0CF1B3F86A3089B212
:105890000183ADF81C3007A904238DF81E308DF864
:1058A0001F200AF04BF8424B4FF400421A83B8F124
:1058B000000F17D03B693D491A06B3D5394A524407
:1058C000536EB2F868201869012393400342384BA5
:1058D0004FF480424FF0400015BF088348831A837D
:1058E0005A83E7E7314A402111834FF480421A83FB
:1058F00062B60A2007F055FB0DF0B9FD2D4B1B6871
:10590000F32283F8492000200EF07EF80EF058F8BC
:10591000284B1B68002283F84820224B93F85F3005
:1059200063B1029A4C235343234AD0580DF088FBAD
:105930000BF0C2FD05F0CAFE04F03AFC029B4C36A7
:105940000133982E02937FF464A81C4B1B689B06BE
:1059500016D51B4B13491B68D1F828219A1A002A27
:105960000EDB184A1278042A0AD903F5123303F51C
:10597000F8730F4AC1F82831536983F40043536127
:10598000114B9B68002B00F09C801048984798E0D2
:105990000DF04CFEBAE70C2839D10D480EF0CEF8C8
:1059A00033E000BF001100205C140020000402401E
:1059B000000C0240F84300209C3A00200C14002008
:1059C0003012002091140020602300202C120020AF
:1059D0000A6B01080C28E0D00A281CD13B4D3C483A
:1059E0000EF0ACF8284623210FF0DBFD08B1401B78
:1059F0002060236893BB35482360002130220FF0DC
:105A00009AFD039B1B78002B9FD032480DE07F2826
:105A100012D1FEF78FBF0D28E0D07F2809D1013BBE
:105A20002A4A2D4823600021D1540EF087F8FEF752
:105A300081BF2F2B3EF67EAFA0F12002D2B25E2AAC
:105A40003EF678AF13B920283EF474AF5A1C22609A
:105A50001E4AD0540EF06AF8FEF76CBF5A1EA95CBD
:105A6000202901D11346C5E7184A23600021D154EB
:105A70001A4B1B4DD3F80090D5F800A0DFF84C80EE
:105A800050460FF09CFD06463246404651460FF008
:105A90009FFD144A28B918F806304B445B78590723
:105AA00003D010359542E7D306E0954204D2701C2E
:105AB000EB684044984702E00B480EF03FF80023A3
:105AC00099E711B0BDEC028BBDE8F08F141B0020EC
:105AD00046950108056B0108316B0108480100205B
