:020000040800F2
:10000000B805002089010008FF44010839450108AE
:10001000E5010008E5010008E50100080000000016
:10002000000000000000000000000000FD44010886
:10003000FB44010800000000F944010801450108E3
:10004000E5010008E5010008E5010008E5010008F8
:10005000E5010008E5010008E5010008E5010008E8
:10006000E5010008E5010008E5010008E5010008D8
:10007000E5010008A144010865430108E501000805
:10008000E5010008E5010008E5010008E5010008B8
:10009000E5010008E5010008E5010008E5010008A8
:1000A0006542010895420108E5010008A5420108E2
:1000B00085420108E501000875420108F544010880
:1000C000ED440108F1440108E9440108E501000894
:1000D000E5010008FD430108E50100085943010856
:1000E00011450108E501000865450108E501000822
:1000F000E5010008E5010008E5010008E501000848
:10010000E5010008E5010008E5010008E501000837
:10011000E5010008E5010008E5010008E501000827
:10012000E5010008E5010008E5010008E501000817
:10013000E5010008E5010008E5010008E501000807
:10014000E5010008E5010008E5010008793601082D
:10015000E5010008C142010809440108B54201084F
:10016000E5010008E5010008E5010008E5010008D7
:10017000E5010008E5010008E5010008E5010008C7
:10018000E5010008E5010008002100F004B80F4B6C
:100190005B58435004310E480E4B42189A42FFF40C
:1001A000F6AF0D4A00F003B8002342F8043B0B4BB6
:1001B0009A42FFF4F9AF0A48016841F47001016006
:1001C00014F028F800F010F87047000010A10108A2
:1001D00000000020B8010020B8050020E4460020FF
:1001E00088ED00E0FFF7FEBF2DE980488FB002F0F8
:1001F000D1F8C04C23792268254633B1A368D31ABD
:10020000002B02DB002323712373216942F20103D7
:100210000B400BB9B74803750B0740F18581A36903
:100220001B7A062B00F27081DFE813F0070007004D
:100230003500EF002C015A015A01237FAD48002BF5
:1002400000F0638100230377036A90F81DE090F8C3
:10025000248093F800C00223EF1803F1010A97F8F5
:100260002500A44E40FA0EF000F00F0060450ED2BB
:100270000B280CD897F8259006EB0A0706EB8000B0
:1002800097F8257009EA080607EB0626866302330D
:10029000102BE1D12BE194F86800964B002800F078
:1002A000B28093F8B660002083F8680093F8B50038
:1002B00006F0070740EA0720D86693F8B70000F079
:1002C0003F077F0147EAD6061E6793F8B860B6007D
:1002D00046EA901693F8B90000F0010746EA87262F
:1002E0005E6793F8BA6006F00F07FF0147EA500017
:1002F000986793F8BB0000F07F073F0147EA1616A6
:10030000DE6793F8BC60760046EAD01093F8BD60D3
:1003100006F0030740EA4720C3F8800093F8BE00C8
:1003200000F01F07BF0147EA9606C3F8846093F800
:10033000BF60F60046EA501093F8C160C3F8880029
:1003400093F8C00006F0070740EA0720C3F88C00C6
:1003500093F8C20000F03F077F0147EAD606C3F8D2
:10036000906093F8C360B60046EA901693F8C40014
:1003700000F0010746EA8726C3F8946093F8C56049
:1003800006F00F07FF0147EA5000C3F8980093F802
:10039000C60000F07F073F0147EA1616C3F89C60CD
:1003A00093F8C760760046EAD01093F8C86006F06C
:1003B000030740EA4720C3F8A00093F8C90000F003
:1003C0001F07BF0147EA9606C3F8A46093F8CA6006
:1003D000F60046EA5010C3F8A80093F8CB00C70710
:1003E0004CBF40F21476AD26C3F8AC6086074CBF14
:1003F00040F21473AD2310F0080FC4F8B0300CBFF6
:100400000123032381E003467FE094F8CD6039485F
:100410000023AEB390F8CE60B0F8D0C080F8CD30F5
:100420004FF0020E03271EFB067880440EFB060EDB
:1004300098F8D2809EF8D6E04EEA082EF44564D1B2
:1004400090F8D300012803D081285ED13B4600E01C
:100450000346102E84BF102084F8CE0094F8CEE01E
:1004600000204FEA4E0E70454FD0234F3E182637DE
:1004700096F803C0367946EA0C26C6530230F2E7F6
:10048000334642E094F818011A4B00283CD0002073
:1004900083F8180193F81901A82835D193F82C3165
:1004A00093BB05EB43009FED157A90F81C6190F823
:1004B0001D0100EB062007EE900AF8EEE77A1048DF
:1004C000C7EE877A9FED0F7A77EEC77AFCEEE77A70
:1004D00017EE906A40F823600133082BE1D106E063
:1004E00094F850318BB1034B002083F85001012365
:1004F0000BE000BFB80500208A060020CDCCCC4020
:10050000E80600200080BB430023D8070CD501205B
:100510002075AC48C3F34003037083F001032371DB
:1005200002F5C333A033A3604B0414D594F85131C2
:1005300023B1A54B002083F851010123A248237564
:100540004BB1012303719F4B00261E7002F543330C
:1005500003F5A0738360CF0711D594F8526194F826
:100560005301994BB0420AD001201873954883F883
:1005700053610027477002F5C330A03098608E04A5
:100580000AD50023904800F5AA769E5B002E41F024
:10059000AB860233182BF5D1237D33B98A4BD3F8C0
:1005A0006C31D31ADB43DB0F00E001238BB1D4F8AD
:1005B0007031D21A12F1500F03D4834B93F8743177
:1005C0003BB105F0EBF8012384F8753184F8743100
:1005D0003AE1D4F878217C4B0132002AC8BF0022CE
:1005E0000806C3F8782140F12F81D4F87C31B3B9E3
:1005F00094F88031013B042B00F22681DFE813F0F0
:100600001600160016001101EC006F4BD3F87C01A8
:100610000DF0D3FB0FF0E4FB08B10BF0D3FBD5F8E2
:100620007C010DF0CFFB0028EFD1E1E7D4F8A02149
:10063000654E177817B1012F13D005E1012B00F299
:100640000381624B96F88121D6F87C010C2101FBD5
:10065000023292F8312003EB820319690DF0A8FBF6
:1006600067E0D6F87C010DF086FB002800F0EC80F6
:1006700096F88031022B47D0032B56D0012B40F047
:10068000E380534BD6F898211B689A1AC72A40F288
:10069000DB80D6F89411042934D84C4AC6F8983136
:1006A0000C2000FB0121D6F87C6191F83110B7686D
:1006B0000023DFF820E15EF823E0BE45D8B204D085
:1006C0000133082BF5D1002300E003468B4206D00E
:1006D00002EB8102304611690DF06AFBB4E094F838
:1006E00081310C2101FB0322576B17F8011B19B153
:1006F000304606F091FCF8E7D4F894310133C4F8A1
:100700009431A1E002209DE0304B96F88121D6F88B
:100710007C010C2101FB023292F8312003EB8203B1
:1007200019690DF045FB03208CE0D6F8A0319B78C9
:100730000BB9042086E096F89C310BB986F89C71C1
:1007400094F89C31204E012B17D1D6F89431B22B5E
:100750000DD81E4AD6F87C01134493F86C1006F0AD
:100760005BFCD6F894310133C6F8943105E00023E0
:10077000C6F89431022386F89C3194F89C31124ECD
:10078000022B1AD1D6F894310F2B13D8D6F8A0210A
:100790000E495278D6F87C0102EB02120A44134447
:1007A00093F8201106F038FCD6F894310133C6F8DE
:1007B000943102E0032386F89C3194F89C31022B9B
:1007C00042D9B6E700000020B805002034610108D6
:1007D000BC46002044610108D4F88821C84B01328E
:1007E000C4F88821D4F8A021D2785AB193F8812195
:1007F0000132D2B20521B2FBF1F101EB8101521AB3
:1008000083F88121BF4B1B68C4F88C31002384F826
:10081000A43194F8A53123F0020384F8A531012016
:1008200010E0B84BD4F88C211968B54B8A1A40F601
:10083000C4118A4208D9D3F8A82122F02002C3F8B3
:10084000A821052011F0AEFF0DF053F80CAE20608A
:10085000D4F8B831AA4F304698479DF8303033B9B4
:100860003A68D7F87031D31A642B00F11185D4F8A7
:10087000C0212368A24F1344C4F870314FF000091F
:10088000D4F8B03184F8749107F5E270984707F511
:10089000E27A58B9B4F8CA31002B00F0AD80984B19
:1008A000D3F82402643012F03DF8A5E0DFF858B226
:1008B00097F8CC21504651460CF0C6FDBBF80030ED
:1008C00007F50772002B00F08C80D7F8D0311B7829
:1008D00008EE103A07F5EA77C8468B4B8B49188823
:1008E000B0F57A7F03D1002341F809303B613AF932
:1008F00008E051F80930734441F809303B6905EECE
:1009000090EA0133012BF8EEE57A3B6106D1002332
:10091000C7ED017AC7ED007ABB6019E097ED006A78
:1009200005EE903A77EEC66AB8EEE57A86EE877AFB
:1009300036EE077A37EEC76AD7ED027A87ED017A8D
:10094000E6EE867A87ED007AC7ED037AC7ED027A84
:10095000002301282AF8083022F808302DD13B69FD
:10096000012B09DD013B00EE103AD7ED037AB8EE1A
:10097000C00A87EE800A01E09FED650A07900591A5
:10098000069214F0F5FF18EE103A07980599069AAA
:100990004BB1F8EEC87AB4EEE70AF1EE10FA02DDD8
:1009A0004FF47A731BE051F809304FF47A7103F574
:1009B000FA7393FBF1F322F8083008F10208B8F15A
:1009C000060F09F1040907F1140786D1012803D1A4
:1009D000069213F031FA069ABBF80030013BABF8EF
:1009E000003000233AF80300D15A411A2AF80310C4
:1009F0000233062BF6D14DE70CF07BFFD4F82C32F6
:100A00002060C31AA4F82832C4F82C0203F0E6F9D7
:100A1000D4F830323A4FD90240F1B980B7F8CA81E0
:100A200008F400681FFA88F8B8F1000F40F09B80C6
:100A3000384B1B785A0740F196804FF4006013F052
:100A40004BFAD7F82432C7F834321A78B3F85A3050
:100A5000D4F834E294F83CA2022A18BF87F838820E
:100A60004FF47A7808FB03F8B4F8283208BF012263
:100A700098FBF3F808BF87F83822C8F100081FFA7E
:100A800088F894F83872A4F83A82002308977046E0
:100A90000EF120011A4690F856C090F8537009974D
:100AA000BCF1000F01D0674507D8BAF1030F08D891
:100AB0005FFA82FCBCF1020F03D14FF0000C80F80A
:100AC00056C0089FDFF8509047B3D1ED006ADDEDC6
:100AD000095AF2EE047A66EEA76AB8EEE57AF4EE09
:100AE000C76AF1EE10FA44BFC7EE277AC1ED007A6B
:100AF000D1ED007AFDEEE77A17EE907A19E000BFAB
:100B0000B8050020BC460020BE160020C807002003
:100B100000000000B8160020F60700200EEB020CC3
:100B2000099F9CF801B0BB4538BF8CF801709CF858
:100B30000170BF0129F80370BC4F07F5117C4FF01D
:100B4000000923F80C90013207F24A2C032A23F8FB
:100B50000C8000F1010003F1020301F104019AD1BC
:100B6000012387F85032B4F8CA31B04F1B051AD4AC
:100B7000AF4B1B7803F0040303F0FF089BB997F811
:100B8000503283B111F0C4FE87F850820BE0B7F801
:100B9000CA31180507D5A64B1B78590703D54FF462
:100BA000006013F0C7F9DFF8A08298F80230B3B103
:100BB000B4F95822B4F80E349A4210DC9B4B93F8E7
:100BC0007D32012B01D0192B02D194F85E2432B969
:100BD0000E2B04D0082B1CBF0023A4F8803AD4F8B5
:100BE0002492924F99F824A1BAF1000F37D0B7F8A8
:100BF000CA319A0733D007F6842393ED080ADFED54
:100C00008D7AB7F882BAB4EEE70AF1EE10FA22D97B
:100C100014F04EFE07F6A827D7ED007A20EE270A3B
:100C200014F0FCFDB0F5617FA8BF4FF4617005EED4
:100C3000900ADFED817AB8EEE50A80EE270A06F029
:100C400097FE06EE90AAF8EEE67A27EE800A14F0F8
:100C5000E5FD80B200E000205844A4F8820AD4F8F0
:100C6000A831724F9B0640F18B80B7F8CA3103F070
:100C70003003002B00F0848097F8A531D8077FD58A
:100C8000B7F9B02ADFED6D7ADFF8C0A10A2392FB35
:100C9000F3F308EE103AB8EEC88A28EE278AB0EED1
:100CA000480A06F065FEF0EE408AB0EE480A06F00B
:100CB000BFFED7F8B43AB7F9BE0A93F803B0B0EE66
:100CC000409AB2EE048ABBF1000F37D0B7F8BA2AC7
:100CD00093B212B2801A069307F020FACBF1000704
:100CE000B842069B03DB5845A8BF584600E038468B
:100CF000B4F8B82A0344B4F9BC0A91B212B29BB258
:100D0000801AA4F8BA3A0591069307F007FAB84298
:100D10000599069B03DB5845B4BF07465F460F4461
:100D2000BFB2A4F8B87A1BB23FB207EE903A05EE14
:100D3000907AB8EEE77AF8EEE56A09E006EE900AF6
:100D4000B7F9BC7AB8EEE67A06EE907AF8EEE66A83
:100D500068EEE67AE7EE097A26EE899AC7EE887A97
:100D6000A7EE289AFDEEE77A89EE089A17EE903AF8
:100D7000BDEEC99AAAF8003019EE103AAAF802306E
:100D80002F4B0093B4F8E223D4F8C01AD8F80470BB
:100D900009F164034846B8470BF0E6FBD4F8C4AA4F
:100DA0009AF90830ABB994F8C89A09F1FF33182BB7
:100DB00000F28880DFE803F03386866286868659F3
:100DC00086868686866E8686868686627A86866E23
:100DD000330000271B4BBAF9062003F5886944202D
:100DE00000FB073039F9071006F02AFED5F8203F3E
:100DF00080B2C7EBC70227F809001A4400B2B2F963
:100E00000030B2F90220984203DB13B29842B8BF17
:100E1000034629F807300237102FDBD1C3E79AF8D1
:100E20000430ABB10020B4F81A1F1AE0B805002056
:100E3000B81600208FC2753CEFB6B04435FA8E3C30
:100E4000B60900208810002000000020BA160020FB
:100E5000B54B1B7803F0040303F0FF00002BE1D136
:100E6000014607F0DBF901272DE00020B4F8161F3A
:100E700007F0D4F90120B4F8181F07E00020B4F8F7
:100E8000181F07F0CBF9B4F81A1F012007F0C6F9B4
:100E9000022718E00027A54B03EB4703F8B2998817
:100EA000013707F0BBF9062FF5D10CE000279F4B67
:100EB00003EB4703F8B2D988013707F0AFF9042FE5
:100EC000F5D100E00027D4F810A01AF0200F02D1CD
:100ED000B9F1050F0CD13846B4F8101F07F09EF990
:100EE000781CC0B2B4F8121F07F098F90237FFB2AD
:100EF0001AF4801F05D194F8243F9BB10BF08CFFAE
:100F000010E04FF000098A4B03EB490307EB09009F
:100F1000C0B2198907F082F9B9F10D0FEBD009F1D0
:100F20000109F0E7B4F8CA312BB9824BD3F8240297
:100F3000643011F0F7FC804B1878002840F0A8814D
:100F400022697C4B110340F1A38193F8252F023ACB
:100F5000052A17D893F8702A22B9D3F8280F036806
:100F60009B689847D4F82C3F94F8302F1344B3F57E
:100F7000807FA8BF4FF480738342D4BFC4F82C3F56
:100F8000C4F82C0F94F8253F023B082B00F2808117
:100F9000DFE813F00900430069007F009800AA0011
:100FA000450162016F01654B1A68D4F8383F64331C
:100FB0009A4240F26D81402006F028FF002840F060
:100FC00067814FF040085E4BD5F8342F594F1A44D3
:100FD000994692F8740178B106F023F8D7F82C1FDF
:100FE0000139C7F82C1FD7F8341FB8F1010801F1F7
:100FF0000101C7F8341FE6D1D4F8342F4D4B4A44D1
:1010000092F87421002A40F04381C3F8342F4FF046
:10101000FF32C3F8382F032222E024230093494BE8
:10102000019303F10C0202924920A3F10A0250211C
:1010300002330FF0CDFE002840F02A8122693D4B9B
:1010400012F080024FF0FF3105D0C3F8340FC3F81F
:10105000381F042204E0C3F8342FC3F8381F0622D7
:1010600083F8252F14E1384A0223002100930191CF
:101070000291482002F108030FF0AAFE002840F078
:1010800007814FF0FF33C4F8383FC4F8340F05230D
:10109000C2E0072300932D4B019303F10C0202924F
:1010A0004720A3F10802002104330FF091FE00282D
:1010B00040F0EE804FF0FF33C4F8383FC4F8340FEF
:1010C0000623A9E0224A0523002100930191029101
:1010D000532002F108030FF07BFE002840F0D88077
:1010E000C4F8340F072397E0402006F08FFE002855
:1010F00040F0CE80D4F8343F0C2B00F28480DFE83F
:1011000003F0070B0E353B464A4E5256636D710095
:10111000104808F09DFE70E00F48104934E0104878
:101120001049114A67E000BFB8160020C81400201B
:101130000A080020B8050020C1160020BC46002087
:101140003461010812630108B8640108D064010821
:101150001C650108347301084E73010863730108AC
:101160006B7301087F7301088B730108BE4894F804
:101170006E1A94F86F2A3EE094F8483ABB480C2265
:1011800002FB035393F84A1A08F062FE35E0B848B0
:10119000B4F8B813F8E7B748B4F8BA13F4E7B648A8
:1011A000D4F8BC11F0E7B548B8F80810ECE7D4F86B
:1011B0003C2FB34BD20403D5B24893F8F013E3E7C6
:1011C0000B22C3F8342F18E0AF4894F8F41394F8C6
:1011D000F52394F8F33308F03BFE0EE0AB48B4F887
:1011E000401FD1E72269A64B170506D5A848B3F8DA
:1011F000F813B3F9F62308F02BFED4F8343F01338B
:10120000C4F8343F44E00CF0C6FD002840D04FF451
:101210008053A4F8423F092384F8253F38E0D4F8EE
:101220003032974F980114D5B7F8443F8BB9D7F8AF
:10123000483F0C930E203B680D93314605F0D8FFD4
:101240004FF48053A7F8423F092387F8253F0AF05F
:1012500087F806F0F9FD1BE094F84C2F884B002A24
:10126000F5D0D3F830229101F1D4082283F8252F4C
:10127000EFE7884B1A68D4F8383FC8339A4203D94D
:1012800010F018FC0123C7E70CF085FD0028F7D10A
:10129000814B1F78002F40F054852269784B52050E
:1012A00040F14F8593F84D2FB3F8C693DFF8E481F2
:1012B000002A00F01A82D8F80020D3F8501F511AE3
:1012C0007C2940F21282C3F8502F93F8542F013238
:1012D00083F8542F07F12400DFF8A4A1C0B206F070
:1012E00031F80AF6567333F9173007EE103A6B4BA4
:1012F0001B8907EE903AB8EEC77AF8EEE77A013725
:10130000C7EE277A9FED667A67EE877AFDEEE77A79
:1013100017EE900A00B206F041F8032FDAD1302020
:1013200006F010F8002006F039F806F019F89AF8DF
:10133000547F17F0030723D1DAF8502F41F2883396
:101340009A420BD9102005F0FDFF384606F026F82A
:10135000212005F0F7FF384606F020F8142005F0AC
:10136000F1FFB4F9B00A0A2390FBF3F006F016F887
:101370001C2005F0E7FF002006F010F805F0F0FF54
:1013800094F8543F3E4F5B0740F08981022005F0FE
:10139000D9FFB7F95C0F0A2390FBF3F005F0FEFFCD
:1013A0000320B7F982AA05F0CDFF3E4B1B784FF022
:1013B000050B9AFBFBFA58071FFA8AFA0ED507F2BB
:1013C000FE30494612F01AFD28B93B6913F0100FA0
:1013D00018BF4FF0000A0FFA8AF005E0D7F8603F17
:1013E0009B89B3FBFBF000B205F0D8FF2369244FC3
:1013F000990740F1B080DFF8B0A0B7F8643F9AF8E1
:101400000020B7F866BF4FF0640909FB03234FEAD9
:101410000B1B5200B3FBF2F31FFA8BFB4BEA032BBF
:101420001FFA8BFBC3F303234BEA030B062005F0E3
:1014300089FF0FFA8BF005F0B1FFB7F8662F9AF825
:101440000030013292B292FBF3F103FB1123A7F8B3
:10145000663FD7F8683F9B7B012B27D1392005F0E9
:1014600071FFB7F9640F3DE094730108A57301089B
:10147000AF730108BE730108CD730108DD73010865
:10148000B8050020E7730108F47301080D74010822
:1014900018740108BC460020C1160020000000207E
:1014A00000007A44B816002010000020B7F8643F0E
:1014B0006E275F43152397FBF3F7BFB23A2005F081
:1014C00041FFB7FBF9FA0FFA8AF005F067FF3B20FE
:1014D00005F038FF09FB1A7080B205300A2390FB33
:1014E000F3F000B205F05AFF282005F02BFFD4F8E6
:1014F0006C3FAC4F0A2293FBF2F000B205F04EFFB6
:10150000042005F01FFFD4F8603FD7F8700F9B89C7
:101510004FF6FF729042A8BF104620EAE070BBB1C0
:10152000181A07EE900A9FEDA07AF8EEE77A05EE1A
:10153000903A67EE877AB8EEE57AC7EE877AFDEEE5
:10154000E77A17EE900A6428A8BF642020EAE070CA
:1015500000B205F023FFD4F8A831924F9A0640F16B
:10156000948097F8A5319B071FD5112005F0EAFE5E
:10157000B7F8740F8D4B4FF4F36909FB00F090FB43
:10158000F3F000B205F00AFF192005F0DBFEB7F812
:10159000743F09FB03F9642399FBF3F999FBF3F218
:1015A00003FB129000B205F0F9FE94F8A531B4F8EF
:1015B000767F13F0020F08BF0027012005F0C2FE5E
:1015C00038B205F0EBFE092005F0BCFE002005F066
:1015D000E5FE774B94F8A4711B88B3F5967F0BD981
:1015E000704A92F8542F02F00F02072A04D842F2F0
:1015F0000F77BB42B8BF1F46052005F0A3FED4F805
:10160000683F5B7B0BB938B21AE0203F07EE907A57
:101610009FED687AF8EEE77AFEEE006AC7EE877A09
:10162000B6EE007AF5EEC07AF1EE10FA48BFB0EEF1
:10163000667A77EE877AFDEEE77A17EE900A00B2C7
:1016400005F0ACFE94F8A521564B900703D493F80F
:10165000782F012A04D1012384F8783F56481AE0F4
:10166000D3F8683FDFED557A93ED017A27EE277ABC
:10167000BDEEC77A8DED0C7A93ED027A67EE277A8C
:10168000FDEEE77ACDED0D7A04E04D4B93E80300D3
:1016900086E80300304605F08CFE05F061FE94F804
:1016A000543F282B21D13F4BD8F80060002283F80B
:1016B000542F4FF47A73B6FBF3F917203C2605F04C
:1016C00041FEB9FBF6F7B7FBF6F006FB107000021F
:1016D00000B205F063FE182005F034FE06FB1790FB
:1016E00000B205F05BFE05F03BFE94F8843F2D4E02
:1016F000002B00F065810CF0FCF8D6F8883F314AE9
:10170000C31A9342074640F2DE80002386F88E3FDC
:1017100086F8903FB6F8643FD8F80010DAB21B0A9A
:1017200086F8AB3F86F8A13FD6F8B83F86F8AA2FD7
:10173000C91AD6F8BC3F86F8A02FDB7B4FF47A722B
:101740005A4391420ED3204B1B68C6F8B83F96F817
:10175000C03F013B012B05D8102386F88E3F0223A2
:1017600086F8903FD4F86C1F0E4B0A2291FBF2F1E1
:1017700084F8A81F091284F8A91FD4F8701F91FBE0
:10178000F2F294F8A51184F8AC2F121284F8AD2F60
:10179000890794F8A42184F8DB2F17D42D2283F82D
:1017A000DC2F8EE0B80500200000C842A0860100B2
:1017B000120000206666E63F341500208096184B24
:1017C000446501083F0D0300BC460020D4F87C6F3F
:1017D000D048DFF85883D4F8801F042A96FBF0FE27
:1017E0008CBF3322322208FB0E6983F8DC2F4FF0C6
:1017F000060CC94B0EEB8E0E0CFB09F90EEB8E0E90
:1018000099FBF3FA4FEA8E0E4EFA8AFE1FFA8EFE0D
:1018100091FBF0F084F8CBEF4FEA1E2E84F8CCEF6A
:1018200008FB001EF60F0CFB0EFE84F8CA6F9EFB31
:10183000F3F6642203FB1A9903FB16E393FBF2F31E
:1018400084F8D23F1B12C90F84F8D33FB4F8743F19
:1018500084F8CF1F24214B4399FBF2F993FBF2F25A
:10186000B4F8EE3F84F8C82FC2F3072284F8C92FDA
:1018700084F8D43FB4F8762F84F8CD9F1B0A00EB90
:10188000800084F8D53F0A2300EB8000B2FBF3F31D
:10189000800003F5FA739BB240FA86F080B284F8B8
:1018A000D63F1B0A4FEA292984F8D00F84F8D73F86
:1018B000000AB4F8F03F84F8CE9F84F8D10F84F882
:1018C000DD3FC4F8887F94F8F2AF944EDFF8508281
:1018D000BAF1000F0FD1D6F8F80F0CF073FA012807
:1018E00009D90228DFF8489200F009850CF06FFA58
:1018F000012389F80A30D4F8FC0F884B00285FD008
:1019000093F8F22F42B158F8F41C854A791A40F640
:10191000B736B14216D853E0012283F8F22F58F8B7
:10192000F02CD3F8F80F1278022A04D804300221E0
:1019300010F0FEFB02E002210CF018FA002308F878
:10194000EC3C3BE012F8F81CA9B952F8F02CC3F8B3
:10195000FC1F127883F8F21F022AD3F8F80F04D87C
:101960000430012110F0E4FB02E001210CF0FEF94B
:101970000CF02DFA22E00139C9B202F8F81C12F875
:10198000EC6C12F8EBEC51B9711C0EF1010E02F87F
:10199000EC1C02F8EBECD3F8F80F31460CE010F831
:1019A000011BC3F8FC0F0E440EF1010ED3F8F80F23
:1019B00002F8EC6C02F8EBEC05F02EFB48F8F47C36
:1019C000574E16F8EA3C3746E3B156F8E83CCBB13F
:1019D00056F8E43CB3B146F8E03C1B68514A46F87F
:1019E000DC3C56F8D83C134493F8180406F022FC6B
:1019F0000BF008FE56F8D83C0133092B88BF0023B2
:101A000046F8D83CDFF82CA116F8D43CDAF8008070
:101A1000434AD146002B00F0948152F8D03C33B1B8
:101A200012F8CC3C013B012B8CBF00230123D807CB
:101A300040F1878157F8D00C394E0CF0C3F9F0B162
:101A400056F8D00C0CF0B9F916F8CB2CD9F80030B8
:101A50007E2A834610D102221B2806F8CC2C0BD1FB
:101A600056F8D00C06930CF0ADF9069B20B946F859
:101A7000C83C012306F8C43C07F8CBBCDAE7DAF827
:101A8000002056F8C83CD31A41F65832934224D964
:101A9000032306F8CC3C54E113F8C31C224A32F865
:101AA000110018B903F8C30C4FF4036017F8C32CE6
:101AB0001B4E0132D2B2B0F5C06F07F8C32C78D0FC
:101AC0003AD8B0F5007F6AD017D8B0F5807F00F023
:101AD000A680B0F5887F00F0A28017F8C42C104BC8
:101AE000002A00F02E81D9F80020C8EB0202012A5A
:101AF000D2D9002203F8C42C23E1B0F5806F00F0A6
:101B0000A280B0F5826F00F0DF80B0F5047FE4D1F1
:101B10003DE000BF8096980040420F00B8050020CD
:101B2000B01600203461010814730108806967FF52
:101B300000000020BC460020B0F5006F40D00CD85B
:101B4000B0F5E26F78D0B0F5E46F78D0B0F5E06F23
:101B5000C3D1BE4BB3F9561F73E0B0F5036F06D087
:101B6000B0F5046F62D0B0F5026FB6D1D4E0D5F80D
:101B7000A821B64B9106B0D593F8A5219207ACD514
:101B8000B3F8743F24215943123164230EE0AF4B64
:101B90001A699107A1D5B3F8643F0A21CAE02B69FD
:101BA0001A059AD5A94BD3F86C1F0A2391FBF3F1C0
:101BB000C1E02B691B0590D5A44BD3F8701FBAE088
:101BC000D5F8A811A14B890687D593F8A5118E07E2
:101BD00083D5D00711D5D3F8802F82EAE273A3EB27
:101BE000E273192103EB5303B3FBF1F3002A43F033
:101BF000004111DA43F040410EE0D3F87C3F83EA24
:101C0000E371A1EBE37101EB51011922B1FBF2F198
:101C1000002BB8BF41F080414FF400606CE0D5F874
:101C2000A83159077FF559AF002184E0B5F9B01A02
:101C300001EB810149007EE0B5F9581F01E0B5F9DB
:101C40005A1F2C23B2E716F8C23C0133DBB2032B38
:101C500088BF012306F8C23C17F8C23C42F210715B
:101C600059437B4B1B78DA0748BF01319E0748BFB9
:101C700002315807754BB3F8CA3148BF0431DA074F
:101C800048BF0A319E0748BF1431180648BF2831A3
:101C9000DA0548BF28315E0748BF6431180748BFDE
:101CA000C8319A0548BF01F5C8719E0648BF01F5C5
:101CB0007A71D80648BF01F5FA615A0648BF01F5A6
:101CC0007A614FF4806017E0D5F8A8115F4B11F0EE
:101CD000200A17D093F8A52193F8A43112F0020F2F
:101CE0000CBF00214FF47A7112F0010F0CBF0022DB
:101CF0004FF4FA621144194405F0F0FA002307F892
:101D0000C43CEAE61B691B067FF5E7AE514605F0C9
:101D1000E5FA06F8C4ACE0E64C4BD3F8A8219106EE
:101D20007FF5DBAE93F8A52192077FF5D6AEB3F829
:101D3000763F6421594305F0D1FA002306F8C43CEC
:101D4000CBE6D4F810A01AF4803F3EF452AA414EDC
:101D500016F8C13C3746002B3EF44BAA3E4B1A788E
:101D600002F0FF03002A7EF444AA384ADFF8FC8020
:101D7000D2F8302212F4804F0DD098F80B206AB1BF
:101D8000364A1168364A99500433802BF8D10FF047
:101D90006DFC002300E0012388F80B3098F80B302D
:101DA000002B3EF426AA0BF0A4FD56F8403CC31AC3
:101DB000DB43DB0F089356F83C3CC31A6FEA030978
:101DC00056F8383CC31ADB43DB0F0993089B804667
:101DD0004FEAD9792BB9099B1BB9B9F1000F3EF431
:101DE00008AA4FF0000B17F82C2C1A495FFA8BF356
:101DF000934261D251F8340C9A0000EB020CBCF80B
:101E0000020010F4006F0ED110F4805F0A4406D077
:101E10009CF8010051F8301C51F8201001E00F49E6
:101E2000096842F8C01CBCF80220D10520D49205F4
:101E30003FD5074A1278500754BF0A4A0A4A07EBAF
:101E40008303126843F8C02C33E000BFB8050020BC
:101E5000B8160020B0160020C0160020107301082C
:101E6000F0150020346101084061010800000020E5
:101E700018466146A44A0693CDF81CC010F0A0FC99
:101E8000B5F8CA21069BDDF81CC012F0400F03D044
:101E9000184661469D4A0AE0910703D518466146F7
:101EA0009B4A04E0D00704D59A4A1846614610F0D0
:101EB00087FC0BF1010B96E74FEA820E0023734576
:101EC00021D057F8341C19444988490519D592493D
:101ED000B5F958C2C8580A90ACF57A7C782000FB56
:101EE0000CFC4FF47A7033F801B09CFBF0FC0CF260
:101EF0002B1CDC4440F267109CFBF0FB00FB1BC07A
:101F000058520433DBE7B9F1000F2BD008F5C33387
:101F100016F82B1CA03346F83C3C804B11BB1AF042
:101F2000020F03F82A1C05D094F8C01F11B101213B
:101F300003F82A1C1AF4807F09D016F8251C774B69
:101F400029B113F82A1C41F0020103F82A1C744B32
:101F50001B7813F0050F05D116F82A3C43F0040353
:101F600006F82A3C16F82A0C20B96C4B13F82B3CC7
:101F7000002B53D016F82B3C13F0010FA3F10C0CDF
:101F80001DD1032B07D86749DFF8B0A110F0040F6B
:101F900018BF514600E06349043B072B04D8624B4D
:101FA00010F0010F18BF19465FFA8CFCBCF1030F4B
:101FB00012D85E4B10F0020F18BF19460CE05FFA02
:101FC0008CFCBCF1030F06D8564B594910F0020F98
:101FD00008BF194600E053494FF0000C5FFA8CF33C
:101FE00093420ED257F8343C03EB8C035B881B06FC
:101FF00004D5494BD1F800A043F82CA00CF1010CFA
:10200000ECE7B9F1000F13D058B116F82B2C434B65
:102010000132D2B2142A09D1002207E0B9F1000F2F
:1020200006D016F82B3C002BEFD101E003F82B2C47
:10203000089B1BB3B4F97E3AB4F97C2A3221002AFA
:10204000B8BF5242002BB8BF5B4293FBF1F392FB47
:10205000F1F1DBB2C9B28B4238BF0B46354A0BB146
:1020600092FBF3F2424446F8402C16F8042C2B4B1A
:102070000AB9012200E0002203F8042C2179274B41
:1020800016F8042C39B9099B002B00F02981002394
:102090009E461D46C9E01AB9274A1A60002309E086
:1020A000204AFAE757F8342C1C491A445088400655
:1020B00003D404337345F5D1E5E7B5F97C0A192853
:1020C0003EDD92F800C091F8049008680CF00F0A09
:1020D000CA4509DC91F80590B9EB1C1F04DCC03936
:1020E000D0F800C043F801C092F800C097F80690FD
:1020F0000A490CF00F0ACA4548DB91F80590B9EB84
:102100001C1F43DC3FE000BF566501085C65010809
:102110006265010868650108F0150020B01600200E
:10212000B816002010730108386101083C610108ED
:1021300040610108400D03006E650108346101082B
:10214000193023DA92F800C091F8049008680CF076
:102150000F0ACA4509DC91F80790B9EB1C1F04DB94
:10216000C039D0F800C043F801C092F800C097F819
:10217000069083490CF00F0ACA4507DB91F80790D7
:10218000B9EB1C1F02DBC03900685850B5F97E1A44
:1021900019291ADD92F800903879DFF8E4C139681E
:1021A00009F00F0A82450ADC9CF805A0BAEB191F5A
:1021B00005DCACF1C00CD1F8009043F80C9012781B
:1021C00002F00F0C84451EDD73E71931BFF671AFC5
:1021D00092F80090B879DFF8A8C1396809F00F0AC1
:1021E00082450ADB9CF805A0BAEB191F05DCACF1AF
:1021F000C00CD1F8009043F80C90127802F00F0C4C
:102200008445FFF656AFF879B0EB121FFFF651AFD9
:102210005C4A096899504CE7594951F8341C01EB64
:1022200082014888000506D4013317F82C1CDAB265
:102230009142F1D834E05448007800F0040000F0F6
:10224000FF0C58B1514890F80CC00620F4449CFB98
:10225000F0F900FB19C0012811DC01E075B9012576
:1022600057F830CC91F801900CEB89013CF829A08B
:10227000086891F802C00B90C97803E06546002118
:102280008C468A46DFF8FC9009EB82000EF1010EC5
:1022900029F822A05FFA8EFE80F802C0C170C3E761
:1022A0003A4B1A7B013A12F0FF0208BF06221A735A
:1022B000354B1B785B070CD5B4F95832A3F57A730C
:1022C00003EBC3034FF47A7293FBF2F30133DBB2F7
:1022D00000E001232E4A92FBF3F3434446F8383CD6
:1022E0000FF0C4F9FDF785BF01230373274B0026C8
:1022F0005E7002F5C333A0338360FEF74DB999F8E1
:102300000A302BB1C6F8F47F89F80AA0FFF7F3BAB8
:10231000D6F8F43FFB1AB3F57A6FFFF4ECAA012369
:10232000D6F8F80F89F80A300BF047FD8146D6F849
:10233000F80F0BF042FD19F07F0F7FF4DCAA8A281A
:1023400003D08E280ED0FFF7D6BAD6F8A8319B0658
:102350007FF5D1AA96F8F23F002B7FF4CCAA06F6BF
:10236000C17306E096F8F23F002B7FF4C4AA06F68C
:102370008C73C6F8FC3F2D2308F8F83CFFF7BBBA76
:10238000B0160020F0150020B81600200000002034
:10239000400D03002DE9F04F2DED068B9C4C9D4B1D
:1023A0002360A1B0002363600EF0C4FD18B90BF0E8
:1023B000BFFF0EF0E3FDDFF8C4B2DFF8C482964D34
:1023C000DFF8C0A20DF062FB9BF8003043F0010380
:1023D0008BF8003005F0C0FC904BC8F80C306B6FE8
:1023E000A3608F4BC8F808306B6B8E4823F08003D6
:1023F0006B636B6F43F080736B672A6B8A4B13437D
:102400002B636B6B6B63AB6BAB632A6C874B1343B8
:102410002B646A6C864B134320AE6B6401238DF8EA
:102420004B3048F2FF7346F83C3D002731464FF6EB
:10243000FF798DF848708DF849708DF84A7007F073
:10244000C1FB7C48CDF84490314607F0BBFB7A488D
:10245000CDF84490314607F0B5FBDFF82CC2CDF83B
:1024600008C06046314607F0ADFB7448DFF81C92A7
:10247000314607F0A7FB7248314607F0A3FB7148CD
:10248000314607F09FFB7048314607F09BFB314611
:102490006E4807F097FB30460AF082FFA8233946C2
:1024A00010226B48E36012F0A9FF6A4B6A4A5A6037
:1024B000F02288F823200722DFF8D4819F601A6079
:1024C000D8F80830CAF8003099E80F0086E80F0005
:1024D0002B6BDDF808C0119843F008032B632B6BBE
:1024E00043F008032B634FF48043ACF818304FF4EB
:1024F0000043ACF8183012A907F0A4FB14A91398F4
:1025000007F0A0FB64200BF07AFB39465348A02269
:1025100012F074FF2B6C43F013032B646B6C43F0CD
:1025200001136B644E4B474603F1C0009A7A93F84F
:102530000BE053F8105B02F00701D20805EB8202B2
:102540008900156A4FF00F0C0EFA01FE0CFA01F12A
:1025500025EA01011162156A83424EEA0501116202
:10256000E4D10023DFF8A88008F11002002199547B
:1025700001330C2BF6D1FF233A4A88F81C3088F837
:102580001D3088F81E3088F81F30374B1360374DE8
:10259000374A0420107028463022029312F02EFF92
:1025A00014222A7002222A760522029B85F8242012
:1025B000304A97F805B082F800B0A3F5F172A3F5A0
:1025C0009173C8F8243009EBCB03DAF800505B7C38
:1025D000C8F82830AB0644BF0123C8F82830C8F833
:1025E00020200023244A40F2DC5199520233102B60
:1025F000F8D109A80021202212F000FFBBF10E0F34
:1026000048D00BF0EF0BBBF1080F46D142E000BF02
:10261000C416002095D30008003802400005FA05D2
:102620000000000800000240FF916700FFC9FE366D
:10263000335F07000004024000080240001002401F
:102640000014024000180240001C0240002002401A
:10265000C046002010E000E03F9002000845002046
:1026600024870108701F0020220A0020C4220020B5
:10267000C222002080100020C8140020D046002074
:1026800000ED00E0C8050020000C02404C7F01086E
:102690003008002001238DF8383005200BF054F865
:1026A00018B14088003018BF0120C5F340038DF8F1
:1026B0002B30C5F380138DF82F30C5F340338DF8E0
:1026C0002430C5F3C03300F001008DF8273015F435
:1026D00000638DF82A0004D097F88231581E4342D7
:1026E00043418DF82830C5F300438DF83030A36A9C
:1026F000B7F84411ADF83C10003318BF01238DF832
:102700003130C5F300538DF83230B7F84631ADF8AB
:102710003630B7F85231ADF83430C5F380438DF818
:102720002C30C5F340538DF82D3097F854311A1CD6
:1027300018BF012205F0010BC5F3C0088DF82E204B
:10274000E904B7F850218DF825B08DF82680ADF852
:102750003A2004D5C149B1F84C11ADF83C10B2F59E
:10276000FA7F02D90BB9ADF83C3097F8D431BC48A8
:1027700084F82C300021642212F040FE9DF838309D
:10278000002B14BF02230023BBF1000F02D1B8F1CC
:10279000000F00D0013309EB83034FF00009D3F899
:1027A000E0300593CDF81090059A32F809304FF6D5
:1027B000FF72934200F0CC81D8B2AA4A9DF8301043
:1027C0004FEA001B1B0A02EB0B0531B1DFF8CCE22C
:1027D00052F80B10714500F0B5819DF82B1041B1F6
:1027E000DFF8BCE26968714503D12989012900F04D
:1027F000A9819DF8271041B1DFF8A8E26968714509
:1028000003D12989022900F09D819DF8281041B14A
:10281000DFF894E26968714503D12989202900F025
:102820009181022B02D19DF8241003E0012B04D1E9
:102830009DF82510002900F085819DF8321031B1F6
:102840009DF8381019B90438032840F25381012B40
:1028500051D19DF82D303BB99DF82C3023B9BDF8EE
:102860003A30B3F5FA7F07D952F80B307E498B42E4
:1028700002D17E4B0C211970FF234FF000082989EB
:1028800084F8743084F875306B7B686884F87880DD
:10289000C4F88450ADF844108DF846303146022318
:1028A0008DF8473084F83080C4F83480C4F838801C
:1028B000C4F83C80C4F8708084F8768084F877800F
:1028C000039207F0BFF9039AA97A52F80B00424627
:1028D00006F068FF28460EF0F3FB654B6549C4F827
:1028E0008830654BC4F88C30C4F8908028460A1DA7
:1028F0000BF0CAFC26E1022B4BD1DDF810E05F485B
:102900008DF847305FFA8EF14FF01C0E0EFB01F18F
:1029100000EB0108DDF810E088F801E04FF0000C52
:102920004FF0010E88F802C088F80AC000F801E0F4
:10293000697BB5F808E06868C8F80C508DF8461057
:102940003146ADF844E00392CDF808C007F07AF9BB
:10295000DDF808C0039AA97A52F80B00624606F027
:1029600021FF28460EF0ACFB454BC8F81030DDF8CF
:1029700008C0444BC8F8143008F11001C8F818C05A
:10298000284608F114020BF07FFC049901310491F0
:10299000D8E0032B40F0AC809DF82C30DFF8C080ED
:1029A00043B39DF82E3098F801808BB1BDF83A30D2
:1029B000354AB2FBF3F22846BDF83C300C2192B206
:1029C00011F0B9F804EB8803C3F858012F4B0AE063
:1029D00028460C214FF6FF7211F0ADF804EB880386
:1029E000C3F858012A4BC3601D4B9A7803EBC2030E
:1029F000192270E09DF82D209AB198F801B04FF699
:102A0000FF7228460C2111F096F804EB8B03292263
:102A1000C3F858011F4BC36098F8023008EBC3039A
:102A200059E0BDF83A3098F801B0B3F5FA7F3DD9D6
:102A3000154AB2FBF3F292B2BDF83C3028460C21A5
:102A400011F079F804EB8B030D22C3F85801124BF7
:102A5000C36098F8023008EBC3033CE03008002064
:102A600038200020208701080000014014000020C9
:102A7000DD6D00084C170020F56E00083C170020A3
:102A8000C1980008CD6E0008001BB700656F0008F4
:102A9000396F0008056F0008756F0008000C0040D2
:102AA000000802400004024000000240AC4AB2FBB1
:102AB000F3F292B2BDF83C302846012111F03BF808
:102AC00004EB8B030922C3F85801A64BC36098F8A6
:102AD000023008EBC3035A71A34B9A78597803EB81
:102AE000C200013201710131856059709A7029E08C
:102AF000042B27D1DFF87082994A98F8023098F8B1
:102B000000B008EBC303012183F804B0BDF83430F2
:102B100092FBF3F292B2BDF83630284611F00BF872
:102B200004EB8B030A21C3F8880198F8023008EB04
:102B3000C3020133517198F8002088F80230013245
:102B400088F8002009F10209B9F1180F7FF42CAEC2
:102B5000854A864B127884F8A821854A1578A5F114
:102B600017024FF0000C022A83F800C09E461CD8C2
:102B7000236A6344D3ED007AF5EE407AF1EE10FA61
:102B800002D1A36A83BB2AE07A4A0CEB02080FCB7E
:102B900088E80F009EF800300CF1100C0133BCF1F6
:102BA000C00F8EF80030E3D1EBE7734B03EBC503A6
:102BB000D3F814B093F810908EF80090BBF1000F8A
:102BC000DFD0CC45DDDA6B4A4FEA0C1303EB020889
:102BD0005B440FCB0CF1010C88E80F00F1E7DAF849
:102BE0000030DB0428D421E0634B644A03EBC503C7
:102BF000D3F8F44093F8F00082F86C02002CEED089
:102C000000238342EBDAC3EBC3016218DFF898813B
:102C1000D2F8009041F8089001EB080C9188ACF8CC
:102C2000041092798CF806200133EAE705F0EF03EF
:102C3000082B534B20D121E09EF800100129F5D933
:102C4000504B00228A4203F11003EFDA13ED047AAD
:102C5000F6EE007A27EE277A013203ED047A13EDBF
:102C6000057A27EE277A03ED057A13ED037A67EEEE
:102C7000277A43ED037AE5E70E2D08D11A7842F062
:102C800010021A70182D08D104F0CFFB05E01A7855
:102C900022F010021A70192DF5E70AF0A1F8DAF8FF
:102CA000003013F4101F02D1374B01221A7037493C
:102CB000374C0B783748DFF8F4B043F004030B705F
:102CC00011238DF8463002238DF84730236B012500
:102CD0002B433146ADF84450236306F0B3FF2E4B2F
:102CE0002E4A1A6000200AF0D5FF2D4B93E803000E
:102CF000236B86E8030043F004032363119812A9B1
:102D000006F0A0FF0CF0B4FB0DF0E2FD58460021E8
:102D10001022DAF8004012F071FB4FF6FF730793B0
:102D200003234FF0000A8DF8203014F0020304F45E
:102D3000004904F400688DF821A08DF822A08DF8D8
:102D400023A05C4634D020A9164841F8645D06F003
:102D500039FF0723257084F801A0A570E37028E0EF
:102D600040420F00656F000838200020F407002063
:102D700080100020701800204C7F0108C41600202D
:102D80005D07002078180020DC140020D0460020C9
:102D90000038024000000240C81D002081D3000816
:102DA0000C8101080008024031190020441E002057
:102DB0001D46B9F1000F0FD020A9022341F8643D50
:102DC000814806F0FFFE0C2301222371A2716B1CC7
:102DD00007226571E271DDB2B8F1000F0FD020A9B2
:102DE000202341F8643D794806F0ECFE02230122DD
:102DF0002373A2736B1C07226573E273DDB2744BFD
:102E000074481A6BDFF8CC9142F480021A631A6B93
:102E100042F004021A635A6C42F480725A6406F05B
:102E200013FE304606F0D4FD6B4B12934FF00008B2
:102E3000022D6A4B139334BF43464FF480631793BC
:102E40004FF4006318934FF4005319934FF48073B9
:102E50001A9348464FF40033314615951B93CDF82D
:102E60004480CDF85080CDF8588006F0C2FDD9F8E6
:102E700000305B4A43F00103C9F800305168594BF8
:102E80000B4043F440335360574B5A68012D22F0F6
:102E9000407294BF0021012122F4807242EA012293
:102EA0005A609968514A0A4042F002029A60DA6A0E
:102EB000013D22F47002EDB242EA0555DD62404662
:102EC00001222618B178002958D0215C96F803E039
:102ED000551C0929EDB211D9A1F10A0606EB4606E7
:102EE000D3F80C804FF0070C0CFA06FC28EA0C0C07
:102EF0000EFA06FE4CEA0E06DE600EE001EB41061D
:102F0000D3F810804FF0070C0CFA06FC28EA0C0CE2
:102F10000EFA06FE4CEA0E061E61062A0ED8013A8B
:102F200002EB82025E6B4FF01F0E0EFA02FE26EAE3
:102F30000E06914046EA01025A6320E00C2A0ED8A0
:102F4000073A02EB82021E6B4FF01F0E0EFA02FED2
:102F500026EA0E06914046EA01021A630FE00D3A96
:102F600002EB8202DE6A4FF01F0E0EFA02FE26EA24
:102F70000E06914046EA0102DA6200E0154604308E
:102F8000102801D02A469CE79A68194D42F4007235
:102F90009A609A6842F480729A609A6842F00102DC
:102FA0009A609A6842F080429A60B5F858214AB90E
:102FB000B5F95A31F3B9B5F95C31D3F1010338BF32
:102FC000002318E0002316E0000402400000024045
:102FD00000380240706402404C200140541E002022
:102FE00000230140E030FCFF00200140FDF7FFC05E
:102FF00030080020134613F00103B74C6AD112B217
:1030000008EE902AB7F95A21B7F95C71DFEDB37A6F
:10301000B349F8EEE88A08EE102A0AEE907A68EED4
:10302000A78AB8EEC88AF8EEEAAAB0EE680A28EED7
:10303000278A6AEEA7AA4B7004F0FAFCB0EE409A19
:10304000B0EE680A04F094FCF0EE409AB0EE480A44
:1030500004F0EEFCF0EE408AB0EE480A04F088FC82
:10306000B0EE408AB0EE6A0A04F0E2FCB0EE40AA8C
:10307000B0EE6A0A04F07CFC20EE097A69EE8A7AE6
:10308000F0EE475AE7EE885A2AEE096A69EE806A3E
:10309000C4EDBB5AF0EE465AE6EEC85AE7EE087A9F
:1030A000E6EE486A2AEE28AA28EEC00A69EEE89AF7
:1030B00068EE898A84EDB8AA84EDB90A84EDBA8AEB
:1030C000C4EDBC5AC4EDBD9AC4EDBE6AC4EDBF7A6E
:1030D000C4EDC08A834FDFF800A23B6895F85F918A
:1030E000B3F86230049300210C220AF5417095F880
:1030F000618112F083F9002114227B4812F07EF9DD
:10310000002184F810130C228AF811130AF5457077
:1031100012F074F9754BC4F8203323200AF06FFDC8
:1031200094F82433002B2FD1714B5A6C42F01002CB
:103130005A6403238DF847306E4B02934FF480623C
:103140004FF0010B184611A9ADF8442003928DF8F9
:1031500046B006F077FD029B039A1A83664B1A88E5
:1031600022F040021204120C1A801A8822F038024F
:103170001204120C42F030021A801A8892B242F005
:1031800040021A808AF824B37520012111AA0DF09B
:10319000CFFD9DF84430712B01D0702B0BD105234E
:1031A00084F81033432384F81433544BC4F8183391
:1031B000534BC4F81C33534B00221A7094F810235D
:1031C000111F01299A4600F2F685474B4E491960B6
:1031D0004E4959604E49D9604E4919614E48042103
:1031E0008AF80010072101704C490E68B9F1090FE7
:1031F00046F0010EC1F800E08B4600F2D8854FF092
:10320000010E0EFA09FE40F202210EEA0101002928
:1032100040F0C58540F2FD110EEA0101002900F0E1
:10322000BE85042A40F0B8853D4AC4F804233D4ACF
:10323000C4F808233C4A0421117008224270DBF8CC
:10324000002042F00202CBF80020DBF800209607B5
:1032500004D5D4F8042302939047029B334A1B6899
:103260003E214FF00009116084F825930222404668
:1032700084F8262398472E4A95F8553182F8009015
:103280000BB18AF8003095F856310BB126490B7016
:1032900095F8573103B11370DBF8003018074BD5A0
:1032A000049B1EB2642396FBF3F203FB126636B254
:1032B00007EE106AF8EEC76A07EE102AF8EEC77A32
:1032C0009FED1C7AE6EE877AB2EE047A67EE877A93
:1032D000C4EDCA7A33E000BFC416002035FA8E3C34
:1032E00014000020DC07002064070020148101087E
:1032F000003802400010024000380040310D010843
:10330000B10D010884070020A50B0108436C0008DB
:10331000B16F000890C1793D1C00002060070020BB
:10332000910B0108CD6F0008C41D00207807002014
:10333000CC1D00208988883C0023C4F82833DC4B4E
:103340001A8822F040021204120C1A801A8822F005
:1033500038021204120C1A801A8892B242F040020B
:103360001A80D44E337843F002033370D24B4FF4BB
:1033700000425A834FF480421A834FF00A09DFF863
:103380003883D8F8143083F40043C8F81430D8F8E0
:10339000143083F48043C8F8143019200AF02FFC4D
:1033A00001200AF077FC19200AF029FC09F1FF3905
:1033B00000200AF06FFC19F0FF09E0D14FF48043C0
:1033C000A8F818304FF40043A8F81830D4F82C337C
:1033D0009FEDBA8A1B7B00EE103AB8EEC00A20EED1
:1033E000080A04F025FBB64B9FEDB67AD3ED047ABC
:1033F000B54B84EDCC0A1B8827EE888A07EE903AFD
:10340000F8EEE77A84EDCD8AC7EE277A9FEDAF7AA2
:10341000C7EE877AC4EDCE7A04F046F8AC4BFF21B4
:103420001846212211F0EAFF034680F80090A948CF
:10343000A949D0F800E001221EF0020F18460A70D8
:103440000B4604D0427003220A70022282701EF0E2
:10345000040F04D01A78511C1970032181541A7872
:103460009B494FF01B0C00F802C002F1010C5FFAFF
:103470008CFC4FF01C0800F80C8002F1020C5FFA83
:103480008CFC4FF01D0800F80C8002F1030C5FFA71
:103490008CFC4FF01E0800F80C8002F1040802F1C9
:1034A000050C5FFA88F85FFA8CFC4FF01F091EF0DC
:1034B0000A0F83F800C000F8089017D04FF0040EF0
:1034C00001F80CE002F1060E5FFA8EFE4FF0050CDB
:1034D00001F80EC002F1080CDFF8FCE10732D2B2AD
:1034E0008EF800C04FF0060E01F802E07B4A126829
:1034F000910608D5197801F1010E83F800E04FF02C
:10350000070E00F801E011060ED519784FF0090EEC
:1035100000F801E001F1020E0131C9B283F800E0C8
:103520004FF00A0E00F801E06979082901D00E2950
:1035300009D193F800E00EF1010C83F800C04FF0C0
:103540000B0C00F80EC093F800E00EF1010C5FFACE
:103550008CFC4FF00C0812F4803F83F800C000F898
:103560000E800BD0DFF870810EF1020E88F800E0BB
:10357000DFF85CE14FF00E080EF80C8012F0040F3B
:1035800009D093F800E00EF1010C83F800C04FF071
:10359000100C00F80EC093F800E00EF1010C5FFA79
:1035A0008CFC4FF0120812F4806F83F800C000F812
:1035B0000E8010D095F81482B8F1000F0BD0DFF810
:1035C00018810EF1020E88F800E0DFF804E14FF0F8
:1035D00013080EF80C8012F4007F09D093F800E075
:1035E0000EF1010C83F800C04FF0150C00F80EC06E
:1035F000182917D193F800E04FF0160C00F80EC010
:103600000EF1010C5FFA8CFC4FF0170800F80C80EB
:103610000EF1030C0EF1020E5FFA8EFE83F800C06D
:1036200000F80E10110308D5197801F1010E83F886
:1036300000E04FF0190E00F801E0D20504D51A7829
:10364000511C19701A2181541A78511C19701423B5
:10365000835400219822224811F0D0FE0EF0ECF99C
:103660002049B5F84E31A4F8403300230B808B700D
:103670003968B5F894011C4AC4F83C2301F1850C63
:103680001A4984F842330A6082B21949DFF864A00B
:10369000D1F80080DFF860E023F80A2008F596787A
:1036A0004EF813800233242B8946EED126E000BF6A
:1036B00000380040D0460020000C024035FA8E3C15
:1036C000640700200AE81C410800002000401C4656
:1036D000512200206007002050220020C805002051
:1036E000D41E002088160020B6090020D005002036
:1036F000BC4600200A080020081A00209F4BD3F87F
:1037000000E01EF4805F98460CBFB5F89C3113466C
:10371000AAF8063000231CF80320B2B90CEB030210
:10372000917892F803B059450FD209B1013901E0FF
:103730000BF10101527801EB810101EB810101F5EF
:103740006171043289B22AF812100433502BE2D18D
:103750001EF0080F00F0BC8095F88E31062B00F2A9
:10376000B180DFE803F004070E35506F6F0045F2BB
:10377000F05201E042F6F822814B1A800EF0E8F98F
:103780009FE07F4B42F6F8221A8000010A2390FB4B
:10379000F3F0A0F5B06000237A4A98500433482B28
:1037A000FAD1794B794A5A60794B122240201A702B
:1037B0000AF008F8002800F0858001234FF0070B7D
:1037C00090F90000734A8DE808084021724B73E0BD
:1037D0006B4B42F6F8221A806B4B704A5A606C4B66
:1037E000102240201A7009F0EDFF00286AD0012352
:1037F0004FF0000A90F90000694A8DE80804402162
:103800004FF4E13358E05E4B42F6F8221A805E4BEB
:10381000644A5A605E4B082240201A7009F0D2FFB9
:1038200000284FD001234FF0000C90F900005E4AB1
:103830008DE8081040214FF4E1330FF09DFCC4F8EF
:103840008C033BE04E4A594842F6F821118050491A
:103850000C22062B0A7010D00023037084F89033DA
:1038600084F891331B2384F89233052384F893233F
:1038700084F894334FF4E1350DE00021017084F8B1
:10388000901384F891134A4D84F89323212184F8EE
:10389000921384F894333C4B464A5A60402009F016
:1038A00091FF78B101234FF0000E434A90F90000D8
:1038B00040218DE808402B460FF05EFC003018BF19
:1038C000012028B9082004F037FA2F4B3B4A5A60F0
:1038D0002A4D2F4A2B6813F4804F04D01221117007
:1038E00029493748486042F20101194003F00100BC
:1038F00003F4005EA1B1224944F6206CA1F800C097
:10390000BEF1000F06D0082111701F49DFF8C4E096
:10391000C1F804E020B10C2111701B49294848600E
:10392000117804395170190640F18C80DFF8A8B085
:10393000C4F898B34FF0000A234C244884F801A03F
:1039400051461522C4F804A0C4F808A011F056FD91
:103950001F4BABF1050250461A6002930EF022FF96
:10396000D9F80020E260022009F02CFF029B1946E2
:10397000A0BB802004F0E0F95DE000BFC805002096
:10398000121E0020240600201400002015D3000879
:103990007222002045DB0008A086010005D3000844
:1039A00095DA0008F1D2000849DA0008080700207B
:1039B00090D00300B1D2000829D9000869D30008CB
:1039C00045D300085DD3000838070020601A0020A6
:1039D0005807002051D30008220A002090F805E083
:1039E0006378C24A4FF00C0C0CFB032C9CF801C00E
:1039F000F44504D00133DBB2042BF2D90023637009
:103A00000B6890F900001B78002B63784FF00C04D2
:103A100004FB03220CBF01210321537800910022F3
:103A2000019202210FF0A8FBB14B18600028A0D032
:103A300001200EF0B7FE3868AE4B00F5CB721A606D
:103A400004F00AFBAC4AAD4B1360AD4ADFF80493B7
:103A5000803313602B680024DA0389F8004040F1BA
:103A6000C080DFF8F4B240F22A3A012704F09CFA51
:103A700021465246584689F8007011F0BFFCA14B10
:103A8000DFF8D8921A6B3A431A631A6C42F00802B4
:103A90001A641A6B42F400121A63022348468DF826
:103AA000203007A903238DF8213007978DF8237064
:103AB0008DF8224006F086F8D9F8203023F00F0365
:103AC000C9F82030D9F8203043F00203C9F820307B
:103AD0008D4B1A8822F001021204120C1A801A88E7
:103AE00022F45C721204120C1A806822DA621C85BD
:103AF0009F821A8C22F001021204120C1A841A8C72
:103B00009888198B22F0020221F073010904120433
:103B1000090C120C41F0600180B23A43988019837D
:103B20005C631A841A8B22F008021204120C42F011
:103B300008021A831A8809F5C04992B209F14009AE
:103B40003A431A80D9F8003023F00103C9F8003055
:103B5000484605F079FF11A805F03AFF4FF04063A1
:103B600011936A4B1293402314934FF4806317937D
:103B70004FF4805318934FF4804319934FF440331C
:103B80001B934846042311A91C93CDF84CB0CDF8E3
:103B900054A016941A941D941E941F9405F029FFA6
:103BA000D9F8003043F01003C9F80030584B4FF4F7
:103BB00000129A6006A80D238DF818308DF8197040
:103BC0008DF81A408DF81B7005F0D5FF514B1A681F
:103BD000514BE2500434802CF8D10DF047FD0DF02C
:103BE00045FD2B685B0556D54C4C4D4BD4F8DC9607
:103BF000C3F80090042009F0E5FD0421C4F8E006B4
:103C000009F0B6FD474B84F8E4060820C3F800909D
:103C100009F0D8FD444B454F1860082109F0A8FD74
:103C2000002184F8E5062C22384611F0E7FB8E23AC
:103C30007B704FF07C0BE0234FF07D0AFB7087F820
:103C400000B087F82BA03A4F2C220021384611F003
:103C5000D5FB8A237B701020A023FB7087F800B06F
:103C600087F82BA0C4F8E89609F0ACFD1021C4F841
:103C7000EC0609F07DFD84F8F0062020C4F8F496E7
:103C800009F0A0FD2021C4F8F80609F071FD84F8C0
:103C9000FC060EF049F92B68264A13F4002318BFDE
:103CA0000123137009F025FE234B1860234B5A792A
:103CB000052A1A4603D1224B4FF4C8711980214BB3
:103CC0004FF47A711980204B197841F0080119706E
:103CD0001E4B197821F002011970296840F6020381
:103CE0000B40002B49D01A4B3AE000BF6461010839
:103CF000340700206C1000207C160020540A00209D
:103D00008016002000380240000C0040340C0040B7
:103D1000006002408E650108F0150020C4160020E6
:103D20002015002074150020C01500204415002027
:103D300079150020DD140020E40700203008002061
:103D4000941E0020BE1600205D070020B81600203B
:103D500018150020EF150020751A00200000024001
:103D600017491960174B03211970174B012119705E
:103D7000164900230B8016490B809368C8F8003061
:103D8000144B01221A70337863F07F03337021B033
:103D9000BDEC068BBDE8F08F052A3FF445AAB9F1CA
:103DA000010F04D80C4A00211170FFF74EBA4FF0F2
:103DB0000009FFF724BA012009F090FFFFF7D1BAFC
:103DC000A80900207815002010000020361E0020D1
:103DD000381E0020DC140020C41D00202DE9F04F07
:103DE000C54AC64BD2F800E0B3F90600BEF80A3067
:103DF0002DED028B98428FB00FDBB0F5FA6F9EF875
:103E0000077007DAC21A5743A3F5FA6397FBF3F773
:103E1000643703E0C7F1640700E06427B84BB3F8E8
:103E200094210292B74A93F95E31D2F800C09BB256
:103E30000021039365460A46B04B029C31F903B05A
:103E4000C4EB0B0303F2F31640F2E634A64203D8A8
:103E5000002BB8BF5B4201E04FF4FA73022A4FF027
:103E60006406A94C2ED09CF81D81B8F1000F04D037
:103E70004345CCBFC8EB0303002393FBF6F86FF078
:103E8000630A34F818900AFB083A08F1010834F97B
:103E900018800FFA89F4C4EB080404FB0AF494FBBD
:103EA000F6F4A144994C21F804900EEB0204247915
:103EB0006343974C93FBF4F364339BB27B4393FBD4
:103EC000F6F630E09CF81E81B8F1000F04D04345AF
:103ED000CCBFC8EB0303002393FBF6F66FF0630936
:103EE00004EB460809FB063A04EB4606B8F90E80D7
:103EF000B6F91040854EC8EB040404FB0AFA9AFB9D
:103F0000F9FA039CC8EB0A0808FB04F8A6F8048039
:103F10009EF8064083EAE376A6EBE37666437C4CA4
:103F200096FBF4F664360CEB0208774B98F8019098
:103F300003F11C044FF0640806FB09F999FBF8F93A
:103F400002F8049095F80B9003F11F0406FB09F9A1
:103F500099FBF8F902F8049095F8159003F1220402
:103F600006FB09F6022A96FBF8F616551C4616BF04
:103F7000253383F82780D754029B644E9B4502DA91
:103F8000735A5B4273520231062902F1010205F1B4
:103F900001057FF451AF5A4DB5F89631984205DBD3
:103FA000B0F5FA6FA8BF4FF4FA6000E01846C01AE7
:103FB0004FF47A725043C3F5FA63B0FBF3F34FF05A
:103FC000640E93FBFEF204EB42016FF0630000FB12
:103FD000023304EB4202098DB2F92A004B4F0AB2B8
:103FE000821A534393FBFEFE4A4B1B887144F180B7
:103FF00059063AD5484BDFED497AB3F904200A2334
:1040000092FBF3F3404AB2F840209B1A1BB208EE31
:10401000903AF8EEE88A68EEA78AB0EE680A03F0F4
:1040200007FDB0EE408AB0EE680A03F0A1FCB7F9D4
:104030000220B7F9003006EE902A07EE903AF8EE2B
:10404000E66AF8EEE77A20EE667AA7EE887A67EEFF
:10405000807ABDEEC77AE6EE887A17EE103AFDEE6A
:10406000E77A3B8017EE903A7B8095F89A31002BE7
:104070007BD02B4B244F1B88DFED2A0AB4F84280FB
:1040800000EE103A0121B8EE400A07F1440003F0B7
:1040900073FABCEEC00A244B10EE101A89B2B8FBBA
:1040A000F1F101F1010C1B781FFA8CFCA4F84CC053
:1040B000002B3BD0B7F84EB00023134AF75A02F159
:1040C000500E02F1580033F80EA033F800801F5252
:1040D0001AFB0BFA0FFA8CF9C8EB07089AFBF9F9EF
:1040E000C84423F80E800233082BE6D10E4BA2F809
:1040F0004E10002018701EE0781000200A080020E2
:1041000030080020DC070020D01D002034100020E3
:104110000CFEFFFF820700206410002035FA8E3C61
:10412000E00700206F12833A2D070020B7F84E30C9
:10413000013BA7F84E30B4F84E10BB4A0BB2002B2F
:104140004FF000030FDDB2F94C70B84A985A0832AC
:1041500010FB01F09A5A90FBF7F0121AF252023358
:10416000082BF2D101E0A2F84E30B14B1A6812F0E0
:10417000020F9A4674D0AF4B226E1B68AA4F9A1A50
:1041800045F207218A426BDD3B660EF083FBAA4BAA
:10419000DFF8D8821A78032A9946B8F8003022D17D
:1041A0000A2B2CD90023282089F8003009F027FD9C
:1041B0000EF070FBB7F8640009F0D2F99F4BA049EC
:1041C0001B68DA7890FBF2F0421C082A28BF08220C
:1041D0000A7059791B7992B251435A43A7F8661075
:1041E000A7F868200BE00A2B09D80323944A89F822
:1041F000003000231370A7F86630A7F8683099F8EC
:1042000000208D4B012A0DD002D3022A1ED027E0B8
:10421000B4F86620B8F800309A4221DD012389F80D
:10422000003011E0B8F80020B4F86810914202DDC7
:1042300002221A7011E07C49B1F8661001318A42FD
:1042400002DD00221A700BE0082007E0B4F86830A5
:10425000B8F8002001339A42E0DC07200FF0ECFDB3
:10426000DAF800703A0579D5724BE16E1A686E4B38
:10427000C1EB020A45F207218A456FDDDA666F4A13
:10428000B6F90690D2F800806E4898F80A20B0F887
:104290004E116D4E012AA9F57A7903D047D3022A2F
:1042A00023D046E093F88120196F03EB4202B2F865
:1042B0008400082291FBF2FE80B2CEEB01010144A2
:1042C00091FBF2F2A3F88C0092B21967B8F80800DB
:1042D00040F6E4435343C0EB13334FF47A72534335
:1042E000B8F9062093FBF2F322E0584BB8F808B077
:1042F0001B78C6F800B05B071BD500F5C3700FF044
:104300007DFD20B917F0100F18BF4FF0000909FB11
:1043100009F2322392FBF3F39944B8F906304FF4D3
:104320007A7203FB09F393FBF2F35B4400E0002392
:1043300033603368464AD4E9240103FB0AFA4FF498
:104340007A739AFBF3FA10EB0A0041EBEA7100234F
:10435000C4E9240110F03AF93E4B18603E4B1A684C
:1043600012F4805F984626D03E0621D53B4B1B7841
:1043700098071DD53A4B1978042919D90023394ECD
:1043800005229A551E44981C0A27122BC2B2777038
:1043900004D0B1EB520F0346F1D800E014222244BE
:1043A000322382F89730FF2382F898300F2000E004
:1043B0000A200FF041FDD4F8B0301B4E002B7FD007
:1043C000294AD6F8B41010688142914678D896F8F8
:1043D000B800B6F8BA205968002849D1012086F8FB
:1043E000B8008A5C002A4FD01A78164B013AD3F8ED
:1043F000FC3700FA02F21A4201D109F04BFC01230A
:1044000084F8BC3009F0CAFBB4F8BA30064E002B71
:104410003AD1D6F8B0301B78053B012B34D809F0DF
:1044200068FAC6F8C0002FE0D01D0020201E002032
:10443000C8050020B80500207815002018150020B8
:10444000100000203008002024150020B81600209D
:10445000407E050028150020E80700205D070020A9
:104460005C070020681E0020BC4600201C150020B0
:10447000002786F8B8708B5C33B1384609F00AFC27
:1044800086F8BC7009F08AFBD4F8B020B4F8BA10F2
:104490005268B44B525CFE2A03D10022A3F8BA2022
:1044A0000EE0FF2A02D109F0FDFB09E0D9F8000077
:1044B0000A2616FB02020131C3F8B420A3F8BA1091
:1044C000A94E3378590704D5A84B4FF480425A833C
:1044D00034E0D8F80020D2075CBF43F0010333700A
:1044E000A34B1B781F0703D4337823F001033370E9
:1044F000B4F8C4301BB19F4B1B68980705D49E4B82
:104500001B88003318BF012300E001233BB10223C5
:1045100084F8BC30337823F00103337005E032783F
:10452000D10758BF022384F8BC3009F0E2F9D4F86F
:10453000C830C01A002801DB09F030FB8F4F0DF0A6
:10454000F3FC3B78002B7AD0D4F8CC30002B01F070
:104550001880D4F8CC00834D09F034FC002801F019
:104560001080D5F8CC0009F028FC092801D03F289C
:1045700057D14FF00009D4F8D060DFF818824D46CB
:1045800036B17F48D8F80010324610F07FFF10B9DE
:10459000C14605B945467B4B08F110089845EFD355
:1045A000FDB1D4F8D0302A686E4812F803E0D9F88B
:1045B0000020D15C714514D15A1C61B92D2B0AD849
:1045C000C0F8D020034402444FF0200E83F8D4E01A
:1045D00082F8D41005E02344C4F8D02083F8D4E056
:1045E000DFE7D4F8D0300BB14D4510D0664809F064
:1045F00067F84D4507D855F8100B09F061F8092008
:1046000009F057F8F5E7614809F05AF80026D4F8A0
:10461000D0309E429DD25A4B985D09F04AF801363F
:10462000F5E7D5F8D030002B41F00D80042841F09B
:104630007A8005F1D40008F077FC00F0A2BF544F57
:1046400097F84A30012B40F09787DFF84C81DFF86C
:104650004C913B68C8F80070C9F80030C346DFF8D9
:104660003CA15246106809F0ADFB002800F07887A5
:10467000DAF8000009F0A1FBDBF8003093F84810ED
:10468000024619B924283DD1012238E0012904D17C
:104690004D280CBF0222002231E0022904D13C281F
:1046A0000CBF032200222AE003290CD140284FF03E
:1046B000000102D983F8481029E058711971D971A5
:1046C000987104221BE0042907D1997983F84900E5
:1046D00080EA01029A71052211E0052917D1587963
:1046E00019798842987906D950409871481C1871F8
:1046F0000B441A720BE090420CBF0622002283F892
:10470000482004E03178184B490740F17387DBF803
:104710000030DFF884A093F84820062A9FD193F850
:10472000490003F087FD8346002840F01287DAF83D
:10473000002092F849304C2B00F0C0846ED8332B07
:1047400000F0F98441D8292B00F0828428D8252B49
:1047500000F05784272B00F05B84232B40F07087F8
:10476000D5E000BFD01D0020B8160020000C02408C
:104770005D07002060070020BE160020C116002043
:10478000A41E002090890108488C01084D8C010866
:10479000D41E0020E0870108D0150020D415002089
:1047A0002D2B00F0668408D82B2B40F0498708F0A9
:1047B00062FFD44B587100F0C9BE2F2B00F0288542
:1047C000312B00F04B8500F03BBF3E2B00F0E0802A
:1047D00010D8372B00F0E38404D8352B00F0378253
:1047E00000F02EBF392B00F022843C2B00F0DC803F
:1047F00000F026BF432B00F0B08407D8412B08BF40
:104800004FF0000800F09D8400F01ABF442B00F028
:1048100059854A2B00F09A8600F012BFD12B00F088
:10482000B18320D8CC2B00F03D820FD8C82B64D0A8
:1048300004D84E2B00F0518400F002BFC92B00F0C9
:104840007983CA2B00F0C98000F0FABECE2B00F0AD
:104850006383C0F05883CF2B00F07882D02B00F018
:10486000478300F0EDBED82B00F060810DD8D32B2C
:104870003DD029D3D42B00F0AF82D62B08BF4FF008
:10488000000800F09E8200F0DBBEF22B00F0F48204
:1048900012D8EF2B40F0D486DFF88482D8F800904D
:1048A00008F0F4FEA9F86600D8F8008008F0EEFEE3
:1048B000A8F8640000F04ABEF32B00F00785FA2B3D
:1048C00000F0348300F0BCBE337803F0040303F03F
:1048D000FF08002B40F03A8608F0CDFE894B0228F5
:1048E00083F8D00740F20A8383F8D08706E308F004
:1048F000CDFEA4F8A40100F029BE92F805804FEA8D
:104900005808B8F1120F1CD84FF000091DE008F04C
:10491000B2FE132815D8DFF80892D9F8003000F15C
:10492000200A03EB8A0A08F0A6FE774B0AF1050875
:1049300003F5CC72197A814200F068810C339342FE
:10494000F8D104F0CBFD00F001BEC14507D208F05C
:104950009DFE05AB23F8190009F10109F5E70023D5
:1049600043456A4A06DA05A931F8131022F81310F4
:104970000133F5E708F1FF3802EB48032232934296
:1049800003D0002123F8021FF9E70122604BCBE29C
:1049900008F071FEDFF86C8188F8E00108F06BFE2A
:1049A00088F8DF0100F0D2BDDFF87481D8F80090FC
:1049B00008F061FE18B10228A8BF022000E0012023
:1049C00089F80000D8F800301B78022B514B14BF37
:1049D000514A524A1A6000F0B9BD514B1A68127818
:1049E000022A4FF00008994670D1D9F800A008F0CB
:1049F00042FE07EE100AF8EE477AB2EE048AC7EEDE
:104A0000887A0AEB8803D9F800A0C3ED087A08F089
:104A100032FE07EE900AB8EE677ADFED427AC7EE13
:104A2000277A0AEB8803D9F800A0C3ED0B7A08F0C7
:104A300022FE07EE900AB8EE677ADFED3B7AC7EE0A
:104A4000277A0AEB880308F10108B8F1030FC3EDD8
:104A50000E7ACAD1B8F1070FD9F800A01CD108F01E
:104A60000AFE07EE100AF8EE477AC7EE887ACAED1A
:104A7000117AD9F800A008F0FEFD07EE100AF8EE52
:104A8000477AC7EE887ACAED127AD9F800A008F002
:104A9000F2FD8AF84C0012E008F0EDFD0AEB080385
:104AA0005870D9F800A008F0E6FD0AEB0803D9F821
:104AB00000A0D87208F0DFFD0AEB0803587508F172
:104AC0000108B8F10A0FC5D100F040BDD9F800A027
:104AD00008F0D1FD0AEB08035870D9F800A008F0DF
:104AE000CAFD0AEB0803D9F800A0D87208F0C3FD8C
:104AF0000AEB080308F10108B8F10A0F5875E5D16F
:104B000000F024BD3008002090890108761F0020A5
:104B1000090700200400002031B8000859A9000846
:104B2000DC0700200000C84200007A448046DFF81D
:104B3000B0939FEDE78AD9F800A008F0A7FD07EE33
:104B4000100AF8EE477A0AEB8803C7EE887AD9F89C
:104B500000A0C3ED087A08F099FD07EE100AF8EE00
:104B6000477A0AEB8803C7EE887AD9F800A0C3ED2C
:104B70000B7A08F08BFD07EE100AF8EE477A0AEB85
:104B80008803C7EE887A08F10108B8F1030FC3ED76
:104B90000E7ACCD1B8F1070FD9F800A01CD108F0DB
:104BA00075FD07EE100AF8EE477AC7EE887ACAED6F
:104BB000117AD9F800A008F069FD07EE100AF8EEA6
:104BC000477AC7EE887ACAED127AD9F800A008F0C1
:104BD0005DFD8AF84C0012E008F058FD0AEB08036E
:104BE0005870D9F800A008F051FD0AEB0803D9F875
:104BF00000A0D87208F04AFD0AEB0803587508F1C6
:104C00000108B8F10A0FC5D100F0A0BC1B788AF8E2
:104C1000053008F030FD88F8010008F02CFD88F818
:104C2000020008F028FD88F80300AA4BD9F800001C
:104C3000C3F8D001A84AC3F8CC218530002108F080
:104C400047FEA64B80F00100187000F07FBC08F012
:104C500012FD0B283FF675AEA14B4FF0060909FB7C
:104C600000F01B68D03003EB000908F004FD0328B6
:104C70003FF667AE89F80A0008F0FDFC89F80500E8
:104C800008F0F9FC89F8060008F0F5FC89F807003F
:104C900008F0F1FC89F8080008F0EDFC89F809003B
:104CA00000F054BC5379092B7FF64BAE8D4AD2F8F5
:104CB000008008F0E0FC8B4B88F80000D3F80080FF
:104CC00008F0D9FC88F8010008F0D5FC854A136883
:104CD0006428A8BF6420187108F0CDFC814A1368CD
:104CE0006428A8BF6420587108F0C5FC7D4A136889
:104CF000FF28A8BFFF20987108F0BDFC794BD3F8BE
:104D00000080642828BF642088F8070008F0B3FCFE
:104D1000744A88F80200D2F8008008F0ACFC714BAD
:104D200088F80300D3F8008008F0B0FCDAF800300F
:104D3000A8F80A005B790A2B40F20884694BD3F883
:104D4000008008F098FC88F80800FFE308F09EFC5B
:104D50006FF4AF6E00EB0E039BB2C62B9CBF624B91
:104D6000A3F8940108F092FCA5F8400108F08EFC2D
:104D7000A5F8420108F08AFCA5F8440108F086FC79
:104D8000A5F8D80108F077FC85F8ED0108F073FC70
:104D900008F071FC85F8EE0108F06DFC85F88301E0
:104DA00008F069FC85F8900108F065FC4C4BD3F8DD
:104DB000008008F06BFC00EB80004000A8F8620067
:104DC00035E108F063FC494B23F8080008F10208BC
:104DD000B8F1100FF5D1B9E353790F2B7FF4B1ADD2
:104DE00008F049FC072880463FF6ABADDFF8F090AD
:104DF000D9F800A008F04AFC0E2303FB08F80AEBE0
:104E00000803D9F800A0A3F8250108F03FFC0AEB3D
:104E10000803D9F800A0A3F8270108F037FC0AEB33
:104E20000803D9F800A0A3F8290108F024FC0AEB34
:104E30000803D9F800A083F82B0108F01CFC0AEB4A
:104E40000803D9F800A083F82C0108F014FC0AEB41
:104E50000803D9F800A083F82D0108F00CFC0AEB38
:104E60000803D9F8009083F82E0108F019FC09EB2B
:104E70000803C3F82F0169E308F0FDFB0F28804603
:104E80003FF65FADC8EBC80808F0F5FB05EB08037B
:104E900003F1D00883F8D00008F0EDFB88F801009A
:104EA00008F0E9FB88F8020008F0E5FB88F8030049
:104EB00008F0E1FB88F8040008F0DDFB88F8050045
:104EC00008F0D9FB88F8060002F0AFFA3EE300BF15
:104ED00000007A44D01D002070090020020000204C
:104EE000DC0700207810002030080020A41F0020DC
:104EF0003378590700F12A8309F01AFA0CF03EF8CA
:104F00000AF0C4FD22E333785A0700F11F834FF4FF
:104F1000C873A4F8C43019E333785B0700F1168333
:104F2000C64B1A7842F004021A700FE33378580720
:104F3000E4D585E308F09FFBC04B1A7810B142F02E
:104F4000020201E022F002021A7008F094FBBC4B4E
:104F5000DFF80483187008F0A3FBC8F8000008F01D
:104F60009FFBC8F8040008F091FBB64B188008F0CE
:104F70008DFBB54B188094F8EC3143F0020384F8B4
:104F8000EC31E3E208F077FB834608F089FB8246C8
:104F900008F086FB814608F083FB804608F076FB2C
:104FA00008F074FB08F067FBBBF1000F13D1102071
:104FB000C4F8F0A1C4F8F4910EF0BCFF9F4B1A782E
:104FC00042F001021A70B8F1000F00F0BF829F4B4F
:104FD000C3F8F881BAE2BBF1100F40F0B782C4F811
:104FE000FCA1C4F80092B8F1000F02D0974BC3F8AF
:104FF000F88197480223011D84F804320AF0E8FB87
:10500000A4E2944B986008F04BFB02F09DFE9DE2F9
:1050100008F03CFBDFF83C82A8F8580108F036FBAA
:10502000A8F85A0108F032FBA8F85C018EE208F0FB
:1050300022FB85F8780108F01EFB85F87C0108F05A
:105040001AFB85F87B0108F016FB85F87D017DE2EF
:1050500008F01CFBA5F87E0108F018FBA5F88001FC
:1050600008F009FB85F8820108F010FBA5F884011F
:105070006CE208F000FB85F88E0108F007FBA5F84C
:10508000980108F003FBA5F8940108F0FFFAA5F8D1
:10509000960108F0F0FADAF8003085F88F015B79B4
:1050A000082B40F2538208F0F1FADFF8A881A8F843
:1050B0009C0108F0EBFAA8F89E0147E208F0DBFA41
:1050C000DFF8908188F8D60108F0D5FA88F8D70182
:1050D00008F0DCFAA8F8D80138E292F805A003231A
:1050E000BAFBF3FABAF1120F3FF62BACDFF864818A
:1050F0004FF00009D14580F0298208F0BCFA88F809
:10510000A00108F0C3FA40F2ED23984205DD40F615
:10511000CA039842A8BF184601E040F2EE20A0F270
:10512000EE20192390FBF3F088F8A10109F10109A1
:1051300008F10208DEE708F09EFA464B83F890017A
:1051400004E208F098FA434B434408F10108B8F12F
:10515000080F83F88601F4D1F8E108F08CFAC5F85D
:1051600008B0687108F09CFA02F0EEFD08F083FACE
:1051700085F88E0108F08AFAA5F8580108F086FA39
:10518000A5F85A0108F082FAA5F85C0108F07EFA49
:10519000A5F87E0108F07AFAA5F88001D6E15379E6
:1051A0004FF00709B3FBF9F2C2EBC2029A1A12F0F0
:1051B000FF0F7FF4C6ABB3FBF9F9B9F1000F00F0B4
:1051C000C58108F058FA5FFA80FA4FFA8AF008F0C1
:1051D000BBFA09F1FF395FFA89F9804600283FF4EC
:1051E000B0AB80F800A008F051FAA8F8020008F06F
:1051F00042FA88F8040008F03EFA88F8050008F042
:105200003AFA88F8070008F036FA88F80600D4E77A
:10521000DFF8408008F1400908F038FAA8F8A40245
:1052200008F029FA88F8A60208F025FA08F104081F
:1052300088F8A302C845EFD188E100BF5D070020D0
:105240005C0700202E1500202C150020D01D00200A
:10525000CC1F0020300800203415002008F00BFA85
:105260001F283FF66EABD8F800305B79082B7FF42F
:1052700068AB00F1880908F009FA05EB890900F02C
:105280003F00A9F8060008F001FAB9F806208001ED
:1052900000F4FE531343A9F8063008F0ECF90001BE
:1052A00089F8040008F0E7F999F8043000F00F00DD
:1052B000184389F8040008F0DEF989F8050002F0C7
:1052C00073FE43E1012384F805323FE108F0D3F98E
:1052D000FF28824670D14FF00008BB4884F8068250
:1052E0004146602210F08AF88DF813809DF8133043
:1052F00094F86A22DFF8D4829A4255D99DF8133087
:1053000008EBC30393F86D32D90746D59DF81330E7
:1053100008EBC30393F86C3208EB4303B3F9CC32C8
:10532000002B3ADD9DF8133098F8069208EBC30382
:105330004FEAC901D3F8703208EB01025B68C2F88A
:1053400008329DF8133008EBC303D3F87032188984
:10535000A2F80E02002301229A40024003D1013339
:10536000102BF8D100E01A46DFF8608208EB010349
:1053700009F10109A3F80C22D3F80802B3F80E32A0
:10538000ADF8143004238DF8163005A901238DF8EB
:10539000173004F057FC88F806929DF8133001335B
:1053A000DBB28DF81330A1E7012008F04FF998F82F
:1053B000060208F015F9CCE094F806329842BFF4E2
:1053C000C0AA002008F042F908F01CF9D8F8003013
:1053D000186808F0D5FCD9F8000008F095F908F035
:1053E00061FC72B6DFF8EC8180234FF0400BA8F827
:1053F0001A304FF00109A8F81AB04046ADF8143041
:1054000005A904238DF816308DF8179004F01AFCC6
:10541000404605A9ADF814B08DF816908DF8179098
:1054200004F010FC694A02EBCA02D2F80832B2F862
:105430000C22186802FA09F109FA01F109FA02F2DC
:10544000014392B219601A83A8F818B0D8F8103046
:105450001A06FBD45D4901EBCA034FF0010ED3F8E5
:105460000802B3F80C22D0F800C04FEA42090EFA45
:1054700009F949EA0C0CC0F800C0D3F808C2B3F827
:105480000C320EFA03FE1FFA8EFE4023ACF81AE02F
:10549000A8F81A304E4B4FF4804EA3F818E04FF4A2
:1054A000004EA3F81AE042F20F79D8F810301B062C
:1054B00005D4B9F1000FF8D009F1FF39F5E7012360
:1054C0004FEACA0B03FA02F2594492B20283B1F8CE
:1054D0000E22ADF8142005A904228DF816208DF8AF
:1054E000173004F0AFFB3A4B4FF400421A83B9F186
:1054F000000F1AD0D8F81030364A1B06AAD5334907
:1055000059440120D1F80832B1F80C121B6900FA95
:1055100001F119422E4B4FF480414FF0400015BF6E
:105520001083508319835983E4E72A4A4021118369
:105530004FF480421A8362B60A2008F060FB0CF038
:105540007BFA254B1B68F32283F84920002008F0E2
:105550007DF808F057F8204B1B68002283F848209C
:1055600094F8053243B1386808F00AFC07F0A4FC4F
:1055700008F04FFB08F088FB184B4C379F427FF434
:105580005FA8174B1B68980616D5164BD4F8E42273
:105590001B689A1A002A0FDB134A1278042A0BD9C7
:1055A0000A4A03F5123303F5F873C2F8E432084BE4
:1055B0005A6982F400425A610C4B9B68002B00F040
:1055C000CF800B489847CBE0D81F0020D01D00208B
:1055D000000C024000040240D01500206C1F002087
:1055E00060070020B80500205C0700206407002049
:1055F00014150020232ADAF8001016D15B48C4F8ED
:10560000CC104FF0010E80F800E05948C4F89C110E
:105610000192009308F054F8564808F051F8009BA6
:10562000197841F002011970019AD4F8A0311B7861
:1056300093427FF46CA808F01BFB72B602F0DEFD0B
:1056400003F04CFF85E70C2803D14B4808F038F8ED
:1056500059E00A2801D00D2857D1484D484805F196
:10566000D40608F02DF8304623210FF0FAFE10B1D1
:10567000801BC5F8D000D4F8D030002B38D0591E8C
:105680003E4A705C202801D10B46F6E7C2F8D030C4
:105690001344002283F8D4203A4B3B4DD3F800B09A
:1056A000D5F800A0DFF8D49050460FF0E7FE09F1DE
:1056B000D40806465146404632460FF0E7FE334BCB
:1056C00038B909EB060292F8D4205A4452785207AE
:1056D00003D010359D42E3D306E09D4204D2701CF6
:1056E000EB684044984702E0294807F0E9FF0023AF
:1056F0002848C4F8D030002130220FF07FFE3B78DC
:10570000002B3FF43EAF1B4809E07F2811D1013B3D
:10571000C5F8D0302B4400221F4883F8D42007F06E
:10572000CFFFFEF716BF0C288FD07F2804D1FEF7DD
:1057300010BF2F2B3EF60DAFA0F12002D2B25E2A91
:105740003EF607AF13B920283EF403AF5A1C23449A
:10575000C4F8D02083F8D40007F0ABFFFEF7F9BE01
:105760000FB0BDEC028BBDE8F08F00BFC11600206A
:105770007D8C01084D8C0108528C0108D01D002041
:105780008E9D01084C010020E087010890890108E6
:105790005D8C0108A41E0020798C0108A449A5484D
:1057A0000A682DE9F04F02F59C4320330360A24BB9
:1057B0001E7887B0C6B119465B689A4240F20C81E8
:1057C000013E0E7008E12B689C48072C98BF195DBC
:1057D0009B4B88BF21461B689847032C0CD9964ADF
:1057E00002EB440401362081944B964D1A78F4B2B2
:1057F000A2421A46E7D81EE02B6804F10E0203EB22
:105800008202D38812890028E9D0C01A4FF47A7135
:10581000D31A484390FBF3F0084440F6C90398427A
:1058200005DC40F2EE239842B8BF184601E040F68E
:10583000CA0080B2D3E7844B1B6842F2010903EA35
:105840000909D9F10109814B38BF4FF00009D3F89C
:1058500000A07F4BB9F1000F06D17E49097819707D
:105860007D4908787D4908701E781EB17B4B1E78F3
:1058700086F00106704992F80080D5F800B00F2339
:1058800081F82C30764B1F780322B7FBF2F202EB43
:105890004202BA1AD2B201F12E0303EB42020024F3
:1058A0004FEA480C0292254664455AD016B16D4B1A
:1058B000E05A00E03046BBF81630834206D8BBF809
:1058C0001810814234BF0021012100E00021664B05
:1058D000E9B953F825309A4502D2644BE05A1AE0F0
:1058E000EBB218468DE8081007F050FE009BDDF87B
:1058F00004C0032B0FD8504B4FF0010E93F82C101F
:105900000EFA05FE21EA0E0183F82C1003E00AF5D9
:10591000967143F81410B9F1000F1DD1029A464B4D
:1059200004EB4401505293F8762022B9022F13D988
:10593000012083F876004E4B581831F803E0418877
:105940007144B0F804E04A33714489B2E15208B2BC
:10595000032390FBF3F080B2444B0135E052023454
:10596000A2E7354B394A93F82C10B1F10F0EDEF156
:10597000000151EB0E0183F890103E4B69B13E4996
:1059800009684F0109D41268D9689A60521AC82A66
:105990001ED9012283F821201AE02F481268DA600C
:1059A000012101702D48017099685B68521A9A4272
:1059B00003D9304B002283F821200024444507DA24
:1059C000E0B207F0E3FD294B23F814000134F5E7BA
:1059D000234B1A7801321A701B4F3B68DE0405D541
:1059E000254B1B68DD0701D40CF07CF8104B1968BF
:1059F000144B1868837A002B42D01C4A013B32F8C2
:105A00001330027B1AB1C3F53B6308339BB21BB260
:105A1000A3F57A73B3F57A7FA8BF4FF47A7323EABC
:105A2000E37307EE903AB8EEE77ADFED147A5FE0C1
:105A3000B805002024070020B82000207222002092
:105A400018000020D0050020C8050020BC4600201A
:105A5000BC050020C405002001000020000000203B
:105A6000061A0020C0200020081A00200A08002082
:105A7000E620002088160020E807002000007A4475
:105A80003A68140440D58F4AD2F894400C1B002C7D
:105A90003ADB01F59C442034C2F894408A4CC07A29
:105AA00065798A4C34F81540A4B294FBF0F492F86E
:105AB0009800013000F00F0082F89800024482F84C
:105AC00099401A468248185C01330244102B92B266
:105AD000F8D112B292FBF3F31BB2642BA8BF64237C
