:020000040800F2
:10000000B80700208901000803C10008D94501088C
:1000100001020008010200080102000800000000BF
:1000200000000000000000000000000001C1000806
:10003000FFC0000800000000FDC0000813D6000843
:100040000102000801020008010200080102000884
:100050000102000801020008010200080102000874
:100060000102000801020008010200080102000864
:1000700001020008D91F0108DD350108010200084E
:1000800001020008613601080102000801020008AF
:100090000102000801020008010200080102000834
:1000A000D192000801930008010200081193000892
:1000B000F192000801020008E19200082D5B00089F
:1000C000315B0008255B0008295B0008010200087D
:1000D00001020008313801082938010821380108D7
:1000E00021D600080102000805C10008010200082D
:1000F00001020008010200080102000801020008D4
:1001000001020008010200080102000801020008C3
:1001100001020008010200080102000801020008B3
:1001200001020008010200080102000801020008A3
:100130000102000801020008010200080102000893
:100140000102000801020008010200082DBC00089D
:100150000102000859350108F936010833950008F5
:100160000102000801020008010200080102000863
:100170000102000801020008010200080102000853
:1001800001020008010200081448154902680060D5
:100190008A421DD0002103E0124B5B5843500431CA
:1001A0001148124B42189A42F6D3114A02E000233A
:1001B00042F8043B0F4B9A42F9D30F48016841F4CF
:1001C0007001016011F044F800F01CF87047FEE780
:1001D0000A48D0F800D0406800470000FCFF01202A
:1001E000EFBEADDEA4A7010800000020B803002088
:1001F000B8070020704B002088ED00E00000FF1FD2
:10020000FEE700002DE98048C64CC74B2360A3B031
:100210000023636010F0CDFC18B910F0EDFC0CF079
:1002200067FBDFF88093C14EC14FDFF87CB30CF061
:1002300019FC99F8003043F0010389F8003010F000
:10024000ADFFBC4BF3607B6FA360BB4BB3607B6BBC
:10025000BA4823F080037B637B6F43F080737B6736
:100260003A6BB74B13433B637B6B7B63BB6BBB63EB
:100270003A6CB44B13433B647A6CB34B134322ADDB
:100280007B6401238DF8533048F2FF7345F83C3D01
:100290004FF0000A29464FF6FF788DF850A08DF8F0
:1002A00051A08DF852A00BF081F9A848CDF84C80F0
:1002B00029460BF07BF9A648CDF84C8029460BF077
:1002C00075F9DFF8E8C2CDF80CC0604629460BF09E
:1002D0006DF9A048DFF8D88229460BF067F99E48EF
:1002E00029460BF063F99D4829460BF05FF99C48BD
:1002F00029460BF05BF929469A480BF057F9284636
:100300000BF08CF9984B9948A8221A60514610229C
:1003100015F02FFB964B974A5A60F02286F823205F
:100320000722954EC3F808A01A60B368CBF80030D6
:1003300098E80F0085E80F003B6BDDF80CC01398C0
:1003400043F008033B633B6B43F008033B634FF40C
:100350008043ACF818304FF40043ACF8183014A9BF
:1003600011F03CFF16A9159811F038FF64200DF02C
:1003700046F9A0228148514615F0FBFA3B6C804AB1
:1003800043F013033B647B6C43F001137B6402F185
:10039000C000CDF81090937BD17B03F00707BF001E
:1003A00001FA07FE5168DB0801EB83034FF00F0CE5
:1003B000196A0CFA07F721EA07011962196A103263
:1003C0004EEA010182421962E5D10023DFF854911F
:1003D00009F10C020021995401330C2BF6D1FF23B3
:1003E00089F8183089F8193089F81A3089F81B30E3
:1003F000644BDFF8C0A1644F644A1F60052313708B
:1004000050463C22039315F0B4FA1422039B8AF859
:1004100000208AF8303001225D4B8AF81820022132
:100420008AF8241096F805A083F800A0A7F5F173C8
:10043000C9F81C30574BA7F591771F60564BDBF876
:10044000007003EBCA03B8065B78C9F8203048BFD8
:10045000C9F820200023514A40F2DC5122F8131041
:100460000133082BF7D10BA80021202215F081FAC7
:10047000BAF10E0F03D00AF0EF03082B02D10123CB
:100480008DF8403001200CF075FF18B14088003025
:1004900018BF012000F001008DF8310005200CF09C
:1004A00069FF18B14088003018BF0120C7F340032E
:1004B0008DF83330C7F380138DF83830C7F34033ED
:1004C0008DF82C30C7F3C03300F001008DF82F30C9
:1004D00017F400638DF8320004D096F88231591E6B
:1004E0004B424B418DF83030C7F300438DF8393023
:1004F000236A2B48003318BF01238DF83A30C7F325
:1005000000538DF83B30B6F84631ADF83E30B6F8C2
:100510005231ADF83C30C7F380438DF83430C7F327
:10052000805349E0B8070020B7C2000800ED00E0A2
:10053000003802400005FA050000000800000240F3
:10054000FF916700FFC9FE36335F070000040240D9
:10055000000802400010024000140240001802404F
:10056000001C024000200240842E0020882E002023
:1005700010E000E03F900200DC3A0020CC44002074
:1005800058670108F4420020CE3C0020C617002026
:10059000B80E0020E84500203C7F01080617002027
:1005A00064160020C44A002034430020000C02409E
:1005B000AC660108F84200208DF83530C7F340538F
:1005C0008DF8363096F85431003318BF01238DF87A
:1005D0003730B6F85031ADF84230FA04B6F844314D
:1005E000ADF8443042BFBF4BB3F84C31ADF84430A6
:1005F00007F0010A96F8D43184F82430C7F3C00913
:10060000002164228DF82DA08DF82E9015F0B1F9FF
:100610009DF84030002B0CBF00230223BAF1000FDD
:1006200002D1B9F1000F00D0013308EB83084FF07D
:10063000000AD8F810309A1E163303920593039AD5
:1006400032F8023F03924FF6FF72934200F0DD81D1
:10065000DAB2190A9DF8393033B11301A248C058F3
:10066000A24B984200F0CC819DF8333053B19E4BA1
:100670009F4F03EB02135868B84203D11B89012B2B
:1006800000F0BE819DF82F3053B1974B994F03EB8B
:1006900002135868B84203D11B89022B00F0B081C5
:1006A0009DF8303053B1904B934F03EB02135868D1
:1006B000B84203D11B89202B00F0A281022902D16C
:1006C0009DF82C3003E0012904D19DF82D30002B3A
:1006D00000F0968184489DF83B304FEA021800EB09
:1006E000080733B19DF840301BB9043A032A40F2A1
:1006F0005F810129CBB256D19DF836303BB99DF8C8
:10070000343023B9BDF84230B3F5FA7F07D950F839
:1007100008207A4B9A4202BF794B0C221A70FF23B1
:1007200084F86C3084F86D306F4BE76703EB080298
:100730004FF00009517B50688DF84E1002F1080B04
:100740001289ADF84C2013A9022284F87090069308
:100750008DF84F2084F82890C4F82C90C4F830907D
:10076000C4F83490C4F8689084F86E9084F86F9060
:1007700011F034FD069B9BF8021053F808004A461E
:1007800009F016FA38460FF0DDFA5E4B5E49C4F800
:1007900080305E4BC4F88430C4F8889038460A1D17
:1007A00008F04EFE2CE1022B46D15FFA8AF21C21A2
:1007B00001FB02FC04EB0C094B4A89F871A00121F2
:1007C00089F8701002EB08014FF0000B91F80DE072
:1007D000486889F872B001F108020989ADF84C1037
:1007E00089F87AB013A9C9F87C70CDF81CC08DF8CF
:1007F0004EE006928DF84F3011F0F0FC3A4B069A1D
:1008000053F8080091785A4609F0D2F938460FF0AB
:1008100099FADDF81CC03C493D4AC9F88020614482
:100820003C4AC9F88420C9F888B038460A1D08F047
:1008300007FE0AF1010AE3E0032B40F0B7809DF8C0
:100840003430DFF8E880B3B39DF8373093B1BDF8AA
:100850004220314BB3FBF2F23846BDF8443098F8F1
:1008600001900C2192B211F0E4FC2C4B43F82900CA
:100870002B4B19E09DF8353098F8019053B1264B79
:10088000BDF84220B3FBF2F238460C2192B2BDF81B
:10089000443003E038460C214FF6FF7211F0C9FCDA
:1008A0001E4B43F829001F4BC36098F8023008EB39
:1008B000C30819236CE09DF83620CAB338460C21D2
:1008C0004FF6FF7298F8019011F0B3FC134B43F808
:1008D0002900154BC36098F8023008EBC3082923A0
:1008E00056E000BFDC3A002058670108000C0040C9
:1008F00000080240000402400000024000000140E5
:1009000000000020A11D010838080020991E0108E0
:10091000651F0108791D0108001BB70098440020DD
:10092000151F0108E51E0108A91E01086416002014
:10093000BDF8422098F80190B2F5FA7F14D9834BA4
:10094000B3FBF2F23846BDF844300C2192B211F0FC
:1009500070FC7F4B43F829007E4BC36098F802304F
:1009600008EBC3080D2313E07B4BB3FBF2F23846D0
:10097000BDF84430012192B211F05BFC744B43F896
:100980002900764BC36098F8023008EBC3080923AE
:1009900088F80530724B9A78597803EBC20001321F
:1009A00001710131876059709A7029E0042B27D1B9
:1009B000DFF8AC81BDF83C2098F8023098F8009040
:1009C00008EBC303012183F804903846624B93FB84
:1009D000F2F2BDF83E3092B211F02BFC98F80230E2
:1009E00008EBC3020A21517198F8002004EB890931
:1009F00001320133C9F8500188F8002088F802302C
:100A0000039B059A93427FF41AAE554A554B1278D0
:100A100084F87021544A92F800E0AEF117020027E2
:100A2000022A1F709C461AD8E3693B44D3ED007A32
:100A3000F5EE407AF1EE10FA02D1236A63BB26E0AC
:100A40004A4A07EB02080FCB88E80F009CF80030F9
:100A500010370133C02F8CF80030E5D1EDE7444B5F
:100A600013F83E908CF8009003EBCE03D3F804A06B
:100A7000BAF1000FE1D04F45DFDA3C4A3B0103EB0E
:100A8000020853440FCB013788E80F00F3E7394FD2
:100A90003B68DB0426D41FE0374B384A13F83E008E
:100AA000107003EBCE035F68002FF0D00023834269
:100AB000EDDAC3EBC3017A18DFF8CC90D2F800A0CE
:100AC00041F809A001EB09089188A8F8041092796F
:100AD00088F806200133EAE70EF0EF03082B284BD5
:100AE00020D122E09CF80020012AF5D9254B03EB08
:100AF0000212103210339342EED053ED047AB6EE68
:100B0000007A67EE877A43ED047A53ED057A67EE53
:100B1000877A43ED057A53ED037A67EE877A43EDE2
:100B2000037AE7E7BEF10E0F09D11A7842F01002FE
:100B30001A70BEF1180F29D10FF096FF26E01A782F
:100B400022F010021A70BEF1190FF4E7001BB70073
:100B500098440020251F010840420F00151F01087E
:100B600064160020C8440020B80E0020F40D0020B8
:100B70003C7F0108344300202073010874450020A5
:100B800050170020FC0D0020754500200FF050FF8D
:100B90003B68DFF810B3DFF808A313F4101F02BF9F
:100BA000B54B01221A70049B049A1B7843F004038E
:100BB000137011238DF84E30DBF830304FF0010800
:100BC000022743EA0803504629468DF84F70ADF8D6
:100BD0004C80CBF8303011F001FBA84BA84A1A60CA
:100BE00000200CF035FDA74B93E80300DBF8303014
:100BF00085E8030043F00803CBF83030139814A9BC
:100C000011F0ECFADBF8443043F48053CBF8443075
:100C1000DBF8243043F4805350464FF00309CBF8FF
:100C200024302946A0238DF84E70ADF84C308DF855
:100C30004F9011F0D3FA504640232946ADF84C307E
:100C40008DF84E7011F0CAFA504610222946ADF8C0
:100C50004C2005928DF84F908DF84E8011F0BEFA21
:100C6000DAF8203023F47003CAF82030DAF82030A4
:100C700043F4A003CAF82030DAF8203023F0706380
:100C8000CAF82030DAF8203043F0A063CAF82030E8
:100C9000DAF8203023F07043CAF82030DAF8203038
:100CA00043F0A043CAF82030DBF8243043F48053EB
:100CB000CBF82430DBF8243023F48053CBF82430F5
:100CC000714B198801F4415141F4457141EA090120
:100CD0001980998B21F4006109044FF00702090C77
:100CE00099831A82198889B241F040011980DBF892
:100CF000403043F48043CBF84030DBF820300AF535
:100D0000806A43F48043CBF8203050464FF40053C0
:100D10002946ADF84C308DF84E708DF84F9011F09B
:100D20005DFA4FF400415046ADF84C1029468DF85D
:100D30004E708DF84F9011F051FA4FF480415046AB
:100D4000ADF84C108DF84E702946504F8DF84F90ED
:100D500011F044FA4FF480613846ADF84C10294642
:100D60008DF84F908DF84E8011F038FADAF8241093
:100D70004748484D059A21F47001CAF82410DAF862
:100D8000241041F4A001CAF82410DAF8241021F04C
:100D90007061CAF82410DAF8241041F0A061CAF892
:100DA0002410DAF8241021F07041CAF82410DAF87F
:100DB000241041F0A041CAF82410796A21F470612E
:100DC0007962796A41F4A0617962DBF8201041F41C
:100DD0008041CBF82010DBF8201021F48041CBF8C3
:100DE000201001882F6801F4415141F4457141EA16
:100DF00009010180818B21F400610904090C4FF085
:100E0000070381830382018889B241F04001018098
:100E100007F400434FF48051AAF8181003931E4BB7
:100E200004931846002114F0A4FD049B8DF828902B
:100E30004FF0000B4FF6FF7217F0020107F4006A43
:100E400009928DF829B08DF82AB08DF82BB02F4675
:100E5000994629D022A9114841F8648D0AF0A6FBD1
:100E60004FF0070389F8008089F801B089F8028003
:100E700089F8033019E000BF20130020A82E0020BD
:100E800005CE0008CC660108003001400010024089
:100E90000038004034430020D824002000080240DD
:100EA00000000240003802408846039BABB122A9F3
:100EB000022341F8643DAF480AF078FB0C2301227D
:100EC00089F8043089F8062008F10103072289F81F
:100ED000058089F807205FFA83F8BAF1000F15D072
:100EE00022A9202341F8643DA3480AF05FFB0223B6
:100EF000012289F80C3089F80E2008F1010307223D
:100F000089F80D8089F80F205FFA83F89B4B9C4885
:100F10001A6BDFF86CA242F480021A631A6B42F07B
:100F200004021A635A6C42F480725A640AF082FA1C
:100F300013A80AF043FA934B14930025924B159390
:100F4000B8F1010F8CBF4FF480632B4619934FF417
:100F500000631A934FF400531B934FF480731C9358
:100F600050464FF4003313A9CDF85C801D931395C0
:100F7000169518950AF033FADAF80030834A43F0F0
:100F80000103CAF800305168814B0B4043F44033F1
:100F9000804953604B68B8F1010F23F0407394BF50
:100FA0000022012223F4807343EA02234B608A6803
:100FB000794B134043F002038B60CB6A08F1FF3892
:100FC00023F470035FFA88F843EA0853CB6228469B
:100FD000012309EB00029578002D5AD019F800E0A2
:100FE000D2785D1CBEF1090FEDB211D9AEF10A0C39
:100FF000D1F80CA00CEB4C0C4FF0070808FA0CF8D9
:101000002AEA080802FA0CF248EA0202CA600EE074
:10101000D1F810800EEB4E0A4FF0070C0CFA0AFCC8
:1010200028EA0C0C02FA0AF24CEA02020A61062BC8
:101030000ED8013B4A6B03EB83034FF01F0C0CFAF5
:1010400003FC22EA0C020EFA03F313434B631FE086
:101050000C2B0ED8073B0A6B03EB83034FF01F0CDE
:101060000CFA03FC22EA0C020EFA03F313430B639F
:101070000EE0A3F10D02D1F82C8002EB82021F23B7
:10108000934028EA030C0EFA02F34CEA0303CB6206
:101090002B46043010289CD18B68404D43F40073DC
:1010A0008B608B6843F480738B608B6843F0010323
:1010B0008B608B6843F080438B60B5F85831002B10
:1010C00040F06187B5F95A21002A40F05C87B5F9F4
:1010D0005C21002A40F05787DFF8D8803048D8F8E4
:1010E000003096F85F91B3F862A096F86161002134
:1010F0000C2214F03EFC002114222A4814F039FC82
:101100002948002184F8711114224170033014F031
:1011100030FC264BC4F8883123200CF070FA244AA6
:10112000138823F040031B041B0C1380138823F047
:1011300038031B041B0C43F03003138013889BB24D
:1011400043F0400313806B20802104F07FFA1524C4
:1011500096200CF054FA7520012113AA04F062FACB
:101160009DF84C30712B27D0013C14F0FF04EFD1D7
:1011700035E000BF00040240000002400038024099
:10118000706402404C200140E8240020002301400C
:10119000E030FCFF00200140FDF7FFC0DC3A0020FA
:1011A000204700201849002029090020D4660108A2
:1011B0000038004018170020564B062283F8712192
:1011C000432283F87421544AC3F87821534AC3F860
:1011D0008021534AC3F88421524AC3F87C21524BE0
:1011E0004C4C00221A7094F87121062A9B4618D1A3
:1011F0004E4B4F4A1A604F4A5A604F4ADA604F4A84
:101200001A614F4804228BF80020082202704D4AD0
:10121000116841F0010EC2F800E09C46CE469146AE
:1012200003E001200CF084FAA0E072460B2A28BFEC
:1012300000224FF0010E0EFA02FE40F202430EEAC7
:101240000303ABB940F2FD330EEA030383B13E4A18
:101250003E4B13603E4B53603E4A4FF0040E82F803
:1012600000E041F0030109224270C9F8001006E0D5
:10127000012A4FF0000ED8D8364A82F800E0D9F89B
:101280000020900706D5304ACDF80CC01268904770
:10129000DDF80CC0304ADCF80030FA211160002281
:1012A00084F88C2102213046039284F88D119847EE
:1012B0002A4B039A1A7095F855210AB18BF8002031
:1012C00095F856210AB123490A7095F8572102B1C1
:1012D0001A70D9F80030224913F0080F44D00FFAE1
:1012E0008AFA64229AFBF2F302FB13A212B207EE0F
:1012F000902AB8EEE77A07EE903ADFED1A6AF8EE38
:10130000E77AE7EE267AB2EE047A67EE877AC1EDE5
:10131000007A2BE0B807002025560008E9550008A0
:101320007D5600084D5600080E0D0020184900207B
:1013300015580008CD510008B151000890C1793D01
:1013400044030020CC16002020470020015800084C
:101350003D520008254B002048170020C40C0020F7
:10136000940D00208988883C00230B60CE4E337892
:1013700043F002033370CD4B4FF400425A834FF4D5
:1013800080421A834FF00A0ADFF82093D9F814300C
:1013900083F40043C9F81430D9F8143083F480433F
:1013A000C9F8143019200CF02AF901200CF050F97A
:1013B00019200CF024F90AF1FF3A00200CF048F94A
:1013C0001AF0FF0AE0D14FF48043A9F818304FF427
:1013D0000043A9F81830B64B9FEDB68A1B681B7BFB
:1013E00000EE103AB8EEC00A4FF01C0920EE080AD1
:1013F0000BF016FAB04B9FEDB17A83ED000AB04BBB
:10140000D3ED047AAF4B67EE887AC3ED007AAE4B2A
:101410001B8807EE903AF8EEE77AC7EE277A9FED41
:10142000AB7AC7EE877AC4ED647A0FF05FFBA84B06
:10143000FF211846212214F09CFA80F800A00346F0
:10144000A448A549D0F800E003901EF0020F4FF029
:10145000010218BF5A70184618BF03230A701EBF36
:101460000B70022383700B781EF0040F4FF01B0CDF
:1014700000F803C003F101021CBFDFF85CC20233B5
:10148000D2B20A701FBF8CF80030914B4FF0030CA2
:1014900003F802C00B78DFF838C21B22C2545A1C72
:1014A000D2B21EF00A0F00F8029003F10202D2B28B
:1014B0004FF01D0900F8029003F10302D2B24FF081
:1014C0001E0900F8029003F10502D2B20A7003F17E
:1014D0000401C9B24FF01F0900F8019010D0042197
:1014E0000CF802109A1DD2B205210CF8021003F17B
:1014F0000801794A0733DBB2117006220CF8032089
:101500003A68754B12F0200F1FBF197801F1010ED8
:1015100083F800E04FF0070E18BF00F801E0110655
:101520000ED519784FF0090E00F801E001F1020E16
:101530000131C9B283F800E04FF00A0E00F801E073
:1015400095F805C0BCF1080F02D0BCF10E0F08D110
:10155000197801F1010E83F800E04FF00B0E00F84E
:1015600001E0197812F4803F4FF00C0900F8019067
:1015700001F1010E1CBFDFF8609102315FFA8EFEAF
:1015800083F800E01FBF89F8001051494FF00E09A1
:1015900001F80E90510741BF197801F1010E83F84F
:1015A00000E04FF0100E48BF00F801E0DFF828E13E
:1015B0009EF8001001F101095FFA89F94FF0120A53
:1015C00012F4806F8EF8009000F801A00CD095F80E
:1015D0001CA2BAF1000F07D002318EF800103C496E
:1015E0004FF0130A01F809A0910541BF9EF80010C1
:1015F00001F101098EF800904FF0150948BF00F87D
:101600000190BCF1180F15D19EF800104FF016098B
:1016100000F8019001F101095FFA89F94FF0170A0A
:1016200000F809A001F103090231C9B28EF8009057
:1016300000F801C0110341BF9EF8001001F1010C38
:101640008EF800C04FF0190C48BF00F801C0D20559
:1016500041BF9EF80020511C8EF800101A2148BF8F
:1016600081541A78511C1970142383540021982234
:101670001A4814F07EF90EF05EFC194B19491A480D
:1016800019601A4BB5F84E21016019491A800023E0
:10169000184AD8F800E00B70B5F8941113809370D5
:1016A0001FFA81FC28E000BFC44A0020000C024061
:1016B000680D002035FA8E3C980D00200AE81C4188
:1016C00018490020840D00200C00002000401C461A
:1016D000D9160020CC160020D8160020443A00204D
:1016E00040140020623C0020284B002044140020BD
:1016F0007A130020344B00200EF18502DFF80893A6
:10170000A548D9F800A0DFF804B320F813C00AF503
:10171000967A4BF823A00133122BEFD13F68FB04DC
:1017200058BFB5F89CC1A0F806C00EF1D50E1378CD
:10173000F3B992F802C0D3789C4519D2BCF1000FDE
:1017400008D00CF1FF3C0CEB8C0C0CEB8C0C0CF56A
:10175000617306E0013303EB830303EB830303F5BB
:10176000617392F801C00CF1040C9BB220F81C309C
:1017700004327245DBD13B0740F1BB8095F88E31D6
:10178000062B00F2B080DFE803F004070E35506F3F
:101790006F0045F2F05201E042F6F8227F4B1A80CA
:1017A0000EF067FC9EE07D4B42F6F8221A8009019C
:1017B0000A2391FBF3F10023A1F5B061784A42F8C6
:1017C00023100133122BF9D1764A77491160774AF9
:1017D000402013700BF008FE002800F084800123E5
:1017E0004FF0070A90F90000714A8DE80804402183
:1017F000704B72E0694B42F6F8221A80694B6E4AD0
:101800001A606A4B102240201A700BF0EDFD002880
:1018100069D001234FF0000C90F90000674A8DE871
:10182000081040214FF4E13357E05C4B42F6F822B8
:101830001A805C4B624A1A605C4B082240201A7086
:101840000BF0D2FD00284ED001234FF0000E90F98E
:1018500000005C4A8DE8084040214FF4E1330BF072
:10186000DBFAC4F894013AE04C4ADFF8A4E1564FA1
:10187000564D574842F6F82111804C490C22062B50
:101880000A700ED000232B708EF800303B701B23A3
:101890000370504B1A70504B05221A704FF4E1350B
:1018A0000BE0002129708EF80010397021210170A1
:1018B00048494A4D0A70484A13703A4B484A1A60E0
:1018C00040200BF091FD70B101230027454A90F9AB
:1018D000000040218DE888002B460BF09DFA003077
:1018E00018BF012028B908200AF0C2FF2D4B3E4A3C
:1018F0001A603E4D2D4A2B6813F4804F1FBF1221F2
:10190000117028493A4818BF086042F20101194095
:1019100003F0010003F4005781B1204944F6206E22
:10192000A1F800E027B1082111701E49314F0F6066
:1019300020B10C2111701B492F480860117804391F
:101940005170190640F19F804FF0000B2B4FDFF8CC
:10195000C4A02B48C4F898A15946152287F801B0B5
:10196000C7F804B0C7F808B014F003F8254A049289
:10197000AAF105035846136007F01AFAD9F80030A7
:10198000FB6002200BF030FD049A9646002843D1FC
:1019900080200AF06DFF6EE038430020D60D002055
:1019A0008C2300203001002079AE0008EC4200209A
:1019B000EDB00008A086010065AE000841B0000847
:1019C0004DAE0008F5AF00081924002018240020AF
:1019D0001A240020192300201B24002090D003008B
:1019E00075AD0008CDAE0008514A0108344300200F
:1019F000ADAE0008454A0108BDAE0008C84A002047
:101A000054090020E84A00203C340020C413002080
:101A10001A230020CE3C00207B7890F805C0C849EE
:101A20000C2202FB03125278624504D00133DBB270
:101A3000042BF4D900237B70DEF800307A781B7811
:101A400090F90000002B4FF00C0303FB021314BFAE
:101A50004FF0030E4FF0010E00225B78CDF800E04E
:101A6000019202210BF0D8F9B64B186000288FD0F4
:101A7000012007F09DF9D8F80000B34B00F5CB72B8
:101A80001A6007F0ADFAB14AB14B1360B14ADFF802
:101A90001C93803313602B680027DA0389F80070E9
:101AA00040F1C8804FF00108DFF804A3DFF804B369
:101AB0000DF084FC89F8008040F22A3939464A4604
:101AC000504613F056FFA44B1A6B42EA08021A6301
:101AD0001A6C42F008021A641A6B42F400121A637C
:101AE000022358468DF8283009A903238DF82930A0
:101AF000CDF824808DF82B808DF82A7009F056FDE2
:101B0000DBF8203023F00F03CBF82030DBF8203057
:101B100043F00203CBF82030904B1A8822F00102E8
:101B20001204120C1A801A8822F45C721204120C2D
:101B30001A806822DA621F85A3F814801A8C22F0BA
:101B400001021204120C1A841A8C9888198B22F044
:101B5000020221F0730109041204090C120C41F075
:101B6000600180B242EA0802988019835F631A8498
:101B70001A8B22F008021204120C42F008021A8397
:101B80001A880BF5C04B92B20BF1400B42EA0802E7
:101B90001A80DBF8003023F00103CBF80030584600
:101BA00009F048FC13A809F009FC4FF040631393B7
:101BB0006B4B1493402316934FF4806319934FF4A7
:101BC00080531A934FF480431B934FF4403313A96F
:101BD0001D93584604231E93CDF854A0CDF85C9075
:101BE00018971C971F972097219709F0F8FBDBF8AF
:101BF000003043F01003CBF800305A4B4FF4001282
:101C00009A6008A80D238DF820308DF821808DF87A
:101C100022708DF8238009F0A4FC3946524B1A68D3
:101C2000524B43F8212001312029F7D110F0F8F967
:101C300010F0F6F92B685B0555D54D4BD4F8DC84D4
:101C4000C3F8008004200BF0CFFB0421C4F8E004AB
:101C50000BF0A4FB474B84F8E4040820C3F8008091
:101C60000BF0C2FB444B454F186008210BF096FB6C
:101C7000002184F8E5042C22384613F07AFE8E23E6
:101C80007B704FF07C0AE0234FF07D09FB7087F8F2
:101C900000A087F82B903A4F2C220021384613F0F1
:101CA00068FE8A237B701020A023FB7087F800A0B9
:101CB00087F82B90C4F8E8840BF096FB1021C4F849
:101CC000EC040BF06BFB84F8F0042020C4F8F484DF
:101CD0000BF08AFB2021C4F8F8040BF05FFB84F8BA
:101CE000FC040DF0FBF92868264B10F4002218BF05
:101CF00001221A70244B5A79052A194602BF234B38
:101D00004FF4C8721A80224B4FF47A721A80214A1B
:101D1000137843F0080313701F4A137823F002036B
:101D2000137040F602030340002B4AD01B4B1C4AA1
:101D30001A601C4B03221A701B4B01221A703BE0E5
:101D400020A4010898220020A0140020D422002002
:101D5000083D0020D022002000380240000C004046
:101D6000340C004000600240EC660108AE2E0020FA
:101D7000E01700201C18002064180020EC17002039
:101D80002018002021130020DC3A002058140020E5
:101D90002A15002050170020CE170020D424002040
:101DA000543C00201E47002048030020AC2E002099
:101DB0006909002000000240AA4A00231380AA4AB1
:101DC0001380AA4BAA488A6800682A60012119700A
:101DD0003378033863F07F030A283370A54B38BF8C
:101DE0000A205864039883F84010006883F8A8100C
:101DF000C0F3400083F8740040F602001040003049
:101E000083F8DC1083F84411C2F3C01118BF01201D
:101E100083F87811C2F38021C2F3004283F81001E5
:101E200083F8AC1183F8E02103930BF0C1FBDFF8DA
:101E300048B2904CCBF8000004F5027523464FF0F1
:101E4000FF3AD9461A7D062A0CD119699A690A44C3
:101E5000811A002904DA121A924528BF924601E03D
:101E60004FF0000A3433AB42ECD1DFF82082002778
:101E7000D8F8003504930A2639463D46237B5FFA9D
:101E800087FC002B42D062680AB3637D53B1D9F856
:101E90000030E26920699B1AB3FBF0F301339BB277
:101EA00023841EE0D9F80000A369CDF818C0C01A39
:101EB000059190470599DDF818C030B16E4B1B684D
:101EC000E36101232384237D0EE0208410E0A269D6
:101ED000D9F8003020699B1AB3FBF0F39AB2228440
:101EE00032B1227D13FB02F3013301356375ADB2CC
:101EF000049A637D924505D8228C012A02D8227D5E
:101F0000062A03D18B4284BF1946664601370A2F41
:101F100004F13404B2D1D8F80435584A0133C8F872
:101F20000435D8F808350A2E1D44C8F8085528D0BD
:101F3000039BDBF800101670342404FB0634A369FD
:101F4000A161CB1A0021A36261750BF031FBA3687C
:101F5000054603B198470BF02BFB039A342303FB90
:101F60000626401B736AC3EB431303445B09736289
:101F7000336B03443363F36A98422CBFF062F3621D
:101F800053E7167051E71BB208EE103AB6F95A3112
:101F9000DFED3B7A3B4A09EE103AB6F95C31B8EE18
:101FA000C88A08EE903A28EE278AB8EEC99AF8EE69
:101FB000E88A0021B0EE480A29EE279A68EEA78A3F
:101FC00011700AF02DFCF0EE40AAB0EE480A0AF0BB
:101FD000C6FBF0EE409AB0EE490A0AF021FCB0EEE2
:101FE000408AB0EE490A0AF0BAFBB0EE409AB0EE71
:101FF000680A0AF015FCB0EE40AAB0EE680A0AF0D2
:10200000AEFB60EE2A6A69EE8A7AF0EE665AE7EE77
:10201000895A1D4B2AEE2A6A29EE807AC3ED035AAB
:10202000F0EE465AE7EE495AE6EE897AA6EE497A8C
:102030002AEE08AA28EE400A69EEC89A28EE2A8AF3
:1020400083ED00AA83ED010A83ED029AC3ED045AE1
:10205000C3ED059A83ED067AC3ED077A83ED088A0E
:10206000FFF73AB8544700205647002020130020BD
:102070004817002038010020EC4A00200100002011
:1020800035FA8E3C22000020B0240020B807002042
:102090002DE9F04FA24C2378092B9CBFA14A342193
:1020A0002DED108B98BF01FB032391B094BF9E6A66
:1020B00000269D4D09A8EB6898479DF8243023B170
:1020C0002378092B0DD9002310E00BF071FA974B00
:1020D0001B68F31A1844964B1B6864339842E8D384
:1020E000EEE7904A342101FB03239B6A914ADFED1E
:1020F00092AA924C924E9BB207EE903AB8EE670AC3
:10210000138060EE2A0A8F4B20460121C3ED000A9E
:102110000AF0D8F8FCEEC07A894817EE903A23818D
:102120006B68984748B9884B884F1A6812F0020FBD
:10213000984640F0CB8000F017BCD4F80CE0B51EF8
:102140000020834900F1100301EB000C0B446246B0
:102150000EF1FF37002132F8028F22F8028C17F9B6
:10216000019F9A4218FB0911F5D135F8023FACF8EE
:1021700010309EF908201230362813FB02134FF45A
:10218000807293FBF2F32B80DBD16D48714F94F892
:1021900046206A4D014609F085FA3B8805F1940A0C
:1021A000002B6BD0AB6C1B7808EE103A05F14C0895
:1021B0004FF0000958353988B1F57A7F02BF002306
:1021C000C8F800302B61D8F8002036F919301A44CD
:1021D00007EE903A2B69C8F800200133012B4FEA33
:1021E000490BF8EEE77A2B6106D10023C5ED017AA1
:1021F000C5ED007AAB601BE0D5ED006A07EE103A42
:1022000037EEE66AB8EEC77A86EE077A36EE877A58
:10221000D5ED026A85ED017A77EEC77A85ED007A11
:10222000E6EE276AF0EE667AC5ED036AC5ED026A4E
:102230000023012926F80B302AF80B302AD12B690C
:10224000012BC3BF03F1FF3300EE103AD5ED037A43
:102250009FED410AC4BFB8EEC00A87EE800A13F0B2
:102260003DFE18EE103A5BB1F8EEC87AB4EEE70A1C
:10227000F1EE10FA04DD4FF47A733B8000231AE08C
:10228000D8F800304FF47A7203F5FA7393FBF2F347
:102290002AF80B3009F10109B9F1030F08F104081C
:1022A00005F1140587D13888012801D10BF0EEF92A
:1022B0003B88013BE1E736F813203AF81310521A35
:1022C00026F813200133032BF5D12CE7234B1B7881
:1022D000002B00F049830BF06BF9D4F89C30C4F864
:1022E0009C00C31A0FEE903A0025D4F8A0A0DFF8A6
:1022F00074909AF80010B9B337F91530184800EE09
:10230000103AF8EE6F0AB8EEC00A00EBC50060EEB6
:10231000AA0A09F0D7FFFDEEC07A17EE903A25E041
:10232000010000203801002018490020EC4A00205C
:1023300048170020C8160020BD378635C80C00207D
:102340000017002050440020CC160020F44A002042
:10235000D80C00202A15002000000000244B00208B
:102360006C0D0020FA16002037F8153029F81530CA
:102370000135032DB9D1D8F80030BD4A13F0080F4C
:1023800008D0B2F9001029B1B2F9021011B1B2F9B6
:10239000041091BBB749097801F0100000F0FF0567
:1023A00080B313F020052DD001F0020303F0FF05E8
:1023B00043B3B14B1B78042B23D9B04B1B88B3F527
:1023C000967F1ED3AE4BB3F9043007EE903AAD4B77
:1023D0001B88B8EEE77A07EE903AF8EEE77AB2EEAD
:1023E000048A87EE888A01254FF0000B77EE487A41
:1023F0009FEDA58A27EE888A07E000254FF0010BA4
:1024000001E00025AB469FEDA18AB6F90030B2F895
:102410000080978808EE903AB6F90230F8EE6F7AAD
:1024200009EE903A67EEAAAAF8EEE99AD4ED2F7A6F
:10243000B6F90430568869EEA79AF8EEE88A09EEF4
:10244000103A68EEA78A29EEA90AB9F90030B8EE69
:10245000C99AA8EEA80A0CEE103AB9F9023029EE92
:10246000279A0CEE903AB9F90430A9EE090A0DEE5C
:10247000103A13F033FDB8EECCCAF8EEECCAB8EE61
:10248000CDDAB0EE40EA15B3DFED817AB4EEE78A3B
:10249000F1EE10FA04DDDFED7F7A38EE678AF3E7BC
:1024A000DFED7D7AB4EEE78AF1EE10FA04D5DFEDC8
:1024B000797A38EE278AF3E7B6EE000A28EE000AAA
:1024C0000AF04DF99FED71BA30EE0BBA01E09FEDC5
:1024D0006FBA9FED6EAADFED71DA714DF7EE00BABB
:1024E000BBF1000F53D00FFA88F807EE908A33B291
:1024F000B8EEE7FA08EE103A2FEE0F0AB8EEC88AE7
:102500003FB207EE907AA8EE080AF8EEE7EAAEEEE0
:10251000AE0AB4EEED0AF1EE10FA38DD13F0DEFC8F
:102520008BEE800AD5ED017A95ED007A28EE008ACF
:102530002FEE00FA68EE277A6EEE80EAE7EE0F7A69
:1025400095ED040A95ED027A28EE008AE7EE2E7AE0
:1025500095ED037AA7EE0F8A95ED057AA7EE2E8A00
:1025600028EE080AA7EEA70A13F0B8FCD5ED067A04
:1025700020EE480AB0EE4A8AA7EE808AD5ED077AA7
:10258000A7EE80AAD5ED087AA7EE80BA01E0B0EEFA
:102590004A8A2CEEAC0AACEE0C0AADEE0D0AB4EE93
:1025A000ED0AF1EE10FA21DD13F098FC8BEE800AB3
:1025B000D5ED076A95ED087A2DEE00DA6CEE80CA4B
:1025C00066EECD7A2CEE00CAECEE877A27EE4C7AD6
:1025D00038EE278AD5ED067AADEE277A67EEEC7AEB
:1025E0003AEE07AAECEE267A3BEE27BADAED017A4C
:1025F000F5EEC07AF1EE10FA4FF000031FDD9FED0B
:10260000297AB4EEC7EAF1EE10FA1ED567EE886AB1
:1026100094ED307AA6EEAA7A67EE8A6A84ED307A73
:1026200094ED317AA6EEAA7A67EE8B7A84ED317A50
:1026300094ED327AA7EEAA7A84ED327A05E0C4F8F6
:10264000C030C4F8C430C4F8C830174EDAED027A8E
:10265000337859072CD4154B1A6844F61F639A42F5
:10266000F7EE006AB2EE047A88BFB0EE667A21E037
:10267000C817002050170020511700205E170020B7
:10268000341700206017002035FA8E3C000000004F
:10269000DB0F4940DB0FC940DB0F49C00AD7233CA1
:1026A000F8450020C2B8B23ECE1700203C340020CE
:1026B000B7EE007A27EE877AD4ED307ADFF85083D0
:1026C000C74AD8ED005ADFF84CB392ED005AC54F17
:1026D0000492E7EE087A97ED006A9FEDC38A78EEE0
:1026E000A78AD4ED317AE7EE0A7A79EEA79AD4ED8B
:1026F000327AE7EE0B7AB1EE467A39EE279AF6EEA9
:10270000007A6AEEA77A69EEA79A29EE279A69EE0F
:10271000E56A25EE890A68EEA78ADBED007AA5EE68
:10272000280AE7EEE86AA7EE290AE7EE096A29EE29
:10273000677A37EE800AA5EE297A67EEA97A75EEF8
:10274000266AA6EE287AE5EE097A8BED000A20EEDD
:10275000000A35EE877AA6EEA60AE5EEE87AA7EE3D
:10276000070A76EE277AC2ED006AA7EEA70A88ED7F
:10277000007AC7ED007A13F0B1FB8BEE800A049A61
:10278000D2ED007AD7ED00BA67EE807AC2ED007A1A
:10279000DBED007A67EE807ACBED007AD8ED007A37
:1027A00067EE807A2BEE800AC8ED007A87ED000A8A
:1027B0000EF09CF9D5ED080A95ED070A8B4F13F042
:1027C0008BFB20EE080A13F0E3FA95ED060A388039
:1027D000B1EE400A13F022FBDFED857A37EEC00A36
:1027E00020EE080A13F0D4FAD5ED000A95ED030A9D
:1027F000788013F071FBD4ED337AE0EE487AB0EED6
:10280000670A13F0C5FA83B21A0458BFBB80D5ED2E
:10281000085A784BD4ED347A1A7895ED010A95ED83
:10282000065AF4EEE75A44BF00F56160B880F1EE55
:1028300010FACCBF42F0080222F008021A70B9F96F
:102840000030D5ED007A06EE103AB9F9023007EE05
:10285000103AB8EEC77AB8EEC66AB9F9043027EE76
:10286000000A06EE903AA7EE860A9AF80130F8EED2
:10287000E66AD5ED027AA7EEA60A012BD5ED077A16
:1028800067EE277AE5EE067AE5EEA67AD5ED045AEC
:1028900027EE257AD5ED035AA5EE867A95ED056AE1
:1028A000A6EE267AF1EE478A18D1337858070FD46E
:1028B000D4F8D430402293FBF2F29B1A07EE103A80
:1028C000B8EEC77A37EE277ABDEEC77A84ED357A4F
:1028D000D4F8D430402293FBF2F301E0464B1B883E
:1028E00094ED368A07EE103AB8EEC77A77EEC77ADB
:1028F00094ED377A3AEE877A77EEC87ACAEE87AAED
:10290000AAEEA78A84ED368A13F042FAD4F8E05092
:10291000297809F015FFD4F8E430B0EE680A1844BD
:10292000C4F8E40013F034FA297809F009FFD4F868
:10293000E830B0EE480A1844C4F8E80013F028FA6A
:10294000697809F0FDFED4F8EC302C4A18441FEEEB
:10295000901A1368C4F8EC001944D4F8F0301160F0
:102960000133C4F8F03003E000233B807B80BB8060
:10297000234BB3F90610234BD3F800E0BEF80A202E
:1029800091420FDBB1F5FA6F9EF80750BDBF8B1A6D
:102990006B43A2F5FA65C5F16405BCBF93FBF5F581
:1029A000643500E06425184B184AB3F894C193F9D4
:1029B0005E31126804929BB2164605930022104BBA
:1029C00033F91280CCEB080303F2F31440F2E63043
:1029D00084424FEA42091FD8002BB8BF5B421DE07A
:1029E00034010020F44500204C3D0F4434170020F2
:1029F000DB0FC93F501700200C0000204C130020B3
:102A0000384300204C170020DC3A00201817002023
:102A1000F0450020EC4500204FF4FA73022A049C94
:102A20004FF064002AD094F81D411CB1A342CCBFE2
:102A30001B1B0023B84C93FBF0F76FF0630B34F8CB
:102A400017A00BFB073B013734F917400FFA8AF741
:102A5000E41BB24F04FB0BF494FBF0F4544427F84E
:102A600009400EEB020424796343AD4C93FBF4F36D
:102A700064339BB26B4393FBF0F02CE094F81E415F
:102A80001CB1A342CCBF1B1B0023A64C93FBF0F050
:102A90006FF0630A0AFB003B04EB400704EB4000C5
:102AA000B7F9F470B0F9F600C01B00FB0BFBBDF8E2
:102AB00014009BFBFAFBC7EB0B0717FB00F79748CB
:102AC00087809EF80600002BB8BF5B4243439448C2
:102AD00093FBF0F064307478934B6427444394FB89
:102AE000F7F49C5403F1030AF47A444394FBF7F49B
:102AF0000AF802400633747D022A00FB04F0874C7A
:102B000090FBF7F09854894B0DD1E0459F700DDB99
:102B1000874FB7F89621914214DBB1F5FA6FA8BF41
:102B20004FF4FA610FE0E0459D5404DA34F80930BF
:102B30005B4224F809300132032A06F101067FF4D2
:102B40003EAFE5E71146DFF81CE2744D891A4FF4F9
:102B50007A736FF063005943C2F5FA626423B1FBE4
:102B6000F2F191FBF3F23EF8126000FB0211013228
:102B700030B23EF91220121A514391FBF3F3334461
:102B8000E3806C4B674E1B8813F0400F39D06A4BC3
:102B9000DFED6A7AB3F904300A2293FBF2F3B6F858
:102BA0000C219B1A1BB208EE103AB8EEC88A28EE28
:102BB000278AB0EE480A09F033FEF0EE408AB0EE04
:102BC000480A09F0CCFDB5F9023006EE903AB5F9A5
:102BD0000030F8EEE66A07EE903A20EE667AF8EEFC
:102BE000E77AA7EEA87A67EE807ABDEEC77AE6EEBE
:102BF000A87A17EE103AFDEEE77A2B8017EE903A9E
:102C00006B8097F89A31002B52D03289B6F80E01BA
:102C1000B0FBF2F04A4A434B1278451CADB2A6F81D
:102C200010511AB3B3F812A10023DFF8F8E034F81A
:102C300013800EF58E7C0EF58A793CF8132039F856
:102C400013102CF81380C2EB080B11FB0AF12AB207
:102C500091FBF2F25A4429F813200133042BE4D1FA
:102C6000374BAEF8120100221A7004E0B3F81221BB
:102C7000013AA3F812212B4AB2F8120103B2002B39
:102C80004FF0000312DDB2F910512E4931F8132034
:102C9000083112FB00F231F8131092FBF5F28A1A98
:102CA00024F813200133042BEFD101E0A2F81231F4
:102CB000254BDFF8B4A01A78DFF8B09012F0040FBB
:102CC00004D0224B4FF480425A8360E0D9F80010C0
:102CD000C9075CBF42F001021A701D4A1278120740
:102CE0005EBF1A7822F001021A701A4A11881A4A35
:102CF00019B1DAF800108D0706D41849098819B9F6
:102D000017480088642833D9022111701A7822F0FC
:102D100001021A7032E000BF762E00203C440020F1
:102D20000CFEFFFFC80C0020CA0D00204444002008
:102D3000DC3A0020D01600203417002035FA8E3CF3
:102D400028150020DC0D0020CE170020000C0240CA
:102D50005017002058140020584B00202A1500203E
:102D60001C4700205E2E0020CC160020D416002028
:102D70001B78D80756BF0223117013700AF018FC95
:102D8000C34B1B68C01A002801DB11F0AFFEC14B1A
:102D90009B680BB1C0489847C04B1B78ABB1C04B88
:102DA000B3F90620B7F896319A420EDCBD4B5B7939
:102DB000012B01D0192B02D197F8E6212AB90E2B4D
:102DC00003D0082B1CBF0023A380B74B04931A68C1
:102DD00092F8245195B3B54B1B8899072ED0B44B6C
:102DE000DFEDB47A93ED080AB4EEE70AF1EE10FADB
:102DF00020D913F013F8D6ED497A20EE270A12F005
:102E0000C7FFB0F5617FA8BF4FF4617007EE900A6D
:102E1000B8EEE70ADFEDA87A80EE270A09F09FFCFA
:102E200007EE905AF8EEE77A27EE800A12F0B0FF2C
:102E300080B200E00020E3881844E080DAF8003037
:102E40009A0640F1A180994B1B8803F03003002BB8
:102E500000F09A80994B1B78DB0740F19580984BE6
:102E6000DFED987AB3F90430DFF888A20A2293FBE9
:102E7000F2F308EE103AB8EEC88A28EE278AB0EED0
:102E8000480A09F06CFCF0EE408AB0EE480A09F0FE
:102E9000C7FC8D4B8D491B6893F80380B0EE409AB8
:102EA000B2EE048AB8F1000F4AD0DFF84CB2B1F9A3
:102EB0000200BBF8025005912BB2C01A06F034F89C
:102EC000C8F1000290425B46059903DB4045A8BF6C
:102ED000404600E0104628441D8806921FFA80FBF9
:102EE000B1F90000A3F802B029B2401A059306F028
:102EF0001BF8069A059B904203DB40450246A8BF9B
:102F000042461544ADB21D802DB207EE105A0FFA9D
:102F10008BF307EE903AB8EEC70AF8EEE77A28EEA0
:102F2000C07A20EE090AA7EE897AA7EEA80A87EEF2
:102F3000087ABDEEC77A17EE103AAAF800301BE007
:102F4000B1F9023007EE103AB1F9003000EE103A54
:102F5000B8EEC00AB8EEC77A68EEC07A20EE090A69
:102F6000E7EE097AA7EE280AC7EE887AFDEEE77A3F
:102F700017EE903AAAF8003080EE080AFDEEC07A0B
:102F800017EE903AAAF80230049BB7F86A21186845
:102F90004F4B00934F4BDFF864811D684E4B19680F
:102FA00000F16403A8474D4B19784D4B032915D9FF
:102FB000D8F828215788B7F5FA7F0FD2B4F9045012
:102FC000B3F904E0002DB8BF6D427842421B96452C
:102FD00003DB7A197245A8BF72469A80D9F800209F
:102FE000150105D43F4A106841F21D02024062B14A
:102FF0000020B3F802E0B3F800C0D8F82881B3F994
:103000000490394D02460746B2E03848D8F828C146
:103010000270E5885F88B3F800E0B3F904803448B3
:103020008A4200F1100080F014819CF9003050EDCC
:10303000045ADFF8CC905B4208FB03F307EE903AAA
:103040000FFA8EF306EE903A2BB206EE103A3BB230
:10305000B8EEE77A07EE903AF8EEE77AB8EEC66A8D
:1030600067EEA57A50ED065AE6EE257AF8EEE66AA6
:1030700010ED056AE6EE867A50ED036AE7EE267AF1
:10308000FDEEE77A17EE903A29F812300132C7E7E1
:103090005C4B002018490020DA17002004000020B3
:1030A00038430020DC3A002018170020D0160020FA
:1030B000F84500208FC2753CEFB6B0445017002091
:1030C0003417002035FA8E3CA0140020241500206F
:1030D000623C0020080000204C170020C84400205B
:1030E0006C44002034430020F40D002020460020D2
:1030F000FC0D00201C46002020150020C80C0020DC
:103100001C17002098F9003095ED016A5B4209FB1D
:1031100003F307EE903A0FFA8EF306EE903A0FFAA9
:103120008CF3B8EEE77A07EE903AF8EEE77AF8EE2D
:10313000E66A67EE867A95ED026AE6EE867A0DF12A
:10314000240A0FFA82FBD5ED036AE7EE267AFDEE3C
:10315000E77ACDED047ABDF810302AF817300FFA6F
:1031600083FADA4507DD1A4603460137103518465B
:103170008F42C7D305E00FFA80FBDA45F5DB134633
:10318000F1E7794B1B685F881D88C5EB070E121AA3
:103190001FFA8EFE0FFA8EF312B29A4273484FF066
:1031A000000314DD4FF0010C80F800C08B420BD2FD
:1031B0000DF1240C3CF8130010FB0EF090FBF2F024
:1031C0002CF813000133F1E7ADB2BAB207E0037097
:1031D000022392FBF3F2AB18BA1A9DB292B2B4F882
:1031E00006E000278F4234D209AB614833F917302B
:1031F00007EE903A0FFA8EF306EE903A00EB0710C6
:10320000B8EEE77AF8EEE66AD0ED007A2BB266EE19
:10321000A76A07EE903AF8EEE77AF4EEE76AF1EE85
:1032200010FA0BD413B207EE903AF8EEE77AF4EE08
:10323000E76AF1EE10FAD8BFF0EE667A77EE277AF9
:103240004C48FDEEE77A17EE903A20F81730013738
:10325000C8E7494BDFF848E11A7802F0040202F0AF
:10326000FF0312B99EF800205FE0444B444DDB7829
:103270000593444B186810F0006304931ED12A682C
:1032800041F21D031340BBB93A4A9EF800C01388AF
:10329000012161451FB207D232F91130BB42B8BFDC
:1032A0003B469BB20131F4E72F4A1268528897429D
:1032B00004DD9A1A92B202E0049A00E00022324938
:1032C0002B68B1F9065031499EF800E0D1F8ECC105
:1032D0002F4941F21D0803EA080803F4805903F05E
:1032E00010030F6806932049224B096803EB4E0038
:1032F0000790079883420FD00498002840F0248458
:10330000B8F1000F40F03884B3F800E0C2EB0E0EC5
:10331000A3F800E000F030BC1C4D95F8F031013B03
:10332000DBB2182B00F23E8109E09342F4D2194936
:1033300031F813000F4921F813000133F5E701229A
:103340009A40154B1340002B00F02C81134B0E4973
:103350001B8813F4807F25D02388ADF82430638840
:10336000ADF82630A38833E07045002020460020C9
:10337000F40D00201C170020CE170020344B002035
:1033800034430020D416002038430020C80C00200D
:103390006C450020F646002099209801D0160020A8
:1033A000C8440020B44B1A88ADF824205A88ADF8E0
:1033B0002620B24A9B881268ADF82830D00409D57F
:1033C000D5F8EC21B1F90600D289904202DA5B42CD
:1033D000ADF82830AA4CB4F902304FF47A7203F5F4
:1033E000E16353434FF4616093FBF0F3A3F5FA7389
:1033F000ADF83C30B4F9003003F5E1635A43A14B1A
:1034000092FBF0F21B88A3F2DC53A2F5FA72ADF83E
:103410002A30D6F8EC31ADF83E20DB890A88D21A82
:10342000ADF82C204A88D21AADF82E208A88D21AFC
:10343000ADF83020CA88D21AADF832200A89D21AE3
:10344000ADF834204A89D21AADF836208A89D21ACA
:10345000ADF83820CA89D31AADF83A3000238A4A29
:10346000002122F813100133082BF8D1874A884B2A
:1034700012680492874A1B78126887490592874E22
:10348000072202FB031B594572D00B7833B103F1BD
:10349000150201239340049A134065D011F806CC1D
:1034A000059B11F805AC11F8034C11F8018CCCEB1D
:1034B000CC0E03EB4E0E6420BEF90020BEF90230A4
:1034C0009B1A9BB211F9022C4FEA53095A434FEA57
:1034D0004A0792FBF0F210A8C9EB020292B207442D
:1034E00014B937F81C0C0CE0B6F9000037F91C7C55
:1034F000B84208DA0444844203DBA7423846A8BF36
:103500002046308008E007DD041BBC4203DB844218
:10351000A8BF044627463780DEF80A4011F9047C2C
:10352000012000FA0AF02042308812B217FB00F0A6
:1035300014BF4FF0FF340124642790FBF7F0904252
:103540000ADB4FFA88F25A4392FBF7F2C9EB020208
:1035500012B28242A8BF02464B4B33F81C9002FBCA
:10356000049423F81C4000E03380023607318AE7D8
:10357000484B4B4FD3F8008000260E2202FB0682F8
:1035800037F8023F92F90640F0B214FB03F36424CB
:1035900093FBF4F43C800DF08FFA01362044082EA2
:1035A0003880EAD1354B384E1A683A4F12F0200F66
:1035B000984632D000200DF07FFA3080044601207A
:1035C0000DF07AFA314B70801B68190625D5354B02
:1035D0002B4AD3F814321B78012B22D13968138877
:1035E00091F914E0B2F902201EFB03F34FF0320C04
:1035F00093FBFCF31FFA83FE91F906305B425343C1
:103600006FF0310193FBF1F10EEB0102A11893FB76
:10361000FCF37344318018447080D7F800E0002335
:1036200018E0D7F800E053889EF9061011FB03F16B
:10363000322391FBF3F12144318011889EF914204B
:1036400012FB01F292FBF3F21044E5E70133082B81
:10365000325329D00E2101FB03E136F91300B1F9F1
:103660000020B1F9021090424FEA4304EEDB0AB2A7
:103670008242A8BF0246E9E76C44002034430020A0
:10368000341700201C17002006170020D416002035
:1036900074450020D82200207B450020BA0E00206F
:1036A00004170020C80C0020AA4CD4F828A19AF9CD
:1036B0000830A3B994F8F09109F1FF33182B72D8B0
:1036C000DFE803F03571714F71717148717171717B
:1036D000715971717171714F657171593500DFF8F0
:1036E00098B24FF000099C4B3BF9021FBAF9062033
:1036F000882000FB09300DF007F83A680E2380B2ED
:1037000003FB0922ABF80000B2F90030B2F9022045
:1037100000B2984203DB13B28342A8BF034609F10B
:103720000109B9F1080FABF80030DCD1C2E79AF813
:10373000043013B10020718908E0884B1B7803F036
:10374000040303F0FF00002BF4D101460EF038FC17
:10375000012729E00020F1880EF032FC0120318998
:1037600005E0002031890EF02BFC718901200EF05C
:1037700027FC022718E00227B81E36F81710C0B23F
:1037800001370EF01DFC082FF6D106270CE00327A9
:10379000F81E36F81710C0B201370EF011FC072FD3
:1037A000F6D1042700E00027D8F800309A0602D4AA
:1037B000B9F1050F0AD1384631880EF001FC781CAA
:1037C000C0B271880EF0FCFB0237FFB2D8F80030AF
:1037D000DB0205D494F858367BB10DF0ADF80CE05F
:1037E000DFF898910026B819C0B239F8021F0EF020
:1037F000E7FB0D2EEED00136F5E7594B187800287F
:1038000040F0F581D8F800301E0340F1F08195F8C2
:103810005936023B052B19D8524B93F800382BB977
:103820004C4BD3F85C0603689B689847D5F8603624
:1038300095F864261344B3F5807FA8BF4FF48073D6
:103840008342D4BFC5F86036C5F8600694F859368F
:10385000023B082B00F2CB81DFE813F009003F00A8
:1038600065009200AA00BC002F014D015A013E4B99
:103870001A68D4F86C3664339A4240F2B88140201A
:103880000DF00EFD002840F0B2814027374BD4F8F0
:103890006826304E985C1D4670B10AF043FBD6F89E
:1038A0006036013BC6F86036D6F86836013F03F152
:1038B0000103C6F86836E9D1D4F86826254BAA5C1E
:1038C000002A40F09481C3F868264FF0FF32C3F815
:1038D0006C26032283F8592689E124230093244B84
:1038E000019303F10C0202924920A3F10A02502134
:1038F00002330AF0A3FE002840F07981D8F80030A6
:1039000013F080034FF0FF3205D0C5F86806C5F804
:103910006C26042304E0C5F86836C5F86C26062337
:1039200085F8593663E1134A02230021009301917F
:103930000291482002F108030AF080FE002840F0BE
:1039400056814FF0FF33C5F86C36C5F8680605237D
:10395000E6E700BFC80C0020E00E0020CE170020D4
:10396000DC220020DC3A00203C34002018680108EA
:1039700082680108286A0108041700203E430020DD
:10398000072300939C4B019303F10C020292472002
:10399000A3F10802002104330AF050FE002840F091
:1039A00026814FF0FF33C5F86806C5F86C36B6E7D8
:1039B000924A05230021009301910291532002F1C4
:1039C00008030AF03BFE002840F01181C4F86806A5
:1039D0000723A7E040200DF063FC002840F007819A
:1039E000D4F868360C2B00F2A580DFE803F0070B53
:1039F0000E1219252A2F33374550540080480DF0F8
:103A00004BFD54E07F48804913E080488049814A5B
:103A10004BE0814B814893F8FE1793F8FF2744E071
:103A20007D4B7F4893F8D8270C2101FB023393F894
:103A3000DA170DF031FD3AE0774B7A48B3F84011D0
:103A4000F7E7754B7848B3F84211F2E7774B7848BF
:103A50001969EEE7774B78481988EAE7D4F87036A9
:103A6000D80404D56C4B754893F87811E1E7744B92
:103A70000B22C3F868261AE0674B724893F87C1152
:103A800093F87D2193F87B310DF006FD0FE06E4831
:103A9000B4F87416CDE7D8F80030190507D55E4B99
:103AA0006A48B3F88011B3F97E210DF0F5FCD4F823
:103AB00068360133C4F8683699E0654B1B689A0193
:103AC00016D5B4F878365E4D93B9D5F87C3609939F
:103AD000604B0E201B680A9309A90AF0EBFA4FF419
:103AE0008053A5F87636092385F859360AF03AFB53
:103AF0000AF0C2FA7BE094F88036002BF6D0544BE3
:103B00001B689B01F2D44E4B082283F85926EFE73D
:103B1000514B1A68D4F86C36C8339A4205D90DF067
:103B2000DDFB012384F8593661E00DF0F1FB00283C
:103B3000F5D15CE00DF0ECFB002858D04FF4805339
:103B4000A4F876360923EDE7B9F1000F17D0BCF8D9
:103B50000EE0B3F900A07545CBBFB7F802E0B1F8AD
:103B600004E0B1F802B0B7F800B0F24528DBDA455E
:103B7000D646A8BFDE4623E0B9F1000F25D105984F
:103B8000B1F802A0B3F900B040B1B1F804E0F345D8
:103B900016DBD345DE46A8BFD64611E0B1F800E0FB
:103BA000F34503DBD345DE46A8BFD646A3F800E0C5
:103BB000BCF810E0754505DA069818B1B1F804E0D4
:103BC000A3F800E00233FFF794BBBCF80EA0B7F8EF
:103BD00006E0CEEB0A0B5D45B9DDD6447545B6DA95
:103BE0005545CCBFB7F802E0B7F800E0E8E711B000
:103BF000BDEC108BBDE8F08F406A01088C6A0108AB
:103C0000B46A0108CE6A0108E36A0108EB6A010898
:103C1000FF6A01080B6B0108DC3A0020146B0108F5
:103C2000256B01082F6B01083E6B01081849002025
:103C30004D6B01080C0000205D6B0108676B0108EB
:103C4000C80C0020746B01088D6B0108986B01088B
:103C5000D4160020EC4A00203C3400202DE9F04F1F
:103C6000A249A34C0A6802F59C432DED028B203338
:103C70002360A04B87B01E780091C6B19E490968A9
:103C80008A4240F20481013E1E7000E1D9F8003002
:103C90009A48072D98BF595D994B88BF29461B68E4
:103CA0009847032D0CD904EB45050136A880934BAA
:103CB000DFF874921A78F5B2AA421846E6D820E0E6
:103CC000D9F8002005F10E0302EB8303D9881A8985
:103CD0000028E8D04FF47A73401A5843531A90FBE7
:103CE000F3F040F6C90300F57A70984205DC40F223
:103CF000EE239842B8BF184601E040F6CA0080B2F1
:103D0000D1E7804B804A1B6842F2010803EA0808A9
:103D10007E4BB8FA88F84FEA58181B68B8F1000FC4
:103D200005D194F82810117079494D780D701778E5
:103D30001FB1774A177887F0010794F82AB090F8F6
:103D400000A00F220326BBFBF6F606EB460684F81E
:103D50002920C6EB0B06D9F80020DFF8D491F6B283
:103D60000025554559DA4FEA450C1FB1694931F82C
:103D7000150000E03846D18ADFF8B8E1814202D868
:103D8000118B81421ED25EF825005949834203D22D
:103D9000614931F80C0019E0E8B2029201930391F5
:103DA00010F058FE032D019B029A0FDC03994FF08F
:103DB000010C91F829E00CFA05FC2EEA0C0E81F8B2
:103DC00029E003E003F596714EF82510B8F1000FD5
:103DD0001CD194F8BC1029F8160031B9BBF1020FC0
:103DE00014D94349012081F8BC00B9F80210B9F890
:103DF00000000844B9F804100844484980B221F88A
:103E0000150000B2032190FBF1F080B2424909F1A4
:103E1000060921F815000135A3E794F829203B494C
:103E20003F4BA2F10F0EDEF1000242EB0E0284F8CE
:103E3000D6206AB13B4A1268570109D40A68D9688A
:103E40009A60521AC82A1DD9012283F8212019E04C
:103E50002F4A0120507010700A689968DA605B6818
:103E6000521A9A4282BF2E4B002283F8212000254D
:103E7000554507DAE8B210F0EDFD274B23F81500A1
:103E80000135F5E794F82A30013384F82A301D4BC8
:103E90001A6812F4805F984605D0224B1B68DE0733
:103EA00001D410F063FB009B19681F4B1F68BB7A9D
:103EB000002B41D0013B18483A7B30F813301AB13F
:103EC000C3F53B6308339BB21BB2A3F57A73B3F51A
:103ED0007A7FA8BF4FF47A7323EAE37307EE903A30
:103EE0009FED127AF8EEE77A5FE000BFEC4A00201F
:103EF00050130020304B00202C4B0020EC420020BF
:103F00003001002034430020402F00203C340020AA
:103F10000200002054130020384300200E1400201B
:103F2000344B0020D4160020284B002000007A4497
:103F30007C130020C4130020D8F80020150440D5BD
:103F4000D4F8D800934E081A00283ADB924A01F5BB
:103F50009C402030C6F8D8005079904A32F8105072
:103F6000A8B2FD7A90FBF5F596F8DC00013000F080
:103F70000F0286F8DC20324482F8DD501A46884869
:103F8000185C01330244102B92B2F8D112B292FBAA
:103F9000F3F31BB2642BA8BF642323EAE37307EE99
:103FA000903A9FED807AF8EEE77AC7EE877A7E4AFC
:103FB0009FED7E7A67EE877AFCEEE77A17EE903A0D
:103FC0001380D8F800307A4D13F4807F00F0098117
:103FD000784BDFF8E491994205D999F8022012B99B
:103FE000012289F8022099F80220002A00F0F980C5
:103FF000714A2F7892F82160704A701E464211680B
:104000004641002EC1F38063C7F3800700939246B8
:1040100014BF4FF0000B4FF0030B99F82020052A36
:1040200000F2D980DFE802F0034D527584A1002F21
:104030003AD0D4F8F000B4F8F41009F074FA01287A
:1040400009D15F495F4A09681268C988642000FB8A
:104050000122C9F81020009B6BB1594A12681279ED
:104060004AB110F0BDF8032289F820204FF47A728B
:10407000C9F81C20D1E7002E40F0AD80514AD9F894
:10408000101010684C4A88420AD9019210F0A8F822
:10409000019A032182F8201040F6B831D161BCE7C3
:1040A000012182F82010B8E7009B4FF4806013B123
:1040B00008F0CEFB01E008F0BBFB0022C9F810209D
:1040C00089E0002E46D110F08BF8A6E726B1052234
:1040D00089F82020012000E0304667B1D4F8F020B4
:1040E000D189394A118051809180354909684988C0
:1040F000D1804FF0020B334A1168D9F81420914255
:1041000001D8002F64D147F23052C9F81C20032295
:1041100021E02A7842F002022A7010F027FA294A98
:10412000D9F81C1012680A44C9F81820042212E0B9
:10413000244A9EB11168D9F8182091424BD9234ADC
:1041400092781AB9DAF80020D10744D42A7822F0FC
:1041500002022A70052289F820205EE71268D9F849
:104160001C100A44C9F8182035E01549154A096899
:104170001268C988642000FB0122C9F810204FF49E
:104180008060002289F8202089F8032008F050FB85
:1041900043E700BF50130020D8240020E82400206B
:1041A0002D1400200000C8424017002000C07F44AA
:1041B000CE170020404B4C00344B0020D41600207A
:1041C000444900203C3400203843002002000020F5
:1041D00000287FF422AFBBF1000F02D0584609F04F
:1041E00055FAA54E06F5C370B6F84E1109F09BF9C5
:1041F000814600282ED1A14BA14F1B6813F0006A05
:1042000008D0FB7833B90BF0ADFF9E4B012818BFE7
:10421000002018702B785A0709D5D8F80030DB0633
:1042200005D4BAF1000F02D0FB78002B2FD0964AAC
:104230000023136053609360944A00211160516021
:104240009160934A126802F57A72C4F8F82001224C
:10425000FA701AE0D8F80030DF0618D42B78580727
:1042600015D5864B1B68190111D5854FFB7863B1B5
:10427000874B1A68D4F8F8309A4208D90BF072FFCD
:1042800028B9804BF870187001E07E4A13702B78C3
:104290005A0736D5D8F80030DB0632D57D4B1B786F
:1042A000DF062ED4764B9B7893B196F8E031B9F1C6
:1042B000000F15D17BB1764B1A68D4F8FC309B1AED
:1042C000002B08DA10F052F9734B83F8009118E0D4
:1042D000B9F1000F0DD1102009F0D8F901230EE03B
:1042E0003BB16B4A12684FF47A7101FB0323C4F8A7
:1042F000FC3094F8003123B109F0B0F9002384F8C0
:104300000031002296F8DEB196F8DF11B6F896E19A
:10431000B6F898C113466148009030F912709B08B6
:104320007745C4BF63F07F03DBB201326745B8BF96
:1043300043F04003042AEED194F8012156489A42F2
:1043400005D190F80221F92A04D8013200E00022B8
:1043500080F802214A4884F8013183784E4A474F59
:1043600082462BBB3868C0070AD582F80331B9F101
:10437000000F1DD12B78DB071AD50FF051FF17E086
:104380002B78580714D5464B1B788BB1454BDB78FF
:1043900073B992F803310133DBB2032B82F8033196
:1043A00006D911B110F0E2F802E0B9F1000FF9D02E
:1043B00094F80231384ADFF8F490142B40F0A080D2
:1043C0009AF802301BF1000B18BF4FF0010B6BB3D2
:1043D00092F801315F2B11D12B7803F0040303F025
:1043E000FF0113B110F0C2F808E00B200291019216
:1043F00009F04CF9019A029982F80211BBF1000F01
:1044000014D094F801317D2B10D12B7803F00403E4
:1044100003F0FF0213B110F0A9F807E00B2001929E
:1044200009F034F91C4B019A83F802212B7803F030
:10443000040303F0FF01002B62D194F80131164A06
:10444000572B0AD1184B4FF47A721A80D8F80030E3
:104450001B0655D504F026FE52E0D8F800004007B0
:1044600033D55A2B31D192F804310BB3012382F8A2
:10447000041182F8053143E0DC3A0020D416002014
:1044800002000020214600203044002088480020FF
:104490003C340020501700205013002038430020E7
:1044A000402F0020344B00202A1500201817002030
:1044B00092F8063183F0010382F806310BB10C202B
:1044C00000E00D2009F0E2F81AE05D2B00F0B48462
:1044D0005B2B00F0B3845E2B02D1032000F0AFBC55
:1044E000562B01D108F07AFC9AF80230002B00F02C
:1044F000BB8494F801316F2B40F0B0840FF090FE34
:10450000D8F800305A0736D594F80631B84A93B136
:104510002B785B070FD5009BB3F90610B6F89631E0
:10452000994208DD3B6813F0010302BF3221A2F873
:104530000A1182F806313B68D8030DD594F80C2196
:10454000AB4B2AB993F8042112B93222A3F80A21FD
:10455000012384F80C310EE094F80431A44A53B1DD
:104560002B7803F0040303F0FF0123B9012382F841
:10457000041182F80531D9F800A000233B600AF14C
:1045800087090AF1D70B99F8002099F8013019F83A
:10459000010C9A420BD2494608F08EFF38B119F847
:1045A000022C012303FA02F23B6813433B6009F13A
:1045B0000409D945E7D18F4B1B785BB18E4BDFF8EF
:1045C00054B21A68DFF850A212F0020F994640F078
:1045D0003B8332E30AF1D6070AF58F793A787B7884
:1045E00017F8010C9A4225D2394608F065FF08B346
:1045F000BB7897F804C0814A97F803A07C480C2147
:10460000013B01FB0C4103EB43031344D1F814219C
:104610009A420FD0C1F81431002390F84021C1F81C
:104620001831012303FA0CF322EA030381F810A1E5
:1046300080F8403106374F45D0D1714B1F68714B20
:104640001B680293704B1B780393704B01930023FC
:104650000093019B1A68002A00F0E48292F800A0FF
:10466000BAF1000F00F0DE825B680299CB1A002BD2
:104670000CDB01F5FA7301994B60009901238B4023
:1046800094F8401121EA030384F84031039B002B86
:1046900000F0C882019B517813F8043C0433DBB26C
:1046A000002940F07E825A4931F91310B6F894314E
:1046B00003F1C800814202DD92F802B015E0C83B68
:1046C000994203DA9178C1F1000B0EE0009A0123C0
:1046D000934094F8402122EA030384F84031029B7E
:1046E000019A03F5FA7353609CE294F84031009A02
:1046F0001341D90700F19682BBF1000FCCBF022015
:10470000012008F0FDFF0AF1FF33DFF8E490132BDE
:1047100000F28082DFE813F01400250037004B0020
:1047200064008800EB004E01B501E30113027E0234
:104730004B005A008800EB004E01BD0020018501AE
:1047400097F80090D944B9F1FA0FA8BF4FF0FA09D1
:1047500029EAE979384687F8009008F097FE0120A9
:104760000FE097F80190D944B9F1640FA8BF4FF05A
:10477000640929EAE979384687F8019008F086FE4D
:1047800002204946D8E197F803A0DA44BAF1640F51
:10479000A8BF4FF0640A2AEAEA7A87F803A03846ED
:1047A000D9F8441108F028FE03205146C4E1797974
:1047B00059446429A8BF642121EAE17179710D206F
:1047C00008F0E2FEBAF10D0F00F024823979594465
:1047D0006429A8BF642121EAE17139710E20ABE19F
:1047E000B979594481F30801B9710520A4E100BFEA
:1047F00050130020DC220020D41600209D6C0108FC
:104800004C1700203C340020402F0020641400206E
:1048100038430020CC160020D016002000007A4437
:104820000000C84200000000D9F848311A78022A76
:1048300020D107EE90BAB8EEE70A5FED077A93ED64
:10484000097A80EE270A30EE070AB5EEC00AF1EECB
:1048500010FA07D4B4EE670AF1EE10FAC8BFB0EE52
:10486000670A01E01FED110A83ED090A0F2008F025
:1048700075FE0AE099785944C829A8BFC82121EAE1
:10488000E17199700F2008F07FFEBAF10F0F00F070
:10489000C181D9F848311A78022A1ED107EE90BAA0
:1048A000B8EEE78A5FED227A93ED080A88EE278A50
:1048B00038EE000AB5EEC00AF1EE10FA07D4B4EEF5
:1048C000670AF1EE10FAC8BFB0EE670A01E01FED0B
:1048D0002B0A83ED080A122056E159785944C82959
:1048E000A8BFC82121EAE1715970122024E1D9F84A
:1048F00048311A78022A20D107EE90BAB8EEE70ABA
:104900005FED397A93ED0C7A80EE270A30EE070AD4
:10491000B5EEC00AF1EE10FA07D4B4EE670AF1EE74
:1049200010FAC8BFB0EE670A01E01FED420A83ED3E
:104930000C0A102008F012FE0AE0197B5944C8291D
:10494000A8BFC82121EAE1711973102008F01CFEEC
:10495000BAF1100F00F05E81D9F848311A78022AB6
:104960001ED107EE90BAB8EEE78A5FED537A93ED69
:104970000B0A88EE278A38EE000AB5EEC00AF1EE7F
:1049800010FA07D4B4EE670AF1EE10FAC8BFB0EE21
:10499000670A01E01FED5D0A83ED0B0A1320F3E0C7
:1049A000D97A5944C829A8BFC82121EAE171D9722E
:1049B0001320C1E0D9F848311A78022A22D107EE33
:1049C00090BA1FED6A0AF8EEE77A87EE800AD3ED17
:1049D0000F7A30EE270AB5EEC00AF1EE10FA09D4CC
:1049E0005FED717AB4EE670AF1EE10FAC8BFB0EE6F
:1049F000670A01E01FED750A83ED0F0A112008F028
:104A0000ADFD0AE0997D5944C829A8BFC82121EA13
:104A1000E1719975112008F0B7FDBAF1110F00F09E
:104A2000F980D9F848311A78022A20D107EE90BAD5
:104A30001FED860AB8EEE78A88EE008A93ED0E0A2B
:104A400038EE000AB5EEC00AF1EE10FA09D45FEDB7
:104A50008C7AB4EE670AF1EE10FAC8BFB0EE670ABE
:104A600001E01FED900A83ED0E0A14208CE0597DC1
:104A70005944C829A8BFC82121EAE17159751420F9
:104A80005AE0D9F848311A78022A1ED107EE90BAB6
:104A9000B8EEE78A5FED9E7A93ED0A0A88EE278AE0
:104AA00038EE000AB5EEC00AF1EE10FA07D4B4EE03
:104AB000670AF1EE10FAC8BFB0EE670A01E01FED19
:104AC000A70A83ED0A0A09205EE0D9785944C8296B
:104AD000A8BFC82121EAE171D97009202CE0D9F8DA
:104AE00048311A78022A1ED107EE90BAB8EEE78A4A
:104AF0005FEDB57A93ED0D0A88EE278A38EE000A4D
:104B0000B5EEC00AF1EE10FA07D4B4EE670AF1EE82
:104B100010FAC8BFB0EE670A01E01FEDBE0A83EDD0
:104B20000D0A0A2030E0597B5944C829A8BFC82182
:104B300021EAE17159730A2008F026FD6AE0D9F8EC
:104B400048311A78022A22D107EE90BA1FEDCD0A19
:104B5000B8EEE78A88EE008A93ED100A38EE000A74
:104B6000B5EEC00AF1EE10FA09D45FEDD37AB4EED7
:104B7000670AF1EE10FAC8BFB0EE670A01E01FED58
:104B8000D70A83ED100A0B2008F0E8FC42E0D97D3B
:104B90005944C829A8BFC82121EAE171D9750B2061
:104BA000CAE7012936D19078C04A32F91390B9F595
:104BB000617F05DB40F633039945A8BF994601E0C4
:104BC0004FF46179BAF10C0F24D1B94A4FF49663CE
:104BD00093FBF0F01378A9F5617999FBF0F95FFA8E
:104BE00089F94B4516D0B9F1040F34BF4B46022367
:104BF0001370B04A0AFB036303F2DA73136007F021
:104C00000DFF5046494608F0BFFC09F10100C0B253
:104C100008F076FD009A0123934094F84021134355
:104C200084F84031009B01330093019B0C330193C6
:104C3000009B042B7FF40DADC0E4D8F80030DA05FA
:104C40000FD59D4BDB7863B1DBF800309B0708D5AF
:104C5000BAF8003013F0010708D1012007F0F8FD81
:104C600004E0012007F0E4FD012300E00023D9F86F
:104C7000002057070BD553B1012007F0D9FDBAF832
:104C80000030980706D4022007F0E2FD02E002207F
:104C900007F0CEFDBAF80070884B17F0030F4FF401
:104CA000004214BF5A831A83DBF80030990609D4F6
:104CB000D9F800301A0540F18D804FF4807007F06C
:104CC000C7FD8BE07E4B1B789B074ED57D4B1B7839
:104CD000042B4AD9D9F8003013F4007B07F01007F1
:104CE0000CD0B7BB102007F0B3FD202007F0A0FDCB
:104CF0007548011D04F02AF9022326E0BFB22FB146
:104D0000102007F095FD012784F84CB1D9F8003048
:104D1000580512D5D4F850316C495A89B1F9003090
:104D2000002BB8BF5B42934207DAB1F90230002B87
:104D3000B8BF5B429342C0F2FC80BAF800309906DB
:104D400008D5202007F074FD002384F84C3101279A
:104D500000E0002794F85431A3B90E2008F096FC27
:104D60005B4B012283F854210CE017F0300F9FD0E9
:104D7000102007F05DFD202007F05AFD002384F885
:104D80004C3101E0002F93D0524B002003F1280E4C
:104D900003F15007504A002122F810104F4A596081
:104DA00022F810100432CEF8041022F8101000225D
:104DB0001A609A60CEF80020CEF808203A60796038
:104DC000BA6014330EF1140E143700287FF470AF5C
:104DD0000120DFE74FF4807007F02AFD7379082B7C
:104DE00001D00E2B02D1402007F022FDD8F8003070
:104DF0005A0519D596F81C321BB92B7813F0040FFD
:104E000003E0D9F8003013F4002F09D0344B00220E
:104E10001A703C200BF072F930B10DF06DFCF8E720
:104E20000AF05CF90BF087F8012384F8D83107B059
:104E3000BDEC028BBDE8F08F012000E002205FFA9C
:104E400080FA0AF1FF3386F8D83707F051FD07F0F2
:104E500009FE504608F054FCFFF752BBBBF1000FAF
:104E600002D07E2B3FF44AAB94F80131972B06D148
:104E7000174B4FF4C872A3F80821FFF741BBA72BCB
:104E800006D10F4A137843F004031370FFF738BBC1
:104E90000022BB2B059201D1022303E0B72B21D1C5
:104EA0004FF6FE73ADF8163027E000BF3843002000
:104EB000F44600204C170020344B0020000C024028
:104EC0005017002051170020681700203C44002094
:104ED00050130020A81400201C460020201500209C
:104EE000F1420020BE2B01D1022304E0BD2B7FF450
:104EF00007AB4FF6FE73ADF81430D9F80030BDF8AB
:104F00001410B3F864200A44A3F86420BDF8161006
:104F1000B3F866200A44A3F8662007F0E9FC07F01E
:104F2000A1FD012008F0ECFB002384F80231FFF71B
:104F3000E7BABAF800309B063FF50CAF202007F027
:104F400087FC0748074B011D1A685B6843600260D5
:104F500003F0FCFF044B012783F84C71FAE600BF15
:104F60007017002054170020501300208F4A136838
:104F7000988A80B2C1B270B5CE072ED5198821F4B7
:104F800000610904090C1980198889B241F4806113
:104F9000198000211171517999B1917911B9D179A3
:104FA000FF290ED101219171117A022901BF1988BF
:104FB00089B241F400611980517A41F001011982EE
:104FC000DFE0517A01F0FE011982D379FF2B00F066
:104FD000D880764BFF211971D3E08D073AD5BFF306
:104FE0005F8F107AC0B2012813D1517989B19179BC
:104FF00079B1198821F480610904090C1980BFF383
:105000005F8F198B1988907289B241F400711980F1
:105010001BE0198BBFF35F8F107A644902280AD115
:10502000487940B1897931B1198821F48061090446
:10503000090C19809FE0107A5C49032805D1487952
:1050400018B18979002940F09680998889B241F495
:10505000806195E04C0754D5012191725179002966
:1050600036D09179002933D0117A18880229117924
:105070001CD920F480600004000C18801C8AD568BC
:10508000C8B249B2E4B26C54198889B241F40071D3
:105090001980811C11710130198A40B2C9B229549A
:1050A000998889B241F48061998026E080B240F409
:1050B000007018801C8AD568C8B249B2E4B26C543A
:1050C000411C1C8A49B2E4B203306C54107114E0E4
:1050D0009179364809B9017C41B1198889B241F406
:1050E0000071198011790131117106E0198889B2B6
:1050F00041F480711980012181711988C905FCD49E
:105100003FE001F0400101F0FF04E1B110791E8A97
:10511000D568C4B240B2F6B22E54611CC9B2157A39
:10512000117149B2C81C854201BF988820F4806083
:105130000004000C08BF9880137A8B4221D11B4BCE
:1051400002341C711DE006061BD5117948B2451CBE
:105150000AD05469205C18820131C9B2107A1171E9
:1051600049B288420DD106E0D17919825179147182
:1051700009B9117A29B9998821F480610904090CC7
:105180009980117A92F90400084B013188420CD1C0
:1051900000219971997A31B119688B8823F4407391
:1051A0001B041B0C8B800023137670BD2C15002074
:1051B000054B5A7E02F0FF0122B10122027000224B
:1051C0005A767047017070472C150020194B73B543
:1051D0009D7E0446EDB9184B06215E6818786A4634
:1051E000B04718B39DF800209DF8013043EA022330
:1051F00023809DF802209DF8033043EA0223638058
:105200009DF804209DF8053043EA0223A380012580
:105210000CE00222D96991FBF2F10180196A5B6A04
:1052200091FBF2F193FBF2F341808380284602B0B8
:1052300070BD00BF2C1500202C09002013B50446BA
:1052400072B6104B06215B686A463B20984762B6EF
:10525000A8B19DF800209DF8013043EA0223238085
:105260009DF802209DF8033043EA022363809DF8F5
:1052700004209DF8053043EA0223A380012002B0F8
:1052800010BD00BF2C0900202DE9F0438A4E336881
:105290009A8A89B092B20192019A12F4706F1CBF7F
:1052A000012286F82820019A12F4E06F00F089812B
:1052B0001A8B9A8822F480621204120C9A80019A46
:1052C000950500F17E811A88940500F17A811A888B
:1052D000D00540F16B811A88D105FCD41A8892B2AE
:1052E00042F400721A801A889205FCD496F829209C
:1052F000714B0AB9714A03E0012A0CBF704A714A26
:105300001A6034686D484FF6FF730222012184420F
:1053100002938DF80C208DF80D208DF80E108DF86D
:105320000F10654B3DD1684D684F002283F829204E
:1053300028464FF400724FF480710AF0BFFC3B6BBB
:1053400043F002033B633B6C0DF1200843F4001370
:105350003B644FF4807348F8183D2846414606F0F8
:1053600025F94FF4007328464146029306F01EF9D2
:105370006B6A23F00F036B626B6A43F004036B628A
:105380006B6A23F0F0036B626B6A43F040036B625D
:105390003B6A43F400133B623B6A23F400133B6215
:1053A00098E0474884423FD1474D484F83F8291041
:1053B0004FF4006228464FF480610AF07FFC3B6B9B
:1053C00043F002033B633B6C0DF1200843F4800380
:1053D0003B644FF4806348F8183D2846414606F088
:1053E000E5F84FF4006341462846029306F0DEF8E4
:1053F0006B6A23F470636B626B6A43F480636B6265
:105400006B6A23F470436B626B6A43F480436B6294
:105410003B6A43F480033B623B6A23F480033B62B4
:105420004FF02208212758E026498C4252D1284FBC
:10543000264D83F82920384610224FF480710AF057
:105440003DFC2B6BDFF8808043F002032B632B6C59
:105450000DF1200943F400032B644FF4807349F8E5
:10546000183D3846494606F0A1F810234046494603
:10547000029306F09BF87B6A23F00F037B627B6A42
:1054800043F004037B62D8F8203023F47023C8F87B
:105490002030D8F8203043F48023C8F820302B6A1D
:1054A00043F400032B622B6A23F400032B6248278A
:1054B0004FF0490811E000BF2C15002000540040B7
:1054C00000580040005C00400004024000380240E8
:1054D000000002401F274FF02008A38823F44073E8
:1054E0001B041B0CA38023889BB243F00103238081
:1054F000A58825F03F052D0404A82D0C06F08EF894
:105500000699364BB1FBF3F31D43ADB2A58022885B
:1055100022F001021204120C2280314AB1FBF2F196
:1055200000298AB208BF012242F400414FF496726A
:1055300053434FF47A7293FBF2F301339BB223840B
:10554000A18323889BB243F001032380238823F4A3
:10555000816323F002031B041B0C43F4806323804C
:105560004FF4804323810025012404A88DF8108086
:105570008DF811508DF812508DF8134005F0F1FFA1
:105580009DF813308DF810708DF811508DF8125071
:105590001BB104A805F0E5FF13E07B09203307F0F9
:1055A0001F07104ABC4042F823400AE01A8892B212
:1055B00042F400721A809A8822F440721204120C8B
:1055C0009A803268938A23F470631B041B0C9382C5
:1055D0000023337609B0BDE8F08300BF40420F00DE
:1055E000804F120000E100E02DE9F0410C4C4FF437
:1055F000806580466583012017460E4607F0F4FF5C
:1056000048F080000AF032FB314638460AF0FCFAD6
:105610002583012007F0E8FF0120BDE8F08100BFED
:1056200000100240F8B5084C4FF4806517460E464E
:10563000658340F080000AF019FB384631460AF0D5
:10564000E3FA25830120F8BD00100240F8B50A4CAA
:105650004FF480650746658301200E4607F0C4FFBE
:1056600038460AF003FB30460AF000FB2583012090
:1056700007F0BAFF0120F8BD0010024073B50D46D7
:105680000646FFF7E3FF642007F0AEFF152430461F
:1056900001210DF10702FFF7A7FF9DF80730AB428C
:1056A0000CD029463046FFF7D1FF013C642007F0BB
:1056B0009BFF14F0FF04EAD1204600E0012002B075
:1056C00070BDF0B5454D95F82A3085B0002B40F0FF
:1056D0008280434B1B68002B7DD01A681AB1414968
:1056E000086B02430A639A889868ADF80020002688
:1056F000022269468DF803208DF802600CF06EFDE1
:10570000384B39485A6C42F008025A645A6C42F4D9
:1057100080425A6403274FF4806302A90124029354
:105720008DF80C608DF80E608DF80F408DF80D70BF
:1057300005F03CFF2D4B1A6922F470621A611A6958
:1057400042F440721A61D3F8002422F48062C3F854
:105750000024D3F8042422F48062C3F80424D3F88C
:10576000002442F48062C3F80024D3F8082422F411
:105770008062C3F80824D3F80C2422F48062C3F8B2
:105780000C241B4A136843F48063136001A8282388
:105790008DF804308DF805708DF806708DF807408F
:1057A00005F0DFFE134B59681A4629B1DB6823B1B7
:1057B000304607F0BDFF07E00C4602EBC4030E497C
:1057C0005960282302F834300C4B4FF480625A6140
:1057D000012385F82A3005B0F0BD00BF2C1500204C
:1057E0004009002000380240000C0240003801400F
:1057F000083C0140882E002011590008003C01405F
:1058000008B5FFF75EFF024B4FF480521A8008BDC7
:105810000C000020394AD38813B5394C0133D380AA
:10582000FFF74FFF94F82B30002B3AD1354A1388FD
:1058300023F040031B041B0C1380138823F0380350
:105840001B041B0C43F03003138013889BB243F0FE
:105850004003138080216B20FFF7F8FE322007F011
:10586000CEFE01216B20FFF709FF18211B20FFF757
:1058700005FF07211A20FFF701FF234B1920197894
:10588000FFF7FCFE10211C20FFF7F8FE1221372045
:10589000FFF7F4FE38200121FFF7F0FE012384F822
:1058A0002B301A4C174A00232380138823F040031F
:1058B0001B041B0C1380138823F038031B041B0CE0
:1058C00043F00803138013889BB243F04003138016
:1058D0006846FFF77BFC9DF90230013303D19DF947
:1058E0000030013302D023889BB223B1002306206D
:1058F000238007F01DFF02B010BD00BFBE170020BF
:105900002C150020003800404409002042340020BB
:10591000804B5A6952052DE9F34740F1F7804FF467
:1059200080625A617C4C7D4E07F042FED4F8C8304C
:10593000C4F8C800C31A962B0546338008D9E36A19
:105940001F2B0EDC04EB8302012111630B4407E0E3
:10595000E36A1F2B05DC04EB830200211163013392
:10596000E362E26A6C4B202A6ED1996B5A6B890014
:1059700041EA42011A6B0A43D96B42EAC102196C2F
:1059800042EA0112596C42EA4112996C42EA8112D0
:10599000D96C42EAC112196D42EA0122596D42EAFC
:1059A0004122996D42EA8122D96D42EAC122196EE3
:1059B00042EA0132596E42EA4132996E42EA81323C
:1059C000D96E42EAC132996FB2805A6F890041EABA
:1059D00042011A6F0A43D96F42EAC102D3F880101C
:1059E00042EA0112D3F8841042EA4112D3F8881037
:1059F00042EA8112D3F88C1042EAC112D3F8901017
:105A000042EA0122D3F8941042EA4122D3F89810D6
:105A100042EA8122D3F89C1042EAC122D3F8A010B6
:105A200042EA0132D3F8A41042EA4132D3F8A81076
:105A300042EA8132D3F8AC1042EAC132F280728875
:105A4000013272800022DA62D4F8B030324F013372
:105A5000C4F8B030324B0621D3F804C018786A4637
:105A6000E047002840D0D7F8B4C03B6AF8699DF8F9
:105A7000052007EB4C0EBEF9BC10BEF9B8A0BEF96C
:105A8000C080C1EB03097B6A9DF80210CAEB000AD3
:105A9000C8EB03089DF800009DF8013043EA0020A0
:105AA0009DF80330AEF8B80043EA01219DF80430B8
:105AB000AEF8BC1042EA0323AEF8C03008FA83F314
:105AC0007B620CF10103012BC8BF00230AFA80F0AE
:105AD00009FA81F1C4BFC7F8B4300123F861396213
