:020000040800F2
:10000000C805002089010008174901085149010865
:10001000E5010008E5010008E50100080000000016
:100020000000000000000000000000001549010869
:10003000134901080000000011490108194901088D
:10004000E5010008E5010008E5010008E5010008F8
:10005000E5010008E5010008E5010008E5010008E8
:10006000E5010008E5010008E5010008E5010008D8
:10007000E501000825480108E9460108E5010008F6
:10008000E5010008E5010008E5010008E5010008B8
:10009000E5010008E5010008E5010008E5010008A8
:1000A000E945010819460108E5010008294601084B
:1000B00009460108E5010008F945010879480108E9
:1000C00071480108754801086D480108E5010008FC
:1000D000E501000881470108E5010008DD46010847
:1000E00029490108E50100087D490108E5010008EA
:1000F000E5010008E5010008E5010008E501000848
:10010000E5010008E5010008E5010008E501000837
:10011000E5010008E5010008E5010008E501000827
:10012000E5010008E5010008E5010008E501000817
:10013000E5010008E5010008E5010008E501000807
:10014000E5010008E5010008E5010008ED3B0108B4
:10015000E5010008454601088D47010839460108B8
:10016000E5010008E5010008E5010008E5010008D7
:10017000E5010008E5010008E5010008E5010008C7
:10018000E5010008E5010008002100F004B80F4B6C
:100190005B58435004310E480E4B42189A42FFF40C
:1001A000F6AF0D4A00F003B8002342F8043B0B4BB6
:1001B0009A42FFF4F9AF0A48016841F47001016006
:1001C00014F0EAF900F010F870470000D0A501081B
:1001D00000000020C8010020C805002020460020A3
:1001E00088ED00E0FFF7FEBF2DE980488FB002F0F8
:1001F000DDF8C04C23792268254633B1A368D31AB1
:10020000002B02DB002323712373216942F20103D7
:100210000B400BB9B74803750B0740F18581A36903
:100220001B7A062B00F27081DFE813F0070007004D
:100230003500EF002C015A015A01237FAD48002BF5
:1002400000F0638100230377036A90F81DE090F8C3
:10025000248093F800C00223EF1803F1010A97F8F5
:100260002500A44E40FA0EF000F00F0060450ED2BB
:100270000B280CD897F8259006EB0A0706EB8000B0
:1002800097F8257009EA080607EB0626866302330D
:10029000102BE1D12BE194F86800964B002800F078
:1002A000B28093F8B660002083F8680093F8B50038
:1002B00006F0070740EA0720D86693F8B70000F079
:1002C0003F077F0147EAD6061E6793F8B860B6007D
:1002D00046EA901693F8B90000F0010746EA87262F
:1002E0005E6793F8BA6006F00F07FF0147EA500017
:1002F000986793F8BB0000F07F073F0147EA1616A6
:10030000DE6793F8BC60760046EAD01093F8BD60D3
:1003100006F0030740EA4720C3F8800093F8BE00C8
:1003200000F01F07BF0147EA9606C3F8846093F800
:10033000BF60F60046EA501093F8C160C3F8880029
:1003400093F8C00006F0070740EA0720C3F88C00C6
:1003500093F8C20000F03F077F0147EAD606C3F8D2
:10036000906093F8C360B60046EA901693F8C40014
:1003700000F0010746EA8726C3F8946093F8C56049
:1003800006F00F07FF0147EA5000C3F8980093F802
:10039000C60000F07F073F0147EA1616C3F89C60CD
:1003A00093F8C760760046EAD01093F8C86006F06C
:1003B000030740EA4720C3F8A00093F8C90000F003
:1003C0001F07BF0147EA9606C3F8A46093F8CA6006
:1003D000F60046EA5010C3F8A80093F8CB00C70710
:1003E0004CBF40F21476AD26C3F8AC6086074CBF14
:1003F00040F21473AD2310F0080FC4F8B0300CBFF6
:100400000123032381E003467FE094F8CD6039485F
:100410000023AEB390F8CE60B0F8D0C080F8CD30F5
:100420004FF0020E03271EFB067880440EFB060EDB
:1004300098F8D2809EF8D6E04EEA082EF44564D1B2
:1004400090F8D300012803D081285ED13B4600E01C
:100450000346102E84BF102084F8CE0094F8CEE01E
:1004600000204FEA4E0E70454FD0234F3E182637DE
:1004700096F803C0367946EA0C26C6530230F2E7F6
:10048000334642E094F818011A4B00283CD0002073
:1004900083F8180193F81901A82835D193F82C3165
:1004A00093BB05EB43009FED157A90F81C6190F823
:1004B0001D0100EB062007EE900AF8EEE77A1048DF
:1004C000C7EE877A9FED0F7A77EEC77AFCEEE77A70
:1004D00017EE906A40F823600133082BE1D106E063
:1004E00094F850318BB1034B002083F85001012365
:1004F0000BE000BFC80500209A060020CDCCCC4000
:10050000F80600200080BB430023D8070CD501204B
:100510002075AC48C3F34003037083F001032371DB
:1005200002F5C333A033A3604B0414D594F85131C2
:1005300023B1A54B002083F851010123A248237564
:100540004BB1012303719F4B00261E7002F543330C
:1005500003F5A0738360CF0711D594F8526194F826
:100560005301994BB0420AD001201873954883F883
:1005700053610027477002F5C330A03098608E04A5
:100580000AD50023904800F5AA769E5B002E41F024
:10059000B7860233182BF5D1237D33B98A4BD3F8B4
:1005A0006C31D31ADB43DB0F00E001238BB1D4F8AD
:1005B0007031D21A12F1500F03D4834B93F8743177
:1005C0003BB105F0F1F9012384F8753184F87431F9
:1005D0003AE1D4F878217C4B0132002AC8BF0022CE
:1005E0000806C3F8782140F12F81D4F87C31B3B9E3
:1005F00094F88031013B042B00F22681DFE813F0F0
:100600001600160016001101EC006F4BD3F87C01A8
:1006100009F008FE0EF082FC08B10AF05FFAD5F886
:100620007C0109F004FE0028EFD1E1E7D4F8A02115
:10063000654E177817B1012F13D005E1012B00F299
:100640000381624B96F88121D6F87C010C2101FBD5
:10065000023292F8312003EB8203196909F0DDFDC3
:1006600067E0D6F87C0109F0C8FD002800F0EC80B6
:1006700096F88031022B47D0032B56D0012B40F047
:10068000E380534BD6F898211B689A1AC72A40F288
:10069000DB80D6F89411042934D84C4AC6F8983136
:1006A0000C2000FB0121D6F87C6191F83110B7686D
:1006B0000023DFF820E15EF823E0BE45D8B204D085
:1006C0000133082BF5D1002300E003468B4206D00E
:1006D00002EB81023046116909F09FFDB4E094F805
:1006E00081310C2101FB0322576B17F8011B19B153
:1006F000304607F055FCF8E7D4F894310133C4F8DC
:100700009431A1E002209DE0304B96F88121D6F88B
:100710007C010C2101FB023292F8312003EB8203B1
:10072000196909F07AFD03208CE0D6F8A0319B7896
:100730000BB9042086E096F89C310BB986F89C71C1
:1007400094F89C31204E012B17D1D6F89431B22B5E
:100750000DD81E4AD6F87C01134493F86C1007F0AC
:100760001FFCD6F894310133C6F8943105E000231C
:10077000C6F89431022386F89C3194F89C31124ECD
:10078000022B1AD1D6F894310F2B13D8D6F8A0210A
:100790000E495278D6F87C0102EB02120A44134447
:1007A00093F8201107F0FCFBD6F894310133C6F81A
:1007B000943102E0032386F89C3194F89C31022B9B
:1007C00042D9B6E700000020C80500204C650108AA
:1007D000F84500205C650108D4F88821C84B013237
:1007E000C4F88821D4F8A021D2785AB193F8812195
:1007F0000132D2B20521B2FBF1F101EB8101521AB3
:1008000083F88121BF4B1B68C4F88C31002384F826
:10081000A43194F8A53123F0020384F8A531012016
:1008200010E0B84BD4F88C211968B54B8A1A40F601
:10083000C4118A4208D9D3F8A82122F02002C3F8B3
:10084000A82105200BF008FF09F095FA0CAE2060F6
:10085000D4F8B831AA4F304698479DF8303033B9B4
:100860003A68D7F87031D31A642B00F11785D4F8A1
:10087000C0212368A24F1344C4F870314FF000091F
:10088000D4F8B03184F8749107F5E270984707F511
:10089000E27A58B9B4F8CA31002B00F0AD80984B19
:1008A000D3F82402643011F0C7FDA5E0DFF858B298
:1008B00097F8CC215046514609F032F8BBF8003089
:1008C00007F50772002B00F08C80D7F8D0311B7829
:1008D00008EE103A07F5EA77C8468B4B8B49188823
:1008E000B0F57A7F03D1002341F809303B613AF932
:1008F00008E051F80930734441F809303B6905EECE
:1009000090EA0133012BF8EEE57A3B6106D1002332
:10091000C7ED017AC7ED007ABB6019E097ED006A78
:1009200005EE903A77EEC66AB8EEE57A86EE877AFB
:1009300036EE077A37EEC76AD7ED027A87ED017A8D
:10094000E6EE867A87ED007AC7ED037AC7ED027A84
:10095000002301282AF8083022F808302DD13B69FD
:10096000012B09DD013B00EE103AD7ED037AB8EE1A
:10097000C00A87EE800A01E09FED650A07900591A5
:10098000069215F001FA18EE103A07980599069AA2
:100990004BB1F8EEC87AB4EEE70AF1EE10FA02DDD8
:1009A0004FF47A731BE051F809304FF47A7103F574
:1009B000FA7393FBF1F322F8083008F10208B8F15A
:1009C000060F09F1040907F1140786D1012803D1A4
:1009D00006920FF021F9069ABBF80030013BABF804
:1009E000003000233AF80300D15A411A2AF80310C4
:1009F0000233062BF6D14DE709F0BDF9D4F82C32BD
:100A00002060C31AA4F82832C4F82C0203F0F0FACC
:100A1000D4F830323A4FD90240F1B980B7F8CA81E0
:100A200008F400681FFA88F8B8F1000F40F09B80C6
:100A3000384B1B785A0740F196804FF400600FF056
:100A400089F9D7F82432C7F834321A78B3F85A3013
:100A5000D4F834E294F83CA2022A18BF87F838820E
:100A60004FF47A7808FB03F8B4F8283208BF012263
:100A700098FBF3F808BF87F83822C8F100081FFA7E
:100A800088F894F83872A4F83A82002308977046E0
:100A90000EF120011A4690F856C090F8537009974D
:100AA000BCF1000F01D0674507D8BAF1030F08D891
:100AB0005FFA82FCBCF1020F03D14FF0000C80F80A
:100AC00056C0089FDFF8509047B3D1ED006ADDEDC6
:100AD000095AF2EE047A66EEA76AB8EEE57AF4EE09
:100AE000C76AF1EE10FA44BFC7EE277AC1ED007A6B
:100AF000D1ED007AFDEEE77A17EE907A19E000BFAB
:100B0000C8050020F8450020CE160020D807002098
:100B100000000000C8160020060800200EEB020CA2
:100B2000099F9CF801B0BB4538BF8CF801709CF858
:100B30000170BF0129F80370BC4F07F5117C4FF01D
:100B4000000923F80C90013207F24A2C032A23F8FB
:100B50000C8000F1010003F1020301F104019AD1BC
:100B6000012387F85032B4F8CA31B04F1B051AD4AC
:100B7000AF4B1B7803F0040303F0FF089BB997F811
:100B8000503283B111F04EFC87F850820BE0B7F879
:100B9000CA31180507D5A64B1B78590703D54FF462
:100BA00000600FF005F9DFF8A08298F80230B3B1C9
:100BB000B4F95822B4F80E349A4210DC9B4B93F8E7
:100BC0007D32012B01D0192B02D194F85E2432B969
:100BD0000E2B04D0082B1CBF0023A4F8803AD4F8B5
:100BE0002492924F99F824A1BAF1000F37D0B7F8A8
:100BF000CA319A0733D007F6842393ED080ADFED54
:100C00008D7AB7F882BAB4EEE70AF1EE10FA22D97B
:100C100015F05AF807F6A827D7ED007A20EE270A34
:100C200015F008F8B0F5617FA8BF4FF4617005EECC
:100C3000900ADFED817AB8EEE50A80EE270A07F028
:100C40006FFC06EE90AAF8EEE67A27EE800A14F022
:100C5000F1FF80B200E000205844A4F8820AD4F8E2
:100C6000A831724F9B0640F18B80B7F8CA3103F070
:100C70003003002B00F0848097F8A531D8077FD58A
:100C8000B7F9B02ADFED6D7ADFF8C0A10A2392FB35
:100C9000F3F308EE103AB8EEC88A28EE278AB0EED1
:100CA000480A07F03DFCF0EE408AB0EE480A07F033
:100CB00097FCD7F8B43AB7F9BE0A93F803B0B0EE90
:100CC000409AB2EE048ABBF1000F37D0B7F8BA2AC7
:100CD00093B212B2801A069308F004F8CBF1000721
:100CE000B842069B03DB5845A8BF584600E038468B
:100CF000B4F8B82A0344B4F9BC0A91B212B29BB258
:100D0000801AA4F8BA3A0591069307F0EBFFB842AF
:100D10000599069B03DB5845B4BF07465F460F4461
:100D2000BFB2A4F8B87A1BB23FB207EE903A05EE14
:100D3000907AB8EEE77AF8EEE56A09E006EE900AF6
:100D4000B7F9BC7AB8EEE67A06EE907AF8EEE66A83
:100D500068EEE67AE7EE097A26EE899AC7EE887A97
:100D6000A7EE289AFDEEE77A89EE089A17EE903AF8
:100D7000BDEEC99AAAF8003019EE103AAAF802306E
:100D80002F4B0093B4F8E223D4F8C01AD8F80470BB
:100D900009F164034846B8470FF026FED4F8C4AA08
:100DA0009AF90830ABB994F8C89A09F1FF33182BB7
:100DB00000F28880DFE803F03386866286868659F3
:100DC00086868686866E8686868686627A86866E23
:100DD000330000271B4BBAF9062003F5886944202D
:100DE00000FB073039F9071007F002FCD5F8203F67
:100DF00080B2C7EBC70227F809001A4400B2B2F963
:100E00000030B2F90220984203DB13B29842B8BF17
:100E1000034629F807300237102FDBD1C3E79AF8D1
:100E20000430ABB10020B4F81A1F1AE0C805002046
:100E3000C81600208FC2753CEFB6B04435FA8E3C20
:100E4000C60900209810002000000020CA160020CB
:100E5000B64B1B7803F0040303F0FF00002BE1D135
:100E6000014608F005F801272DE00020B4F8161F10
:100E700007F0FEFF0120B4F8181F07E00020B4F8C7
:100E8000181F07F0F5FFB4F81A1F012007F0F0FF54
:100E9000022718E00027A64B03EB4703F8B2998816
:100EA000013707F0E5FF062FF5D10CE00027A04B36
:100EB00003EB4703F8B2D988013707F0D9FF042FB5
:100EC000F5D100E00027D4F810A01AF0200F02D1CD
:100ED000B9F1050F0CD13846B4F8101F07F0C8FF60
:100EE000781CC0B2B4F8121F07F0C2FF0237FFB27D
:100EF0001AF4001F05D194F8243F9BB110F0CCF9EF
:100F000010E04FF000098B4B03EB490307EB09009E
:100F1000C0B2198907F0ACFFB9F10D0FEBD009F1A0
:100F20000109F0E7B4F8CA312BB9834BD3F8240296
:100F3000643011F081FA814B1878002840F0AE81BE
:100F400022697D4B110340F1A98193F8252F023AC4
:100F5000052A1ED893F8702A32B1012A09D107F068
:100F6000FFFEC0F17F0004E0D3F8280F03689B6800
:100F70009847D4F82C3F94F8302F1344B3F5807F72
:100F8000A8BF4FF480738342D4BFC4F82C3FC4F889
:100F90002C0F94F8253F023B082B00F27981DFE803
:100FA00013F00900430069007F009800AA003E0189
:100FB0005B016801624B1A68D4F8383F64339A4287
:100FC00040F26681402013F021F9002840F0608152
:100FD0004FF040085B4BD5F8342F574F1A449946D1
:100FE00092F8740178B113F053F9D7F82C1F013936
:100FF000C7F82C1FD7F8341FB8F1010801F101011F
:10100000C7F8341FE6D1D4F8342F4B4B4A4492F83A
:101010007421002A40F03C81C3F8342F4FF0FF3296
:10102000C3F8382F03221CE024230093464B01937E
:1010300003F10C0202924920A3F10A02502102336B
:101040000CF0D4FD002840F0238122693A4B12F0C5
:1010500080024FF0FF3107D0C3F8340FC3F8381FB8
:10106000042283F8252F13E1C3F8342FC3F8381F67
:101070000622F6E7354A02230021009301910291EE
:10108000482002F108030CF0B1FD002840F0008177
:101090004FF0FF33C4F8383FC4F8340F0523BBE0EA
:1010A000072300932A4B019303F10C02029247207D
:1010B000A3F10802002104330CF098FD002840F051
:1010C000E7804FF0FF33C4F8383FC4F8340F0623ED
:1010D000A2E0204A052300210093019102915320B0
:1010E00002F108030CF082FD002840F0D180C4F822
:1010F000340F072390E0402013F088F8002840F0D8
:10110000C780D4F8343F0C2B7DD8DFE803F0070B01
:101110002B2F354044484C505D676B000E4813F050
:1011200011FA6AE00D480E492EE000BFC8160020F3
:10113000D81400201A080020C8050020D11600206D
:10114000F84500204C6501082A670108D0680108AD
:10115000E8680108346901084C77010866770108DE
:10116000AC900108C348C449C44A44E0C44894F858
:101170006E1A94F86F2A3EE094F8483AC1480C225F
:1011800002FB035393F84A1A13F0DCF935E0BE482A
:10119000B4F8B813F8E7BD48B4F8BA13F4E7BC489C
:1011A000D4F8BC11F0E7BB48B8F80810ECE7D4F865
:1011B0003C2FB94BD20403D5B84893F8F013E3E7BA
:1011C0000B22C3F8342F18E0B54894F8F41394F8C0
:1011D000F52394F8F33313F0B5F90EE0B148B4F801
:1011E000401FD1E72269AC4B170506D5AE48B3F8CE
:1011F000F813B3F9F62313F0A5F9D4F8343F01330B
:10120000C4F8343F44E013F031F8002840D04FF4E4
:101210008053A4F8423F092384F8253F38E0D4F8EE
:1012200030329D4F980114D5B7F8443F8BB9D7F8A9
:10123000483F0C930E203B680D9331460CF08CFD1B
:101240004FF48053A7F8423F092387F8253F11F058
:10125000E3FF07F0B3FB1BE094F84C2F8E4B002A02
:10126000F5D0D3F830229101F1D4082283F8252F4C
:10127000EFE78E4B1A68D4F8383FC8339A4203D947
:1012800010F0E8F80123C7E712F0F0FF0028F7D1CB
:1012900008F0F8F910B1012384F8253F844B1F783A
:1012A000002F40F05A8522697B4B520540F155854D
:1012B00093F84D2FB3F8C693DFF8F081002A00F0C1
:1012C0002082D8F80020D3F8501F511A7C2940F210
:1012D0001882C3F8502F93F8542F013283F8542FFB
:1012E00007F12400DFF8B0A1C0B208F0E7FF0AF66A
:1012F000567333F9173007EE103A6E4B1B8907EE21
:10130000903AB8EEC77AF8EEE77A0137C7EE277A57
:101310009FED697A67EE877AFDEEE77A17EE900A1D
:1013200000B208F0E3FF032FDAD1302008F0C6FF47
:10133000002008F0DBFF08F0D1FF9AF8547F17F087
:10134000030723D1DAF8502F41F288339A420BD9A0
:10135000102008F0B3FF384608F0C8FF212008F03D
:10136000ADFF384608F0C2FF142008F0A7FFB4F91B
:10137000B00A0A2390FBF3F008F0B8FF1C2008F035
:101380009DFF002008F0B2FF08F0A8FF94F8543F3A
:10139000414F5B0740F08F81022008F08FFFB7F9C3
:1013A0005C0F0A2390FBF3F008F0A0FF0320B7F9CD
:1013B00082AA08F083FF414B1B784FF0050B9AFB84
:1013C000FBFA58071FFA8AFA0ED507F2FE30494693
:1013D0000EF004FC28B93B6913F0100F18BF4FF052
:1013E000000A0FFA8AF005E0D7F8603F9B89B3FB4B
:1013F000FBF000B208F07AFF2369274F990740F10C
:10140000B680DFF8BCA0B7F8643F9AF80020B7F8C0
:1014100066BF4FF0640909FB03234FEA0B1B520020
:10142000B3FBF2F31FFA8BFB4BEA032B1FFA8BFB88
:10143000C3F303234BEA030B062008F03FFF0FFA28
:101440008BF008F053FFB7F8662F9AF8003001329E
:1014500092B292FBF3F103FB1123A7F8663FD7F892
:10146000683F9B7B012B2DD1392008F027FFB7F96E
:10147000640F43E07B7701088F7701089B770108B1
:10148000A4770108B5770108BF770108CE77010876
:10149000DD770108ED770108C8050020F77701081E
:1014A000047801081D78010828780108F845002013
:1014B000D11600200000002000007A44C816002049
:1014C00010000020B7F8643F6E275F43152397FB99
:1014D000F3F7BFB23A2008F0F1FEB7FBF9FA0FFAC2
:1014E0008AF008F003FF3B2008F0E8FE09FB1A70C1
:1014F00080B205300A2390FBF3F000B208F0F6FE4C
:10150000282008F0DBFED4F86C3FAC4F0A2293FB96
:10151000F2F000B208F0EAFE042008F0CFFED4F8A2
:10152000603FD7F8700F9B894FF6FF729042A8BFBB
:10153000104620EAE070BBB1181A07EE900A9FED42
:10154000A07AF8EEE77A05EE903A67EE877AB8EE81
:10155000E57AC7EE877AFDEEE77A17EE900A6428FF
:10156000A8BF642020EAE07000B208F0BFFED4F803
:10157000A831924F9A0640F1948097F8A5319B07C5
:101580001FD5112008F09AFEB7F8740F8D4B4FF459
:10159000F36909FB00F090FBF3F000B208F0A6FE3F
:1015A000192008F08BFEB7F8743F09FB03F9642398
:1015B00099FBF3F999FBF3F203FB129000B208F0E8
:1015C00095FE94F8A531B4F8767F13F0020F08BFAA
:1015D0000027012008F072FE38B208F087FE0920CB
:1015E00008F06CFE002008F081FE774B94F8A4719F
:1015F0001B88B3F5967F0BD9704A92F8542F02F0EE
:101600000F02072A04D842F20F77BB42B8BF1F4629
:10161000052008F053FED4F8683F5B7B0BB938B265
:101620001AE0203F07EE907A9FED687AF8EEE77AAD
:10163000FEEE006AC7EE877AB6EE007AF5EEC07A63
:10164000F1EE10FA48BFB0EE667A77EE877AFDEEDB
:10165000E77A17EE900A00B208F048FE94F8A52148
:10166000564B900703D493F8782F012A04D1012315
:1016700084F8783F56481AE0D3F8683FDFED557A92
:1016800093ED017A27EE277ABDEEC77A8DED0C7ABD
:1016900093ED027A67EE277AFDEEE77ACDED0D7ACB
:1016A00004E04D4B93E8030086E80300304608F061
:1016B00028FE08F013FE94F8543F282B21D13F4B0D
:1016C000D8F80060002283F8542F4FF47A73B6FBE9
:1016D000F3F917203C2608F0F1FDB9FBF6F7B7FB4C
:1016E000F6F006FB1070000200B208F0FFFD1820B3
:1016F00008F0E4FD06FB179000B208F0F7FD08F0D3
:10170000EDFD94F8843F2D4E002B00F0658108F02C
:1017100032FBD6F8883F314AC31A9342074640F25B
:10172000DE80002386F88E3F86F8903FB6F8643F4F
:10173000D8F80010DAB21B0A86F8AB3F86F8A13F52
:10174000D6F8B83F86F8AA2FC91AD6F8BC3F86F853
:10175000A02FDB7B4FF47A725A4391420ED3204B79
:101760001B68C6F8B83F96F8C03F013B012B05D86F
:10177000102386F88E3F022386F8903FD4F86C1F22
:101780000E4B0A2291FBF2F184F8A81F091284F88B
:10179000A91FD4F8701F91FBF2F294F8A51184F8F8
:1017A000AC2F121284F8AD2F890794F8A42184F885
:1017B000DB2F17D42D2283F8DC2F8EE0C805002004
:1017C0000000C842A0860100120000206666E63FC5
:1017D000441500208096184B5C6901083F0D0300FA
:1017E000F8450020D4F87C6FD048DFF85883D4F84F
:1017F000801F042A96FBF0FE8CBF3322322208FBA6
:101800000E6983F8DC2F4FF0060CC94B0EEB8E0EE1
:101810000CFB09F90EEB8E0E99FBF3FA4FEA8E0ED4
:101820004EFA8AFE1FFA8EFE91FBF0F084F8CBEFA1
:101830004FEA1E2E84F8CCEF08FB001EF60F0CFBBF
:101840000EFE84F8CA6F9EFBF3F6642203FB1A991E
:1018500003FB16E393FBF2F384F8D23F1B12C90F8C
:1018600084F8D33FB4F8743F84F8CF1F24214B434E
:1018700099FBF2F993FBF2F2B4F8EE3F84F8C82F2B
:10188000C2F3072284F8C92F84F8D43FB4F8762F26
:1018900084F8CD9F1B0A00EB800084F8D53F0A2313
:1018A00000EB8000B2FBF3F3800003F5FA739BB208
:1018B00040FA86F080B284F8D63F1B0A4FEA292905
:1018C00084F8D00F84F8D73F000AB4F8F03F84F8CA
:1018D000CE9F84F8D10F84F8DD3FC4F8887F94F858
:1018E000F2AF944EDFF85082BAF1000F0FD1D6F864
:1018F000F80F08F09CFC012809D90228DFF848926B
:1019000000F0098508F098FC012389F80A30D4F822
:10191000FC0F884B00285FD093F8F22F42B158F8A3
:10192000F41C854A791A40F6B736B14216D853E00E
:10193000012283F8F22F58F8F02CD3F8F80F127820
:10194000022A04D80430022110F0D4F802E0022167
:1019500008F04EFC002308F8EC3C3BE012F8F81CC1
:10196000A9B952F8F02CC3F8FC1F127883F8F21FC3
:10197000022AD3F8F80F04D80430012110F0BAF885
:1019800002E0012108F034FC08F056FC22E00139A5
:10199000C9B202F8F81C12F8EC6C12F8EBEC51B971
:1019A000711C0EF1010E02F8EC1C02F8EBECD3F8FE
:1019B000F80F31460CE010F8011BC3F8FC0F0E4481
:1019C0000EF1010ED3F8F80F02F8EC6C02F8EBEC14
:1019D00006F0E6FA48F8F47C574E16F8EA3C37462B
:1019E000E3B156F8E83CCBB156F8E43CB3B146F865
:1019F000E03C1B68514A46F8DC3C56F8D83C13449E
:101A000093F8180405F088F908F03EF856F8D83C29
:101A10000133092B88BF002346F8D83CDFF82CA1FE
:101A200016F8D43CDAF80080434AD146002B00F087
:101A3000948152F8D03C33B112F8CC3C013B012BDD
:101A40008CBF00230123D80740F1878157F8D00CC1
:101A5000394E08F0ECFBF0B156F8D00C08F0E2FB80
:101A600016F8CB2CD9F800307E2A834610D10222FA
:101A70001B2806F8CC2C0BD156F8D00C069308F096
:101A8000D6FB069B20B946F8C83C012306F8C43CA7
:101A900007F8CBBCDAE7DAF8002056F8C83CD31ACE
:101AA00041F65832934224D9032306F8CC3C54E142
:101AB00013F8C31C224A32F8110018B903F8C30CFA
:101AC0004FF4036017F8C32C1B4E0132D2B2B0F5AD
:101AD000C06F07F8C32C78D03AD8B0F5007F6AD031
:101AE00017D8B0F5807F00F0A680B0F5887F00F0B1
:101AF000A28017F8C42C104B002A00F02E81D9F8D0
:101B00000020C8EB0202012AD2D9002203F8C42C1B
:101B100023E1B0F5806F00F0A280B0F5826F00F095
:101B2000DF80B0F5047FE4D13DE000BF80969800EF
:101B300040420F00C8050020C01600204C65010877
:101B40002C770108806967FF00000020F84500201D
:101B5000B0F5006F40D00CD8B0F5E26F78D0B0F59A
:101B6000E46F78D0B0F5E06FC3D1BE4BB3F9561F28
:101B700073E0B0F5036F06D0B0F5046F62D0B0F536
:101B8000026FB6D1D4E0D5F8A821B64B9106B0D5F6
:101B900093F8A5219207ACD5B3F8743F242159439B
:101BA000123164230EE0AF4B1A699107A1D5B3F847
:101BB000643F0A21CAE02B691A059AD5A94BD3F8CC
:101BC0006C1F0A2391FBF3F1C1E02B691B0590D533
:101BD000A44BD3F8701FBAE0D5F8A811A14B890621
:101BE00087D593F8A5118E0783D5D00711D5D3F8E3
:101BF000802F82EAE273A3EBE273192103EB530314
:101C0000B3FBF1F3002A43F0004111DA43F0404105
:101C10000EE0D3F87C3F83EAE371A1EBE37101EBC3
:101C200051011922B1FBF2F1002BB8BF41F0804104
:101C30004FF400606CE0D5F8A83159077FF559AF33
:101C4000002184E0B5F9B01A01EB810149007EE082
:101C5000B5F9581F01E0B5F95A1F2C23B2E716F861
:101C6000C23C0133DBB2032B88BF012306F8C23C20
:101C700017F8C23C42F2107159437B4B1B78DA07CC
:101C800048BF01319E0748BF02315807754BB3F872
:101C9000CA3148BF0431DA0748BF0A319E0748BF3E
:101CA0001431180648BF2831DA0548BF28315E07CD
:101CB00048BF6431180748BFC8319A0548BF01F5CD
:101CC000C8719E0648BF01F57A71D80648BF01F574
:101CD000FA615A0648BF01F57A614FF4806017E057
:101CE000D5F8A8115F4B11F0200A17D093F8A52161
:101CF00093F8A43112F0020F0CBF00214FF47A7157
:101D000012F0010F0CBF00224FF4FA621144194483
:101D100008F0A0FA002307F8C43CEAE61B691B069A
:101D20007FF5E7AE514608F095FA06F8C4ACE0E658
:101D30004C4BD3F8A82191067FF5DBAE93F8A52193
:101D400092077FF5D6AEB3F8763F6421594308F089
:101D500081FA002306F8C43CCBE6D4F810A01AF4AC
:101D6000803F3EF446AA414E16F8C13C3746002B50
:101D70003EF43FAA3E4B1A7802F0FF03002A7EF49D
:101D800038AA384ADFF8FC80D2F8302212F4804FAB
:101D90000DD098F80B206AB1364A1168364A99502E
:101DA0000433802BF8D10AF065FC002300E0012306
:101DB00088F80B3098F80B30002B3EF41AAA07F085
:101DC000DAFF56F8403CC31ADB43DB0F089356F8A2
:101DD0003C3CC31A6FEA030956F8383CC31ADB438C
:101DE000DB0F0993089B80464FEAD9792BB9099BF1
:101DF0001BB9B9F1000F3EF4FCA94FF0000B17F826
:101E00002C2C1A495FFA8BF3934261D251F8340CAF
:101E10009A0000EB020CBCF8020010F4006F0ED127
:101E200010F4805F0A4406D09CF8010051F8301C81
:101E300051F8201001E00F49096842F8C01CBCF8B5
:101E40000220D10520D492053FD5074A12785007C9
:101E500054BF0A4A0A4A07EB8303126843F8C02CAE
:101E600033E000BFC8050020C8160020C0160020BF
:101E7000D016002028770108001600204C650108C4
:101E8000586501080000002018466146A44A0693E0
:101E9000CDF81CC00EF0E0F9B5F8CA21069BDDF8BC
:101EA0001CC012F0400F03D0184661469D4A0AE05C
:101EB000910703D5184661469B4A04E0D00704D534
:101EC0009A4A184661460EF0C7F90BF1010B96E7E6
:101ED0004FEA820E0023734521D057F8341C194471
:101EE0004988490519D59249B5F958C2C8580A9088
:101EF000ACF57A7C782000FB0CFC4FF47A7033F858
:101F000001B09CFBF0FC0CF22B1CDC4440F267108F
:101F10009CFBF0FB00FB1BC058520433DBE7B9F11C
:101F2000000F2BD008F5C33316F82B1CA03346F84E
:101F30003C3C804B11BB1AF0020F03F82A1C05D061
:101F400094F8C01F11B1012103F82A1C1AF4807FF4
:101F500009D016F8251C774B29B113F82A1C41F03B
:101F6000020103F82A1C744B1B7813F0050F05D1EE
:101F700016F82A3C43F0040306F82A3C16F82A0C0B
:101F800020B96C4B13F82B3C002B53D016F82B3C8C
:101F900013F0010FA3F10C0C1DD1032B07D86749D7
:101FA000DFF8B0A110F0040F18BF514600E06349FC
:101FB000043B072B04D8624B10F0010F18BF1946E1
:101FC0005FFA8CFCBCF1030F12D85E4B10F0020FCD
:101FD00018BF19460CE05FFA8CFCBCF1030F06D861
:101FE000564B594910F0020F08BF194600E05349FB
:101FF0004FF0000C5FFA8CF393420ED257F8343C4A
:1020000003EB8C035B881B0604D5494BD1F800A079
:1020100043F82CA00CF1010CECE7B9F1000F13D040
:1020200058B116F82B2C434B0132D2B2142A09D1E5
:10203000002207E0B9F1000F06D016F82B3C002B68
:10204000EFD101E003F82B2C089B1BB3B4F97E3AC7
:10205000B4F97C2A3221002AB8BF5242002BB8BF03
:102060005B4293FBF1F392FBF1F1DBB2C9B28B421D
:1020700038BF0B46354A0BB192FBF3F2424446F8A7
:10208000402C16F8042C2B4B0AB9012200E0002248
:1020900003F8042C2179274B16F8042C39B9099B35
:1020A000002B00F0298100239E461D46C9E01AB985
:1020B000274A1A60002309E0204AFAE757F8342C2F
:1020C0001C491A445088400603D404337345F5D1A3
:1020D000E5E7B5F97C0A19283EDD92F800C091F8D1
:1020E000049008680CF00F0ACA4509DC91F80590C5
:1020F000B9EB1C1F04DCC039D0F800C043F801C0A4
:1021000092F800C097F806900A490CF00F0ACA45E9
:1021100048DB91F80590B9EB1C1F43DC3FE000BFA2
:102120006E690108746901087A690108806901080B
:1021300000160020C0160020C816002028770108CD
:10214000506501085465010858650108400D0300F9
:10215000866901084C650108193023DA92F800C03D
:1021600091F8049008680CF00F0ACA4509DC91F850
:102170000790B9EB1C1F04DBC039D0F800C043F84E
:1021800001C092F800C097F8069083490CF00F0A3E
:10219000CA4507DB91F80790B9EB1C1F02DBC03979
:1021A00000685850B5F97E1A19291ADD92F8009086
:1021B0003879DFF8E4C1396809F00F0A82450ADC92
:1021C0009CF805A0BAEB191F05DCACF1C00CD1F8E6
:1021D000009043F80C90127802F00F0C84451EDD3D
:1021E00073E71931BFF671AF92F80090B879DFF854
:1021F000A8C1396809F00F0A82450ADB9CF805A0DE
:10220000BAEB191F05DCACF1C00CD1F8009043F813
:102210000C90127802F00F0C8445FFF656AFF87957
:10222000B0EB121FFFF651AF5C4A096899504CE7BA
:10223000594951F8341C01EB82014888000506D445
:10224000013317F82C1CDAB29142F1D834E054482B
:10225000007800F0040000F0FF0C58B1514890F8ED
:102260000CC00620F4449CFBF0F900FB19C00128C7
:1022700011DC01E075B9012557F830CC91F80190D7
:102280000CEB89013CF829A0086891F802C00B907A
:10229000C97803E0654600218C468A46DFF8FC9049
:1022A00009EB82000EF1010E29F822A05FFA8EFEE2
:1022B00080F802C0C170C3E73A4B1A7B013A12F0B2
:1022C000FF0208BF06221A73354B1B785B070CD53B
:1022D000B4F95832A3F57A7303EBC3034FF47A725F
:1022E00093FBF2F30133DBB200E001232E4A92FBB1
:1022F000F3F3434446F8383C0AF0BCF9FDF779BFE4
:1023000001230373274B00265E7002F5C333A0330D
:102310008360FEF741B999F80A302BB1C6F8F47F13
:1023200089F80AA0FFF7F3BAD6F8F43FFB1AB3F521
:102330007A6FFFF4ECAA0123D6F8F80F89F80A3077
:1023400007F070FF8146D6F8F80F07F06BFF19F021
:102350007F0F7FF4DCAA8A2803D08E280ED0FFF7E7
:10236000D6BAD6F8A8319B067FF5D1AA96F8F23FE7
:10237000002B7FF4CCAA06F6C17306E096F8F23F74
:10238000002B7FF4C4AA06F68C73C6F8FC3F2D23FD
:1023900008F8F83CFFF7BBBAC01600200016002072
:1023A000C816002000000020400D03002DE9F04F6A
:1023B0002DED068B9C4C9D4B2360A3B000236360E6
:1023C0000DF01EFA18B909F061FE0DF03DFADFF8C4
:1023D000C4B2DFF8C482964DDFF8C0A20CF0F4FB63
:1023E0009BF8003043F001038BF8003006F08CFAC4
:1023F000904BC8F80C306B6FA3608F4BC8F8083057
:102400006B6B8E4823F080036B636B6F43F08073BC
:102410006B672A6B8A4B13432B636B6B6B63AB6BE2
:10242000AB632A6C874B13432B646A6C864B134354
:1024300022AE6B6401238DF8533048F2FF7346F8E7
:102440003C3D002731464FF6FF798DF850708DF8EE
:1024500051708DF8527009F043FC7C48CDF84C90D7
:10246000314609F03DFC7A48CDF84C90314609F0F0
:1024700037FCDFF82CC2CDF808C06046314609F0C1
:102480002FFC7448DFF81C92314609F029FC724891
:10249000314609F025FC7148314609F021FC7048AD
:1024A000314609F01DFC31466E4809F019FC3046F2
:1024B00007F0E2F9A823394610226B48E36013F0D5
:1024C000A9F96A4B6A4A5A60F02288F82320072249
:1024D000DFF8D4819F601A60D8F80830CAF800305D
:1024E00099E80F0086E80F002B6BDDF808C0139801
:1024F00043F008032B632B6B43F008032B634FF46B
:102500008043ACF818304FF40043ACF8183014A9ED
:1025100009F026FC16A9159809F022FC642007F0A2
:10252000B0FD39465348A02213F074F92B6C43F0E8
:1025300013032B646B6C43F001136B644E4B4746E3
:1025400003F1C0009A7A93F80BE053F8105B02F0A5
:102550000701D20805EB82028900156A4FF00F0CC3
:102560000EFA01FE0CFA01F125EA01011162156A69
:1025700083424EEA05011162E4D10023DFF8A8800E
:1025800008F110020021995401330C2BF6D1FF23DE
:102590003A4A88F81C3088F81D3088F81E3088F8D0
:1025A0001F30374B1360374D374A042010702846D0
:1025B0003022029313F02EF914222A7002222A7676
:1025C0000522029B85F82420304A97F805B082F84E
:1025D00000B0A3F5F172A3F59173C8F8243009EBAC
:1025E000CB03DAF800505B7CC8F82830AB0644BF58
:1025F0000123C8F82830C8F820200023244A40F2DC
:10260000DC5199520233102BF8D10BA80021202263
:1026100013F000F9BBF10E0F48D00BF0EF0BBBF13C
:10262000080F46D142E000BFD416002031980008C0
:10263000003802400005FA050000000800000240D2
:10264000FF916700FFC9FE36335F070000040240B8
:10265000000802400010024000140240001802402E
:10266000001C024000200240FC45002010E000E079
:102670003F90020044440020348B0108881F002052
:10268000320A0020682200206422002090100020DE
:10269000D81400200C46002000ED00E0D8050020F2
:1026A000000C02405C8301084008002001238DF8E3
:1026B0004030052007F08AFA18B14088003018BF72
:1026C0000120C5F340038DF83330C5F380138DF836
:1026D0003730C5F340338DF82C30C5F3C03300F0EC
:1026E00001008DF82F3015F400638DF8320007D00B
:1026F00097F88231B3F1010EDEF1000353EB0E03C4
:102700008DF83030C5F300438DF83830A36AB7F840
:102710004411ADF84410003318BF01238DF839304F
:10272000C5F340538DF83A30B7F84631ADF83E3036
:10273000B7F85231ADF83C30C5F380438DF83430F2
:10274000C5F300538DF8353097F854311A1C18BF73
:10275000012205F0010BC5F3C0088DF83620E8040E
:10276000B7F850218DF82DB08DF82E80ADF84220AD
:1027700004D5C249B1F84C11ADF84410B2F5FA7F56
:1027800002D90BB9ADF8443097F8D431BC4884F87D
:102790002C300021642213F03DF89DF84030002BCE
:1027A00014BF02230023BBF1000F02D1B8F1000FC8
:1027B00000D0013309EB83034FF00009D3F8E03078
:1027C0000593CDF81090059931F809304FF6FF7256
:1027D000934200F0CD81D8B2AA4A9DF838104FEA52
:1027E000001B1B0A02EB0B0531B1DFF8D0E252F8F7
:1027F0000B10714500F0B6819DF8331041B1DFF840
:10280000C0E26968714503D12989012900F0AA81D4
:102810009DF82F1041B1DFF8ACE26968714503D132
:102820002989022900F09E819DF8301041B1DFF81E
:1028300098E26968714503D12989202900F09281C5
:10284000022B02D19DF82C1003E0012B04D19DF83E
:102850002D10002900F086819DF83A1031B19DF8C5
:10286000401019B90438032840F25481012B51D18A
:102870009DF835303BB99DF8343023B9BDF842306E
:10288000B3F5FA7F07D952F80B307F498B4202D15A
:102890007E4B0C211970FF234FF00008298984F822
:1028A000743084F875306B7B686884F87880C4F87D
:1028B0008450ADF84C108DF84E30314602238DF81F
:1028C0004F3084F83080C4F83480C4F83880C4F8BD
:1028D0003C80C4F8708084F8768084F87780039216
:1028E00009F03EFA039AA97A52F80B00424608F022
:1028F000E7FF28460DF006F9654B6649C4F88830B5
:10290000654BC4F88C30C4F8908028460A1D0BF043
:10291000C3FF27E1022B4BD1DDF810E05F488DF8B3
:102920004F305FFA8EF14FF01C0E0EFB01F100EB01
:102930000108DDF810E088F801E04FF0000C4FF0DE
:10294000010E88F802C088F80AC000F801E0697B2F
:10295000B5F808E06868C8F80C508DF84E1031469C
:10296000ADF84CE00392CDF808C009F0F9F9DDF8B4
:1029700008C0039AA97A52F80B00624608F0A0FF3B
:1029800028460DF0BFF8464BC8F81030DDF808C0F7
:10299000444BC8F814302846C8F818C008F1100194
:1029A00008F114020BF078FF049801300490D9E08C
:1029B000032B40F0AD809DF83430DFF8C48043B382
:1029C0009DF8363098F801808BB1BDF84230364A18
:1029D000B2FBF3F22846BDF844300C2192B20BF062
:1029E000EFFD04EB8803C3F85801304B0AE028469A
:1029F0000C214FF6FF720BF0E3FD04EB8803C3F8E4
:102A000058012B4BC3601E4B9A7803EBC20319226B
:102A100071E09DF835209AB198F801B04FF6FF7239
:102A200028460C210BF0CCFD04EB8B032922C3F8C4
:102A30005801204BC36098F8023008EBC3035AE0FA
:102A4000BDF8423098F801B0B3F5FA7F3ED9164A86
:102A5000B2FBF3F292B2BDF8443028460C210BF0E1
:102A6000AFFD04EB8B030D22C3F85801124BC3607A
:102A700098F8023008EBC3033DE000BF4008002097
:102A800050200020308B010800000140140000207D
:102A9000DF7C00085C170020F97D00084C1700203F
:102AA000DDB90008D17D0008001BB700697E000871
:102AB0003D7E0008097E0008797E0008000C004079
:102AC000000802400004024000000240AF4AB2FB8E
:102AD000F3F292B2BDF84430284601210BF070FDAC
:102AE00004EB8B030922C3F85801A94BC36098F883
:102AF000023008EBC3035A71A64B9A78597803EB5E
:102B0000C200013201710131856059709A7029E06B
:102B1000042B27D1DFF87C829C4A98F8023098F881
:102B200000B008EBC303012183F804B0BDF83C30CA
:102B300092FBF3F292B2BDF83E3028460BF040FD16
:102B400004EB8B030A21C3F8880198F8023008EBE4
:102B5000C3020133517198F8002088F80230013225
:102B600088F8002009F10209B9F1180F7FF42BAEA3
:102B7000884A894B127884F8A821884A1578A5F1EB
:102B800017024FF0000C022A83F800C09E461CD8A2
:102B9000236A6344D3ED007AF5EE407AF1EE10FA41
:102BA00002D1A36A83BB2AE07D4A0CEB02080FCB5B
:102BB00088E80F009EF800300CF1100C0133BCF1D6
:102BC000C00F8EF80030E3D1EBE7764B03EBC50383
:102BD000D3F814B093F810908EF80090BBF1000F6A
:102BE000DFD0CC45DDDA6E4A4FEA0C1303EB020866
:102BF0005B440FCB0CF1010C88E80F00F1E7DAF829
:102C00000030D90428D421E0664B674A03EBC503A2
:102C1000D3F8F44093F8F00082F86C02002CEED068
:102C200000238342EBDAC3EBC3016218DFF8A4810F
:102C3000D2F8009041F8089001EB080C9188ACF8AC
:102C4000041092798CF806200133EAE705F0EF03CF
:102C5000082B564B20D121E09EF800100129F5D910
:102C6000534B00228A4203F11003EFDA13ED047A8A
:102C7000F6EE007A27EE277A013203ED047A13ED9F
:102C8000057A27EE277A03ED057A13ED037A67EECE
:102C9000277A43ED037AE5E70E2D08D11A7842F042
:102CA00010021A70182D08D105F096F905E01A786F
:102CB00022F010021A70192DF5E70EF0D1FADAF8A9
:102CC000003013F4A01F02D13A4B01221A703A4A85
:102CD0003A4C13783A48DFF800B143F0040313701C
:102CE00011238DF84E3002238DF84F30236B0125D0
:102CF0002B433146ADF84C50236309F031F8314B8A
:102D0000314A1A60002007F007FA304B93E80300BD
:102D1000236B86E8030043F00403236314A913988C
:102D200009F01EF806F081FA0DF08AFD0DF016FD8F
:102D300000200FF037FA584600211022DAF8004040
:102D400012F068FD4FF6FF73099303234FF0000A5A
:102D50008DF8283014F0020304F4004904F40068EC
:102D60008DF829A08DF82AA08DF82BA05C4635D0CF
:102D700022A9174841F8645D08F0B2FF07232570C7
:102D800084F801A0A570E37029E000BF40420F0065
:102D9000697E0008502000200408002090100020C8
:102DA000801800205C830108D41600206D070020E5
:102DB00088180020EC1400200C4600200038024047
:102DC00000000240DC1D00201D9800081C85010841
:102DD00000080240411900205C1E00201D46B9F188
:102DE000000F0FD022A9022341F8643D814808F06A
:102DF00077FF0C2301222371A2716B1C07226571DE
:102E0000E271DDB2B8F1000F0FD022A9202341F802
:102E1000643D794808F064FF022301222373A27302
:102E20006B1C07226573E273DDB2744B74481A6B36
:102E3000DFF8CC9142F480021A631A6B42F004026C
:102E40001A635A6C42F480725A6408F08BFE304662
:102E500008F04CFE6B4B14934FF00008022D6A4BA8
:102E6000159334BF43464FF4806319934FF40063C6
:102E70001A934FF400531B934FF480731C934846EE
:102E80004FF40033314617951D93CDF84C80CDF8A3
:102E90005880CDF8608008F03AFED9F800305B4ADF
:102EA00043F00103C9F800305168594B0B4043F41B
:102EB00040335360574B5A68012D22F0407294BF43
:102EC0000021012122F4807242EA01225A609968AD
:102ED000514A0A4042F002029A60DA6A013D22F445
:102EE0007002EDB242EA0555DD6240460122261825
:102EF000B178002958D0215C96F803E0551C0929C7
:102F0000EDB211D9A1F10A0606EB4606D3F80C8002
:102F10004FF0070C0CFA06FC28EA0C0C0EFA06FE21
:102F20004CEA0E06DE600EE001EB4106D3F810809D
:102F30004FF0070C0CFA06FC28EA0C0C0EFA06FE01
:102F40004CEA0E061E61062A0ED8013A02EB8202F6
:102F50005E6B4FF01F0E0EFA02FE26EA0E0691403F
:102F600046EA01025A6320E00C2A0ED8073A02EB27
:102F700082021E6B4FF01F0E0EFA02FE26EA0E06AC
:102F8000914046EA01021A630FE00D3A02EB820219
:102F9000DE6A4FF01F0E0EFA02FE26EA0E06914080
:102FA00046EA0102DA6200E015460430102801D03A
:102FB0002A469CE79A68194D42F400729A609A6812
:102FC00042F480729A609A6842F001029A609A68AC
:102FD00042F080429A60B5F858214AB9B5F95A31A1
:102FE000F3B9B5F95C31D3F1010338BF002318E020
:102FF000002316E0000402400000024000380240B6
:10300000706402404C2001406C1E002000230140EF
:10301000E030FCFF00200140FDF7FFC04008002029
:10302000134613F00103A64C6AD1A649B7F95CE137
:103030004B7012B208EE902AB7F95A31DFEDA27A3E
:10304000F8EEE88A08EE103A0AEE90EA68EEA78AEF
:10305000B8EEC88AF8EEEAAAB0EE680A28EE278A27
:103060006AEEA7AA05F0BCFAB0EE409AB0EE680A84
:1030700005F056FAF0EE409AB0EE480A05F0B0FAC4
:10308000F0EE408AB0EE480A05F04AFAB0EE408A07
:10309000B0EE6A0A05F0A4FAB0EE40AAB0EE6A0AF1
:1030A00005F03EFA20EE097A69EE8A7AF0EE475A88
:1030B000E7EE885A2AEE096A69EE806AC4EDBB5AC7
:1030C000F0EE465AE6EEC85AE7EE087AE6EE486AAF
:1030D0002AEE28AA28EEC00A69EEE89A68EE898AE4
:1030E00084EDB8AA84EDB90A84EDBA8AC4EDBC5A5D
:1030F000C4EDBD9AC4EDBE6AC4EDBF7AC4EDC08A0A
:10310000724B6F4E1A6897F85F91B2F8628097F829
:1031100061A1029300210C2206F5417012F07AFBA6
:103120004FF0000B00211422694812F073FB59463E
:1031300084F810B30C2286F811B306F5457012F02E
:1031400069FB644AC4F82023232006F09AFF752007
:1031500001210DF11F020DF0C5FA029B1F46B0B10F
:103160005D4BC6F818335D4BC6F81C3358464323F5
:10317000012108AA86F814330DF0B4FA9DF8203026
:1031800003F07E038DF8203000284CD154E096F8EF
:103190002433002B2FD1524B5A6C42F010025A6448
:1031A00003238DF84F304F4B02934FF480624FF062
:1031B000010B184613A9ADF84C2003928DF84EB0C0
:1031C00008F0CEFD029B039A1A83474B1A8822F01F
:1031D00040021204120C1A801A8822F038021204DB
:1031E000120C42F030021A801A8892B242F0400269
:1031F0001A8086F824B37520012113AA0CF066FC0E
:103200009DF84C30712B01D0702B78D1052384F8B8
:103210001033432384F81433344BC4F81833344B3D
:10322000C4F81C336BE0682B06D1012386F81033F9
:103230001D2386F8143362E09DF81F3003F07E03EF
:10324000682B8DF81F3055D10223062084F81033E7
:103250000146D4F818331A4E13AA98479DF84F30F8
:103260009DF851B003F001035B000BF0010B43EA42
:103270008B0B9DF84D3003F001035BEA030B0BD081
:10328000BBF1010F01D1002303E0BBF1020F0ED10E
:10329000012386F8113332E0D6F818330C200121CF
:1032A00009AA98479DF8243013F00F0303D1032097
:1032B00006F056FF23E0042BEAD186F811B31EE096
:1032C000D41600201400002035FA8E3CEC070020B4
:1032D0007407002024850108E50601086506010839
:1032E000003802400010024000380040CDFA0008CB
:1032F0006BE80008702B04BF042384F81033484E99
:1033000094F8102300233370131F012B00F23D8625
:10331000444B45491960454959604549D96045497B
:10332000DFF830C119610421317007218CF80010D9
:1033300041490868B9F1090F40F0010EC1F800E0F9
:1033400060468B4600F21D864FF0010E0EFA09FE14
:1033500040F202210EEA0101002940F00A8640F203
:10336000FD110EEA0101002900F00386042A40F055
:10337000FD85324AC4F80423314AC4F80823314A8F
:103380000421117008224270DBF8002042F0020292
:10339000CBF80020DBF80020920704D5D4F80423F2
:1033A00002939047029B284A1B68FA214FF00009BC
:1033B000116084F825930222504684F8262398470A
:1033C000224A95F8553182F8009003B1337095F890
:1033D00056310BB11B490B7095F8573103B113707F
:1033E000DBF80030180737D50FFA88F8642398FB0C
:1033F000F3F203FB12880FFA88F807EE108AF8EE52
:10340000C76A07EE102AF8EEC77A9FED117AE6EE4A
:10341000877AB2EE047A67EE877AC4EDCA7A1EE044
:10342000940700207407002059F70008D17E000897
:10343000B57E000890C1793D7007002045F700086F
:10344000557F0008D81D002088070020E01D0020BF
:103450008988883C1C0000200023C4F82833D24B04
:103460001A8822F040021204120C1A801A8822F0E4
:1034700038021204120C1A801A8892B242F04002EA
:103480001A80CA4B1A7842F002021A70C84B4FF4E5
:1034900000425A834FF480421A834FF00A08C44E08
:1034A000736983F400437361736983F480437361C8
:1034B000192006F0E6FD012006F02EFE192006F088
:1034C000E0FD08F1FF38002006F026FE18F0FF08A6
:1034D000E5D14FF4804333834FF400433383D4F872
:1034E0002C339FEDB48A1B7BB34E00EE103AB8EE3E
:1034F000C00A20EE080A05F073F8B04B9FEDB07AD1
:10350000D3ED047AAF4B84EDCC0A1B8827EE888A72
:1035100007EE903AF8EEE77A84EDCD8AC7EE277A87
:103520009FEDA97AC7EE877AC4EDCE7A04F094FDB8
:10353000FF212122304612F06DF9A449A44BD1F8A5
:1035400000E086F8008001221EF0020F1A7030465B
:1035500004D0727003221A700222B2701EF0040F9F
:1035600004D01A78511C1970032181541A78924999
:103570001B268654561CF6B24FF01C0C00F806C0F1
:10358000961CF6B24FF01D0C00F806C0D61CF6B221
:103590004FF01E0C00F806C0161DF6B24FF01F0CBF
:1035A00000F806C002F1050C961D5FFA8CFCF6B21D
:1035B0004FF020081EF00A0F1E7000F80C8012D089
:1035C0004FF0040E01F806E0D61DF6B24FF0050EDE
:1035D00001F806E002F1090E7D4E0832D2B286F8FB
:1035E00000E006268E547B4E3268910608D5197885
:1035F00001F1010E83F800E04FF0070E00F801E042
:1036000011060ED519784FF0090E00F801E001F10E
:10361000020E0131C9B283F800E04FF00A0E00F843
:1036200001E06979082901D00E2909D193F800E059
:103630000EF1010C83F800C04FF00B0C00F80EC027
:1036400093F800E00EF1010C5FFA8CFC4FF00C08CF
:1036500012F4803F83F800C000F80E800BD0DFF832
:1036600070810EF1020E88F800E0DFF84CE14FF0B7
:103670000E080EF80C8012F0040F09D093F800E049
:103680000EF1010C83F800C04FF0100C00F80EC0D2
:1036900093F800E00EF1010C5FFA8CFC4FF0120879
:1036A00012F4806F83F800C000F80E8010D095F8F7
:1036B0001482B8F1000F0BD0DFF814810EF1020E66
:1036C00088F800E0DFF8F0E04FF013080EF80C8007
:1036D00012F4007F09D093F800E00EF1010C83F89A
:1036E00000C04FF0150C00F80EC0182917D193F840
:1036F00000E04FF0160C00F80EC00EF1010C5FFA5E
:103700008CFC4FF0170800F80C800EF1030C0EF142
:10371000020E5FFA8EFE83F800C000F80E1011034F
:1037200008D5197801F1010E83F800E04FF0190E69
:1037300000F801E0D20504D51A78511C19701A213D
:1037400081541A78511C1970142383540021982233
:10375000214812F05FF80DF03FFE2049B5F84E31D8
:10376000A4F8403300230B808B703968B5F89401BE
:103770001B4AC4F83C2301F1850C1A4984F84233F2
:103780000A6082B21849DFF86480D1F80090DFF84F
:1037900060E023F8082009F596794EF8139002337B
:1037A000242B8946EED125E0003800400C4600204D
:1037B000000C024035FA8E3CF321002074070020F3
:1037C0000AE81C410800002000401C467007002049
:1037D000F2210020D8050020EC1E002098160020C1
:1037E000C6090020E0050020F84500201A08002046
:1037F000181A0020D6F800E01EF4805F0CBFB5F860
:103800009C311346A8F8063000231CF80320B2B9F7
:103810000CEB0302917892F803A051450FD209B145
:10382000013901E00AF10101527801EB810101EB5C
:10383000810101F56171043289B228F81210043354
:10384000502BE2D11EF0080F00F0BA8095F88E31AF
:10385000062B00F2AF80DFE803F004070E35506E50
:103860006E0045F2F05201E042F6F8227C4B1A80DD
:103870000DF03EFE9DE07A4B42F6F8221A800001E0
:103880000A2390FBF3F0A0F5B0600023754A98502E
:103890000433482BFAD1744B744A5A60744B122289
:1038A00040201A7006F0D0F9002800F08380012330
:1038B0004FF0070C90F900006E4A8DE80810402187
:1038C0006D4B71E0664B42F6F8221A80664B6B4AEC
:1038D0005A60674B102240201A7006F0B5F9002894
:1038E00068D001234FF0000E90F90000644A8DE883
:1038F000084040214FF4E13356E0594B42F6F8229C
:103900001A80594B5F4A5A60594B082240201A705E
:1039100006F09AF900284DD00123002590F9000007
:10392000594A8DE8280040214FF4E1330FF0DEFEC4
:10393000C4F88C033AE04A4A544842F6F821118010
:103940004B490C22062B0A7010D00023037084F818
:10395000903384F891331B2384F89233052384F841
:10396000932384F894334FF4E1350DE00021017086
:1039700084F8901384F89113454D84F89323212102
:1039800084F8921384F89433374B424A5A604020AB
:1039900006F05AF970B1012100233F4A90F9000066
:1039A0008DE80A0040212B460FF0A0FE003018BF22
:1039B000012028B9082004F097FF2B4B374A5A60A2
:1039C00033682B4A13F4804F04D01221117026491A
:1039D0003348486042F20101194003F0010003F44A
:1039E000005581B11E4944F6206EA1F800E025B1D2
:1039F000082111701C492B4D4D6020B10C21117014
:103A00001949294848601178043951701A0640F163
:103A100089804FF00008254DDFF898A0DFF898B0B6
:103A20002348C4F898A34146152285F80180C5F8BB
:103A30000480C5F8088011F0EDFEAAF105034046A8
:103A4000CBF8003008F008FED9F80030EB60022017
:103A500006F0FAF8594688BB802004F045FF5AE08A
:103A60002A1E00203406002014000020B197000810
:103A700014220020C99F0008A0860100A197000819
:103A8000199F00088D970008CD9E00081807002098
:103A900090D003004D970008AD9D000805980008E0
:103AA000E1970008ED970008F99700084807002003
:103AB000701A0020320A00206807002090F805E004
:103AC0006B78C74A4FF00C0C0CFB032C9CF801C020
:103AD000F44504D00133DBB2042BF2D900236B7020
:103AE0000B6890F900001B78002B6B784FF00C05E9
:103AF00005FB03220CBF0121032153780091002212
:103B0000019202210FF0F2FDB64B18600028A3D0FD
:103B1000012008F0A1FD3868B34B00F5CB721A60A4
:103B200005F07EF8B14AB24B1360B24ADFF8F89262
:103B3000803313603368002513F4803F89F8005008
:103B40000DF14C0800F0C080DFF8E0B240F22A3AF4
:103B5000012705F00DF829465246584689F80070AD
:103B600011F058FEA44BDFF8C8921A6B3A431A635F
:103B70001A6C42F008021A641A6B42F400121A63BB
:103B8000022348468DF8283009A903238DF82930EF
:103B900009978DF82B708DF82A5008F0A1F8D9F804
:103BA000203023F00F03C9F82030D9F8203043F03B
:103BB0000203C9F82030914B1A8822F00102120446
:103BC000120C1A801A8822F45C721204120C1A80E9
:103BD0006822DA621D859F821A8C22F0010212048B
:103BE000120C1A841A8C9888198B22F0020221F088
:103BF000730109041204090C120C41F0600180B237
:103C00003A43988019835D631A841A8B22F0080264
:103C10001204120C42F008021A831A8809F5C049EE
:103C200092B209F140093A431A80D9F8003023F0E2
:103C30000103C9F80030484607F094FF404607F0FA
:103C400055FF4FF0406313936D4B1493402316932D
:103C50004FF4806319934FF480531A934FF48043C9
:103C60001B934FF440331D934846042341461E9353
:103C7000CDF854B0CDF85CA018951C951F952095F3
:103C8000219507F044FFD9F8003043F01003C9F83C
:103C900000305C4B4FF400129A6008A80D238DF899
:103CA00020308DF821708DF822508DF8237007F0A8
:103CB000F0FF554B1A68554BEA500435802DF8D16A
:103CC00008F0D8FC08F0D6FC33685B0553D5504BA0
:103CD000D4F8DC761F60042005F0B6FF0421C4F898
:103CE000E00605F087FF4B4B84F8E40608201F60D0
:103CF00005F0AAFF484B494D1860082105F07AFFEE
:103D0000002184F8E5062C22284611F083FD8E233D
:103D10006B704FF07C0AE0234FF07D09EB7085F863
:103D200000A085F82B903E4D2C220021284611F052
:103D300071FD8A236B701020A023EB7085F800A022
:103D400085F82B90C4F8E87605F07EFF1021C4F8C2
:103D5000EC0605F04FFF84F8F0062020C4F8F47656
:103D600005F072FF2021C4F8F80605F043FF84F83F
:103D7000FC060DF0BDFD2B4C238823F040031B04F3
:103D80001B0C2380238823F038031B041B0C238087
:103D900023889BB243F04003238000259F233220D9
:103DA0008DF824308DF825508DF826508DF8275049
:103DB00006F067F98DF84D5005F1804505F50135A0
:103DC000082709AA04236F83204641460BF0F2FD21
:103DD0002F839DF84E209DF84D30BA402AE000BF59
:103DE0007C650108440700207C1000208C16002010
:103DF000640A00209016002000380240000C0040A9
:103E0000340C004000600240A66901080016002042
:103E10003015002084150020D015002054150020F6
:103E200089150020003C0040FF150020851A002065
:103E30000000024042EA03429DF84F301A43574BBC
:103E40009A42574B17D008D856498A420CD001F5F0
:103E50001A4102318A4209D01CE053498A4205D0F6
:103E600001318A4207D015E0202200E080221A802A
:103E70004FF4807202E04FF480721A805A809A8860
:103E8000198812029A604A43DA60484A012182F88E
:103E9000FD1604E000221A805A809A60DA60DD681C
:103EA00005B3ED0AA9460027AF4208DA7C19641071
:103EB000E002414610220BF0DFFD0F2807DC0AF07C
:103EC000CBF83A4B4FEAC922C3F800270AE0002397
:103ED00058F8032001325DD10433102BF8D1A146EC
:103EE0002546E1E73368324A13F4002318BF012363
:103EF000137005F040FF2F4B18602F4B5A79052A9D
:103F0000194603D12D4B4FF4C8721A802C4B4FF435
:103F10007A721A802B4B1A7842F008021A702A4BD8
:103F20001A7822F002021A70326840F60203134037
:103F30006BB1264B264A1A60264B03221A70264B79
:103F400001221A70254A00231380254A13808B68AA
:103F50003360244B01221A70234B1A7862F07F02DF
:103F60001A7023B0BDEC068BBDE8F08F052A3FF434
:103F700000AAB9F1010F04D81C4A00211170FFF703
:103F800009BA4FF00009FFF7DFB9012006F0E8F8A1
:103F9000FFF777BA671C2C46A2E700BF18BA2000CB
:103FA00024000020152020001740EF00D416002028
:103FB000ED140020F407002040080020AC1E002073
:103FC000CE1600206D070020C816002028150020FE
:103FD000B809002088150020100000204E1E002087
:103FE000501E0020EC1400200C460020D81D00209C
:103FF0002DE9F04FC54AC64BD2F800E0B3F90600F0
:10400000BEF80A302DED028B98428FB00FDBB0F571
:10401000FA6F9EF8077007DAC21A5743A3F5FA63DE
:1040200097FBF3F7643703E0C7F1640700E0642708
:10403000B84BB3F894210292B74A93F95E31D2F8A3
:1040400000C09BB20021039365460A46B04B029C18
:1040500031F903B0C4EB0B0303F2F31640F2E6347C
:10406000A64203D8002BB8BF5B4201E04FF4FA73BD
:10407000022A4FF06406A94C2ED09CF81D81B8F19D
:10408000000F04D04345CCBFC8EB0303002393FBD0
:10409000F6F86FF0630A34F818900AFB083A08F152
:1040A000010834F918800FFA89F4C4EB080404FB02
:1040B0000AF494FBF6F4A144994C21F804900EEB19
:1040C000020424796343974C93FBF4F364339BB26B
:1040D0007B4393FBF6F630E09CF81E81B8F1000FAD
:1040E00004D04345CCBFC8EB0303002393FBF6F693
:1040F0006FF0630904EB460809FB063A04EB460639
:10410000B8F90E80B6F91040854EC8EB040404FBE4
:104110000AFA9AFBF9FA039CC8EB0A0808FB04F8B0
:10412000A6F804809EF8064083EAE376A6EBE376E1
:1041300066437C4C96FBF4F664360CEB0208774B36
:1041400098F8019003F11C044FF0640806FB09F98C
:1041500099FBF8F902F8049095F80B9003F11F040D
:1041600006FB09F999FBF8F902F8049095F8159007
:1041700003F1220406FB09F6022A96FBF8F616550F
:104180001C4616BF253383F82780D754029B644E04
:104190009B4502DA735A5B4273520231062902F1DF
:1041A000010205F101057FF451AF5A4DB5F8963182
:1041B000984205DBB0F5FA6FA8BF4FF4FA6000E053
:1041C0001846C01A4FF47A725043C3F5FA63B0FB35
:1041D000F3F34FF0640E93FBFEF204EB42016FF039
:1041E000630000FB023304EB4202098DB2F92A009E
:1041F0004B4F0AB2821A534393FBFEFE4A4B1B8875
:104200007144F18059063AD5484BDFED497AB3F94C
:1042100004200A2392FBF3F3404AB2F840209B1A91
:104220001BB208EE903AF8EEE88A68EEA78AB0EE84
:10423000680A04F0D5F9B0EE408AB0EE680A04F0DE
:104240006FF9B7F90220B7F9003006EE902A07EEB1
:10425000903AF8EEE66AF8EEE77A20EE667AA7EE94
:10426000887A67EE807ABDEEC77AE6EE887A17EE36
:10427000103AFDEEE77A3B8017EE903A7B8095F896
:104280009A31002B7BD02B4B244F1B88DFED2A0A61
:10429000B4F8428000EE103A0121B8EE400A07F16E
:1042A000440003F041FFBCEEC00A244B10EE101A8C
:1042B00089B2B8FBF1F101F1010C1B781FFA8CFCFB
:1042C000A4F84CC0002B3BD0B7F84EB00023134AE3
:1042D000F75A02F1500E02F1580033F80EA033F8ED
:1042E00000801F521AFB0BFA0FFA8CF9C8EB070873
:1042F0009AFBF9F9C84423F80E800233082BE6D163
:104300000E4BA2F84E10002018701EE088100020FE
:104310001A08002040080020EC070020E81D0020BB
:10432000441000200CFEFFFF9207002074100020B4
:1043300035FA8E3CF00700206F12833A3D070020CB
:10434000B7F84E30013BA7F84E30B4F84E10BB4AD8
:104350000BB2002B4FF000030FDDB2F94C70B84ADE
:10436000985A083210FB01F09A5A90FBF7F0121A93
:10437000F2520233082BF2D101E0A2F84E30B14BD9
:104380001A6812F0020F9A4674D0AF4B226E1B6867
:10439000AA4F9A1A45F207218A426BDD3B660BF061
:1043A000C5FFAA4BDFF8D8821A78032A9946B8F8D5
:1043B000003022D10A2B2CD90023282089F8003084
:1043C00005F05FFE0BF0B2FFB7F8640005F034FBB8
:1043D0009F4BA0491B68DA7890FBF2F0421C082A38
:1043E00028BF08220A7059791B7992B251435A4367
:1043F000A7F86610A7F868200BE00A2B09D803235A
:10440000944A89F8003000231370A7F86630A7F8A3
:10441000683099F800208D4B012A0DD002D3022A72
:104420001ED027E0B4F86620B8F800309A4221DDAB
:10443000012389F8003011E0B8F80020B4F86810C2
:10444000914202DD02221A7011E07C49B1F8661037
:1044500001318A4202DD00221A700BE0082007E0D9
:10446000B4F86830B8F8002001339A42E0DC072045
:104470000BF0D2FBDAF800703A0579D5724BE16E99
:104480001A686E4BC1EB020A45F207218A456FDDBF
:10449000DA666F4AB6F90690D2F800806E4898F84E
:1044A0000A20B0F84E116D4E012AA9F57A7903D091
:1044B00047D3022A23D046E093F88120196F03EBFB
:1044C0004202B2F88400082291FBF2FE80B2CEEBE9
:1044D0000101014491FBF2F2A3F88C0092B219673A
:1044E000B8F8080040F6E4435343C0EB13334FF4ED
:1044F0007A725343B8F9062093FBF2F322E0584B4B
:10450000B8F808B01B78C6F800B05B071BD500F5FB
:10451000C3700BF063FB20B917F0100F18BF4FF0FA
:10452000000909FB09F2322392FBF3F39944B8F92D
:1045300006304FF47A7203FB09F393FBF2F35B440A
:1045400000E0002333603368464AD4E9240103FBCA
:104550000AFA4FF47A739AFBF3FA10EB0A0041EB74
:10456000EA710023C4E9240110F03CFA3E4B1860C4
:104570003E4B1A6812F4805F984626D03E0621D53D
:104580003B4B1B7898071DD53A4B1978042919D94C
:104590000023394E05229A551E44981C0A27122BD7
:1045A000C2B2777004D0B1EB520F0346F1D800E0ED
:1045B00014222244322382F89730FF2382F8983065
:1045C0000F2000E00A200BF027FBD4F8B0301B4E80
:1045D000002B7FD0294AD6F8B4101068814291464A
:1045E00078D896F8B800B6F8BA205968002849D1AA
:1045F000012086F8B8008A5C002A4FD01A78164B42
:10460000013AD3F8FC3700FA02F21A4201D105F060
:1046100083FD012384F8BC3005F002FDB4F8BA3004
:10462000064E002B3AD1D6F8B0301B78053B012B53
:1046300034D805F0A0FBC6F8C0002FE0E81D00202C
:10464000381E0020D8050020C8050020881500204D
:1046500028150020100000204008002034150020FC
:10466000C8160020407E050038150020F8070020FD
:104670006D0700206C070020801E0020F8450020F8
:104680002C150020002786F8B8708B5C33B13846B3
:1046900005F042FD86F8BC7005F0C2FCD4F8B020ED
:1046A000B4F8BA105268B24B525CFE2A03D1002211
:1046B000A3F8BA200EE0FF2A02D105F035FD09E08B
:1046C000D9F800000A2616FB02020131C3F8B42013
:1046D000A3F8BA10A74E3378590704D5A64B4FF468
:1046E00080425A8334E0D8F80020D2075CBF43F000
:1046F00001033370A14B1B781F0703D4337823F0D9
:1047000001033370B4F8C4301BB19D4B1B6898078C
:1047100005D49C4B1B88003318BF012300E0012304
:104720003BB1022384F8BC30337823F001033370AB
:1047300005E03278D10758BF022384F8BC3005F079
:104740001AFBD4F8C830C01A002801DB05F068FC59
:104750008D4F0DF0CDF83B78002B7AD0D4F8CC30CB
:10476000002B01F01880D4F8CC00814D05F05FFDDE
:10477000002801F01080D5F8CC0005F053FD092881
:1047800001D03F2857D14FF00009D4F8D060DFF8AE
:1047900014824D4636B17D48D8F80010324611F0EB
:1047A00081F810B9C14605B94546794B08F11008A2
:1047B0009845EFD3FDB1D4F8D0302A686C4812F890
:1047C00003E0D9F80020D15C714514D15A1C61B9BD
:1047D0002D2B0AD8C0F8D020034402444FF0200EFD
:1047E00083F8D4E082F8D41005E02344C4F8D02044
:1047F00083F8D4E0DFE7D4F8D0300BB14D4510D0CA
:10480000644805F09FF94D4507D855F8100B05F0A1
:1048100099F9092005F08FF9F5E75F4805F092F95D
:104820000026D4F8D0309E429DD2584B985D05F0BA
:1048300082F90136F5E7D5F8D030002B41F00A8037
:10484000042841F0778005F1D4000CF0ADFD00F0B4
:10485000A2BF524F97F84A30012B40F09787DFF8FC
:104860004081DFF844913B68C8F80070C9F8003017
:10487000DFF834A15246106805F0D9FC002800F09A
:104880007987DAF8000005F0CDFC454A136893F803
:10489000482083461AB924283BD1012236E0012A58
:1048A00004D14D280CBF022200222FE0022A04D19D
:1048B0003C280CBF0322002228E0032A09D140280B
:1048C0004FF0000222D81A71DA71587198710422DF
:1048D0001CE0042A08D19A7983F8490080EA020B87
:1048E00083F806B0052211E0052A17D159791A7903
:1048F0009142997906D941409971511C197113441B
:1049000018720BE081420CBF0622002283F8482077
:1049100004E03278174B520740F17687DFF880A029
:104920005246136893F848B0BBF1060FA0D193F834
:10493000490002F0F1F9002840F01587DAF800206C
:1049400092F849304C2B00F0EA8400F2AE80352B0F
:1049500000F0B98258D82B2B00F0B7843ED8252B15
:1049600000F08C8422D8232B00F0188100F06FBF58
:10497000E81D0020C8160020000C02406D07002032
:1049800070070020CE160020D1160020BC1E00208B
:10499000C08D0108789001087D900108EC1E002070
:1049A000E0150020F08B0108E4150020272B00F013
:1049B0006C84292B40F04B8705F0AAF8A5F87E01FE
:1049C00005F0A6F8A5F8800105F097F885F88201B2
:1049D00005F09EF8A5F8840100F0C2BE2F2B00F070
:1049E000218504D82D2B00F0758400F030BF312BC9
:1049F00000F02D85332B40F02A8705F07EF8DF4B41
:104A000083F8900100F0ACBE412B00F0C5841AD8A9
:104A1000392B00F0498404D8372B00F0CA8400F009
:104A200016BF3C2B00F0FB803E2B40F0108705F0BA
:104A300064F8DFF8488388F8E00105F05EF888F84C
:104A4000DF0100F08DBE442B00F0358525D8432BC7
:104A500040F0FD8605F051F80023AB60687105F069
:104A600061F803F049FF05F048F885F88E0105F07C
:104A70004FF8A5F8580105F04BF8A5F85A0105F0D4
:104A800047F8A5F85C0105F043F8A5F87E0105F0AC
:104A90003FF8A5F8800100F063BE482B00F0848346
:104AA0004A2B00F05D8600F0D2BED12B00F0A78328
:104AB00020D8CC2B00F030820FD8C82B64D004D87B
:104AC0004E2B00F03B8400F0C2BEC92B00F06F8378
:104AD000CA2B00F0BD8000F0BABECE2B00F056838A
:104AE000C0F04B83CF2B00F06B82D02B00F03A83C9
:104AF00000F0ADBED82B00F055810DD8D32B3DD0A2
:104B000029D3D42B00F0A282D62B08BF4FF0000887
:104B100000F0918200F09BBEF22B00F0E78212D8E9
:104B2000EF2B40F09486DFF87082D8F8009004F004
:104B3000EFFFA9F86600D8F8008004F0E9FFA8F8B4
:104B4000640000F00DBEF32B00F0CA84FA2B00F0D5
:104B5000278300F07CBE337803F0040303F0FF08E2
:104B6000002B40F0FD8504F0C8FF844B022883F839
:104B7000D00740F2FD8283F8D087F9E204F0C8FF45
:104B8000A4F8A40100F0ECBD92F805804FEA5808A3
:104B9000B8F1120F1CD84FF000091DE004F0ADFF72
:104BA000132815D8DFF8F091D9F8003000F1200A69
:104BB00003EB8A0A04F0A1FF714B0AF1050803F523
:104BC000CC72197A814200F05D810C339342F8D1A6
:104BD00006F012FD00F0C4BDC14507D204F098FFF5
:104BE00005AB23F8190009F10109F5E70023434556
:104BF000644A06DA05A931F8131022F813100133BC
:104C0000F5E708F1FF3802EB48032232934203D064
:104C1000002123F8021FF9E701225B4BBEE2DFF817
:104C20007881D8F8009004F068FF18B10228A8BF76
:104C3000022000E0012089F80000D8F800301B783D
:104C4000022B524B14BF524A524A1A6000F088BDE0
:104C5000514B1A681278022A4FF00008994670D119
:104C6000D9F800A004F049FF07EE100AF8EE477AE1
:104C7000B2EE048AC7EE887A0AEB8803D9F800A05E
:104C8000C3ED087A04F039FF07EE900AB8EE677AB0
:104C9000DFED427AC7EE277A0AEB8803D9F800A045
:104CA000C3ED0B7A04F029FF07EE900AB8EE677A9D
:104CB000DFED3B7AC7EE277A0AEB880308F101089B
:104CC000B8F1030FC3ED0E7ACAD1B8F1070FD9F8C6
:104CD00000A01CD104F011FF07EE100AF8EE477A8D
:104CE000C7EE887ACAED117AD9F800A004F005FF62
:104CF00007EE100AF8EE477AC7EE887ACAED127A04
:104D0000D9F800A004F0F9FE8AF84C0012E004F093
:104D1000F4FE0AEB08035870D9F800A004F0EDFE89
:104D20000AEB0803D9F800A0D87204F0E6FE0AEBFB
:104D30000803587508F10108B8F10A0FC5D100F051
:104D40000FBDD9F800A004F0D8FE0AEB0803587094
:104D5000D9F800A004F0D1FE0AEB0803D9F800A0AE
:104D6000D87204F0CAFE0AEB080308F10108B8F192
:104D70000A0F5875E5D100F0F3BC00BF40080020D1
:104D8000C08D01088E1F002019070020040000209C
:104D90007DA30008211B0108EC0700200000C84289
:104DA00000007A448046DFF8AC939FEDE68AD9F89C
:104DB00000A004F0ADFE07EE100AF8EE477A0AEB09
:104DC0008803C7EE887AD9F800A0C3ED087A04F00A
:104DD0009FFE07EE100AF8EE477A0AEB8803C7EE4B
:104DE000887AD9F800A0C3ED0B7A04F091FE07EEA3
:104DF000100AF8EE477A0AEB8803C7EE887A08F1C2
:104E00000108B8F1030FC3ED0E7ACCD1B8F1070F4A
:104E1000D9F800A01CD104F07BFE07EE100AF8EED2
:104E2000477AC7EE887ACAED117AD9F800A004F063
:104E30006FFE07EE100AF8EE477AC7EE887ACAEDE1
:104E4000127AD9F800A004F063FE8AF84C0012E050
:104E500004F05EFE0AEB08035870D9F800A004F0D5
:104E600057FE0AEB0803D9F800A0D87204F050FEF0
:104E70000AEB0803587508F10108B8F10A0FC5D10B
:104E800000F06EBC1B788AF8053004F036FE88F816
:104E9000010004F032FE88F8020004F02EFE88F8CB
:104EA0000300A94BD9F80000C3F8D001A74AC3F802
:104EB000CC218530002104F04DFFA54B80F001008E
:104EC000187000F04DBC04F018FE0B283FF680AEC1
:104ED000A04B0BFB00FB1B680BF1D00B9B4404F0B9
:104EE0000CFE03283FF674AE8BF80A0004F005FEB2
:104EF0008BF8050004F001FE8BF8060004F0FDFDC0
:104F00008BF8070004F0F9FD8BF8080004F0F5FDBC
:104F10008BF8090000F024BC5379092B7FF658AEBA
:104F20008D4AD2F8008004F0E8FD8B4B88F8000031
:104F3000D3F8008004F0E1FD88F8010004F0DDFD05
:104F4000854A13686428A8BF6420187104F0D5FD51
:104F5000814A13686428A8BF6420587104F0CDFD0D
:104F60007D4A1368FF28A8BFFF20987104F0C5FD93
:104F7000794BD3F80080642828BF642088F80700A4
:104F800004F0BBFD744A88F80200D2F8008004F0F7
:104F9000B4FD714B88F80300D3F8008004F0B8FD2D
:104FA000DAF80030A8F80A005B790A2B40F2D883BF
:104FB000694BD3F8008004F0A0FD88F80800CFE327
:104FC00004F0A6FD6FF4AF6E00EB0E039BB2C62B90
:104FD0009CBF624BA3F8940104F09AFDA5F8400130
:104FE00004F096FDA5F8420104F092FDA5F84401F5
:104FF00004F08EFDA5F8D80104F07FFD85F8ED01E1
:1050000004F07BFD04F079FD85F8EE0104F075FDF8
:1050100085F8830104F071FD85F8900104F06DFDC1
:105020004C4BD3F8008004F073FD00EB800040008F
:10503000A8F8620038E104F06BFD494B23F8080042
:1050400008F10208B8F1100FF5D189E353790F2B5D
:105050007FF4BEAD04F051FD072880463FF6B8ADA1
:10506000DFF8F090D9F800A004F052FD0E2303FB06
:1050700008F80AEB0803D9F800A0A3F8250104F00A
:1050800047FD0AEB0803D9F800A0A3F8270104F0B4
:105090003FFD0AEB0803D9F800A0A3F8290104F0AA
:1050A0002CFD0AEB0803D9F800A083F82B0104F0CB
:1050B00024FD0AEB0803D9F800A083F82C0104F0C2
:1050C0001CFD0AEB0803D9F800A083F82D0104F0B9
:1050D00014FD0AEB0803D9F8009083F82E0104F0C0
:1050E00021FD09EB0803C3F82F0139E304F005FDA6
:1050F0000F2880463FF66CADC8EBC80804F0FDFCF5
:1051000005EB080303F1D00883F8D00004F0F5FCA8
:1051100088F8010004F0F1FC88F8020004F0EDFCCE
:1051200088F8030004F0E9FC88F8040004F0E5FCCA
:1051300088F8050004F0E1FC88F8060002F04CFF56
:105140000EE300BF00007A44E81D00208009002023
:1051500002000020EC0700208810002040080020FA
:10516000BC1F00203378590700F1FA8206F08EFF49
:105170000AF06AFB09F028FDF2E233785A0700F1E1
:10518000EF824FF4C873A4F8C430E9E233785B07C8
:1051900000F1E682CA4B1A7842F004021A70DFE28C
:1051A00033785807E4D552E306F014F8D8E204F057
:1051B000A4FCC34B1A7810B142F0020201E022F0C5
:1051C00002021A7004F099FCBE4BDFF810831870CD
:1051D00004F0A8FCC8F8000004F0A4FCC8F804001F
:1051E00004F096FCB84B188004F092FCB74B188082
:1051F00094F8EC3143F0020384F8EC31B0E204F0AF
:105200007CFC834604F08EFC824604F08BFC8146D5
:1052100004F088FC804604F07BFC04F079FC04F088
:105220006CFCBBF1000F13D11020C4F8F0A1C4F83E
:10523000F4910AF0BDFDA24B1A7842F001021A70F7
:10524000B8F1000F00F08C82A14BC3F8F88187E21F
:10525000BBF1100F40F08482C4F8FCA1C4F80092A6
:10526000B8F1000F02D09A4BC3F8F8819948022395
:10527000011D84F8043204F089F971E2964B9860BC
:1052800004F050FC03F038FB6AE204F041FCDFF864
:105290004882A8F8580104F03BFCA8F85A0104F031
:1052A00037FCA8F85C015BE204F027FC85F8780184
:1052B00004F023FC85F87C0104F01FFC85F87B01D9
:1052C00004F01BFC85F87D014AE204F016FC824BD9
:1052D000587145E204F011FC85F88E0104F018FCC9
:1052E000A5F8980104F014FCA5F8940104F010FC52
:1052F000A5F8960104F001FCD8F8003085F88F017C
:105300005B79DFF8D491082B40F22A8204F000FC8C
:10531000A9F89C0104F0FCFBA9F89E0120E204F02E
:10532000ECFBDFF8B48188F8D60104F0E6FB88F8DE
:10533000D70104F0EDFBA8F8D80111E292F805A01E
:105340000323BAFBF3FABAF1120F3FF641ACDFF8D0
:1053500088814FF00009D14580F0028204F0CDFB36
:1053600088F8A00104F0D4FB40F2ED23984205DD5B
:1053700040F6CA039842A8BF184601E040F2EE206A
:10538000A0F2EE20192390FBF3F088F8A10109F1B7
:10539000010908F10208DEE7804604F0AEFB4E4B3F
:1053A000434408F10108B8F1080F83F88601F4D1ED
:1053B000D6E153794FF00709B3FBF9F9C9EBC902FC
:1053C0009B1A13F0FF0F7FF403AC5FFA89F9B9F170
:1053D000000F00F0C58104F090FB5FFA80FA4FFAED
:1053E0008AF004F0F3FB09F1FF395FFA89F980468E
:1053F00000283FF4EDAB80F800A004F089FBA8F88A
:10540000020004F07AFB88F8040004F076FB88F8C8
:10541000050004F072FB88F8070004F06EFB88F8C2
:105420000600D4E7DFF8B08008F1400904F070FB13
:10543000A8F8A40204F061FB88F8A60204F05DFB62
:1054400008F1040888F8A302C845EFD188E104F008
:1054500054FB1F283FF6BCABD8F800305B79082B13
:105460007FF4B6AB00F1880904F052FB05EB890923
:1054700000F03F00A9F8060004F04AFBB9F8062046
:10548000800100F4FE531343A9F8063004F035FB05
:10549000000189F8040004F030FB99F8043000F0B2
:1054A0000F00184389F8040004F027FB89F8050071
:1054B00003F05EFB54E1012384F8053250E100BFA4
:1054C0006D0700206C0700203E1500203C150020D1
:1054D000E81D0020E41F00204008002044150020A3
:1054E00004F00BFBFF28824670D14FF00008BB4848
:1054F00084F806824146602210F08CF98DF8138002
:105500009DF8133094F86A22DFF8D4829A4255D974
:105510009DF8133008EBC30393F86D32D90746D5D5
:105520009DF8133008EBC30393F86C3208EB430388
:10553000B3F9CC32002B3ADD9DF8133098F806927F
:1055400008EBC3034FEAC901D3F8703208EB01023C
:105550005B68C2F808329DF8133008EBC303D3F838
:1055600070321889A2F80E02002301229A400240EC
:1055700003D10133102BF8D100E01A46DFF8608226
:1055800008EB010309F10109A3F80C22D3F8080282
:10559000B3F80E32ADF8143004238DF8163005A997
:1055A00001238DF8173006F0DBFB88F806929DF892
:1055B00013300133DBB28DF81330A1E7012004F082
:1055C00087FA98F8060204F04DFACCE094F8063217
:1055D0009842BFF4FDAA002004F07AFA04F054FACD
:1055E000D8F80030186804F00DFED9F8000004F077
:1055F000CDFA04F099FD72B6DFF8EC8180234FF00C
:10560000400BA8F81A304FF00109A8F81AB040462C
:10561000ADF8143005A904238DF816308DF81790D5
:1056200006F09EFB404605A9ADF814B08DF8169023
:105630008DF8179006F094FB694A02EBCA02D2F883
:105640000832B2F80C22186802FA09F109FA01F1DD
:1056500009FA02F2014392B219601A83A8F818B04D
:10566000D8F810301A06FBD45D4901EBCA034FF09D
:10567000010ED3F80802B3F80C22D0F800C04FEAAC
:1056800042090EFA09F949EA0C0CC0F800C0D3F837
:1056900008C2B3F80C320EFA03FE1FFA8EFE402346
:1056A000ACF81AE0A8F81A304E4B4FF4804EA3F82D
:1056B00018E04FF4004EA3F81AE042F20F79D8F840
:1056C00010301B0605D4B9F1000FF8D009F1FF39ED
:1056D000F5E701234FEACA0B03FA02F2594492B2EA
:1056E0000283B1F80E22ADF8142005A904228DF82A
:1056F00016208DF8173006F033FB3A4B4FF400427A
:105700001A83B9F1000F1AD0D8F81030364A1806AB
:10571000AAD5334959440120D1F80832B1F80C1206
:105720001B6900FA01F119422E4B4FF480414FF0F2
:10573000400015BF1083508319835983E4E72A4A38
:10574000402111834FF480421A8362B60A2004F08C
:1057500098FC0BF041FE254B1B68F32283F849208F
:10576000002004F0B5F904F08FF9204B1B680022EB
:1057700083F8482094F8053243B1386804F042FDBC
:105780000BF0DAFD04F087FC04F0C0FC184B4C373A
:105790009F427FF45FA8174B1B68990616D5164BDE
:1057A000D4F8E4221B689A1A002A0FDB134A1278F5
:1057B000042A0BD90A4A03F5123303F5F873C2F829
:1057C000E432084B5A6982F400425A610C4B9B68E0
:1057D000002B00F0CC800B489847C8E0F01F002059
:1057E000E81D0020000C024000040240E0150020EB
:1057F000841F002070070020C80500206C070020CF
:105800007407002024150020BBF1230FDAF80020D4
:1058100012D15949C4F8CC20012008705748C4F867
:105820009C21019304F08EF9554804F08BF9019BFB
:105830001A7842F002021A70D4F8A0311B785B4546
:105840007FF46CA804F056FC72B603F001FB05F07F
:10585000D3FE88E70C2803D14A4804F073F959E0D5
:105860000A2801D00D2857D1474D484805F1D406E4
:1058700004F068F9304623210FF0FFFF10B1801BC0
:10588000C5F8D000D4F8D030002B38D0591E3E4A8D
:10589000705C202801D10B46F6E7C2F8D0301344E3
:1058A000002283F8D4203A4B3A4DD3F800B0D5F813
:1058B00000A0DFF8D49050460FF0ECFF09F1D408B7
:1058C00006465146404632460FF0ECFF324B38B99F
:1058D00009EB060292F8D4205A445278520703D0BA
:1058E00010359D42E3D306E09D4204D2701CEB6864
:1058F0004044984702E0294804F024F9002328484E
:10590000C4F8D030002130220FF084FF3B78002B08
:105910003FF441AF1A4809E07F2811D1013BC5F897
:10592000D0302B4400221F4883F8D42004F00AF919
:10593000FEF719BF0C288FD07F2804D1FEF713BFC4
:105940002F2B3EF610AFA0F12002D2B25E2A3EF617
:105950000AAF13B920283EF406AF5A1C2344C4F8FA
:10596000D02083F8D40004F0E6F8FEF7FCBE0FB0B8
:10597000BDEC028BBDE8F08FD1160020AD90010880
:105980007D90010882900108E81D0020EEA1010829
:105990005C010020F08B0108C08D01088D9001088A
:1059A000BC1E0020A9900108A449A5480A682DE959
:1059B000F04F02F59C4320330360A24B1E7887B062
:1059C000C6B119465B689A4240F20C81013E0E70E6
:1059D00008E12B689C48072C98BF195D9B4B88BF3A
:1059E00021461B689847032C0CD9964A02EB4404C5
:1059F00001362081944B964D1A78F4B2A2421A4691
:105A0000E7D81EE02B6804F10E0203EB8202D38874
:105A100012890028E9D0C01A4FF47A71D31A48438A
:105A200090FBF3F0084440F6C903984205DC40F2CD
:105A3000EE239842B8BF184601E040F6CA0080B293
:105A4000D3E7844B1B6842F2010903EA0909D9F143
:105A50000109814B38BF4FF00009D3F800A07F4BFC
:105A6000B9F1000F06D17E49097819707D4908788F
:105A70007D4908701E781EB17B4B1E7886F00106AA
:105A8000704992F80080D5F800B00F2381F82C30CF
:105A9000764B1F780322B7FBF2F202EB4202BA1AEE
:105AA000D2B201F12E0303EB420200244FEA480C6C
:105AB0000292254664455AD016B16D4BE05A00E07B
:105AC0003046BBF81630834206D8BBF81810814226
:105AD00034BF0021012100E00021664BE9B953F8F1
