:020000040800F2
:1000000000040020F16E0108D1390108053A010809
:10001000756F0108756F0108756F01080000000019
:10002000000000000000000000000000CD390108C1
:10003000C939010800000000C5390108D539010897
:10004000756F0108756F0108756F0108756F0108FC
:10005000756F0108756F0108013A0108FD39010843
:10006000F9390108F5390108F1390108756F0108FE
:10007000756F0108D557010825590108756F0108EA
:10008000756F0108D1590108756F0108756F010876
:10009000756F0108756F0108756F0108ED3901086A
:1000A0001D5801084D580108756F01085D58010879
:1000B0003D580108756F01082D580108255B01089E
:1000C0002D5B0108155B01081D5B0108756F0108B8
:1000D000756F0108715A0108C559010819590108BD
:1000E000E9390108756F0108313A0108756F010897
:1000F000756F0108756F0108756F0108756F01084C
:10010000756F0108756F0108756F0108756F01083B
:10011000756F0108756F0108756F0108756F01082B
:10012000756F0108756F0108756F0108756F01081B
:10013000756F0108756F0108756F0108756F01080B
:10014000756F0108756F0108756F0108D9340108D2
:10015000756F0108795801087D5A01086D5801082A
:10016000055B01080D5B0108756F0108756F0108DB
:10017000756F0108756F0108756F0108756F0108CB
:10018000756F0108756F01082DE9F04F2DED0C8B8F
:10019000A3B007F075FC42F20F73984204D823B065
:1001A000BDEC0C8BBDE8F08F934F3B78092B00F230
:1001B0002081924A342101FB03239E6ADFF87CA24E
:1001C0008F4D904C0DF16C0B08E007F059FC2A683C
:1001D0002368B21A10446433984207D2DAF80C301C
:1001E000584698479DF86C30002BEED03B78092B91
:1001F00000F2FB80814A342101FB03231B8D05EEB5
:10020000103AB8EE456A804A804CD2ED007ADFEDB4
:10021000806A94ED037A2380F8EE677AB5EE407A2F
:1002200067EEA67AF1EE10FAC4ED017A05D1DFEDA2
:10023000796AB0EE667AC4ED036A37EE877AD4ED58
:10024000026A724EDAF80430C7EE877A06F11805B2
:10025000284636EE666AE7EE866AF0EE667AFCEECF
:10026000E66AC4ED027A16EE902AA2829847002828
:1002700051D1694D2B68980717D40023DFF8A0915E
:10028000A4F8BC31A4F8BE31A4F8C031634A99F88F
:100290000430127862499A4200F0D48001330B7125
:1002A00023B0BDEC0C8BBDE8F08F94F84631DFF83D
:1002B0005C81002BE1D007F0E3FBD8F84831594FBF
:1002C000C8F84801C31A0DEE103A08F5A67908F5EA
:1002D000E271002608F5DE783B68534A1B78002B54
:1002E00000F0348394F8B821002A41F0CB80DFF885
:1002F0005081A8F16C0605EE103A3046B8EE450A7A
:100300004FF47A71243608F087F8464500F0F984F6
:100310003B681B78EFE7454B28461A78294609F0D9
:100320004BFEB37F002B51D0F27F002A01F04383B4
:10033000B6F8903003F01E03002B00F0DF82002798
:100340009436B846B4EE008A00E09846E85F96ED31
:10035000004AD6ED014A86ED014A07EE100AB8EED2
:10036000C77A96ED025AC6ED024A37EE044AD6ED38
:10037000035A86ED035A74EE844A96ED046AC6ED7C
:10038000045A35EE245AD6ED056A86ED056A75EEF7
:10039000855AD6ED067AC6ED066A36EE256A17EE60
:1003A000101A76EE866AC6ED077A37EEA60A46F888
:1003B000201B20EE080A19F05BF908F10103032B5A
:1003C000E853C4F88C3007F10207BED1184A1088F0
:1003D000002841F0968017480023E95AC25A8A1A29
:1003E000EA520233062BF8D143E79FED136A00234C
:1003F00009E70026E2E600BF1014002008040020F0
:10040000382C0020CC250020D0250020582C00209E
:10041000BD37863583F9A23EC4250020C9250020BA
:1004200014060020D8250020142E0020C02500200E
:1004300072550020982D0020000000008C2500201F
:10044000102E002001230B7107F01AFBD4F8407224
:10045000DFF85CE3D4F83C22BEF906807B89C4F85F
:100460003C029845C2EB00000A97A4F83602C0F29D
:100470004282B8F5FA6F81F21F82FA79C3EB080164
:1004800001FB02F2A3F5FA6392FBF3F364331093DA
:10049000C24AC34B92F95E11C04F1A68C148DFF8D7
:1004A00038E3B7F8966100689FEDBF5ADFEDBF5A99
:1004B000CDF850904F4202F08072002389B20E9224
:1004C0000C9016971791AEF25C5C1A46C146B8487C
:1004D000C15E881B00F2F31740F2E638474500F290
:1004E000148480EAE07EAEEBE07ECDF860E0022A84
:1004F00040F03484DDF830E09EF81A713FB118986E
:10050000B842CBBFC7EB00000027189018970E9891
:10051000002801F033870A9F9DED187A3F7A06EE96
:10052000107AF8EEC76AB8EE466AC6EE857A86EEAD
:10053000256AB7EE007A37EE467A67EEA74A27EECD
:10054000877A67EEA47AA6EE277A26EE877ADDED23
:10055000166AF8EEE67A67EE277AFDEEE77A17EE8E
:10056000900AA4F848024FF0640E84F8A2E7B14262
:1005700004DA3CF8031049422CF803100233062B2E
:1005800002F10102A3D1DFF814E2BEF89821C846B7
:100590009045DDF85090C1F2F580B8F5FA6FD4BF00
:1005A000C2EB0801C2F5FA614FF47A7303FB01F361
:1005B000C2F5FA627F48B4F89060B3FBF2F380FBB7
:1005C0000321DA17C2EB611204EB42010F46B1F8C6
:1005D0006C12B7F96E726FF0630E0EFB02330AB243
:1005E000BA1A02FB03F380FB0370DB17C3EB601343
:1005F00019447306A4F84A126F4F01F10981674943
:1006000091F89C310BB9002E51D06C4BA18AB3F8F4
:1006100000C094F88832684ABCFBF1FC0CF1010878
:100620001FFA88F8A4F88682002B01F0DE80B2F869
:100630008A62CDF828C002F5117002F523710FFA15
:1006400088F8002302F52572B446CF5AC65A32F80C
:1006500003E0D65217FB0CF7CEEB060697FBF8F734
:100660003744CF520233082B534EEED1DDF828C069
:1006700000231FFA8CFCA6F88AC286F888320FFA8B
:100680008CF3002B41F3B8814D48B4F986E200F1B8
:10069000480100F150020023CE5AD75A16FB0CF63F
:1006A00096FBFEF6BE1BC6520233082BF4D13B4A22
:1006B00092F89D312BB1B4F890203F4E570641F18E
:1006C0003F82404E14963378580701F19880D4F851
:1006D0009C22D10703D4149F43F001033B703A4A94
:1006E0001278120705D4DDF8508003F0FE0388F875
:1006F0000030364A128812B12A68970704D4344A67
:100700001288002A01F01281149E23F001030222B4
:10071000337084F8A02207F0B3F9D4F8A432C01AD9
:10072000002801DB09F000FDDAF808300BB1294898
:10073000984799F80530BBB11D4FDFF86080B7F9D5
:100740000620B8F898319A420EDC98F80530012B53
:1007500001F00684192B01F003840E2B04D0082B22
:100760001CBF0023A4F848320E48066896F8207192
:1007700003462FB1B4F890200F49900741F05A82F8
:100780002B6899062CD5B4F890300B4D03F030034C
:1007900033B30D4B1B78DA0720E000BFB8180020F8
:1007A000C02000207C2500200000FA430000C84241
:1007B000D82600201F85EB51582C0020442700200C
:1007C0009C2E002071550020342500202A2C00206A
:1007D00072550020002F0020F833002001F1DB8348
:1007E00099F80630002B41F05380514B5148B3F833
:1007F0006C210568D4F8401203F5C47300933046A9
:1008000006F16003A8474C4D4C4B2D78DB780A93DA
:10081000032D0C954A4B06D9D3F8D0225288B2F555
:10082000FA7FC1F01982D4F89C32454A1B0140F18D
:10083000C383444E31680C9F002F01F06D84D4F8BF
:10084000D032B4F9D82293F90000B4F9D452B4F9F3
:10085000D632404200FB02F205EE903A06EE105A04
:1008600006EE902A384B0C98002201F48058B8EE1E
:10087000E65AF8EEE55AB8EEC66A03EB00191746D9
:100880001646454614E001462BF802000FFA86FC96
:1008900008B284450FFA87F82BDB8045C8BF0F46A6
:1008A00041F32E8510334B4502F1020200F0928293
:1008B00053ED017AD3ED006A93ED017A66EE277A63
:1008C000E6EEA57AE7EE057AFDEEE77A17EE900AF6
:1008D00080B201B201EBD171C1F34F01002DD2D032
:1008E0000FFA86FC08B284452BF802100FFA87F83D
:1008F000D3DA0E46D6E764211091C9E506F1200847
:1009000001271636B6F9022000EE102A4046B8EE4E
:10091000C00A07F0DBFD18F0ABFEC4F88C7001379D
:10092000042F08F1240826F8020FEBD14EE500BF92
:10093000B818002014140020FC230020AC2600204E
:10094000582C0020C020002008240020B35A7352E5
:100950000236062E09F124097FF4BEACDFF8F483D9
:10096000296898F8002002F0100303F0FF06002B1E
:1009700041F062809FEDE78AB4F91A10E64BB4F9B2
:10098000182093ED007AB4F91C30B4F9C491B4F98D
:10099000C6E1B4F9C801DFEDE16A0AEE901A0BEE88
:1009A000102AF8EEEAAAB8EECBBA67EE2AAA0BEE46
:1009B000903A2BEE07BA2AEEAA0AF8EEEBBAABEEA3
:1009C0000B0A67EE2BBA09EE109AABEEAB0A09EEF2
:1009D00090EAB1EEC0CA08EE900AB8EE4DAAB4EEA5
:1009E0004CCAF1EE10FA2AEE26AAB8EEC99AF8EE31
:1009F000E99AF8EEE88A41F08F84002E00F05887DB
:100A00009FEDC77AB4EEC78AF1EE10FA08DDDFED8C
:100A1000C57A38EE678AB4EEC78AF1EE10FAF8DCD0
:100A20009FEDC17AB4EEC78AF1EE10FA08D5DFED7A
:100A3000BD7A38EE278AB4EEC78AF1EE10FAF8D400
:100A4000B6EE000A28EE000A12F03EFA9FEDB18AD7
:100A500030EE088A69EEA97A9FEDB47AE9EE097A58
:100A6000E8EEA87AF4EEC77AF1EE10FA01F33A80D4
:100A7000DFEDA86AF0EE665A3B689FEDA67AD3EDEB
:100A8000017AF4EEC77AF1EE10FA41F3C5809FEDDA
:100A9000A87AB4EEC7CAF1EE10FA00F17287D4ED6D
:100AA0007F4A94ED803A94ED816AA24ED3ED027AAA
:100AB00033781496590740F15687B7EE007A27EE3F
:100AC000877AF6EE007AA8EE076ADFF88C92E5EEF8
:100AD000874AA6EE873A6AEE277A7BEE863A94ED4D
:100AE000835A99ED004A94ED827AD4ED845A63EEEC
:100AF000A73A3AEE833A7BEE244A23EE273A64EE95
:100B0000A74A63EE857A25EE436AE4EE847AA7EE7F
:100B1000646AE3EE657A67EE636AA3EEE56AE3EE84
:100B2000046A37EE278A23EE077A68EE087A74EEB5
:100B300006AAE4EEA56AA3EE847AEAEEAA7A75EE36
:100B400026BAA4EEC57AEBEEAB7A35EE87CAECEEA8
:100B50000C7AB1EEE70AB4EE400AF1EE10FA41F079
:100B6000E783F7EE005AC5EE805A734E9FED73BAD5
:100B70006AEEA5AA28EE258A6BEEA5BA6CEE255A78
:100B8000C9ED00AAC4ED845A84ED828AC4ED83BA0B
:100B900007F0DAFB94ED7E8AD4ED7DCAF0EE480AC8
:100BA000B0EE6C0A18F04AFE20EE0B0A18F060FD59
:100BB000D4ED7CBAA4F8D001B1EE6B0A18F0E0FDD8
:100BC000DFED5F7A37EEC00A20EE0B0A18F050FD19
:100BD00094ED79CAD4ED76AAA4F8D201F0EE6A0AAF
:100BE000B0EE4C0A18F02AFE564BD3ED007AE0EE38
:100BF0004B7AB0EE670A18F03BFD83B21A0458BF77
:100C0000A6F8D43194ED7A7A4F4BD4ED775AD3EDE0
:100C1000007A98F8003094ED7B6AD4ED786A464A01
:100C200029EE877A48BF00F56160B4EEE78AA9EE45
:100C30000C7A48BFA6F8D401F1EE10FACCBF43F00D
:100C4000080323F0080369EEAC7A29EEA50A88F8B8
:100C500000303B68E9EE2B7A5B78A9EE2A0A012B7B
:100C6000A8EE867AE8EE887AB1EE479AA8EEA60A50
:100C700000F01287354B1B8807EE103AB8EEC77AA2
:100C800077EEC77A94ED877A94ED868AD4F820724D
:100C90003AEE077A77EEC87A8AEE07AAAAEE278A92
:100CA00084ED868A18F0E4FCD4F82C62317807F0E1
:100CB000B5FDB0EE490A3844C4F82002D4F82472D5
:100CC00018F0D6FC317807F0A9FDB0EE480A384498
:100CD000C4F82402D4F8287218F0CAFC717807F01E
:100CE0009DFD1B49D4F830320A681DEE106A384465
:100CF00032440133C4F828020A60C4F83032FFF7E6
:100D0000C5BA012384F8B83128E64FF4FA70189078
:100D1000FFF7EDBB00000000E0250020BD37863561
:100D2000DB0F4940DB0FC940DB0F49C00AD7233C2A
:100D3000C2B8B23E71550020582C00204C3D0F44E3
:100D4000DB0FC93FD4250020DC2500200204002051
:100D50007C5500203425002014060020DDF830806A
:100D600098F819714FB1DDF860E07745B5BFC7EB72
:100D70000E0E0020CDF860E018900E9F002F00F0BE
:100D80009283DDF828809DED187A98F8018006EEB0
:100D9000108AF8EEC76AB8EE466AC6EE857A86EE25
:100DA000256AB7EE007A37EE467A67EEA74A27EE55
:100DB000877A67EEA47AA6EE277A26EE877ABDEECA
:100DC000C77A17EE100A2CF80300BE4F1098D055C2
:100DD000FFF7CDBBF11BA84689B2BB4AD688B8F154
:100DE000000F00F0C984D4F8F422B84D9788D08859
:100DF00033B2C0EB070C634500F3A885D5F8F83291
:100E000012881F88012385F8FC32A4F8FE22A4F87A
:100E10000073A4F8026392B2BFB2D01B80B209B2D1
:100E20000FFA80FC8C4580F29B84A94B01221A703A
:100E30000C9B63B10C9A5B460BEB42051A8812FBC4
:100E400000F292FBF1F223F8022BAB42F6D10CEB4D
:100E5000DC7C07EB6C039BB21A460C9D002D01F065
:100E60003981DDF85080DFF8809298F800009649CB
:100E7000D9F80080D4F80473B1F9069010971BB22A
:100E800012B236B207EE103A07EE902A00F00400D4
:100E90000C9A94F8FC12D4F8F472139106EE906A4E
:100EA000C0B208F4805316970C900E93D4F8F85201
:100EB0008849DFF83CC2B8EEE65AB8EEC76AF8EEE9
:100EC000E75A570008F01000002313E0AE88B5F889
:100ED000028012B2B24203DB4245B4BF1646464618
:100EE00021F8026C10B10C9A002A58D10233BB428F
:100EF00000F0B4800CEBC302D2ED006A3BF9036052
:100F000065EE267A07EE106AF4EEC67AF1EE10FA74
:100F1000B8EEC77A2FD4F4EE657AF1EE10FAC8BFB6
:100F2000F0EE657A77EE277AFDEEE77A17EE902AF3
:100F300092B221F8022B40B1DDF84080B8F8106081
:100F4000B145BCBFAA8821F8022C0A9E002EBDD153
:100F50000E9EEEB1139E8EB12E88DDF8588012B22F
:100F6000B8F80080CDF85C80B242B9DB4646B242A8
:100F7000B8BF1646B4E7F0EE467AD3E7DDF85880FE
:100F8000B8F80260B5F8028012B2B242A4DAA7E75C
:100F90002E88B5F8028012B2B2429DDAA0E70E9E0A
:100FA000002EA3D1DDF84080B8F810209145BCBFD9
:100FB000AA8821F8022C99E7DFF82C81D8F80010D4
:100FC00011F01D037FF437AC41490C980B70E8B366
:100FD000D2F8D032B2F9D81293F90030B2F9D40273
:100FE000B2F94A72B2F9D6825B4201FB03F306EE14
:100FF000903A05EE900A04EE907A05EE108A364B90
:101000000C99B8EEE64AF8EEE44AB8EEC55AF8EEA6
:10101000E55A02F2DA2203EB0110D3ED007A13ED68
:10102000026A53ED016A93ED017A65EE277A103377
:10103000E6EE247A8342E6EEA57AE4EE077AFDEE48
:10104000E77A17EE901A22F8021FE6D1149D95F860
:10105000009009F004095FFA89F60C960C980028B4
:1010600040F0AB821D49087868B11A4ADDF830902B
:10107000400002F12C0131F8093022F8093009F161
:1010800002098145F7D1164A1378013BDBB2182BD0
:1010900007D80121134A01FA03F31A40002A40F04D
:1010A000EE85D4F82063DFF844900A960E48036872
:1010B000980600F1FB82B9F800000A9A0B4E002353
:1010C00019E000BFF8330020D8260020582C00205B
:1010D00080550020342F002008240020FC2300200D
:1010E0000022002099209801C0200020102200201A
:1010F00000240020985BB2F90010B2F9025000B24F
:10110000884202F10E0203DB29B28142A8BF0146E8
:1011100029F803100233102BECD1D4F8D05295F9F2
:1011200008300BB3A24FDDF8288000263846B5F909
:10113000062039F9061006F06BFF80B229F8060088
:10114000B8F90030B8F9022000B2984207F18807D8
:1011500008F10E0803DB13B29842B8BF034629F822
:1011600006300236102EE1D192480378013B182B4D
:1011700000F28280DFE803F06E80800D808080576F
:1011800080808080804B80808080800D6380804B59
:101190006E000020B9F8081012F092F90120B9F899
:1011A0000A1012F08DF90226834F3B689A0600F16F
:1011B000C582DFF8008298F80020052A00F0BE8280
:1011C000DF0200F1E2827D4B1B78002B40F01D8393
:1011D0007B4B1B78002B7EF4E2AF77480268150347
:1011E0007EF5DDAF774D2A78911E052940F2C38741
:1011F000931E082B3EF6D3AFDFE813F01C01FA0074
:10120000C300A90095007B006100520040006E4EB3
:101210000025E8B236F8021F013512F051F9062D0B
:10122000F7D12E46C0E70020B9F8061012F048F9B1
:101230000120B9F8081012F043F90226B4E7634D13
:101240000026F0B235F8021F013612F039F9042EEB
:10125000F7D1A9E72B79002B40F08B86149D2B78D2
:1012600003F0040303F0FF00002B40F082860146E8
:1012700012F026F9012697E7002695E7544A554BC8
:1012800052681B68C8329A4204D306F03FFC00281B
:101290003EF485AF13F002FB01232B70FEF77FBFF6
:1012A00094F89C274C4B22B1D3F89C329B0141F11E
:1012B0002F800CF0D3FF11F0B5FEFEF770BFD4F80D
:1012C0009C22454B9201F6D5B3F89627002AF2D11D
:1012D0004249D3F898270B681B9259460E201C935D
:1012E0000AF0B4F83E4A4FF48051092311802B7064
:1012F000DFE7402011F078FE00287EF450AF344E36
:1013000033680C2B01F2F980DFE813F0F308EE08E4
:10131000E808B508A808A1089A088D088708800879
:1013200075086F085D082F4A052000218DE803002D
:1013300002F108030291532009F006FE00287EF412
:101340002EAF234A072310602B70FEF728BF264BD1
:10135000019303F10C02072102920091A3F108020C
:1013600047200433002109F0EFFD00287EF417AF79
:10137000174B4FF0FF31062283E803002A70FEF777
:101380000EBF1A4A022000218DE8030002F1080373
:101390000291482009F0D8FD00287EF400AF0C4BE4
:1013A0004FF0FF31052283E803002A70FEF7F7BEF5
:1013B000A02F002000220020C02000203525002082
:1013C00075550020292C0020122200201422002014
:1013D0004C2C0020C44F0020582C0020382C00201A
:1013E000482C002014D60108C8D50108B0D5010842
:1013F0009F4B019303F10C02242102920091A3F16F
:101400000A0249200233502109F09EFD00287EF493
:10141000C6AEDFF88482D8F8003013F080044FF0B5
:10142000FF31944B00F08A87042283E803002A707E
:10143000FEF7B5BE8F4E904A7368126864339342CC
:10144000BEF4ADAE402011F0CFFD00287EF4A7AE73
:101450003368DFF85492894F40240AE006F098FB85
:101460003A683368013A0133013C3A60336000F076
:101470006B8719F80330DFF830821846002BEDD166
:1014800000F067BF36F908E0089100EE10EA484620
:10149000B8EEC00A07F01AF818F0EAF8784B089985
:1014A0009853FFF755BA1898DDF86080754F87FBA1
:1014B000000E4FEAE877C7EB6E1704EB470EF046D5
:1014C000BEF84CE2B8F94E82CDF84C800FFA8EF09F
:1014D000079018986FF0630808FB0707189707989C
:1014E000139FC0EB0708189F08FB07F0DFF89481F3
:1014F00088FB0087C017C0EB671070442CF803000E
:1015000063E4D4F8F430604E1B789FED608A0C934E
:101510000027BC464FEA4708B0F57A7F04EB080382
:1015200000F04881B3F91830594906EE903ABB00F3
:101530000E93234451F827100A9316EE903A0B4469
:1015400031690693DDF828904B1C012B0699336115
:10155000C9F83411F8EEE66A00F03981D6ED005A88
:10156000D6ED027A05EE103A36EEE56AB8EEC57AA7
:1015700086EE077A35EE877A76EEC76A86ED017ACF
:10158000E6EE267A86ED007AC6ED037AC6ED027A9B
:1015900004EB08030128A3F818C0A3F840C100F029
:1015A00092810137032F06F11406B3D1012800F010
:1015B000EB8401381080FEF70EBFD4F89C32354A18
:1015C0001F013FF560AD344D286810F01D017FF418
:1015D0005AAD10F480560E9600F016862F4F3E78C6
:1015E0008946002E3FF44FAD2D49D4F804532D4ABF
:1015F000B1F906800C9503F0205300F01000109311
:10160000D4F8F4C2D4F8F8721390760000230DE0F9
:10161000B9887D8800B2884203DBA842B4BF014686
:101620002946D1520233B3423FF42DAD0E98002823
:1016300040F01986D05AC9EB000080B2D0520A9906
:101640000029E5D139887D8800B2884203DBA842B1
:10165000B4BF014629460C9D288AD1528045E1DA63
:1016600013980028DED00F4DB9885953DAE700BF30
:101670000AD401084C2C0020C44F0020542C002018
:101680001C2E00201F85EB51502D00200000000073
:101690008C2D0020582C0020C0200020FC2300208E
:1016A000D8260020342F0020A0D301080A994B7AB5
:1016B000FF2B00F09780D34A12789A4240F2928032
:1016C000D14A32F813000A9DA9F80000EB7DFF2BE8
:1016D00000F08480CB4A12789A427FD9CA4E36F8FD
:1016E00013C0D4F89C32A9F802C01906C74FC84AE3
:1016F0007FF5E3ACD2F844331B78012B00F0C484AF
:101700000A9BB2F8D21193F9065093F91460B2F81B
:10171000D021C04B15FB01F116FB02F283FB0165E2
:10172000C91783FB0283C1EB2511D2170844C2EB12
:10173000231380B2634438807B80BEE43046B9F81E
:10174000001011F0BDFE701CB9F80210DFF8DC9239
:10175000C0B2023611F0B4FEF6B2D9F800302FE56F
:1017600001EBD1714810AC493B18121A00259BB20D
:1017700092B20D70FFF771BBD4F8F8321F885A8807
:10178000FFF749BB0023FEF713BF9F4A304611897C
:1017900002F1080511F094FE0136F6B205F11A07C0
:1017A00035F8021F304611F08BFE0136BD42F6B20D
:1017B000F6D108E5B3F9183007EE903AB9000E916A
:1017C00001232144F8EEE76AC1ED4D7A3361C6ED9D
:1017D000016AC6ED006A86ED028AD9E60A9FB7F86B
:1017E00012C07EE70A9B98886DE7B2F88AC20CF1B6
:1017F000FF3C1FFA8CFCA2F88AC2FEF740BF002013
:10180000012106F0C5FBFEF78FBF09F003FDDFE401
:10181000B7F9D4318149B7F88422DFED817A81FBB1
:101820000381DB17C3EBA1039B1A1BB208EE903AAE
:10183000F8EEE88A68EEA78AB0EE680A11F07EFA40
:10184000B0EE408AB0EE680A11F03EFBB7F946E20E
:10185000B7F9440206EE90EA06EE100AF8EEE66AE0
:10186000B8EEC66A26EEC07A60EE067AA8EE067A70
:10187000E8EE267ABDEEC77AFDEEE77A17EE102A7B
:1018800017EE903AA7F84422A7F84632FEF7B7BE03
:1018900000220023C4F8C422C4F8C822C4F8CC2211
:1018A000C4F8B832C4F8BC32C4F8C032FEF79DBFE9
:1018B0009FED5C8AFFF7CEB80A98C379C3F1640341
:1018C0001093FEF7E5BD3369012B40F35084013BD3
:1018D00006EE903A96ED030AF8EEE67A80EE270AD5
:1018E000F1EEC07AF4EE677AF1EE10FA40F03A8544
:1018F0000C9848B105EE100AB8EEC57AB4EEE77A56
:10190000F1EE10FA00F1FF840E9BDFF824911088AD
:101910002344A044D3F8343103F5FA7389FB0391CF
:10192000DB17C3EBA113A8F840313AE6B4F8A407DB
:101930003749B0F57A7F3EF6E7AEDE0756BF0223A1
:1019400081F8A02281F8A032FEF7E5BE3844834238
:10195000D5F8F83257885A88A6BF002385F8FC329C
:101960003E46FFF752BA304B1A6844F61F639A425C
:10197000B2EE045AB7EE007A98BFB0EE457AFFF7A0
:101980009EB827EEA55AD4ED7F4A94ED803A94EDA7
:10199000816A27EEA67A67EE887AEAEE054AAAEE11
:1019A000073AAAEE276AC4ED7F4A84ED803A84EDB7
:1019B000816AFFF77AB8DFF87C80D8F80010002938
:1019C0003EF404AD07EE103A2036B8EE478A012700
:1019D00001E0D8F800103046B0EE480A06F01CFDD1
:1019E000C4F88C700137042F06F12406084BF0D19F
:1019F0000122DA77FEF7EABC0023A4F88A32FEF768
:101A000056BE00BF90270020D826002010220020BC
:101A1000582C00201F85EB518055002067666666B4
:101A200035FA8E3C00000000C44F0020C02000208A
:101A3000D34D6210CC25002011F0200100F0A182CE
:101A400002F0020202F0FF06002A3EF493AF94F87F
:101A5000CA21CC4B042A40F29482B3F8CC21B2F5CF
:101A6000967FC0F04684B3F8D601B3F9D431DFEDE8
:101A7000C67A06EE900AF8EEE66AB2EE047A86EED0
:101A8000877A012608EE103AB8EEC88A38EE478AFF
:101A900028EE278AFEF770BF149F3B7813F0040FDF
:101AA000D2F8143212D1002B1A46B8BF03F13F020C
:101AB000A3EBA21207EE102AB8EEC77A37EE277A08
:101AC000BDEEC77A17EE103A84ED857A002BB8BFC9
:101AD0003F339B1105EE103AB8EEC57A77EEC77A20
:101AE000FFF7D0B8B1EEE70AB4EE400AF1EE10FA13
:101AF00040F01884F7EE007A87EE800A94ED7E6A53
:101B0000D4ED7C3AD4ED7D4ADFEDA06A29EE004A9F
:101B100029EE805A28EE800A66EE447A23EEC57AD2
:101B200064EEC05AE0EE237AA4EE247AE5EE065A7B
:101B300038EE078A75EEA65A77EEA66AFEF79CBFC6
:101B400005EE103ADFED907A914FB8EEC57A67EE68
:101B5000277A17EE900A14F013FB41EC100B41ECBE
:101B6000180B17F09DFCB6F944028DED0A0B14F02A
:101B7000F5FAB0EE480AF0EE680ACDE90C0117F06C
:101B8000E3FCB6F948028DED0E0B14F0E7FADDE93F
:101B90000C23CDE91001DDE90A0114F045FBDDE974
:101BA0001023CDE91401DDE90E0114F03DFB0246DE
:101BB0000B46DDE9140114F085F914F047FDB0F58A
:101BC000FA7FB4BF86464FF4FA7EBE45B8BFBE4624
:101BD000A6F844E2DDE91023DDE90A0114F024FB54
:101BE000DDE90E23CDE90A01DDE90C0114F01CFB4F
:101BF00002460B46DDE90A0114F064F914F026FDF3
:101C0000B0F5FA7FA8BF4FF4FA70B842B8BF3846B3
:101C1000A6F84802FEF755BDB0EE476AB0EE473A67
:101C2000F0EE474A84ED7F7A84ED807A84ED817A04
:101C3000FEF73BBF91ED7E0ADFED567AB1F84A829E
:101C4000B4EEE70AF1EE10FA00F26B820020804455
:101C5000A4F84A82FEF794BDB3F94802B3F9D8124A
:101C60000028B8BF404253421B1A994203DB1318A5
:101C70008B42A8BF0B46A4F8D832FEF7D4BDB4F807
:101C80009020404BD60540F18D82B3F84402B3F862
:101C90004612B3F84822404FD3F80433ADF86C0035
:101CA000ADF86E10ADF87020DB89FD88B4F9D20173
:101CB000B4F9D0613949B4F8DC9206F5E1664FF425
:101CC0007A7200F5E16002FB00F002FB06F281FB94
:101CD000007681FB02811144D2170644ED1AC2EB53
:101CE000E121C0172C4AADF87A50C0EBE6202A4D0E
:101CF000B2F80080B2F802C097881689A0F5FA7091
:101D0000A1F5FA71A9F2DC52ADF88400ADF88610A5
:101D1000E8896989ADF87220AA89214DD21AC3EBEE
:101D20000808C3EB0C0CFF1AF61AC91AC31AADF84F
:101D30008020ADF88230ADF87480ADF876C0ADF893
:101D40007870ADF87C60ADF87E1005F110020023CC
:101D500025F8023F9542FBD1124B1B781793002BBD
:101D600000F0C1820023DFF84090D4F82063D4F85B
:101D70009C72CDF840900A9619979C460C93994610
:101D80002BE000BF582C002035FA8E3C00000000EC
:101D90000CFEFFFF8FC2753CD8260020C5B3A29170
:101DA0000E220020C02400201022002015324FF007
:101DB0000108199808FA02F2024013D1CA4B23F81D
:101DC00009200C9D179E0135EBB29E420C950CF13B
:101DD000070C09F1020940F29980C44B63449A79D7
:101DE000002AE3D1C1490A9811F80C20DE785F7906
:101DF0000596C2EBC20100EB41011697B1F90280D2
:101E0000B1F9000093F90450B94F5E78C0EB0800B7
:101E100080B200FB05F587FB0587ED17C5EB67155D
:101E20004708ED1BADB21395059D0E97002D3CD1D3
:101E300022AF07EB4605DFF8B08235F81C5C28F8C6
:101E4000095093F90270D1F80A10DDF8408017FBB1
:101E500005F5012707FA06F6A54F38F812300E42AD
:101E6000139E87FB05784FEAE57531B2C5EB68151F
:101E70004FF6FF7608BF01268D4210DB169FDFF874
:101E8000708279B201FB00F088FB0081C017C0EBC3
:101E900061110E98091A09B28D42B8BF294601FB9B
:101EA0000633109921F812308BE78F4F0DF1880817
:101EB00008EB460837F8095038F91C7C18970FFAD8
:101EC00085F8B845CDF81C8011DBBADD059DDDF83D
:101ED0001C80C5EB0807189DAF4203DB4546AF42A7
:101EE000B8BF3D46804FADB227F80950A9E7059F1E
:101EF0004744B84504DCDDF86080B845A8BFB84663
:101F0000794F1FFA88F527F809509AE7DDF84090D5
:101F1000784B774D1E780A9A00230CE0DFF8E881B1
:101F200038F81110084429F803000233102B02F18D
:101F30000E023FF4BBA892F9060039F8031010FB1B
:101F400001F185FB0170C917C1EB601029F803008E
:101F5000517AFF2980B201D0B142DFD39188E1E705
:101F6000DFF8A8E19EF8EA21002A7EF4FDABFEF737
:101F7000F4BB0020B9F80A1011F0A2FA0126FFF70D
:101F800013B90026FEF7F6BC08920FF04DFD089A33
:101F90001088FFF70EBBB5F9D431574ADFED577AF9
:101FA00082FB0302DB17C3EBA2031BB208EE903ADD
:101FB000F8EEE88A68EEA78AB0EE680A10F084FFAF
:101FC000B0EE408AB0EE680A10F0B8FE4C4B1B68C9
:101FD000D978002900F00081B5F8B272B5F9B602DF
:101FE0003BB2C01A44F250639842BFB240F36681DC
:101FF000A0F50C40A0384A42824200F37F8188421B
:10200000A8BF0846B4F8B052B4F9B43238442FB27D
:10201000DB1B44F2506780B2BB42A4F8B202ADB2FF
:1020200040F35381A3F50C43A03B9A4203DC8B425F
:10203000B4BF1A460A462A4492B211B207EE901A69
:1020400000B2F8EEE77A05EE100A27EEC87AB8EE8D
:10205000C56A60EE277AA0EE067A2A4BA4F8B02271
:10206000E8EE067AF2EE046A87EE267AC7EEA67AE2
:10207000BDEEC77AFDEEE77A17EE101A17EE902A3A
:1020800019805A80FEF7ACBBDDF82880B2F9D26126
:1020900098F90610B2F8D0810A9A154D92F91430C9
:1020A0004A4206FB02F213FB08F385FB026185FB43
:1020B0000385DB170911D217C3EB25139BB2551A01
:1020C0001D448A1A2844134480B2634438807B80BC
:1020D000FEF7F3BF149E96F8009009F004095FFA2A
:1020E00089F70C97FEF7BABF7C2F0020C42400208C
:1020F0001F85EB51902700206766666635FA8E3C97
:10210000E427002078550020D8260020B8180020A9
:10211000EFB6B0440000000001F480583946FEF7E5
:102120005CBE0993089117F02BFB0899D1EDAB7AAF
:1021300020EE270A17F09CFAB0F5617FA8BF4FF494
:10214000617005EE100A5FED0E7AB8EEC50A80EEFA
:10215000270A10F0B9FE06EE907AF8EEE67A27EE3E
:10216000800A17F085FA099B80B21E686FE51FEDA3
:10217000170AFFF7B5BBC54E96F8FE17002900F009
:10218000AB801846C24E94F88C1733681944B1F5E9
:10219000807FA8BF4FF480718142D4BF316030602E
:1021A000FFF726B8DFF8FC82B3F8D452D8F8001055
:1021B000B3F8D602B3F8D822ADF86C50CD04ADF820
:1021C0006E00ADF87020D3F8043342D4DFF8C89223
:1021D000DB89B9F8065069E5B5F9B402B5F9B6522C
:1021E000AC4B07EE900A06EE905AF8EEE77AF8EE5E
:1021F000E66A27EEC87A60EE277AA0EE267AE8EE45
:10220000267AF2EE046A2FE7DFF8C882B2F8DC1211
:1022100098F80060012E0ED902F2DA2707EB460784
:1022200002F5377232F9025F09B2A942B8BF2946F6
:10223000BA4289B2F6D1D4F8F82252880DB295424A
:10224000C6BFC2EB01021FFA82F94FF00009FFF787
:10225000C8B99148DB89C58829B29942BCBF5242AE
:10226000ADF8702022E5109810B1D05AFFF7E7B909
:102270000C9DBCF80600E9890D1AA8450BDD084441
:10228000804508DA8845CCBFBCF80210BCF80010C5
:10229000D152FFF7C7B98845D05E07DDBCF8021000
:1022A0007D888842BFF6B9A9FFF7BBB9B988BCF8E9
:1022B00000508842BFF6B1A9FFF7B3B9774B9842F7
:1022C000BCBF00F50C40A03095E6744FBB42BCBFCC
:1022D00003F50C43A033A8E6D4F8880703689B688D
:1022E00098472A784EE7D4F820130A91DFF8E8914E
:1022F0000EE69FED6B8A0026FEF73EBB104681E698
:102300003146FEF7F6BA4FF47A731380FEF763B8DE
:1023100008232B70FEF7CFBF17F092FAB0EE40CA39
:10232000FEF76BBBB0EE670A17F08AFAFFF7E2BB65
:10233000B0EE670A17F084FAFEF713BC06221C60A1
:1023400059602A70FDF72BBF18F80330002B7DF47D
:1023500026AF00214FF0FF32032386E806002B70E2
:10236000FDF71DBF0892CDF824C017F069FADDF81B
:1023700024C0089AF0EE407AFFF7BABA18984FF0E6
:10238000640890FBF8F704EB4708C646B8F95C828E
:10239000BEF95EE2CDF84CE06FF0630E0EFB07076E
:1023A0001398C8EB000E0EFB07F06FF0630790FB6D
:1023B000F7F0C8EB0000DDF85C8000FB08F0A4F843
:1023C0004802FEF7D0B8374F3B68190508D5DFF84B
:1023D000BC803548B8F88211B8F9802108F084FE35
:1023E000336801333360FDF7DABEB4F894172F4831
:1023F00008F07AFEF4E7254D2D4895F87E1195F802
:102400007F2195F87D3108F06FFEE9E7D4F8903729
:10241000D8040ED40B233360E2E7264B26481988F4
:1024200008F062FEDCE7DAF81010244808F05CFEE1
:10243000D6E7164C224894F87A1108F055FECFE7FB
:10244000124B2048B3F8421108F04EFEC8E70F4A7D
:102450001D48B2F8401108F047FEC1E70B480B4990
:1024600090F8D03719480E2202FB031393F8D217C5
:1024700008F03AFEB4E7DFF814E015489EF8FC17C0
:102480009EF8FD2708F030FEAAE700BFB81800202C
:10249000542C002078550020D8260020B0B9FFFF2A
:1024A00000000000C020002054EF010848EF0108A0
:1024B0002CEF01080204002010EF010800EF0108D2
:1024C0001CEF0108F0EE0108E0EE0108D4EE01086F
:1024D000C0EE0108FC230020102200200D480E4908
:1024E0000E4A08F001FE7BE70D480E4908F0FCFD9E
:1024F00076E70D4808F0F8FD72E705F007FB0028C5
:102500003DF44DAE094A4FF48051092311802B70E0
:10251000FDF745BE94EE0108A8EE0108B4EE0108EF
:1025200074EE01088CEE010858EE0108482C0020DA
:102530002DE9F04FBA48BB4D026829792DED048B87
:1025400002F59C4320338DB02B60002900F0998266
:10255000AB689A4200F25C81B34ADFF80C83B34C5B
:102560000692069AB04E1368D90403D52268D207A2
:1025700040F1F3861E46D8F80010A94B8A7A1F68EE
:10258000002A40F05782330448D5D5F89C30A5483E
:10259000FB1A002B42DBA64BDFF8D0E293F805C014
:1025A00090F8A0303EF81C8091F80BC0591C01F047
:1025B0000F0100EB010E1FFA88F807F59C4320334A
:1025C00098FBFCFCC0F89C3080F8A01000F1A3033D
:1025D0008EF8A4C0B33013F8011F0A44834292B2AC
:1025E000F9D113B2002BB8BF0F331B11642BA8BF56
:1025F000642323EAE37307EE903A9FED8E7A894ACB
:10260000F8EEE76ADFED8C7A86EE877A67EE277A56
:10261000FCEEE77A17EE903AA2F89A30F60500F150
:102620006181864A864E0592DFF844B20BF5C4708C
:10263000BBF84E1108F0B0FD8046002840F0B8838A
:10264000276817F0006904D07E498B78002B00F0D2
:10265000AF86DDF814C09CF8003003F0040303F0EB
:10266000FF0233B1DDF818C0DCF80030DB0640F1C2
:102670006F857449744BDFF8FCE11B68734803F500
:102680007A7C00270123C5F8B8C08EF800308B7023
:102690000770002A40F09F8330786D4A9BF8E291E2
:1026A0009BF8E3C1BBF898A1BBF89AE102F10807D7
:1026B000002332F9021F9B085145C4BF63F07F031A
:1026C000DBB27145B8BF43F04003BA42F1D195F88F
:1026D000C110544A994200F0EC84002182F8C210E3
:1026E00085F8C1304F4A48B92368DF0740F1EB84D1
:1026F00082F8C300B8F1000F00F09F8595F8C23052
:10270000484F142B00F07A84069A524E136803F057
:102710000403002B40F044843768002607F1830946
:10272000CA4626604FF0010803E0502E09F1040963
:102730001AD00AEB06031AF806205B7819F8010C88
:102740009A4206F10406F0D249460EF077F80028C6
:10275000EBD019F8022C236808FA02F21343502E2A
:10276000236009F10409E4D13B4B1E78002E00F0F0
:102770005C8323689E0700F19780069A1368DE0544
:1027800000F18D80354E012011F074FD2368344F27
:102790005A0740F19580012011F06CFD39888B07B4
:1027A00040F1718511F003014FF0010018BF01469F
:1027B00005F0EEFB33689E0600F19682236818054B
:1027C00040F183804FF4807011F026FD9BF80530B6
:1027D000082B00F083800E2B00F08080069A13688F
:1027E00058050DD59BF82032002B45D1DDF814C0DB
:1027F0009CF80030590742D40FF0AAFE11F0F2FF06
:10280000184B01221A700DB0BDEC048BBDE8F08F9F
:102810000139054B2971DFF850800693034CA0E67F
:10282000382C002008340020C0200020F42E002086
:10283000402500200000C84200C07F4471550020A0
:10284000190600201C060020C44F002081550020DE
:10285000D62600207C25002075550020C4250020A8
:10286000E82C0020E02E0020D0260020502500205B
:10287000B81800201A06002023681A03BCD50023CC
:102880003C2085F8843106F077FB0028B8D007F0AB
:1028900039FD3C2006F070FB0028F8D1B0E7A24BD0
:1028A000DB78002B3FF46EAFA04E336898077FF5BE
:1028B0006AAF9F4F3B88D90702D4012011F0ACFCCE
:1028C000022011F0D7FC39886CE74FF4807011F0CA
:1028D000D1FC9BF80530082B7FF47DAF402011F030
:1028E000C9FC7BE7934BDFF840B29F429BF8022084
:1028F00004D83AB9904B0593904E95E612B901224F
:102900008BF802209BF821708B4A216892F800A076
:102910000592781E47424741CAF38003002FC1F356
:1029200080619BF82020854EDFF8248207930CBF3E
:102930004FF003094FF0000908914FF0050A052AEE
:1029400070D8DFE802F0605945301903D5F8B4308B
:10295000D8F80010DB88642202FB03124FF4806079
:102960000023CBF810208BF820308BF8033011F0C7
:1029700081FC9BF82020E2E7002F00F02387D8F8A5
:102980000020DBF8183093424CD2337813B9236817
:10299000DA0747D4059A8BF820A0137823F00203B6
:1029A00013700522CBE7DDF814C09CF8003043F02B
:1029B00002038CF8003011F089FFD8F80020DBF812
:1029C0001C3013440422CBF818308BF82020B6E7D3
:1029D000002F00F0BB838BF820A00121079B002B68
:1029E00040F09683D8F80030032247F23053CBF8FA
:1029F0001C308BF82020A2E7002F00F0D3848BF846
:102A000020A005229BE7079A002A40F0AB84089A91
:102A10004FF48060002A40F0AB8311F02BFC0022C1
:102A2000CBF81020B9F1000F3FF4FEAD48460EF090
:102A3000FBFFF9E5013A424B097B33F8123019B13B
:102A4000C3F53B6308339BB21BB2A3F57A73B3F5AE
:102A50007A7FA8BF4FF47A7323EAE37307EE903AC4
:102A6000F8EEE76ADFED377A9FED377AC6EEA77AA0
:102A700067EE877AFCEEE77A17EE903AA5F89A307F
:102A8000CCE5DFF8D080DFF8D0B08A46C1462F46CB
:102A900015E0195D2D48DBF800309847032C2CD841
:102AA000D9F8003004F1100203EB820133F8223030
:102AB0004A8820BB05EB44040AF1010AA08195F87D
:102AC00030605FFA8AF46EB9D8F80030DFF87CC065
:102AD0009B7E9CF80060DA1CB242BCBF1E1DF6B2A1
:102AE00087F83060B44239D2072CD8F80030D0D9FA
:102AF000DBF8003015482146984780B2DAE7C01A63
:102B00004FF47A71D31A01FB00F292FBF3F30B44FA
:102B100040F6C902934200F32E8340F2EE22934224
:102B2000B8BF134698B2C5E7AC260020C4250020E4
:102B3000E82C0020404B4C00715500201906002065
:102B4000D826002000007A4400C07F44902700204F
:102B5000C44F0020D026002004040020B64AB74B02
:102B600006921B681268059342F201031340D3F1E9
:102B7000010338BF00230993002B40F02E83B04996
:102B800095F832304A780A7085F83130002B00F021
:102B90002983AB4991F800B08BF0010BDFF8E8C254
:102BA000A84B9CF800C0CDF81CC00799DFF8ACE238
:102BB000D8F800A09EF800C0DDF81CE0DFF8CC9249
:102BC000A14AA3FB01135B0803EB4303C3EB0E0114
:102BD000C9B20F230027089185F833300999CDF841
:102BE00024803C46E04616B333469C422BDABBF1C8
:102BF000000F00F08A83954BF85ABAF816308342DA
:102C000000F24783BAF818308342C0F04283059B34
:102C100003F5967E42F824E08D4B002900F04383B3
:102C2000D8530134023709F10609002EDCD19AF895
:102C30001A30D81C4045C0F26A8343469C4285F84E
:102C400030804646D3DB95F83330DDF82480B3F18D
:102C50000F046342634185F898307E4C1BB12368B2
:102C6000580140F1B8857C48744982680F68436810
:102C70007349C760BA1A9A42784AD8F800A0DFF8B8
:102C8000D0914FF0010788BF00234F700F7088BFAD
:102C900080F8213017784FF0000B66B133469B4522
:102CA0005FFA8BF017DA12F061FB29F81B000BF1C9
:102CB000010B002EF2D19AF81A30DA1CBA4203F155
:102CC0000403C0F243833B469B4585F830703E4683
:102CD0005FFA8BF0E7DBDDF81CC0DFF8ACE10CF14C
:102CE00001038EF800303CE45D4B1B78990720D53A
:102CF0005C4B1B78042B1CD92368564E13F40078C8
:102D000040F0AE833A88584F02F0100189B2002992
:102D100040F04F860E465B0500F15686970600F19F
:102D2000A48695F80931514F002B00F0B6837EB987
:102D300044E53B8803F03003002B3FF43FAD102007
:102D400011F098FA202011F095FA494B00221A70E0
:102D5000DFF83CE1DFF83C91DFF83CA1DFED457A9C
:102D600000220EF128080EF1500C1146134642487D
:102D700029F801300EEB020708EB020643522AF84D
:102D800001300CEB020002310429C7ED007A7B60B0
:102D9000C7ED027AC6ED007A7360C6ED027AC0ED27
:102DA000007A4360C0ED027A02F11402DFD105E53A
:102DB000069A1368D80640F1F981059B1A7802F04B
:102DC0000402D2B22D4B002119702D4B0021197035
:102DD000002A3FF461ACDDF818C0DCF80030DA06F8
:102DE0007FF55AAC1E4B1B78DB063FF555AC3078AF
:102DF000244F002800F04B859BF8E431B8F1000F18
:102E000040F011864BB10D4AD5F8BC301268DFF89E
:102E10005C909B1A002BC0F2DE8610200EF004FEA0
:102E2000012385F8C030307837E4DFF870A0D2375E
:102E3000B846AAF1CC0937E0C0200020C44F0020DA
:102E40001C060020ABAAAAAAFC26002014340020ED
:102E5000D8260020F42E0020AC2600209027002049
:102E600034250020222E0020E82C002008340020E9
:102E700020360020000000000C2F0020815500208B
:102E80001A06002019060020D42600203C34002019
:102E90001435002078550020082F0020D43400205D
:102EA000482E07F1060732D008EB060318F8062073
:102EB0005B7817F8010C9A4206F10606F0D2394603
:102EC0000DF0BCFC0028EBD03B79B878C64997F8E8
:102ED00003C003EB430E0AEB8E02013800EB400007
:102EE000084451688842DBD00AF82EC099F8FC10DB
:102EF00050604FF0010C0CFA03F321EA03030020A9
:102F0000482E906089F8FC3007F10607CCD1B74B0A
:102F1000B74AD3F80090126895F83180B54E9FED0E
:102F2000B69A9FEDB68A07920027CA46736883B3A4
:102F300093F80090B9F1000F2BD0B268C2EB0A02EF
:102F4000002A0ADB95F8FC200121B94022EA0101A0
:102F50000AF5FA7285F8FC10B260B8F1000F18D0CB
:102F600031785A780431C9B2002A40F06F81A44AFE
:102F7000BBF8960132F9112000F1C8018A4240F3F2
:102F8000218295F8FC20997842FA07F3D80740F19E
:102F90009D820137042F06F10C06C7D1FFF7E9BB6C
:102FA00095F8C630974AB3B1DDF814C09CF80030EC
:102FB0005B0710D59249BBF89831B1F906109942D8
:102FC00009DD236813F0010006D1322182F8C60022
:102FD000A2F8C81000E02368DF0340F1CF8095F825
:102FE000CA20884B2AB993F8C42012B93222A3F818
:102FF000C820012385F8CA30FFF78EBB337819F15A
:10300000000918BF4FF001096BB197F8C1305F2B71
:1030100000F01A82B9F1000F05D095F8C130794F50
:103020007D2B00F04582059A137803F0040303F02A
:10303000FF02002B40F0F88095F8C1707149572FBE
:1030400000F0D983DDF818C0DFF8D481DCF8003057
:1030500013F0040302D05A2F00F052825D2F00F0CB
:10306000E7835B2F00F02E845E2F00F03782562F0F
:1030700000F0E083337843B16F2F00F00885B9F199
:10308000000F02D07E2F00F0CD80972F00F0DA8461
:10309000A72F40F0D1835C4ADDF818C01178DCF826
:1030A00000305A4E41F00401117003F00403FFF7A1
:1030B00030BB92F8C210F9293FF612AB013182F809
:1030C000C210FFF70DBBDDF814E09EF80030590781
:1030D0007FF514AB92F83130002B3FF40FAB4C4B23
:1030E000DB78002B7FF40AAB92F8C3300133DBB2FC
:1030F000032B82F8C3307FF601ABBCF1000F03D184
:10310000B8F1000F7FF4FAAA11F0E0FBFFF7F6BA6E
:10311000404A3B4B1268D5F8B4E0D2891A805A80F5
:103120009A80D8F80000DBF81420BEF802E0A3F87B
:1031300006E08242364BC0F09B80002900F05285A9
:1031400093F820204FF00209FFF7F9BB394645E418
:10315000B9F1000F04D030498B78002B7FF48AAA94
:1031600007F02057B7F1205F7FF483AAFFF794BAE6
:1031700011F052F853E440F6CA009BE495F8C430CD
:10318000204A002B3FF4C8AADDF814C09CF8003098
:1031900003F0040303F0FF01002B7FF4BDAA012319
:1031A00082F8C41082F8C530FFF7B6BADDF814C053
:1031B0009CF8003003F0040303F0FF02002B3FF4FF
:1031C00001AE236819017FF5FDAD134FBB78002BCD
:1031D00040F0C48311490B70F7E595F83130002BAE
:1031E0007FF4D7AC9B46D9E448D60108C44F0020F1
:1031F000982E0020D434002000007A440000C842F9
:10320000D826002008340020342500207C2500200A
:10321000AC260020A42600201C060020815500209A
:10322000C020002011F0CAFBDDF818C0C04EDCF849
:10323000003003F00403FFF76CBA059A1378D8073F
:103240007FF55CAA11F0BAFBFFF758BA012A00F02B
:10325000478395F8FC300122BA4001371343042F0D
:1032600085F8FC3006F10C067FF460AEFFF781BAFA
:1032700047F2305303224FF00209CBF81C308BF891
:103280002020FFF75CBB022010F0C6FF3988FFF753
:1032900089BA52F82430059883423ED9A54BD85BB1
:1032A00000297FF4BDACDDF820E004EB440CF444CD
:1032B00005EB4C0C95F87CE080B20190ACF8340042
:1032C000BEF1000F08D10798022844D9DFF880E248
:1032D0004FF0010C8EF87CC0B9F800C0B9F802E0DC
:1032E000B9F80400E644704480B20FFA80FE009002
:1032F000914880FB0EC0A0EBEE7E9048DDF800C048
:1033000027F800C01FFA8EF08AE4584675E40433AB
:10331000DBB21E4685F8303067E4E3B2184602910E
:103320000392049312F022F8049B0299039A032B50
:103330003FF672AC95F833C07E4B4FF0010E0EFA9B
:1033400004FE2CEA0E0C85F833C066E4DBB21E46A0
:1033500085F83030A3E4019862E411F0B7FA3668DA
:10336000FFF709B9764A774B1068198807F014FF00
:10337000012800F0AA82089B23B1D5F8B4301B794C
:10338000002B7FD1002F7FF44DABD8F80020DBF865
:1033900010306D499342C0F03F82012281F8202015
:1033A000FFF7CDBA10F048FF9BF82020FFF7C7BA0F
:1033B00005F016FE654B01280CBF187083F80080DD
:1033C000FFF747B9C838824250DA95F8FC209B785D
:1033D0003A41D2073FF5DDAD5B4208EE903A01205D
:1033E00010F000FF09F1FF33132B3FF632AF0FF25D
:1033F000080C5CF823F000BF55360008253600089D
:10340000F3350008AB350008D936000883360008CC
:10341000F7360008553500089D3700084D3700087D
:103420007537000853320008AB350008D535000861
:1034300083360008F736000855350008B136000815
:103440002537000883350008059A137803F0040334
:1034500003F0FF08002B00F02E8211F037FAD9E5B7
:103460003B88DA0640F1958200265AE495F8FC3054
:103470000122BA4023EA02020AF5FA7385F8FC2019
:10348000B36086E510F0D8FE03224FF47A738BF810
:103490002020CBF81C30FFF752BA0E200EF0C4FAF1
:1034A000012387F80931002E7FF452ACFFF786B96B
:1034B000DDF814C09CF8003003F0040303F0FF08AB
:1034C000002B00F0A98211F001FAACE508EE901A89
:1034D000002984D0022010F085FE83E70222032613
:1034E0008BF8D02710F0DEFD12F024FB304610F0F0
:1034F00079FE069A0E4E136803F00403FFF709B92C
:1035000091F8C400002840F0E28291F8C63083F0C0
:10351000010381F8C630002B40F0CF820D200EF061
:1035200083FAD8F80030024E03F00403FFF7F1B835
:103530007C250020D826002056555555883400207B
:10354000A4260020A8260020AC26002081550020BB
:1035500008340020D5F804311A78022A00F081835B
:10356000997D18EE900A0144C829A8BFC82121EA14
:10357000E1719975112007F0D7FFB9F1110F3FF4F0
:1035800068AED5F804311A78022A00F0E682597D37
:1035900018EE902A1144C829A8BFC82121EAE17178
:1035A0005975142007F0C0FF53E6DDF81CC018EE73
:1035B00090EA9CF8051071446429A8BF642121EAAF
:1035C000E1718CF805100D2007F0AEFFB9F10D0F79
:1035D0003FF43FAE079A18EE903A117919446429E6
:1035E000A8BF642121EAE17111710E2007F09CFF50
:1035F0002FE6079A18EE903A92F803909944B9F1A1
:10360000640FA8BF4FF0640929EAE97982F80390B2
:10361000D5F80011104604F013F94946032007F0CD
:1036200083FF16E6DDF81CC018EE90EA9CF80190C6
:10363000F144B9F1640FA8BF4FF0640929EAE979B0
:1036400060468CF8019004F055F94946022007F0D5
:103650006BFFFEE5079A18EE903A92F800909944B5
:10366000B9F1FA0FA8BF4FF0FA0929EAE979104633
:1036700082F8009004F03EF94946012007F054FF1B
:10368000E7E5D5F804311A78022A00F0AF8299787C
:1036900018EE900A0144C829A8BFC82121EAE171A7
:1036A00099700F2007F040FFB9F10F0F3FF4D1AD33
:1036B000D5F804311A78022A00F0B282597818EE4F
:1036C000902A1144C829A8BFC82121EAE171597084
:1036D000122007F029FFBCE5DDF81CC018EE90EAC7
:1036E0009CF80610714481F308018CF8061005203F
:1036F00007F01AFFADE5D5F804311A78022A00F078
:103700004782197B18EE90CA6144C829A8BFC82116
:1037100021EAE1711973102007F006FFB9F1100FCB
:103720003FF497ADD5F804311A78022A00F0D4821C
:10373000D97A18EE90EA7144C829A8BFC82121EAB5
:10374000E171D972132007F0EFFE82E5D5F804315C
:103750001A78022A00F09F82597B18EE90EA714491
:10376000C829A8BFC82121EAE17159730A2007F0CE
:10377000DBFE6EE5D5F804311A78022A00F0C78224
:10378000D97D18EE900A0144C829A8BFC82121EAB2
:10379000E171D9750B2007F0C7FE5AE5D5F8043161
:1037A0001A78022A00F0BE81D97818EE90CA6144D6
:1037B000C829A8BFC82121EAE171D970092007F002
:1037C000B3FE46E5C649DBF81C2009680A44CBF87D
:1037D0001820FFF727B9C34BDFF804E3D968DEF8F8
:1037E00000209A60521AC82A7FF675AA012283F82F
:1037F0002120FFF770BADDF818C0BB4ADCF80030B2
:10380000BA4E4FF47A7111801A0600F1BA8003F0B3
:103810000403B74EFEF77DBF029110F00DFD029933
:10382000032240F6B83381F82020CB61FFF787B838
:10383000012655E608F0BCFF0023BB2F0B9300F0D8
:103840000E81B72F00F01A81BE2F00F02981BD2F05
:103850007EF45AAF4FF6FE71ADF82C10A44E3268CC
:10386000B2F86070B2F8620039440344A2F86230E2
:10387000A2F8601008F09CFFDDF818C0DCF80030FA
:10388000002203F0040385F8C220FEF742BFB8F11E
:10389000000F3FF4C2AA95F8C030DFF87C92002BED
:1038A0003EF4FBAE04900EF0A3F8049889F8C00033
:1038B0003878FEF7F2BE0B200EF0B6F887F8C2801B
:1038C000FFF7A8BB012202260AE6D5F8B430D8F8E3
:1038D0000020DB88642101FB0323CBF810304AE58C
:1038E00084489A7830F91130B3F5617FC0F2CD8009
:1038F00040F633018B42A8BF0B46A3F56173B9F1C3
:103900000C0F7FF4A6AC4FF4966191FBF2F293FB9F
:10391000F2F395F808215FFA83F94A453FF499AC30
:10392000B9F1030F8ABF02234B461A46C3EBC30308
:1039300071490BEB430398BF4A4603F2D2730B6005
:1039400085F8082103F0F4FF0C20494607F0ECFD50
:1039500009F10100C0B210F045FC7AE46049D5F8E5
:10396000B83009688B42BFF430AA039205F038FBE7
:10397000039A00287FF429AA604BB8701870FFF7EB
:1039800024BA0FF06FFA3368594E03F00403FEF7C0
:10399000C0BE102010F040FC202010F06BFC5848F6
:1039A000011D0FF00DFA574B02221A700126FFF786
:1039B000B8B9102010F05EFC524933683A8881F89B
:1039C00000800126FFF7A7B94F4B50491B68B1F99A
:1039D00000005B890028B8BF40429842BFF69EA90C
:1039E000B1F902100029B8BF49428B427FF796A96E
:1039F00093063FF596A9202010F00EFC444B454E4F
:103A00000CCB3046311D736032600FF0D9F93D4B5D
:103A100001261E70FFF785B90B200EF005F887F818
:103A2000C280FFF700BB002B3ED195F8C0303A4F63
:103A3000002B3EF432AE0DF0DBFF002387F8C030E0
:103A4000FEF72ABEDDF818C0344ADCF80030284EF4
:103A50004FF4C871118003F00403FEF75ABE02222E
:103A60001946ADF82E201346F8E6202010F002FC8F
:103A7000244B00221A700126FFF753B94FF6FE724D
:103A80001946ADF82E201346E8E6002337E710F07C
:103A900095FF069A164E136803F00403FEF739BE2D
:103AA0000221ADF82C10D9E60D4A12684FF47A7154
:103AB00001FB0323C5F8BC30B7E70C200DF0B4FFC1
:103AC000D8F800300A4E03F00403FEF722BE0120AE
:103AD00081F8C42081F8C500054EFEF71ABE00BF6C
:103AE000C44F0020AC26002072550020C0200020CA
:103AF0007C250020D8260020982E0020815500200B
:103B00000C36002020360020E42700209C2E0020C8
:103B10000036002018360020083400202A2C00200F
:103B200000000000B8EEE80AD3ED0A7A80EE080A39
:103B300030EE270AB5EEC00AF1EE10FA42D4B4EE28
:103B4000480AF1EE10FAC8BFB0EE480A83ED0A0A3F
:103B5000092007F0FFFCFFF77CBBB8EEE80AD3EDC5
:103B60000E7A80EE090A30EE270AB5EEC00AF1EEB1
:103B700010FA2AD4B4EE480AF1EE10FAC8BFB0EE3B
:103B8000480A83ED0E0A142007F0E4FCFFF761BB3E
:103B9000B8EEE80AD3ED0C7A80EE080A30EE270A78
:103BA000B5EEC00AF1EE10FA12D4B4EE480AF1EE06
:103BB00010FAC8BFB0EE480A83ED0C0A102007F0D7
:103BC000C9FCABE51FED2A0AC0E71FED2B0AD8E7B9
:103BD0001FED2D0AF0E710F079FE89F8C0803878E3
:103BE000FEF75BBD4FF00209FEF720BFB8EEE80A12
:103BF000D3ED097A80EE080A30EE270AB5EEC00A46
:103C0000F1EE10FA27D4B4EE480AF1EE10FAC8BF6C
:103C1000B0EE480A83ED090A0F2007F09BFC43E54C
:103C2000B8EEE80AD3ED087A80EE080A30EE270AEB
:103C3000B5EEC00AF1EE10FA10D4B4EE480AF1EE77
:103C400010FAC8BFB0EE480A83ED080A122007F048
:103C500081FCFFF7FEBA1FED4E0ADBE71FED500AAD
:103C6000F2E7B8EEE80AD3ED0F7A80EE090A30EEFB
:103C7000270AB5EEC00AF1EE10FA27D4B4EE480ACE
:103C8000F1EE10FAC8BFB0EE480A83ED0F0A11201A
:103C900007F060FC71E4B8EEE80AD3ED0D7A80EE2F
:103CA000080A30EE270AB5EEC00AF1EE10FA10D479
:103CB000B4EE480AF1EE10FAC8BFB0EE480A83ED40
:103CC0000D0A0A2007F046FCFFF7C3BA1FED6C0A85
:103CD000DBE71FED6D0AF2E7B8EEE80AD3ED0B7AE9
:103CE00080EE080A30EE270AB5EEC00AF1EE10FAAF
:103CF00028D4B4EE480AF1EE10FAC8BFB0EE480A74
:103D000083ED0B0A132007F025FCFFF7A2BAB8EEEB
:103D1000E80AD3ED107A80EE090A30EE270AB5EEF4
:103D2000C00AF1EE10FA10D4B4EE480AF1EE10FA1F
:103D3000C8BFB0EE480A83ED100A0B2007F00AFC5A
:103D4000FFF787BA1FED8A0ADAE71FED8B0AF2E761
:103D50002DE9F04F964803788DB06BB9954D964E8E
:103D600095F84A30012B00F0198194484C35854272
:103D7000F6D10DB0BDE8F08F914D28680028F8D03D
:103D800005F10809A84603F0DBFE0028F1D02868F9
:103D900003F0D0FE0928034621D03F281FD0D8F8D1
:103DA0000420002A6DD00C2800F0CA800A2B00F0F5
:103DB00082800D2B7FD07F2B00F06F812F2A0CD8B3
:103DC000A3F12001C9B25E2907D8AC181946013207
:103DD000286823726A6003F0C9FE2868D3E7794E29
:103DE0006C684FF0000A06F5E07B57462CB1764828
:103DF0003168224615F08AF910B9B246002F3ED03C
:103E000010365E45F2D3002F53D03A68DAF800300E
:103E1000125D1B5D93424CD16B4823460AB92D2B92
:103E20003ED9C2543A68DAF8001001336B60D25CB4
:103E3000C95C9142F2D00BB1574513D0634806F0EC
:103E40000DFABA4509D357F8100B06F007FA28689F
:103E5000092103F08BFE5745F5D95D4806F0FEF9C0
:103E60006B6800249C42B8D2574E315D286803F03D
:103E70007DFE6B6801349C42F7D3286883E73746A0
:103E8000BEE7042800F058810C2859D07F2BA4D01D
:103E9000A3F12001C9B25E299FD8202B95D19CE7C0
:103EA000591C68182B4420261E7269600B4602724A
:103EB000C2E72346BFE7474806F0D0F9424823212E
:103EC00015F007F9002800F01D813F49421AC8F893
:103ED000042082B1531EE918097A202940F0F080AD
:103EE00043B15A1E364819F80210202930D1134622
:103EF000002BF6D16B60384BDFF8B4C00022C9F854
:103F0000002043F80C2C43F8082C43F8042C43F809
:103F1000042B43F8042B43F8042B43F8042B43F8F9
:103F2000042B43F8042B9CF8001043F8042B1A6070
:103F300000293FF41EAF264806F090F9286822E7D2
:103F4000264806F08BF9224806F088F928681AE717
:103F50004360234A1B4CD2F800A02B4400221A7263
:103F600004F5E07B2668304615F0C8F83146074670
:103F70000246154815F0CAF838B908EB07031B7A52
:103F800053445B785B0700F0A78010345C45E9D3AD
:103F9000144806F063F900236B60ACE7DFF820807B
:103FA0002868C8F83850C8F83C00C146002725E00A
:103FB000755500200C26002000040240A426002095
:103FC0009035002084D601089835002094F001082F
:103FD0009CF0010824ED0108A8350020A4F0010898
:103FE00078140020B0F0010824284BD0DFF898A105
:103FF0009AF800305B0737D5D8F83C0003F0A0FDF5
:1040000020B3D8F83C0003F095FDD8F8382092F89A
:1040100048300446002BE7D0012B37D0022B48D084
:10402000032B4FD0042B70D0052B5ED0062BE3D191
:1040300092F8490001F008FB002800F0A78006F084
:10404000A7F8D8F83830002283F8482098F8913043
:10405000002B3FF48AAE286806F036F907F056F9CF
:1040600003F0DEFC0FF0C2FF232CD9F83C3067D000
:104070003D4B1B681B78A34251D0D8F8382092F8EA
:104080004830D3E7012382F84830CFE74D280CBFF2
:104090000223002382F84830C8E7013A08EB020304
:1040A00000213248C8F80420197206F0D7F82868B1
:1040B00069E63C280CBF0323002382F84830B5E7AB
:1040C000134646E7402819D8042350711771D77159
:1040D000907182F84830A9E75C45BFF459AF244A93
:1040E000E368781C1044984755E711795079884265
:1040F00000F22E819379A34200F0628182F8487029
:10410000002393E7D8F80420E3E6937982F8490086
:1041100080EA03040523947182F8483086E7802101
:104120006B2007F01FF8962003F070FC114B124A29
:104130001A6072B60FF0B4F90D4809F08DF918E65F
:104140000E490F48C9F800300122C9F840300A7002
:1041500006F084F80B4806F081F89AF8003043F036
:1041600002038AF8003083E7BC210020CCF001086C
:1041700098350020FCFF0120EFBEADDE7555002014
:10418000D0F001089CF0010871550020D8F83840A3
:1041900094F84930233BD72B01F22F82DFE813F04C
:1041A0000D0A2D0A030A2D0AD9092D0AAA092D0A7A
:1041B000A1092D0A4C092D0A29092D0AE2082D0A08
:1041C000C8082D0A50082D0A14032D0A27082D0AA5
:1041D0002D0A16082D0A05082D0A2D0AF7072D0AA3
:1041E0009D0798072D0A2D0A2D0A2D0A2D0A0B016D
:1041F0002D0A7A072D0A3A072D0A2D0A2D0A2D0AB3
:104200002D0A2D0A2D0A2D0A2D0A2D0A2D0A2D0AF6
:104210002D0A2D0A2D0A2D0A2D0A2D0A2D0A2D0AE6
:104220002D0A2D0A2D0A2D0A2D0A2D0A2D0A2D0AD6
:104230002D0A2D0A2D0A2D0A2D0A2D0A2D0A2D0AC6
:104240002D0A2D0A2D0A2D0A2D0A2D0A2D0A2D0AB6
:104250002D0A2D0A2D0A2D0A2D0A2D0A2D0A2D0AA6
:104260002D0A2D0A2D0A2D0A2D0A2D0A2D0A2D0A96
:104270002D0A2D0A2D0A2D0A2D0A2D0A2D0A2D0A86
:104280002D0A2D0A2D0A2D0A2D0A2D0A2D0A2D0A76
:104290002D0A2D0A2D0A2D0A2D0A2D0A2D0A2D0A66
:1042A0002D0A2D0A2D0A2D0A2D0A2D0A2D0A2D0A56
:1042B0002D0A2D0A2D0A2D0A2D0A2D0A2D0A2D0A46
:1042C0002D0A2D0A2D0A2D0A2D0A2D0A2D0A2D0A36
:1042D0002D0A2D0A2D0A2D0A2D0A2D0A2D0A2D0A26
:1042E0002D0A2D0A2D0A2D0A2D0A56061506F5054A
:1042F0002D0A72055A054E0582047A04E300500423
:104300003104D7032D0AA4022D0A1B022D0A2D0AFF
:104310002D0A2D0A2D0A2D0A2D0A2D0A2D0A2D0AE5
:104320002D0A2D0A2D0A2D0A2D0A2D0A2D0A2D0AD5
:104330002D0A2D0A2D0A2D0AF7022D0A2D0ADB015E
:104340001E012D0A2D0A2D0A2D0A2D0A2D0A1401EF
:1043500092F806E0501884EA0E0E013182F806E069
:104360001171047262E6E3795A1C2344E27193F8F6
:1043700008B005F053FF824605F050FF814605F076
:104380004DFFE37905330746E371BBF1000F00F001
:104390006E83BBF1100F0ED1C8F888A0C8F88C90BE
:1043A000CA4B08B1C3F88400C9480223011D88F82C
:1043B00090300EF005FD0020014605F0F9FE3EE6C6
:1043C000062382F8483031E6C24B1B785A0701F1C8
:1043D00014810FF067FE11F0ADFBECE7E379E21812
:1043E000013392F80890E371B9F1FF0F00F02082D9
:1043F00098F89230DFF8D4A2994580F0148200201A
:10440000014605F0D5FE05F0C3FEDAF8383018682D
:1044100005F05AFFDAF83C0005F074FF0DF0E8FAF9
:1044200072B680234FF0400B03AC4FEAC909738387
:1044300001270422A6F81AB02146A748ADF80C308F
:10444000CA448DF80E208DF80F7005F02BFD214623
:10445000A1488DF80E708DF80F70ADF80CB005F016
:1044600021FDBAF89810DAF8943001FA07F21868CA
:1044700007FA01F19740384389B218601983A6F80A
:1044800018B031690806FCD408EB09011868B1F8C6
:1044900098C0D1F894E0012707FA02F207FA0CFC61
:1044A00042EA00011FFA8CFC4022002019600146FC
:1044B000AEF81AC0728303F06BFD3846394603F03C
:1044C00067FD42F20F7702E0002F40F0228233694D
:1044D000814A1906F8D508EB090B4FF0010ABBF821
:1044E0009830DBF89400BBF89A100AFA03F39BB2F9
:1044F00003830423ADF80C10214601928DF80E3091
:104500008DF80FA005F0CEFC5046002103F040FDD1
:10451000019A002F00F0058233691A0613D5DBF8E3
:104520009430BBF898201B690AFA02F212EA0300E1
:1045300000F0F181402300203383014603F028FD81
:1045400033691A06EBD408EB0903B3F89820D3F8C3
:104550009430520098E7E279A318511C1B7AC9B233
:104560000F2BE17100F25F815C4F2144C3EBC30369
:104570003B44097A0232E27183F8D010E279A11843
:104580000132097AE27183F8D110E279A11801327F
:10459000097AE27183F8D210E279A1180132097A1E
:1045A000E27183F8D310E279A1180132097AE2713D
:1045B00083F8D410E279A1180132097AE27183F804
:1045C000D510E279A1180132E2710A7A83F8D62077
:1045D00003F094FEEFE6424BDFED427A1B680321C5
:1045E00003F13802E07900F1010E271854FA8EFE2B
:1045F0003F7A9EF808E007EB0E27BFB207EE107A6D
:10460000B8EE477A023087EE277AE071013902ED81
:10461000067AE07900F1010E04EB000754FA8EFEF1
:104620003F7A9EF808E007EB0E27BFB207EE107A3C
:10463000B8EE477A00F1020087EE277AE07102EDCA
:10464000037AE07900F1010E04EB000754FA8EFEC4
:104650003F7A9EF808E007EB0E27BFB207EE107A0C
:10466000B8EE477A00F1020087EE277AE071A2ECFB
:10467000017AB7D1DFED1B7A1A460421C3F1030793
:10468000B8180728E07947D004EB000E02309EF8F6
:1046900008E0E07182F804E0E07904EB000E0230FB
:1046A0009EF808E0E07182F80EE0E07904EB000E7D
:1046B0000A299EF808E000F10200E07182F818E093
:1046C0003FF479AE01310132DAE700BF90350020C6
:1046D000183600207155002000040240B818002050
:1046E0007C25002000007A44E179CD4B0A4603F195
:1046F000100002F1010EA71854FA8EFE3F7A9EF8C0
:1047000008E007EB0E2723F8027F02328342D2B281
:10471000EFD11031E1714EE600F1010C04EB000E17
:1047200054FA8CFC9EF808E09CF808C00EEB0C2EA6
:104730001FFA8EFE07EE10EAB8EE477A023087EED7
:10474000277AE07183ED117AE07900F1010C04EB36
:10475000000E54FA8CFC9EF808E09CF808C00EEBA2
:104760000C2E1FFA8EFE07EE10EAB8EE477A0230E2
:1047700087EE277AE07183ED127AE07904EB000E80
:1047800002309EF808E0E07183F84CE09AE7E379A4
:10479000A44A581CE11854FA80F0097A007A126889
:1047A00001EB00210233E371A2F86210E379581C97
:1047B000E11854FA80F0097A007A023301EB002103
:1047C000E371A2F86010F6E561799748A1FB002338
:1047D000CA1A03EB52039B08C3EBC303CB1A13F0B3
:1047E000FF0F20D1A0FB0123C91A03EB5103C3F330
:1047F000870000283FF4DFAD8C4B19688F1CE379EC
:10480000E218013392F808E0E3714FFA8EFC0022BF
:1048100001EB0209BB1899F90290E14500F04A85C5
:104820000832282AF4D10120002105F0C1FCC2E59C
:104830000027602239467E487E4C88F8927014F03A
:1048400015FC8DF80B709DF80B30A2789A4256D962
:10485000DFF8E4A127469DF80B3004EBC3035B7936
:10486000DB0741D59DF80B3007EBC3031B793AF901
:104870001330002B38DD9DF80B309DF80B2098F895
:10488000929007EBC20207EBC30392689B68118901
:10489000D3F804E04FEAC90208EB02030846C3F864
:1048A00094E0A3F89A104FF0010E00230EFA03F1E2
:1048B00001404AD10133102BF8D10B464244042168
:1048C000A2F89830B2F89A30ADF80C308DF80E108E
:1048D0000123D2F894008DF80F3003A909F10109E2
:1048E00005F0E0FA88F892909DF80B30A278013339
:1048F000DBB28DF80B309DF80B309A42ABD800201C
:10490000012105F055FC98F8920005F02FFCFFF707
:1049100096BB013FDBE540217183012103F038FBA9
:10492000FAE5402338463946138303F031FB62B67B
:104930000A2003F06BF80FF055FFDFF800C1DCF838
:104940003830F32283F8492035E59BB2B6E7637926
:104950000F2B7FF468AFE279A318511C1B7AC9B200
:10496000072BE1713FF65FAF901C2E4F214454FAA4
:1049700080F03F68007A097AC3EBC30307EB430773
:1049800001EB00210332E271A7F82111E279501CFA
:10499000A11854FA80F0097A007A023201EB002162
:1049A000E271A7F82311E279501CA11854FA80F0A3
:1049B000097A007A023201EB0021E271A7F8251191
:1049C000E279A1180132097AE27187F82711E279B8
:1049D000A1180132097AE27187F82811E379E21807
:1049E0000133127AE37187F82921E379E218013360
:1049F000127AE37187F82A2105F010FCC7F82B0121
:104A0000D9E4E379591CE21854FA81F1127A097A4F
:104A1000023302EB0122A8F84420E371CBE400BF8B
:104A20005E2F00207C25002025499224BC210020F7
:104A30002436002020220020342F00209035002032
:104A40008A4B1B7803F0040303F0FF01002B7FF473
:104A5000B2ACE279864BA718501C3A7AE071022A70
:104A600083F8D0277FF6B5AC83F8D017B1E41020D7
:104A7000C8F87CA0C8F880900FF0FCFB7D4B7E4A04
:104A8000197841F001011970002F3FF494ACC2F87D
:104A9000847090E4754B1B785C073FF58CAC0BF091
:104AA000F5FE96E4E379591CE21854FA81F1127A82
:104AB000097A02EB012189B26FF4AF67C8199A1C19
:104AC0006B4FC628D2B203F10300E27154FA80F0B2
:104AD000224498BFA7F89611117A90F808E0674829
:104AE000634A006801EB0E2EA7F840E1191D03F19F
:104AF000050E54FA81F154FA8EFE097A9EF808E008
:104B000001EB0E2EA7F842E1991D03F1070E54FAAE
:104B100081F154FA8EFE097A9EF808E001EB0E2E20
:104B2000A7F844E103F1080103F1090E54FA81F1F9
:104B300054FA8EFE097A9EF808E001EB0E2E03F17E
:104B40000A0154FA81F1A7F8DCE103F10C0E097AAD
:104B500087F8F11154FA8EFE03F10D019EF808E07A
:104B600087F8F2E154FA81F10E33097AE37187F89C
:104B70008511E379E1180133097AE37187F892111D
:104B8000E379591C03F1020E54FA81F154FA8EFEB6
:104B9000097A9EF808E001EB0E2101EB8101490042
:104BA0000333E371A0F85E10E379E1180133097A69
:104BB000E37187F87A11E379E1180133E3710B7A35
:104BC00087F87E31E379E1180133097AE37187F8D8
:104BD0007D11E379E1180133097AE37187F87F11D8
:104BE0006379172B7FF6E7ABE379E1180133097A94
:104BF000E37182F86111E379581CE11854FA80F0EE
:104C0000077A087A991C00EB072054FA81F1A2F880
:104C10005001097A0333E37182F85F11E379E118F7
:104C20000133097AE37182F86A11E379E1180133FB
:104C3000097AE37182F86911FFF7BDBB0B4B1B7852
:104C400059073FF5B8AB0B4B1A7842F004021A70C3
:104C5000FFF7B1BB054B1B7858073FF5ACAB084BD2
:104C60004FF4C8721A80FFF7A6BB00BF7155002031
:104C7000B818002034250020903500207C25002025
:104C80002A2C00206379092B7FF6CDADE279C64B43
:104C9000A1181B68097A0132E2711970E279A11832
:104CA0000132097AE2715970E279A018511C027A36
:104CB000E171642AA8BF64221A71E279A018511C1C
:104CC000027AE171642AA8BF64225A71E279A018BD
:104CD000511C027AE171FF2AA8BFFF229A71E27982
:104CE000A018511C027AE171642A28BF6422DA718B
:104CF000E279A1180132097AE2719970E279A1187A
:104D00000132097AE271D970E279501CA11854FA83
:104D100080F00232097AE271027A01EB02225A81B2
:104D200062790A2A7FF647ABE279A1180132097A43
:104D3000E271197262790B2A7FF63DABE2799B49E9
:104D40009B4FA0180132007AE2711873E2790B6868
:104D5000A1180132097AE27187F80914E279A118E1
:104D60000132097AE27187F80A14E279A118013256
:104D7000097AE27183F84E10E279A1180132097ABA
:104D8000E27183F84F10FFF716BB884B1B681A7847
:104D9000022A00F09480013B0022E179601801337F
:104DA000007A0131E1715870E17960180131007ABF
:104DB000E171D872E17960180132007A01310A2A72
:104DC000E1715875E9D1FFF7F6BAE379E1185A1C99
:104DD000097AD2B2E271002900F0D38075490878CF
:104DE00040F002000870224402337349127AE371E2
:104DF0000A7005F013FAC8F8700005F00FFAC8F849
:104E00007400E37998F87A206C4903F1010C981C3E
:104E100003F1030EE71854FA8CFC54FA80F054FAAC
:104E20008EFE9CF808C03F7A007A9EF808E007EBF7
:104E30000C2700EB0E20043342F00202A8F8787031
:104E4000E371088088F87A20FFF7B5BA63795B08C8
:104E5000122B3FF6E8AC002B00F09980E17901EBD2
:104E60004307FFB20A460DF10A0002F1010C04EB00
:104E7000020E54FA8CFC9EF808E09CF808C002323E
:104E8000D2B20EEB0C2EBA4220F802EFEDD101EBBC
:104E90004301E171581E4A49002B7BD05F0000227C
:104EA00003AC34F802E021F802E00232BA42F8D151
:104EB000122B6FD1012388F86C30FFF77CBADFED3D
:104EC000416A9FED417A03F138020321F2EE047A40
:104ED000E079271801303F7AE07106EE107AB8EEDB
:104EE000466A013986EE276A02ED066AE07904EB2C
:104EF000000700F101003F7AE07106EE107AB8EE8B
:104F0000466A86EE266A02ED036AE07904EB000742
:104F100000F101003F7AE07106EE107AB8EE466AC1
:104F200086EE076AA2EC016AD2D11A460421C3F1C7
:104F30000307F2EE047AB8180728E07904EB000EB4
:104F400000F101009EF808E042D0E07182F804E030
:104F5000E07904EB000E01309EF808E0E07182F881
:104F60000EE0E07904EB000E0A299EF808E000F15B
:104F70000100E07182F818E03FF41DAA013101320E
:104F8000D9E70C49087820F0020008702BE70C499B
:104F90004FF0FF300D4A01EB4001002321F8023FA2
:104FA0009142FBD186E700BF982E00207C2500208F
:104FB000B818002034250020222E0020242E0020A6
:104FC000D83500200000C84200007A44FA3500209D
:104FD00007EE10EAB8EE477AE07187EE277A83EDA4
:104FE000117AE07904EB000E01309EF808E0E071E0
:104FF00007EE10EAB8EE477A87EE277A83ED127A49
:10500000E07904EB000E01309EF808E0E07183F8CF
:105010004CE0B3E76279CB4BA3FB02C25208122AE1
:105020003FF601AC002A3FF4C6A9C74B40F2ED2E73
:1050300003EB420240F6CA0713E0B842B4BF014690
:105040003946DFF81CC3A1F2EE218CFB01C0C91761
:10505000C1EBE001C9B283F8A411023393423FF4DB
:10506000AAA9E17960180131007AE17183F8A301FE
:10507000E17901F1010C601854FA8CFC007A9CF87B
:1050800008C000EB0C2080B202317045E171D4DC25
:105090000021E0E7E379AC4FE2180133127AE371C3
:1050A00087F8DA21E379E2180133127AE37187F89D
:1050B000DB21E379591CE21854FA81F1127A097A5A
:1050C000023302EB0122E371A7F8DC21FFF773B989
:1050D000012388F89130FFF76EB9E3799A4FE2180F
:1050E0000133127AE37100237A71BB6005F096F800
:1050F000BB681843B860E379E2180133127AE371B0
:1051000087F89021E3795A1CE11854FA82F2087A60
:1051100092F808E0991CDA1C00EB0E2054FA81F199
:1051200054FA82F2A7F8580192F808E0087A5A1D5A
:10513000191D00EB0E2054FA81F154FA82F2A7F8FF
:105140005A0192F808E0087ADA1D991D00EB0E204A
:1051500054FA81F154FA82F2A7F85C01087A92F8C5
:1051600008E003F1090103F1080200EB0E2054FAF4
:1051700082F254FA81F1A7F88001127A097A0A338F
:1051800002EB0122E371A7F88221FFF714B96F4BFC
:1051900003F10801E279A0180132007AE27103F804
:1051A000010F8B42F6D1FFF706B9E379664FE2189B
:1051B0000133127AE37187F8E421E379E2180133CD
:1051C000127AE37187F8E321FFF7F5B8E3796049D4
:1051D000E2180133127AE3710B683AB3022A2CDC2D
:1051E0001A7025D15B4B5C4A1A60FFF7E4B8E3798B
:1051F000554FE2180133127AE37187F87A21E37987
:10520000E2180133127AE37187F87E21E379E2181C
:105210000133127AE37187F87D21E379E2180133D3
:10522000127AE37187F87F21FFF7C5B801221A705F
:10523000484B4A4A1A60FFF7BEB802221A70D1E7FB
:10524000E379E218591C127AC9B20B2AE1713FF6D0
:10525000EAAA3F48214402EB4202097A0068520060
:10526000D032023302440329E37102F101033FF615
:10527000DAAA9171E17960180131007AE171507018
:10528000E279A1180132097AE2715970E279A11824
:105290000132097AE2719970E279A1180132097A32
:1052A000E271D970E279A1180132097AE2711971BB
:1052B000FFF781B883F800E0E27902F1010C04EB1A
:1052C000020E54FA8CFC9EF808E09CF808C00232EA
:1052D0000EEB0C2EE271A3F802E0E27904EB020E71
:1052E00001329EF808E0E27183F804E0E27904EB11
:1052F000020E01329EF808E0E27183F805E0E279DF
:1053000004EB020E01329EF808E0E27183F807E038
:10531000E27904EB020E01389EF808E0013210F049
:10532000FF00E27183F806E07FF469AAFFF743B853
:10533000E379054FE2180133127AE37187F892217D
:10534000FFF739B8ABAAAAAAB81800203F1A002064
:105350007C2500201414002035BC000875B7000817
:105360001F85EB51E17962184B1C127ADBB21F2AC0
:10537000E3713FF658AA607908287FF454AA2344C1
:10538000AE4F187A8C3207EB820300F03F000331F6
:10539000E1715880E17960180231007AE171598831
:1053A000800100F4FE5001435980E17904EB010EC5
:1053B000481C9EF80810E071090107F82210E179F5
:1053C00060180131E171007A17F8221000F00F0027
:1053D000014307F82210E279A1180132E2710A7A3A
:1053E0005A700DF01BFF0DF075FF0DF051FFFEF729
:1053F000E2BF924B03F14001E279571CA01854FA26
:1054000087F7007A3F7A023200EB0720E271A3F8B7
:10541000B002E279A0180132007AE27183F8B20298
:10542000E279A0180132007AE271043383F8AF0206
:105430008B42E1D1FEF7BFBFE379804AE118013327
:10544000097AE37182F89011E379591CE01854FA53
:1054500081F1077A91F808E0981CD91C07EB0E2718
:1054600054FA80F054FA81F1A2F89A71077A91F80F
:1054700008E0181D591D07EB0E2754FA81F154FA64
:1054800080F0A2F896710F7A007A991D00EB072040
:1054900054FA81F1A2F89801097A0733E37182F88E
:1054A00091116379082B7EF686AFE379581CE118D9
:1054B00054FA80F00F7A90F808E0991CD81C07EB9A
:1054C0000E2754FA81F154FA80F0A2F89E71097AFD
:1054D000007A043301EB0021E371A2F8A011FEF77A
:1054E0006ABFE379554FE2180133127A7A71E3719A
:1054F000FEF761BFE379514F591CE21854FA81F16C
:10550000107A91F808E09A1CD91C00EB0E2054FA8E
:1055100082F254FA81F1A7F88001097A127A181DF3
:1055200002EB012254FA80F0A7F88221991D5A1D3E
:10553000007A87F8840154FA82F254FA81F1127ADF
:10554000097A073302EB0122E371A7F88621FEF7FF
:1055500032BFE379394F591CE21854FA81F1107ABD
:1055600091F808E0DA1C991C00EB0E2054FA81F146
:1055700054FA82F2A7F85801087A92F808E0591D07
:105580001A1D00EB0E2054FA82F254FA81F1A7F8AA
:105590005A01127A097A063302EB0122E371A7F865
:1055A0005C21FEF708BF254F0023BB6004F036FEE8
:1055B000BB681843B860FEF7FEBEE279A318571C1B
:1055C000187AFFB21328E7713FF62DA91C491D4B2D
:1055D000096827442030023201EB800097F808E088
:1055E000E27103F5CC77421C93F808C0F4450AD069
:1055F0000C33BB42F8D1FFF716B90120002104F0AB
:10560000D7FDFEF71CBD1B784370E379E01801332A
:10561000007AE3715070E379E0180133007AE371A6
:105620009070E379E0180133077AE37101F18100AA
:10563000D77003F0EFFBFEF7BEBE00BFB818002026
:105640007C25002044D801082DE9F04F2DED048B76
:10565000013883B0FD2801F29B80DFE810F0760668
:105660006406540643062306990899089908990880
:105670009908990899089908990899089908990822
:105680009908990899089908990899089908990812
:105690009908990899089908990899089908990802
:1056A00000069908F5059908DC059908BF059908D1
:1056B0009A059908690599084D05990820059908E2
:1056C00014059908F1049908D50499080E0799085A
:1056D0000407F8069908E80699089908D906990870
:1056E000A6069908990898068606990899087407E5
:1056F0009908630799083A07990899089908990839
:105700009908990899089908990899089908990891
:105710009908990899089908990899089908990881
:10572000990899082607C3078F079308D0046603D2
:105730003E0322030503F702BA02710240029908F0
:105740000904CB038E038103A8048704F701990899
:10575000990895019908990899089908990899084C
:105760009908990899089908990899089908990831
:105770009908990899089908990899089908990821
:105780009908990899089908990899089908990811
:10579000990899089908990899089908830199081E
:1057A0009908990859019908990899089908990838
:1057B00099089908990899089908990899089908E1
:1057C00099089908990899089908990899089908D1
:1057D00099089908990899089908990899089908C1
:1057E00099089908990899089908990899089908B1
:1057F00099089908990899089908990899089908A1
:105800009908990899089908990899089908990890
:105810009908990899089908990899089908990880
:105820009908990899089908990899089908990870
:105830009908990899089908990899083C0115014F
:105840009908990899089908990899089908990850
:105850009908990899089908FE0000200821B04C81
:1058600004F0A6FC04F1080634F8025FE8B204F084
:105870007DFC280A04F07AFCB442F5D1012003B083
:10588000BDEC048BBDE8F08F00207021A54C04F026
:105890008FFC04F1700594F8D00004F067FC94F8D4
:1058A000D10004F063FC94F8D20004F05FFC94F89B
:1058B000D30004F05BFC94F8D40004F057FC94F897
:1058C000D50004F053FC073494F8CF0004F04EFCEC
:1058D000AC42E0D1D2E7944C0421002004F068FCF3
:1058E0002368B3F86250E8B204F040FC280A04F0E0
:1058F0003DFC2368B3F86040E0B204F037FC200AB6
:1059000004F034FC012003B0BDEC048BBDE8F08F43
:10591000864D297889000131C9B2002004F048FC85
:10592000287804F023FC2B78002BA7D0002405F165
:10593000040905F1140805F1240705F1340619F8E6
:10594000040004F013FC18F8040004F00FFC385DA8
:1059500004F00CFC305D04F009FC2B780134A34208
:10596000EDD88BE70C21002004F022FC704B186866
:1059700004F042FC6F4B186804F03EFC6E4B186854
:1059800004F03AFC01207AE700203C2104F010FCEE
:10599000654C9FED6A8A0025236803EB850393ED30
:1059A000080A20EE080A13F063FE0646C0B204F0AF
:1059B000DDFBC6F3072004F0D9FB236803EB850366
:1059C00093ED0B0A20EE080A13F052FE0646C0B211
:1059D00004F0CCFBC6F3072004F0C8FB236803EBFC
:1059E000850393ED0E0A20EE080A13F041FE0646E9
:1059F000C0B204F0BBFB0135C6F3072004F0B6FBD0
:105A0000032DC9D104269FED4D8A01E001350136F1
:105A1000072D236800F091872B44587804F0A6FBEB
:105A2000002004F0A3FB23682B44D87A04F09EFBEB
:105A3000002004F09BFB23682B44587D04F096FB68
:105A4000002004F093FB0A2EE0D117E7002070211C
:105A500004F0AEFB344C0026C6EBC60523686D008F
:105A60002B440136B3F82171F8B204F07FFB380AF9
:105A700004F07CFB23682B44B3F82371F8B204F0E4
:105A800075FB380A04F072FB23682B44B3F82571C8
:105A9000F8B204F06BFB380A04F068FB23682B446F
:105AA00093F8270104F062FB23682B4493F8280144
:105AB00004F05CFB23682B4493F8290104F056FBA7
:105AC00023682B4493F82A0104F050FB23682B44ED
:105AD000D3F82B0104F090FB082EBDD1CEE6124C7A
